:100000000C941C070C9439070C9439070C9439078D
:100010000C9439070C9439070C9439070C94390760
:100020000C9439070C9439070C94991C0C94551CAA
:100030000C9472310C9439070C9439070C943907DD
:100040000C9439070C9439070C9439070C94390730
:100050000C9439070C94B9180C9439070C9439078F
:100060000C9439070C9439070C9439070C94390710
:100070000C9439070C9439070C9439070C94390700
:100080000C9439070C9439070C9439070C943907F0
:100090000C9439070C9439070C9439070C943907E0
:1000A0000C9439070C9439070C943907AAFFFFAA5E
:1000B000FFFFAAFFFFAAFFFFAAFFFFAAFFFFAAFFF9
:1000C000FFAAFFFFAAFFFFAAFFFFAAFFFFAAFFFFE9
:1000D000AAFFFFAAFFFFAAFFFFAAFFFFAAFFFFAA2E
:1000E000FFFFAAFFFFAAFFFFAAFFFFAAFFFFAAFFC9
:1000F000FFAAFFFFAAFFFFAAFFFFAAFFFFAAFFFFB9
:10010000AAFFFF55FFFFAAFFFFAAFFFFAAFFFFAA52
:10011000FFFFAAFFFFAAFFFFAAFFFFAAFFFFAAFF98
:10012000FF55FFFF0000FF1CFFFF1CFFFF1CFFFF30
:1001300055FFFF55FFFF55FFFF55FFFF0000000073
:1001400000000000000000000000000000000000AF
:100150000055FFFF55FFFF55FFFF80FFFF55FFFFD5
:1001600055FFFF55FFFF80FFFF000000AAFFFFAA19
:10017000FFFFAAFFFF55FFFF80FFFF55FFFF55FF61
:10018000FF55FFFF80FFFF0000FFAAFFFFAAFFFF50
:10019000AAFFFF55FFFF80FFFF55FFFF55FFFF55EB
:1001A000FFFF80FFFF000000AAFFFFAAFFFFAAFFDA
:1001B000FF0000FF00000000000000000000000041
:1001C00055FFFF0000000000000000000000FF00DD
:1001D000FFFF1CFFFF2BFFFF55FFFF55FFFF2BFF0E
:1001E000FF1CFFFF00FFFF0000FF00FFFF1CFFFFE1
:1001F0002BFFFF55FFFFAAFFFFAAFFFF55FFFF2BB5
:10020000FFFF1CFFFF00FFFF1CFFFF2BFFFF55FF41
:10021000FFAAFFFFBFFFFFBFFFFFAAFFFF55FFFFC2
:100220002BFFFF1CFFFF2BFFFF55FFFFAAFFFFBFA8
:10023000FFFF0000FF0000FFBFFFFFAAFFFF55FF09
:10024000FF2BFFFF55FFFFAAFFFFBFFFFF0000FFCF
:100250000000FFBFFFFFAAFFFF55FFFF00000000E7
:10026000000000000000000000000000000000008E
:100270000000000000000000000080FF8080FF8080
:1002800080FF8080FF8080FF80EA80FFEA80FFEAB5
:1002900080FFEA80FF00000024FFFFEA80FFEA8081
:1002A000FFEA80FF80FF8080FF8080FF8080FF80EA
:1002B00080FF801CFFFF24FFFF24FFFF24FFFF249B
:1002C000FFFF80FF8000000055FFFF55FFFF00008B
:1002D000000000000000000000000000000000001E
:1002E0000000000000000000FF0000FF0000000010
:1002F00000000000000000000000000000000000FE
:1003000000000000000000000000000000000000ED
:100310000000000000000000000000002BFFFF2B89
:10032000FFFF2BFFFF2BFFFF00000080FFFF7B5A2A
:100330007080FFFF0000000000002BFFFF2BFFFF7D
:100340002BFFFF2BFFFF00000024FFFF1EDADA2443
:10035000FFFF0000000000002BFFFF2BFFFF2BFF23
:10036000FF2BFFFF00000000000000000000000065
:10037000000000000000000000000000000000007D
:10038000000000000000000000000000000000006D
:100390000000000000000000000000FFFF00FFFF61
:1003A00000FFFF00FFFF00FFFF000000EA80FF806A
:1003B000FF80EA80FF00000000FFFF00FFFF00FF5A
:1003C000FF00FFFF00FFFF00000080FF8080FF8034
:1003D00080FF8000000000FFFF00FFFF00FFFF0024
:1003E000FFFF00000000000000000000000000000F
:1003F0000000000000000000FFFF000000000000FF
:1004000000000000000000000000000000000000EC
:1004100000000000000000000000000000000000DC
:100420000055FFFF55FFFF55FFFF00000055FFFF80
:1004300055FFFF55FFFF000000000000AAFFFFAAC4
:10044000FFFFAAFFFF55FFFF55FFFF55FFFF55FFB9
:10045000FF55FFFF55FFFF000000AAFFFFAAFFFFA7
:10046000AAFFFF55FFFF00000055FFFF55FFFF5596
:10047000FFFF55FFFF000000AAFFFFAAFFFFAAFF32
:10048000FF0000FF00000000000055FFFF55FFFFC8
:10049000000000000000000000000000000000005C
:1004A000000000000000000000000000000000004C
:1004B000000000000000000000000000FF00FFFF3F
:1004C00080FFFF2BFFFF2BFFFF000000000000005C
:1004D000000000000000000000FFFF80FFFF80FF21
:1004E000FF80FFFF00FFFF00000000000000000091
:1004F0000000000000002BFFFF0000FF0000FF2BAA
:10050000FFFF2BFFFF0000000000000000000000C4
:10051000000000002BFFFF000000000000EA80FF49
:1005200000000000000000000000000000000000CB
:1005300000000000000000000000000000000000BB
:100540007E0F00D4FFFFFFC700000078000000000E
:10055000000000002A2B280000000000000000001E
:100560000000000000000029000000002C1E3420C4
:10057000212224342627252E362D3738271E1F20EA
:100580002122232425263333362E37381F0405062F
:100590000708090A0B0C0D0E0F1011121314151673
:1005A0001718191A1B1C1D2F3130232D3504050671
:1005B0000708090A0B0C0D0E0F1011121314151653
:1005C0001718191A1B1C1D2F3130354C0001010161
:1005D0000101010101010202020202020202020300
:1005E00003030303030303040404040404040505D0
:1005F0000505050606060606070707070708080893
:1006000008090909090A0A0A0B0B0B0C0C0C0D0D41
:100610000D0E0E0E0F0F0F101011111112121313D9
:100620001414151516161717181819191A1A1B1B52
:100630001C1D1D1E1E1F20202122222324242526AE
:1006400026272829292A2B2C2D2D2E2F30313232E6
:10065000333435363738393A3B3C3D3E3F404142F2
:10066000434445464748494A4C4D4E4F50515354D8
:10067000555658595A5B5D5E5F616264656668698C
:100680006B6C6D6F7072737577787A7B7D7E80820C
:10069000838587888A8C8E8F91939596989A9C9E55
:1006A000A0A2A3A5A7A9ABADAFB1B3B5B7BABCBE65
:1006B000C0C2C4C6C9CBCDCFD1D4D6D8DBDDDFE232
:1006C000E4E7E9EBEEF0F3F5F8FAFDFF01012801AC
:1006D0000435307C6767010435307C010128000156
:1006E00003E1010128010435307C476F6F64204726
:1006F000616D6521010435307C0101280102E100B2
:10070000010128010435307C676C686601043530CE
:100710007C010128000AF6010018F601001FF6010D
:100720000022F601001BF6010006F6010002F601A8
:100730000023F9010089F3010073F901004FF4016E
:10074000004CF60100642700009CF4010008F3014E
:10075000000C2700004DF40100062B00004EF401B0
:1007600000072B000082F30100390001512B00E14A
:1007700000035100001E00140004001D0004512954
:10078000001F001A0016001B00E0004C00200008AB
:100790000007000600E3002A0021001500090019E7
:1007A00000E2000000220017000A0005000000001F
:1007B000002B5D280000002C0000002D5D2C5D4CFE
:1007C0000000002A000000000023001C000B0011A4
:1007D0000000000000240018000D0010002D000093
:1007E0000025000C000E0036002E002C0026001202
:1007F000000F0037002F00280027001300330038B7
:100800000030002900000002513400015103510062
:1008100000000001512B0000000000000000003328
:100820000235023100000029000000240221021ECE
:100830000200004C000000250222021F0200002AD4
:100840000000002602230220020000000000002712
:100850000235003102000000002B5D280000002C52
:100860000000002D5D2C5D4C0000002A00000000FF
:1008700000000000002B0000000000000000002429
:100880000021001E00560000005400250022001F19
:100890000000002700550026002300200000002C47
:1008A00000560057006300580000002900000000B7
:1008B000000000015100000000000000000000E105
:1008C00000000000000000000080C00000000000E8
:1008D0000000008AC582C1000000000000000088FE
:1008E000C484C2000000002A00000090C886C392A1
:1008F000C900000000000014CA8CC68EC7000000AA
:10090000002B5D00000000000000002D5D2C5D004C
:1009100000000000000000000000000000000000D7
:1009200000000000000000000000000000000000C7
:100930000000000000000000000000E100000000D6
:1009400000000000000000000000000000000000A7
:100950000000000000000002510000000000000044
:1009600000000000000000E100035100000000143E
:100970001F04081D080000290000001A1FF4001BB6
:1009800008000000000000081FF60006080000E054
:10099000000000151FF500190800000000000017F6
:1009A0001F0A1F051F000000002B5D000000000053
:1009B0000000002D5D2C5D00000000000000000024
:1009C0000000004A00500000000000000000004E3F
:1009D0000051002D000000000000004B0052002ECE
:1009E000000000E30000004D004F00000050010037
:1009F0000000000000E20000004F0129000F0A0083
:100A00000000000000035100000000000000000092
:100A10000000000000000000000000000004510081
:100A20000000000000AA00AC000000000000000070
:100A300000A800AE000000000000000000A900AB0C
:100A400000000000000000000000000000000000A6
:100A5000002B5D00000000000000002D5D2C5D00FB
:100A60000000000000000000000000000000000086
:100A7000000000000000003A003E004200000000BC
:100A80000000003B003F0043000000000000003C6D
:100A900000400044000000000000003D004100450F
:100AA0000000000000000000000000000000000046
:100AB00000000029004C000E0C0351000000000E45
:100AC000030F0800000451280000001E082008F44D
:100AD000000000160800000C0836003A0000002C48
:100AE000000000000037003E000000000000001D74
:100AF0000A1D080000000000002B5D00000000003F
:100B00000000002D5D2C5D000000000000000000D2
:100B1000000000000000000000000000000000F4E1
:100B200000F2000000000000000000F000F10000F2
:100B300000000000000000F500F3000000000000CD
:100B400000000000000000000000000000000000A5
:100B5000000000000000000000000029000408E17F
:100B6000000351000000000F0215020000000016F3
:100B7000080000160210001B0000004C00000012CC
:100B800000050217001D08E30000001202150018FE
:100B9000001C0800000000000009000C0800000014
:100BA000002B5D00000000000000002D5D2C5D00AA
:100BB0000000000000000000000000000000000035
:100BC00000000000000000240021001E00000000C2
:100BD000003800250022001F000000270025022603
:100BE0000023002000000028002D002E0237002ADC
:100BF0000000002B00000000000000000003510076
:100C000000460800002B00E100E000000000003A70
:100C10000019001E001F0029000000140004000637
:100C2000000000280000001A0016001C0000002C24
:100C3000000000080007000B001100000000001574
:100C4000001B001700000000002B5D2E5D00002F30
:100C50005D00002D5D2C5D00000000000000000024
:100C60000000000000000000000000000000000084
:100C70000000000000000000000000000000000074
:100C80000000000000000000000000000000000064
:100C90000000000000000000000000000000000054
:100CA00000000000000000000005010902A101850C
:100CB000020901A100050919012905150025019561
:100CC000057501810295017503810105010930094E
:100CD000311581257F950275088106093815812512
:100CE0007F950175088106050C0A38021581257F5C
:100CF000950175088106C0C005010980A101850321
:100D000019012AB700150126B70095017510810059
:100D1000C0050C0901A101850419012AA0021501D1
:100D200026A002950175108100C005010906A101E8
:100D30008505050719E029E71500250195087501C6
:100D400081020507190029EF1500250195F07501AD
:100D50008102050819012905950575019102950182
:100D600075039101C005010906A101050719E029D4
:100D7000E715002501950875018102950175088127
:100D8000010507190029FF150026FF0095067508C3
:100D90008100050819012905950575019102950144
:100DA00075039101C009023B00020100A0FA090489
:100DB000000001030101000921110100012240008E
:100DC0000705810308000A0904010001030000006F
:100DD00009211101000122BC000705820320000A3D
:100DE000120110010000000897327449010001024D
:100DF000000116034500720067006F0044006F0099
:100E00007800200045005A00000028035A005300D3
:100E10004100200054006500630068006E006F0010
:100E20006C006F006700790020004C0061006200D8
:100E3000730000000403090411241FBECFEFDAE0A1
:100E4000DEBFCDBF13E0A0E0B1E0ECE6FCE602C0FF
:100E500005900D92A23AB107D9F726E0A2EAB3E0D5
:100E600001C01D92A734B207E1F70E94BB2E0C947B
:100E7000C6350C940000E8EDF0E080818E7F808321
:100E80001092E2001092DA001092E100A0EEB0E0C1
:100E90008C9181608C9380818F77808319BCA7EDC2
:100EA000B0E08C918E7F8C9380818F7E80831092B6
:100EB000070608952091E4003091E50095E6A90128
:100EC0002091EC00822F817020FF06C08091E80005
:100ED00080FF06C080E008952091E80022FD1AC03E
:100EE00080912D06882389F0853089F08091EB0070
:100EF00085FD0FC02091E4003091E50042175307B3
:100F0000F9F29150E1F684E0089582E0089583E0DB
:100F1000089581E00895EF92FF920F931F93CF936E
:100F20007C018B010E945A07C82F811117C0809144
:100F3000E80085FD0BC08091E8008E778093E80083
:100F40000E945A07882399F3C82F08C0F70181919E
:100F50007F018093F1000150110949F78C2FCF9147
:100F60001F910F91FF90EF90089580912F0687FFBA
:100F700013C08091E80082FF06C08091E8008B7763
:100F80008093E80004C080912D068111F2CF08956E
:100F900080912D068823D9F38091E80080FFF8CF57
:100FA0008091E8008E77ECCF982F9093E900242F62
:100FB000762F50E0891731F07091EC002091ED0010
:100FC0005091F00021FD07C09F5F973071F780932B
:100FD000E90081E008953091EB003E7F3093EB0013
:100FE0003091ED003D7F3093ED003091EB003160AA
:100FF0003093EB007093EC002093ED005093F000E1
:101000002091EE0027FDE0CF80E00895CF92DF929F
:10101000EF92FF920F931F93CF93DF93C8EDD0E031
:1010200088818F7E8883E7EDF0E080818160808316
:1010300084E082BF81E08093070688818E7F888369
:1010400002EE10E0F80110821092DA0081EEC82E54
:10105000D12CF601108288818F77888388818068FF
:10106000888388818F7D888319BC10922D06109209
:101070002E0610922C0610922B0690EEE92EF12CE3
:10108000F70180818B7F808388818160888342E043
:1010900060E080E00E94D407F60180818E7F80832B
:1010A000F801808181608083808188608083F7017E
:1010B00080818E7F8083888180618883DF91CF915A
:1010C0001F910F91FF90EF90DF90CF900895FC015A
:1010D000809135069091360686179707A0F0611526
:1010E000710529F49091E8009E779093E80090E0D4
:1010F0006115710551F4911108C08091E80082FFDB
:1011000034C080E00895BC01F2CF80912D06882381
:10111000C1F18530C1F18091E80083FD30C080913C
:10112000E80082FDEACF8091E80080FFE1CF809166
:10113000F3002091F200382F6115710519F0283065
:10114000310558F091E02830310509F090E0209108
:10115000E8002E772093E800CBCF81918093F100B7
:10116000615071092F5F3F4FE7CF80912D06882393
:1011700041F0853041F08091E80083FFBECF81E0EF
:10118000089582E0089583E0089580910A06089505
:101190009091F305803F59F48091F40587FF0DC0CD
:1011A0001092F40591110BC01092EE0508C0813F1A
:1011B00081F48091F40518169CF3992381F08091B5
:1011C000F5059091F605892B09F064C01092EB05A6
:1011D0000895823F49F497FFF0CF1092F305809174
:1011E000F4058111ECCFE0CF833F19F41916ACF36D
:1011F000E4CF2091F505893F29F41216F4F61092F8
:10120000F505DBCF8A3F19F427FFD7CFF8CF209120
:10121000F6058B3F29F427FFD0CF1092F605CDCFEE
:101220008C3F19F41216CCF3C8CF843F31F480916F
:10123000F2058E7F8093F205C0CF853F21F4809127
:10124000F2058D7FF7CF863F21F48091F2058B7FE9
:10125000F1CF873F21F48091F205877FEBCF883F64
:1012600021F48091F2058F7EE5CF8D3F31F480919E
:10127000BA058E7F8093BA05A0CF8E3F21F480916E
:10128000BA058D7FF7CF8F3F09F097CF8091BA05D0
:101290008B7FF0CF08958091BA0580FD16C081FD47
:1012A00016C082FD16C08091EB058823A1F088321C
:1012B00080F428E0829FC001112468E270E00E945F
:1012C0008D32862F672B39F0089582E0089584E0EF
:1012D000089588E0089581E008958091BA0580FD21
:1012E00016C081FD16C082FD18C08091EE058823CE
:1012F00091F08C3390F423E2829FC00111246CE3BF
:1013000070E00E948D32862F672B49F0089588E0A7
:10131000089581E1089585E0089583E2089581E0CC
:101320000895803F31F40E946D0981958093F40502
:101330000895813F19F40E946D09F8CF823F31F47E
:101340000E946D0981958093F3050895833F19F4F8
:101350000E946D09F8CF893F29F40E944B098093C0
:10136000F50508958A3F21F40E944B098195F7CF36
:101370008B3F31F40E944B0981958093F6050895C7
:101380008C3F19F40E944B09F8CF843F31F48091CF
:10139000F20581608093F2050895853F21F48091E4
:1013A000F2058260F7CF863F21F48091F2058460D8
:1013B000F1CF873F21F48091F2058860EBCF883F21
:1013C00021F48091F2058061E5CF8D3F31F4809169
:1013D000BA0581608093BA0508958E3F21F480910B
:1013E000BA058260F7CF8F3FB9F78091BA05846064
:1013F000F1CF9C014FB7F8948091B6059091B70555
:10140000A091B805B091B9054FBF821B930B089509
:101410008091B1059091B005892B9091AF05892BF2
:101420008093A203E091DA05F091DB05309799F003
:1014300090911401992349F09091D40597FF05C02C
:101440008093A30385E08093A2030280F381E02DC3
:1014500082EA93E009940895909114019923D1F0C0
:101460009091D40597FF16C0E82FE695E695E6958E
:10147000EE31E0F4F0E0EE55FC4F282F277081E0CC
:1014800090E001C0880F2A95EAF780959281892320
:1014900082830895E4EAF3E09191891303C0DF01A8
:1014A00011971C9293E0EA3AF907B1F708959091E9
:1014B00014019923C1F09091D40597FF14C0E82F2F
:1014C000E695E695E695EE31F8F4F0E0EE55FC4F42
:1014D000877021E030E001C0220F8A95EAF782810F
:1014E000822B82830895A4EAB3E0EFEF90E02D9180
:1014F000821751F0EF3F19F4211101C0E92F9F5FCE
:101500009630A9F7EF3F09F408950E2E000CFF0B5B
:10151000EE55FC4FE6CFE92FEE0FE90FEE0F8E0FE1
:10152000982F977086958695869525E0829FF00185
:101530001124E858FA4F50E040E080E0219130E07B
:10154000092E02C0369527950A94E2F721703327B9
:10155000042E01C0220F0A94EAF7822B4F5F5F4FDF
:101560004530510559F70895E92FEE0FE90FEE0FB9
:101570008E0F982F977041E001C0440F9A95EAF7BB
:1015800086958695869595E0899FF0011124E85807
:10159000FA4F30E020E070E05191DF011197CB016C
:1015A000022E02C0969587950A94E2F78170819584
:1015B0008527842385278C932F5F3F4F2530310566
:1015C00059F708958091770590914605981301C0C9
:1015D00008958F5F8770FACF882341F080959091AE
:1015E000B00589238093B0050C94080A08958823D8
:1015F00039F09091B005982B9093B0050C94080A9F
:101600000895882341F080959091B10589238093B6
:10161000B1050C94080A0895882339F09091B1051A
:10162000982B9093B1050C94080A089520912B05EE
:1016300030912C052817390771F090932C05809371
:101640002B05E091DA05F091DB05309721F000845D
:10165000F185E02D099408952091290530912A05FE
:101660002817390771F090932A0580932905E09196
:10167000DA05F091DB05309721F00680F781E02D47
:1016800009940895E091DA05F091DB05309711F4A3
:1016900080E008950190F081E02D09950895E09192
:1016A000DA05F091DB05309721F00190F081E02D13
:1016B000099480E00895FA01811101C0FB010994A9
:1016C0008033910538F5880F991F880F991FFC0109
:1016D000EC5DFE4F5281338180818370E181A82FC0
:1016E000B0E070E9879FC00111248D519C4FE80F35
:1016F000F92FF11DB4976083FC01E50FF11DB4973C
:101700004083830F911DFC01B4972083AF51BC4FE0
:1017100081E08C930895FF920F931F93CF93DF93F3
:10172000182F062FF42ED0E0C0E02F2D402F612F70
:10173000CE010E94600B2196C033D105B1F7DF9135
:10174000CF911F910F91FF90089580913E06837075
:1017500011F41092150180913E068C7F8160809378
:101760003E0608950C948B0B0C94600B0F931F9303
:1017700010E0F801EE0FFF1FEF5EFC4F90819057D5
:1017800097FD9195000F111FF801EE5EFC4F00814F
:101790000052110B2003F001219FF00D112408E3EA
:1017A00010E0091B110997FD139540039001419F1B
:1017B000300D1124E20FF31F9F01220F331F2E0F54
:1017C0003F1F37FF02C021583F4F220F232F221FF8
:1017D000330B620F1F910F9108950F931F93522F98
:1017E00010E0F801EE0FFF1FEE5EFC4FA081A0524B
:1017F000BB0B9D015203F001539FF00D1124000F0C
:10180000111FD801AF5EBC4F0C910057110B400364
:101810009001419F300D11242E0F3F1F37FF02C052
:10182000215C3F4F96E0359527959A95E1F7620F39
:101830001F910F9108950F931F93522F10E0F801FD
:10184000EE0FFF1FEE5EFC4FA081A052BB0B9D016F
:101850005203F001539FF00D1124000F111FD80106
:10186000AF5EBC4F0C910057110B40039001419F9C
:10187000300D11242E0F3F1F37FF02C021583F4F5C
:10188000220F232F221F330B620F1F910F910895F8
:10189000EF920F93972F23E0029FB00111247595CB
:1018A00067956E0D792F0F91EF900895322F50E0CC
:1018B000FA01EE0FFF1FEE5EFC4F9081905297FDF4
:1018C0009195440F551FFA01EF5EFC4F2081231BB9
:1018D000330B290F311D97FD3A95620F0895E42FC0
:1018E000F0E0EE0FFF1FEE5EFC4F6081621B08957B
:1018F000E42FF0E0EE0FFF1FEF5EFC4F6081621BF4
:101900000895622F0895E42FF0E0EE0FFF1FEF5EC1
:10191000FC4F408134EE439F412D1124E82FF0E02D
:1019200050E0445E5F4FDA01A21BB1099D01B7FF91
:1019300003C031952195310993E0220F331F9A9509
:10194000E1F7AF01421B530B9A0157FD20E0582FDE
:10195000259F212D1124822F0895E42FF0E0EE0F12
:10196000FF1FEF5EFC4F408134EE439F412D112459
:10197000E72FF0E050E0445E5F4FDA01A21BB109AF
:101980009D01B7FF03C031952195310993E0220FE6
:10199000331F9A95E1F7AF01421B530B9A0157FD94
:1019A00020E0279F212D1124722F0895FC019B0117
:1019B000009729F480E077FF2BC080E80895AC0100
:1019C00097FF04C044275527481B590BB901640FE2
:1019D000751F37FD10C0241B350BC901A5E0880F0A
:1019E000991FAA95E1F70E948D3280E2861BF7FFCE
:1019F0000FC081950895CB0165E0880F991F6A9506
:101A0000E1F7BA01621B730B0E948D3280E6EECFC4
:101A10000895EF920F93CF93DF93D72FC82FC9016B
:101A20000E19BA010E94D60C602F681B7D2F8C2FD7
:101A3000DF91CF910F91EF9008950F93CF93DF93A4
:101A4000D72FC82FC901BA010E94D60C682F600F8A
:101A50007D2F8C2FDF91CF910F910895EF920F93EF
:101A60001F93CF93DF93D62FC72F182FC9010E19BD
:101A7000010FBA010E94D60C081B202F219F212D97
:101A80001124822F6D2F7C2FDF91CF911F910F9109
:101A9000EF900895EF920F931F93CF93DF93D62F7C
:101AA000172FC82FC9010E19070FBA010E94D60CB3
:101AB000702F781B719F712D11246D2F8C2FDF914A
:101AC000CF911F910F91EF9008950F931F93CF9394
:101AD000DF93D62FC72F182FC901212F201B022FCC
:101AE000BA010E94D60C982F990F990F891B800F6D
:101AF000282F219F212D1124822F6D2F7C2FDF91E4
:101B0000CF911F910F9108950F931F93CF93DF9360
:101B1000D62F172FC82FC901272F201B022FBA013C
:101B20000E94D60C982F990F990F782F791B700F60
:101B3000719F712D11246D2F8C2FDF91CF911F91EB
:101B40000F910895E82F86FDE0952E2F2F7086FDCA
:101B50002F5FE695E695E695E670F0E0E45EFE4FD1
:101B60009181929F902D212D112492959F70229505
:101B7000207F922B2081920F87FD919580E8890F1D
:101B80000895AC018230910508F408959FEF413E1D
:101B90008EE1580740F49A0195E0369527959A957D
:101BA000E1F798E0920F61E0E62FE90FFF27FF1FB2
:101BB0009F0135952795822F229FF001239FF00DDD
:101BC000F00D11244E175F0738F49FEF920F961710
:101BD00058F78FEF860F08952F3FE9F361E0620F0A
:101BE000F6CF0F93CF93DF93D72FC82F47FD4195A3
:101BF00088E390E0841B910947FD9395889FB0018D
:101C0000899F700D700D1124229FC001239F900D9C
:101C1000900D1124860F971F0E94C10D982F990FC8
:101C2000890F682F600F7D2F8C2FDF91CF910F913F
:101C3000089530E020E0869F212D969F200D311DD4
:101C40001124C9010895AF92BF92CF92DF92FF9203
:101C50000F931F93CF93DF93362F472FE82FF0E09A
:101C6000E453FA4F71110FC0E4918E2F2E2F6E2F77
:101C7000722FDF91CF911F910F91FF90DF90CF9046
:101C8000BF90AF900895C72FD0E02491F22E022F7D
:101C900010E056E0659FC0011124EFEFF0E0BF01B6
:101CA0000E947932832F90E0880F991F35E5369F87
:101CB000D001379FB00D11248A1B9B0B982F990FD1
:101CC000980F6F01CC1ADD0AC09ED001C19EB00DE5
:101CD000D09EB00D11248B2F499FA0011124452FB8
:101CE00055276F01C41AD50AC09EA001C19E500D90
:101CF000D09E500D11245F01A91AB108AC9E60015D
:101D0000AD9ED00CBC9ED00C1124CD2CDD24EC1942
:101D1000FD09E09FE001E19FD00DF09FD00D11245F
:101D2000ED2F62307105A1F050F46115710509F4D1
:101D30009ECF6130710581F0EB2F852F98CF6430F5
:101D4000710569F080F06630710509F490CFF4CF29
:101D5000E22F2B2F8D2F8BCFE22F252F88CFEB2F2C
:101D6000822F2D2F84CF2B2F8F2DE52F80CF9F9269
:101D7000AF92BF92CF92DF92EF92FF920F931F9399
:101D8000CF93DF936C0180911601C82FCC0FCC0F3D
:101D9000C80F15E01C0FB12E113310F030E3B32E35
:101DA000609142066695669580913A0690913B0651
:101DB0000E94190EF82E80E48F0D0E94A20D90E86B
:101DC000A92EA80E8F2D0E94A20D20E8922E980E0B
:101DD000D0E0CB1580F081E0103308F080E0DF9197
:101DE000CF911F910F91FF90EF90DF90CF90BF9018
:101DF000AF909F900895FE01EF58FC4F8081909125
:101E000017018923A1F060913F06709140068091EF
:101E10004106EF2C0C2F292D4A2DF60109950E9421
:101E2000230E462F282F672FCE010E94B40B219638
:101E3000D0CF7F928F929F92AF92BF92CF92DF923C
:101E4000EF92FF920F931F93CF93DF935C018091EA
:101E50001601C82FCC0FCC0FC80F15E01C0FF12EA8
:101E6000113310F030E3F32E6091420666958091B5
:101E70003A0690913B060E94190E782ED0E0CF15BD
:101E800090F081E0103308F080E0DF91CF911F9156
:101E90000F91FF90EF90DF90CF90BF90AF909F9009
:101EA0008F907F900895FE01EF58FC4F80819091B4
:101EB00017018923C9F1CE01880F991F83549D4FC3
:101EC000FC01EC5AFF4F2081422F4057550B6A010D
:101ED0008B5A9F4FFC018081282F2052330B4901E0
:101EE000449F9001459F300D300D1124889CC00106
:101EF000899C900D900D1124820F931F0E94C10D9B
:101F0000082F60913F067091400680914106E72CB2
:101F10009401A601F50109950E94230E462F282F52
:101F2000672FCE010E94B40B2196A9CFCF92DF92EA
:101F3000EF92FF920F931F93CF93DF937C018091D9
:101F40001601C82FCC0FCC0FC80F15E01C0FD12ED7
:101F5000113310F030E3D32E6091420666958091E4
:101F60003A0690913B060E94190EC82ED0E0CD157E
:101F700068F081E0103308F080E0DF91CF911F918D
:101F80000F91FF90EF90DF90CF900895FE01EF58F2
:101F9000FC4F808190911701892311F1CE01880FA8
:101FA000991F83549D4FFC01EB5AFF4F2081205213
:101FB000330B8C5A9F4FFC0140814057550B609169
:101FC0003F0670914006809141060C2DF70109955E
:101FD0000E94230E462F282F672FCE010E94B40B9C
:101FE0002196C5CFDF92EF92FF920F931F93CF936D
:101FF000DF937C0180911601C82FCC0FCC0FC80F46
:1020000015E01C0F012F113308F000E36091420628
:102010006695669580913A0690913B060E94190E4E
:10202000D82ED0E0C01760F081E0103308F080E0D7
:10203000DF91CF911F910F91FF90EF90DF90089566
:10204000FE01EF58FC4F808190911701892391F098
:1020500060913F0670914006809141062D2D4C2FD6
:10206000F70109950E94230E462F282F672FCE01D6
:102070000E94B40B2196D6CF9091D40592FF06C052
:10208000282F28712830F9F4877F846093FF06C0D9
:10209000282F28712831F1F4877E84612091D5059D
:1020A00020FF06C0382F38713830D9F4877F81601F
:1020B00021FF06C0282F28712831D1F4877E816145
:1020C00094FD877E0895282F24712430F9F68B7FA4
:1020D0008860DCCF282F2471243101F78B7E886142
:1020E000DDCF382F3171313019F78E7F8860E0CF26
:1020F000282F2171213121F78E7E8861E1CFCF9386
:10210000DF93972F70E026E0929F600D711D1124E0
:10211000FB0134E5839FE00DF11D1124EE0FFF1F3D
:10212000E759F84FC591D491CE01C238D105B9F124
:10213000E8F5C133D10509F499C050F5C932D1058C
:1021400009F48DC0CA32D10509F497C0C11541E523
:10215000D40708F0BFC0C11550E5D50708F031C15C
:10216000C83ED10508F09DC0C13ED10568F5C83A0A
:10217000D10508F089C0C53AD10508F01AC1C130AF
:10218000D10511F1209709F443C02497E8F440C029
:10219000C533D10509F45CC0C933D105B9F6209126
:1021A000D405237089F080EE90E00EC0C33ED105C7
:1021B00091F168F4C03ED105F9F0C23ED10531F687
:1021C0002091D40522FD20C0DF91CF910895C63E15
:1021D000D10561F1C73ED10581F1C43ED10509F0B9
:1021E000B5CF2091D50521FFEFCF8091D40584FD97
:1021F0000FC087EE90E0E8CF2091D40520FD0BC101
:102200003091D50530FFE0CF83EE90E024FFDCCFA6
:1022100090E080E0D9CF2091D40522FDFFC030911D
:10222000D50530FDC0CF24FFCFCFF2CF2091D4050C
:1022300023FFCACF24FDECCFDCCF2091D40523FDB2
:10224000F0C03091D50531FFEECF84EE90E0BCCFE9
:102250002091D40525FFB8CF89E290E0B5CF209139
:10226000D40525FFB1CF85E390E0AECF2091D40512
:1022700026FFAACF8AE290E0A7CF2091D40526FFBF
:10228000A3CF81E390E0A0CFCF3BD10508F6C85A99
:10229000D0E0CC0FDD1FC157DD4F88819981946458
:1022A00093CFC11520E2D20760F4C11531E0D30706
:1022B00008F08ACFCE019065C03FD10508F084CFE9
:1022C000A7CFC11540E4D40708F4A2CFCE019F7078
:1022D000906A7ACFC11559E5D507F0F5C11588E5A3
:1022E000D80708F08FC0C11593E5D907C8F4C11508
:1022F00022E5D20708F481C09E012370332781E0D4
:1023000090E0AC0102C0440F551F2A95E2F79A01F4
:102310008C2F8695869550E2859FC001112469C057
:10232000C11534E5D30708F073CF9E01237033271E
:1023300081E090E0AC0102C0440F551F2A95E2F7FE
:102340009A018C2F8695869550E2859FC0011124B5
:10235000822B932B9A6838CFC1154CE5D407B8F47B
:10236000C1155BE5D50708F052C0C1158AE5D8074D
:1023700008F04ECF8C2F8F700E943C1034E0D69521
:10238000C7953A95E1F7CF709C2F90691DCFCE018C
:1023900090568115904208F03BCF8D2F8F710E948F
:1023A0003C1090E0982F882788279F718C2B906293
:1023B0000BCFC55AD0E0C457DD4F888190E09064C0
:1023C00003CF9E0164E0369527956A95E1F7237067
:1023D0008C2F86958695837030E2839FC0011124EF
:1023E000922BC37021E030E002C0220F331FCA9548
:1023F000E2F7822B932B9C68E7CE9C2F8827816F76
:10240000906AE2CE9C2F8827806F906ADDCECE0145
:1024100099279066D9CE89E390E0D6CE82EE90E0FF
:10242000D3CE86EE90E0D0CEBF92CF92DF92EF92E5
:10243000FF920F931F93CF93DF938C01C090D6052B
:10244000D090D705E090D805F090D9058091B205DD
:102450009091B305A091B405B091B505C82AD92AC9
:10246000EA2AFB2ACFE1D0E0BC2ED701C6010C2E10
:1024700004C0B695A795979587950A94D2F780FDE5
:102480000EC0219788F7B12C8B2DDF91CF911F9132
:102490000F91FF90EF90DF90CF90BF900895B8011B
:1024A0008C2F0E947F10019761F3EECFCF93DF93C3
:1024B000EC010E941412BE01DF91CF910C947F10A9
:1024C0000E945612292F2F7092959F7092509E3025
:1024D00078F4E92FF0E0E853FA4C0C94A132803FF5
:1024E00019F020F4883E20F481E00895843FE1F360
:1024F00080E00895883EC0F3813FD1F7F5CF822F69
:102500008695869586950895CF92DF92EF92FF92F9
:102510006C01EE24FF2420E0C114D104E104F10495
:1025200019F0C701B60120E1C72ED82EE92EFF24ED
:10253000C114D104E104F10419F0285FC701B60108
:102540006B017C0154E0F694E794D794C7945A95B4
:10255000D1F7C114D104E104F10419F02C5FC701D3
:10256000B6016B017C0142E0F694E794D794C794DE
:102570004A95D1F7C114D104E104F10419F02E5F9A
:10258000C701B6019695879577956795672B682B58
:10259000692B09F02F5F822FFF90EF90DF90CF9093
:1025A0000895CF93DF939C013A9521153F4168F53B
:1025B000EC01CC27D170DC01AA27B270AC01442712
:1025C00054709C012227387094FF11C080E1CD2BFC
:1025D00009F480E0AB2B09F08062452B09F08064A0
:1025E000232B09F08068FB01DF91CF91099481E0F2
:1025F000CD2B09F480E0AB2B09F08260452B09F06C
:102600008460232B81F38860EECFDF91CF91089512
:10261000BF92CF92DF92EF92FF920F931F93CF93CF
:10262000DF93EA01FB01EE0FFF1FE60FF71F20E922
:10263000AC01249FC001259F900D11248E0F9F1F78
:10264000FC01E455FF4F6491FC01E355FF4F749189
:1026500082559F4FFC018491962F972B982B79F4EC
:1026600020E040E060E0CE01DF91CF911F910F911B
:10267000FF90EF90DF90CF90BF900C94B40B0E942E
:10268000230E8B01B82E6091410670E090E080E04F
:102690000E94A03320E030E04FE753E40E94FF3275
:1026A0006B017C016B2D70E090E080E00E94A23312
:1026B000A70196010E942E340E947133B62E602F1E
:1026C00070E090E080E00E94A233A70196010E9492
:1026D0002E340E947133062F612F70E090E080E06D
:1026E0000E94A233A70196010E942E340E947133EA
:1026F0002B2D402FB8CF40E060E080E00E94B20B6D
:1027000040E060E080E00E94B20B81E08093080628
:10271000089527982F98089526982E98089525981B
:102720002D98089556985E980895279A2F9A08959F
:10273000269A2E9A0895259A2D9A0895CF92DF927F
:10274000EF92FF926B017C010E949213C701B601C8
:102750000E9484128032C0F4E82FF0E0EA52FA4C72
:102760000C94A1320E948F130E948C130BC00E9404
:102770008F130E948C130E94951306C00E948F1322
:102780000E9498130E948913C701B601FF90EF9031
:10279000DF90CF9008950E948F130E949813EBCF83
:1027A0000E949B13E1CF0E949B13E3CF0E949B13D7
:1027B000E7CF0E949B13F1CF209828982198299861
:1027C00022982A9823982B9852985A9853985B9855
:1027D0003E98469808958098889A8198899A849816
:1027E0008C9A85988D9A86988E9A87988F9A089554
:1027F000CF9384E090E00E94B732C82F81E290E04E
:102800000E94B732982F8C2FCF910895CF93DF93EA
:1028100000D00F92CDB7DEB790912D06943019F508
:1028200089837B836A8382E08093E9008FEF9091B4
:10283000E800815095FD06C095ED9A95F1F70000EE
:102840008111F5CF8091E80085FF0DC050E040E098
:1028500063E070E0CE0101960E948B078091E80052
:102860008E778093E8000F900F900F90DF91CF91BB
:102870000895BC0184E00C940614BC0183E00C9420
:1028800006149C0182E08093E9009FEF8091E800AC
:10289000915085FD06C085ED8A95F1F700009111F4
:1028A000F5CF8091E80085FF0CC050E040E066E085
:1028B00070E0C9010E948B078091E8008E778093B9
:1028C000E8000895CF93DF93EC01809114018823F1
:1028D000B1F18091D40587FF32C060E282E080933D
:1028E000E9008FEF9091E800815095FD06C095EDCD
:1028F0009A95F1F700008111F5CF8091E80085FFEE
:102900001BC08091140170E050E040E0811104C0D0
:1029100050E040E068E070E0CE010E948B078091BB
:10292000E8008E778093E80080E2FE01ABE0B6E03D
:1029300001900D928A95E1F7DF91CF91089568E0BB
:1029400081E0CDCF0E9492130E948F130E948C13BE
:102950000E9489138FEF90E0909389008093880004
:1029600090938B0080938A0090938D0080938C00CD
:102970000E949B132FEF80E792E02150804090400F
:10298000E1F700C000000E9498132FEF80E792E06B
:10299000215080409040E1F700C000000E94951354
:1029A0002FEF80E792E0215080409040E1F700C097
:1029B00000000E948F132FEF80E792E021508040AB
:1029C0009040E1F700C000000E948C132FEF80E7D9
:1029D00092E0215080409040E1F700C000000E944A
:1029E00089130E9492130E948F130E948C130C94DF
:1029F00089131092BD051092BE0560E08CE090E056
:102A00000C94DB326CEE7EEF90E080E00E94F932B5
:102A100060E082E090E00E94DB3260E083E090E0E2
:102A20000E94DB321092B2051092B3051092B405E9
:102A30001092B50560E084E090E00E94DB3260E037
:102A400081E290E00E94DB3260E085E090E00E944D
:102A5000DB3260E086E090E00E94DB326FEF87E0DF
:102A600090E00E94DB3240E050E0BA0188E090E064
:102A70000E94ED3260E08DE090E00E94DB3240E0A9
:102A800050E0BA0188E190E00E94ED3260E087E119
:102A900090E00E94DB3240E050E0BA018CE190E02F
:102AA0000E94ED3260E080E290E00E94DB3240E084
:102AB00050E0BA0188E190E00E94ED321092C20528
:102AC0001092C3051092C4051092C50584E0806180
:102AD0008093C2054091C2055091C3056091C40521
:102AE0007091C5058FE090E00E94ED3240E050E02B
:102AF000BA0183E190E00C94ED320F931F93CF93D2
:102B0000DF93082F000FEB0114E21093CD03EEECDE
:102B1000F3E0DE018D91819383E0EE3DF807D1F77C
:102B200024E630E041E150E06DEC73E0802F0E943C
:102B30004E32105F6096143B41F7DF91CF911F91A9
:102B40000F9108958091E103882329F063EE73E0EB
:102B500084E70E947D151092E1038091E2038823AF
:102B600029F063E774E087E70E947D151092E20385
:102B70000895EDECF3E06083418324E630E042E029
:102B800050E0BF01880F0C944E32EF92FF920F93EA
:102B90001F93CF93DF93E82E062F10E0095D1A4FA5
:102BA000F8018081882381F0F2E16F9FE001112418
:102BB000CD5FDA4FF12C49916F2D8E2D0E94B91502
:102BC000F39482E1F812F7CFF8011082DF91CF91F0
:102BD0001F910F91FF90EF900895CF93DF93C82F2F
:102BE0004BE06DEF0E94B91540E06AE08C2F0E9427
:102BF000B9158FE39CE90197F1F700C0000040E0B0
:102C000060E08C2F0E94B91540E061E08C2F0E949B
:102C1000B91540E066E08C2F0E94B91540E06DEFD9
:102C20008C2F0E94B915D0E040E06D2F8C2F0E94B0
:102C3000B915DF5FD231C1F740E06D2F8C2F0E94B4
:102C4000B915DF5FD432C1F740E06D2F8C2F0E94A1
:102C5000B915DF5FD43BC1F74BE06DEF8C2F0E94BD
:102C6000B91541E06AE08C2F0E94B91540E06DEF84
:102C70008C2FDF91CF910C94B9156F927F928F9228
:102C80009F92AF92BF92CF92DF92EF92FF920F93FB
:102C90001F93CF93DF930E94993184E70E94ED1533
:102CA00087E70E94ED1564E2E62E61E0F62ED12C56
:102CB000C12C72E1772EE8E08E2E912CAA24A394E9
:102CC000B12C66246394F701418150E0CA018497D6
:102CD00002810452110BC381C452DD0BF601EE0FC9
:102CE000FF1FEE0FFF1FEC5DFE4F2081237030E0D1
:102CF000FC0197FD379643E0F595E7954A95E1F796
:102D0000729EA001739E500D11244D5F5A4FE40F27
:102D1000F52FF11DB4010E948D32A50101C0440FB1
:102D20008A95EAF78081842B8083F80117FD379616
:102D300093E0F595E7959A95E1F7729EC001739E31
:102D4000900D11248D5F9A4FE80FF92FF11DC801E6
:102D5000B4010E948D32A50101C0440F8A95EAF7A3
:102D60008081842B8083FE01D7FD379683E0F59523
:102D7000E7958A95E1F7729EC001739E900D11242C
:102D80008D5F9A4FE80FF92FF11DCE01B4010E941B
:102D90008D32A50101C0440F8A95EAF78081842B0A
:102DA0008083295D3A4FF9016082FFEFCF1ADF0A75
:102DB00084E0E80EF11CE0E3CE16D10409F083CFE5
:102DC00060E084E70E94C51561E087E7DF91CF915D
:102DD0001F910F91FF90EF90DF90CF90BF90AF9039
:102DE0009F908F907F906F900C94C51545E050E0B8
:102DF0006CE170E08EE396E00C94CB3290913E064D
:102E0000937089F0811107C0946090933E061092F0
:102E100015010C94F616863110F09465F6CF880FE4
:102E2000880F982BF2CF089580913E06869586955F
:102E3000815009F485E10C94FE1680913E0686953A
:102E400086958F5F863108F081E00C94FE16909194
:102E50003E06937041F080933F0660934006409396
:102E600041060C94F6160895EEE3F6E0438120E166
:102E7000421B08F440E08181628190E00C942717A6
:102E8000EEE3F6E0438120E1420F08F44FEF818149
:102E9000628190E00C942717EEE3F6E0628120E176
:102EA000621B08F460E08181438190E00C94271755
:102EB000EEE3F6E0628120E1620F08F46FEF8181BA
:102EC000438190E00C942717EEE3F6E08181438183
:102ED00062818850990B0C942717EEE3F6E081810C
:102EE00090E04381628108960C942717EEE3F6E0A8
:102EF000248130E1230F08F42FEF24830C94F6167D
:102F0000EEE3F6E0248130E1231B08F420E0248383
:102F10000C94F616EEE3F6E081E3808380911901CC
:102F200090911A01A0911B0181839283A3838FE763
:102F300084830C94F6160E943D1690E080E00E9477
:102F4000C5328C3E9E4F21F00E9402150E948A17C6
:102F500045E050E06CE170E08EE396E00E94A7321D
:102F600080913E068C7F11F40C948A17089580E2BC
:102F700090E090930901809308018091C203811130
:102F80000EC00E94993181E08093C2032FEF83ED40
:102F900090E3215080409040E1F700C0000064E6DB
:102FA00070E080E40E949F319093090180930801B2
:102FB000892B09F04EC064E670E080E00E94FB318E
:102FC0009093090180930801892B09F042C064E6BF
:102FD00070E080E00E94FB3190930901809308012A
:102FE000892BB9F564E670E08FE30E94FB31909382
:102FF000090180930801892B61F50E94753264E60E
:1030000070E080E40E949F31909309018093080151
:10301000892BF9F464E670E08CE00E94FB31909318
:10302000090180930801892BA1F464E670E080E037
:103030000E94FB319093090180930801892B49F488
:1030400064E670E08FE30E94FB3190930901809366
:1030500008010E947532809108010895CF93C82F0E
:10306000873070F58091080190910901892B89F5CD
:1030700064E670E080E40E949F31909309018093A0
:103080000801892BD1F464E670E082E10E94FB31F3
:103090009093090180930801892B79F481E090E0F5
:1030A00001C0880FCA95EAF764E670E080950E9437
:1030B000FB319093090180930801CF910C947532F4
:1030C0008A30B9F040F4883071F0893079F0209A74
:1030D0002898CF9108958C3091F070F08D30B9F729
:1030E0003E9A4698F6CF219A2998F3CF229A2A98A9
:1030F000F0CF239A2B98EDCF529A5A98EACF539A51
:103100005B98E7CFCF93873050F58091080190917D
:103110000901C0E0892B71F464E670E081E40E944B
:103120009F319093090180930801892B31F0C0E011
:103130000E9475328C2FCF91089584E690E00E9412
:103140002A3297FF05C09093090180930801EFCFC1
:10315000C82FC0951092090110920801E9CFCFB194
:103160008FB1869586958C73C3708C2BC82FC095B4
:10317000E1CF78941F921FB61F9211248F939F93D3
:10318000AF93BF938091B6059091B705A091B80514
:10319000B091B9050196A11DB11D8093B60590931C
:1031A000B705A093B805B093B905BF91AF919F91B2
:1031B0008F911F901FBE1F9018952FB7F894809184
:1031C000B6059091B705A091B805B091B9052FBF8C
:1031D00008950E94DD189C019091F3058091F405FB
:1031E000982B21F03093F0052093EF059091F50591
:1031F0008091F605982B21F03093ED052093EC0596
:10320000E091DA05F091DB05309749F082E0809398
:10321000F1050480F581E02D81EF95E00994089592
:103220001092B0051092AF050E94080A86E0E1EF07
:10323000F5E0DF011D928A95E9F71092EE051092F4
:10324000EB051092BA050E94E91890E080E00E9418
:103250002C0B90E080E00C94160B0E949E13609360
:10326000D6057093D7058093D8059093D9050C9413
:1032700010190F931F9341E050E060E070E004C02C
:10328000440F551F661F771F8A95D2F7CB01BA01ED
:1032900060957095809590950091D6051091D70511
:1032A0002091D8053091D90560237123822393237F
:1032B0001F910F910C942D190F931F9341E050E033
:1032C00060E070E004C0440F551F661F771F8A95A9
:1032D000D2F78091D6059091D705A091D805B091ED
:1032E000D9058A019B01082B192B2A2B3B2BC901DD
:1032F000B8011F910F910C942D196093B205709332
:10330000B3058093B4059093B5050C9410191092F1
:10331000B10580911401E4EAF3E0882359F080912B
:10332000D40587FF07C08EE1DF011D928A95E9F77A
:103330000C94101986E0F8CF1F93CF93DF93CDB78D
:10334000DEB7AA970FB6F894DEBF0FBECDBF8FE2EF
:1033500096E02091F100FC012193CF01F6E0873344
:103360009F07B9F780913006833009F46FC0B8F435
:10337000813009F446C0823009F4B0C08091E80081
:1033800083FF7BC280912F06909130069A3008F01F
:1033900074C2E92FF0E0EA50FA4C0C94A1328A3062
:1033A00009F48BC08B3009F46EC0893039F78091F5
:1033B0002F06813219F780913306909134060297D7
:1033C000E8F68091E800877F8093E8008091E8002C
:1033D00082FF37C09091F3008091F200029729F4A8
:1033E0008091F1008B7F813021F48091F1008093F6
:1033F0000A068091E8008B778093E8000E94B50769
:10340000BDCF80912F06813A09F0B8CF8091E800B6
:10341000877F8093E8008091330690913406892B52
:1034200061F460E28BE096E070E00E9467088091B2
:10343000E8008B778093E800A1CF60E090E080E027
:10344000F3CF80912D068111C1CF98CF80912F06A7
:10345000813A09F093CF8091330690913406892BFD
:1034600009F08CCF8091E800877F8093E8008091FD
:10347000E80080FFFCCF809114018093F1008091DF
:10348000E8008E77B9CF80912F06813209F076CF90
:103490008091330690913406892B09F06FCF80918B
:1034A000E800877F8093E8000E94B507809131068D
:1034B000809314010E94871961CF80912F06813279
:1034C00009F05CCF8091E800877F8093E8000E943C
:1034D000B507809132068093090650CF80912F0660
:1034E000813A09F04BCF8091E800877F8093E80014
:1034F0008091E80080FFFCCF80910906BECF803824
:1035000099F0823809F0B9C1809133068F70873005
:1035100008F0B3C18093E9008091EB0085FB882718
:1035200080F91092E90006C080912B0690912C063C
:10353000911182609091E800977F9093E8008093CA
:10354000F1001092F1008091E8008E7792C18823FB
:1035500009F480C1823009F090C180913106811157
:1035600083C1809133068F702FEF280F263008F02B
:1035700084C18093E9002091EB0020FF75C1933056
:1035800031F48091EB0080628093EB006DC19091EB
:10359000EB0090619093EB0021E030E001C0220F3E
:1035A0008A95EAF72093EA001092EA008091EB00F6
:1035B0008860EACF811161C1109131061F77809137
:1035C000E3008078812B8093E3008091E800877F7F
:1035D0008093E8000E94B5078091E80080FFFCCF4F
:1035E0008091E30080688093E30082E0111183E022
:1035F00080932D0642C18058823008F03EC18091F0
:103600003106909132068C3D23E09207A1F583E0CC
:103610008A838AE289834FB7F894DE01139620E00B
:103620003EE051E2E32FF0E050935700E49120FF99
:1036300003C0E295EF703F5FEF708E2F90E0EA30AD
:10364000C0F0C7968D939D932F5F243159F74FBFDC
:103650008091E800877F8093E8006AE270E0CE0105
:1036600001960E9467088091E8008B778093E800BC
:1036700004C1C096E7CF4091330650913406292FFC
:1036800033272330310509F444C078F52130310562
:1036900009F46FC08BE390E0E5EAFDE022303105EC
:1036A00009F0EBC02091E800277F2093E8002091EB
:1036B0003506309136068217930708F49C0140E0E6
:1036C0002115310509F064C0411162C08091E80004
:1036D00082FDC9CF80912D06882329F2853019F209
:1036E0008091E80083FFF2CFBECF21323105A9F1EE
:1036F0002232310509F0C1C04115510509F443C01A
:103700004130510509F0B9C08CEB90E0E9EAFCE0EA
:10371000C9CF992781309105C1F0009759F00297E0
:1037200009F0ABC0E2EFFDE0E4918E2F90E0E2EF14
:10373000FDE007C0E4E3FEE0E4918E2F90E0E4E3D7
:10374000FEE0009709F499C0ADCFEAE0FEE0E49115
:103750008E2F90E0EAE0FEE0F4CF4115510571F0C4
:103760004130510509F089C089E090E0E0EDFDE0CD
:1037700099CF82E190E0E0EEFDE094CF89E090E027
:10378000E7EBFDE08FCF80E490E0E5E6FDE08ACF57
:1037900080912D06882309F466CF853009F463CF24
:1037A0008091E80083FD5FCF8091E80082FD8ECF9D
:1037B0008091E80080FF84CF9091F3008091F20027
:1037C0002115310519F08830910550F041E0089736
:1037D00009F040E08091E8008E778093E80070CF98
:1037E00044914093F1003196215031090196E8CF80
:1037F000803809F042C08091E800877F8093E8001C
:1038000080912E068093F1009ECE811136C01091DA
:103810003106123090F58091E800877F8093E800B0
:1038200010932E060E94B507112311F084E005C005
:103830008091E30087FDFACF81E080932D0642E07E
:1038400061EC81E00E94D40742E261EC82E00E94D8
:10385000D40713C080913106813079F481E0933030
:1038600009F080E080932C061092E9008091E80036
:10387000877F8093E8000E94B5078091E80083FF6E
:103880000AC08091E800877F8093E8008091EB0078
:1038900080628093EB00AA960FB6F894DEBF0FBE4D
:1038A000CDBFDF91CF911F9108951F920F920FB658
:1038B0000F9211242F933F934F935F936F937F93B6
:1038C0008F939F93AF93BF93CF93DF93EF93FF9328
:1038D000D091E900DF708091EC00C82FC17080FDAD
:1038E000C0E81092E9008091F000877F8093F0009B
:1038F00078940E949C191092E9008091F0008860F1
:103900008093F000CD2BCF70C093E900FF91EF9131
:10391000DF91CF91BF91AF919F918F917F916F91E7
:103920005F914F913F912F910F900FBE0F901F907D
:1039300018951F920F920FB60F9211242F933F9359
:103940004F935F936F937F938F939F93AF93BF93A7
:10395000EF93FF938091E10082FF09C08091E20024
:1039600082FF05C08091E1008B7F8093E100809110
:10397000DA0080FF24C08091D80080FF20C08091B1
:10398000DA008E7F8093DA008091D90080FFA1C099
:1039900080E189BD82E189BD09B400FEFDCF81E0EF
:1039A00080932D0680910706811109C00E943B0774
:1039B0000E9406088091E20084608093E20080917A
:1039C000E10080FF17C08091E20080FF13C080916A
:1039D000E2008E7F8093E2008091E200806180931C
:1039E000E2008091D80080628093D80019BC85E005
:1039F00080932D068091E10084FF2FC08091E2002A
:103A000084FF2BC080E189BD82E189BD89B5982FF3
:103A1000917080FFFBCF8091D8008F7D8093D8007C
:103A20008091E1008F7E8093E1008091E2008F7EA3
:103A30008093E2008091E20081608093E2008091B7
:103A40002E06882309F44BC084E080932D060E9443
:103A500087190E944F0B109208068091E10083FFA6
:103A600027C08091E20083FF23C08091E100877F1F
:103A70008093E10082E080932D0610922E068091C3
:103A8000E1008E7F8093E1008091E2008E7F809341
:103A9000E2008091E20080618093E20042E060E019
:103AA00080E00E94D4078091F00088608093F0004D
:103AB000FF91EF91BF91AF919F918F917F916F9106
:103AC0005F914F913F912F910F900FBE0F901F90DC
:103AD000189519BC10922D061092070670CF809190
:103AE000E30087FD93E090932D06B1CF882309F47E
:103AF00059C0823871F40E944F0B81FF53C089E393
:103B00000E94570A0E94080A89E30E942C0A0C941A
:103B1000080A833859F40E944F0B80FF43C083E5A5
:103B20000E94570A0E94080A83E5EFCF843859F4AF
:103B30000E944F0B82FF36C087E40E94570A0E9402
:103B4000080A87E4E2CF9CEF980F913AF0F290E2F6
:103B5000980F983088F4877021E030E0A90102C006
:103B6000440F551F8A95E2F7CA0180959091B105DF
:103B700089238093B105CBCF9BE5980F933020F438
:103B800090E080E00C942C0B98E5980F973120F48E
:103B900090E080E00C94160B803F20F00E94C80853
:103BA0000C94E9180895CF93DF93EC010E94761DE1
:103BB000CE01805E9109089720F06CEE7AE02097A4
:103BC00011F461E07BE0CE01DF91CF910C94D11232
:103BD000CF93C82F882309F4AEC08238C1F40E9465
:103BE0004F0B81FDA8C089E30E94570A0E94080A72
:103BF0002FEF81EE94E0215080409040E1F700C02B
:103C0000000089E30E942C0ACF910C94080A8338A3
:103C1000A1F40E944F0B80FD8EC083E50E94570ADD
:103C20000E94080A2FEF81EE94E0215080409040DE
:103C3000E1F700C0000083E5E5CF8438A1F40E94DD
:103C40004F0B82FD78C087E40E94570A0E94080A41
:103C50002FEF81EE94E0215080409040E1F700C0CA
:103C6000000087E4CFCF8CEF8C0F813A88F58091EC
:103C70001401882301F18091D40587FF1CC0EC2F2B
:103C8000E695E695E695F0E0EE55FC4F828190E0F2
:103C90004C2F477021E030E002C0220F331F4A95BD
:103CA000E2F782239323892B79F08C2F0E942C0A30
:103CB0000E94080A09C0E4EAF3E08191C817A9F359
:103CC00023E0EA3AF207C9F78C2F0E94570A9CCFEB
:103CD00080E28C0F883068F4C77021E030E001C0CA
:103CE000220FCA95EAF78091B105822B8093B10526
:103CF0008BCFEBE5EC0FE33040F4F0E0E457FD4F01
:103D0000808190E0CF910C942C0BE8E5EC0FE7312B
:103D100050F4F0E0EE0FFF1FE157FD4F80819181DD
:103D2000CF910C94160BC03F30F08C2F0E9491095C
:103D3000CF910C94E918CF910895CF93C82F0E948A
:103D4000E81DC93349F42FEF87EE93E021508040FE
:103D50009040E1F700C000008C2FCF910C94761DAD
:103D60000F931F93CF93DF93C62FD42F022FFC0105
:103D700082818823A1F0609339060E94DD18909318
:103D8000380680933706C77081E001C0880FCA9556
:103D9000EAF7DF91CF911F910F910C940C0B80915A
:103DA0003906681335C080913706909138060E9415
:103DB000F909883C910560F510E21D0FCD17B9F0A7
:103DC00080E28C0F883040F4C77081E001C0880F1A
:103DD000CA95EAF70E94010B183048F481E09D2F44
:103DE000977001C0880F9A95EAF70E940C0B802FFC
:103DF0000E949D1E183098F4D77081E001C0880F92
:103E0000DA95EAF7DF91CF911F910F910C94010B96
:103E1000C77081E001C0880FCA95EAF7F3CFDF9140
:103E2000CF911F910F910895CF92DF92EF92FF9261
:103E30000F931F93CF93DF93EC018AE0C82EFE010E
:103E40008491882309F481C0813009F03EC0319605
:103E50008491813039F42296FE0184910E949D1E46
:103E60002196EDCF823031F42296FE0184910E949A
:103E7000E81DF6CF833031F42296FE0184910E9432
:103E8000761DEECF843009F05EC02296FE012491AB
:103E900090E080E0FE0131962053330B2A3031054B
:103EA00048F00197E8F2EFE9FFE03197F1F700C041
:103EB0000000F7CFC89EA001C99E500D1124C90172
:103EC000840F951F2491EF01E5CFE82FF0E0E45B2C
:103ED000FA4FD490082F06950695069510E0F80144
:103EE000E45CFA4FE4908770F12C082E02C0F59440
:103EF000E7940A94E2F721E0E222FF24045D1A4FDE
:103F0000F801049110E002C0159507958A95E2F733
:103F100001701127E114F10419F081EE0E94E81DEF
:103F20000115110519F086EE0E94E81D8D2D0E94E5
:103F30009D1E012B19F086EE0E94761DEF2809F4D4
:103F40008FCF81EE9CCFEF018BCFDF91CF911F916F
:103F50000F91FF90EF90DF90CF900895CF93DF9374
:103F6000EC01805E9109089720F067EF7AE02097D6
:103F700011F46CE07BE0CE010E94D1128C2FDF9116
:103F8000CF910C94E81D8F929F92AF92BF92EF92C7
:103F9000FF920F931F93CF93DF934B015C018CE152
:103FA000E82EF12C07E010E0C1E0D501C4010E2C91
:103FB00004C0B695A795979587950A94D2F78F7008
:103FC00011F5C11108C087E290E00E94AE1F87E2A0
:103FD00090E00E94D31D0150110984E0E81AF10815
:103FE0000F3F100759F4DF91CF911F910F91FF9070
:103FF000EF90BF90AF909F908F900895043011057F
:10400000A4F6C0E0D2CFC82FD0E08A3048F46D9635
:10401000CE010E94AE1FCE010E94D31DC0E0DBCFB7
:104020002697F6CF4F925F926F927F928F929F92D8
:10403000AF92BF92CF92DF92EF92FF920F931F93B6
:10404000CF93DF9300D000D00F92CDB7DEB77C01C5
:10405000FC0183819481892B39F01081D180812FDB
:104060008D218F3F09F086C70F900F900F900F9012
:104070000F90DF91CF911F910F91FF90EF90DF9004
:10408000CF90BF90AF909F908F907F906F905F90F8
:104090004F9008950E941412082F682F89819A81E9
:1040A0000E94B40AE12FF0E016E0D19EE00DF11D70
:1040B000112424E5029FE00DF11D1124EE0FFF1FD6
:1040C000E759F84F05911491F70182810932FDE516
:1040D0001F0709F43FC00A322DE5120709F48EC10B
:1040E000033C3CE5130709F0AFC1882309F4BCCFBA
:1040F000909117018091C2059F3F09F09EC11092D7
:1041000017018F7E8093C20540E060E080E00E944E
:10411000B20B4091C2055091C3056091C4057091E6
:10412000C5058FE090E00F900F900F900F900F90CB
:10413000DF91CF911F910F91FF90EF90DF90CF9083
:10414000BF90AF909F908F907F906F905F904F90B7
:104150000C94ED328823C9F18091C20591E0980F4B
:104160009770887F953008F4892B8093C2058091E1
:10417000C2058770EFEF8E9FC0011124959587953A
:1041800095958795992790938900809388009093BF
:104190008B0080938A0090938D0080938C004091D7
:1041A000C2055091C3056091C4057091C5058FE0AB
:1041B00090E00E94ED326091D6057091D705809114
:1041C000D8059091D9050E949E13F701828188231A
:1041D00079F08091B1058272013EFCE51F0709F478
:1041E000CCC108F0B8C1003E3CE5130709F4C1C1D9
:1041F00017FFFAC1F7018281882309F4A0C0680182
:104200000115F0EC1F0708F4BEC120ECD21A809112
:10421000B0059091B105892B8272BB24B3948111B2
:1042200001C0B12C0E94420B86958170B81629F00E
:10423000CC0CCD2CCC1CDD08D194E894C7F8DD243F
:10424000F601EE0FFF1FEE0FFF1FEB5EF84F85909C
:104250009590A590B4908114910481E1A806B104D1
:1042600008F06DC08114910491E0A906B10428F012
:104270008091BE05823009F462C00E94420B86958F
:10428000817080933C059091BE05913029F488237C
:1042900019F089E30E949D1E8091B10580933B0532
:1042A0001092B1058091BE05813009F473C1882355
:1042B00009F46CC1823009F476C1843009F47AC102
:1042C000EFE3FCE93197F1F700C00000811491049D
:1042D000F1E0AF06B10408F472C18091BE0581110E
:1042E0006EC121E0A21AB108C501B4015AE0969549
:1042F0008795779567955A95D1F778528F4F9F4F4D
:104300000E94C31F33E09322AA24BB24C501B40139
:1043100074528F4F9F4F0E94C31F8091BE05813002
:1043200009F454C1882309F44DC1823009F44AC10B
:10433000843009F457C180913B058093B105F701A2
:104340009281992309F427C6109239060230FCE5C0
:104350001F0708F475C206312CE5120738F09801E2
:104360002B5F3C452930310508F06AC20E94F813E2
:104370009093D5058093D40500313CE5130709F4EB
:104380002EC208F0BCC108309CE5190709F41DC213
:1043900008F08BC10430FCE51F0709F40EC208F0D9
:1043A00071C102303CE5130709F4FDC103301C451F
:1043B00009F4FFC16091D4051091D50584E090E027
:1043C0000E94DB32612F81E290E00E94DB320F908D
:1043D0000F900F900F900F90DF91CF911F910F9141
:1043E000FF90EF90DF90CF90BF90AF909F908F9015
:1043F0007F906F905F904F900C948719882309F4F9
:10440000E4CE9091C205892F877F93FF88608093C7
:10441000C20583FF05C040E060E080E00E94B20B6F
:104420004091C2055091C3056091C4057091C505C6
:104430008FE090E00E94ED32C8CE9FEF909317017D
:1044400080618093C20565CE0E32FDE51F0709F439
:1044500063C008F049C00B323DE5130708F4B5CE40
:10446000882309F401CE6091D6057091D70580911B
:10447000D8059091D9050E94841290E00C32EDE5A8
:104480001E0709F440C00D321D4509F440C00197D4
:1044900088309105E1F18F3F9807D9F141E050E074
:1044A00060E070E08A019B0104C0000F111F221F11
:1044B000331F8A95D2F7C901B8010F900F900F9062
:1044C0000F900F90DF91CF911F910F91FF90EF9080
:1044D000DF90CF90BF90AF909F908F907F906F9024
:1044E0005F904F900C942D190F329DE5190709F03C
:1044F0006CCE882309F4B8CD8091B10581FF28C026
:104500008FED96E00EC001968830910539F680E077
:10451000C5CF87E090E0C2CF882309F4A5CD80E025
:1045200097E00F900F900F900F900F90DF91CF9129
:104530001F910F91FF90EF90DF90CF90BF90AF90C1
:104540009F908F907F906F905F904F900C94141F6E
:104550008CEC96E0E6CF073E8CE5180708F048CED5
:104560006EE1600F6093BE058CE090E00E94DB324C
:104570003FCE811104C081E003C08111FCCF8FEFD9
:104580000E94F91435CE30E8D31A5ACE82EE0E943A
:10459000E81D96CE88E193E00E94AE1F88E193E08B
:1045A0000E94D31D8DCE82EE0E94E81D87E50E94F9
:1045B0009D1E86CE86EE0E949D1E88E1F8CFC50125
:1045C000B401A9CE82EE0E94761DB5CE8CE20E9487
:1045D0009D1E80913C05882309F4ADCE89E30E949D
:1045E0009D1EA9CE88E2FBCF043F8CE51807D9F1C8
:1045F00088F4093DECE51E0791F10A3DFCE51F0733
:10460000F1F1083D2CE5120709F099CE26E241EEC2
:1046100061EE0DC0063F3CE5130769F140F127E26A
:1046200045EE66EE073F9CE5190709F088CEC70105
:104630000F900F900F900F900F90DF91CF911F91DF
:104640000F91FF90EF90DF90CF90BF90AF909F9031
:104650008F907F906F905F904F900C94B01E27E2E8
:1046600045EE65EEE4CF26E241EE60EEE0CF27E2D4
:1046700045EE64EEDCCF26E241EE62EED8CF28E2D2
:1046800041E0EFCF8091D405806106309CE51907A9
:1046900009F48CC08091D405886007301C4508F46B
:1046A00085C08091D405806281C08091D4058D7FC2
:1046B0000C30FCE51F0709F479C070F48091D40533
:1046C0008C600A303CE5130709F470C008F481C01F
:1046D0008091D4058E7F6AC08091D405877F0E308B
:1046E0009CE5190709F462C08091D4058B7F0F30D7
:1046F0001C4508F45BC08091D4058F7E57C00C3FE9
:10470000FCE51F0709F45DC030F503313CE51307F4
:1047100009F46DC078F401319CE5190709F463C010
:1047200002311C4509F046CE0E9487198091D405BC
:104730008F773CC00531FCE51F0709F460C008F421
:1047400074C08091D50581600B3F1C4509F032CEC5
:104750008093D5052FCE01158DE5180709F44BC0C0
:1047600088F48091D5058D7F0E3FECE51E0781F31F
:104770008091D5058E7F0F3F1C4550F38091D50564
:104780008360E6CF02302DE5120709F457C008F424
:1047900042C060E003301D4509F00CCE8EE090E091
:1047A0000E94DB3207CE8091D40581608093D405CE
:1047B00001CE8091D4058260F9CF8091D4058460C8
:1047C000F5CF8091D5058260C3CF8091D4058064F8
:1047D000EDCF0E9487198091D4058068E7CF809142
:1047E000D4058F7DE3CF8091D4058F7BDFCF80917F
:1047F000D405837FDBCF8091D5058C7FA9CF8091B5
:10480000D40582FB992790F921E0922790FB82F949
:1048100090FB83F9CBCF8091D505982F909591701F
:104820008E7F892B90FB81F993CF0E9487199091FD
:10483000D405892F97FB87F98058B8CF61E0AECFB8
:104840008091B1050631ECE51E0709F0B0C38A7A04
:1048500091E009F490E090933D0581111AC089E23E
:104860000E94570A0F900F900F900F900F90DF91BA
:10487000CF911F910F91FF90EF90DF90CF90BF905D
:10488000AF909F908F907F906F905F904F900C941F
:10489000080A85E3E5CF85E387C380913E0691E072
:1048A000892780933E06109215010F900F900F906C
:1048B0000F900F90DF91CF911F910F91FF90EF908C
:1048C000DF90CF90BF90AF909F908F907F906F9030
:1048D0005F904F900C94F61644E157E16DE177E15B
:1048E0000F900F900F900F900F90DF91CF911F912D
:1048F0000F91FF90EF90DF90CF90BF90AF909F907F
:104900008F907F906F905F904F900C945B0B4DE178
:1049100057E164E177E1E4CF44E657E16DE677E102
:10492000DFCF4DE657E164E677E1DACF4CE457E1BB
:1049300068E577E1D5CF48E557E16CE477E1D0CF82
:1049400044E357E160E477E1CBCF40E457E164E32F
:1049500077E1C6CF40E857E166E777E1C1CF46E7A8
:1049600057E160E877E1BCCF81E00F900F900F90A6
:104970000F900F90DF91CF911F910F91FF90EF90CB
:10498000DF90CF90BF90AF909F908F907F906F906F
:104990005F904F900C94FE1684E0E7CF8CE0E5CF5B
:1049A00081E1E3CF0115FCE51F0771F10F3D1C45C7
:1049B00009F467C0F70100811181992309F478C0D7
:1049C000C8010E941412D82E682FC8010E94B40A90
:1049D000B8018D2D0E947F10182F082FF701358107
:1049E00032953F70228121111092B005D92ED294B8
:1049F0004FE0D422FBE0FD1508F494C0ED2DF0E06B
:104A0000E050FA4C0C94A1320E9487193FEF84E3E6
:104A10009CE0315080409040E1F700C00000F894E5
:104A200081E08093E00080E28093D8001092C9007A
:104A3000EFE1FEE43197F1F700C000001DBA1092DB
:104A400068001CBC10BE1FBA10927A0010926E0053
:104A500010926F0010927100109272001092C900B3
:104A60001092BC0014B817B81AB81DB810BA10923A
:104A7000BC0015B818B81BB81EB811BA0C94003F8A
:104A8000F3CA0F900F900F900F900F90DF91CF917E
:104A90001F910F91FF90EF90DF90CF90BF90AF905C
:104AA0009F908F907F906F905F904F900C94021525
:104AB000C8010E948B0AD82E8BCF392F3F70C32E8E
:104AC000907F19F0C29490EFC9222223C9F0CC2024
:104AD00069F080E2810F883010F001110BC08091E5
:104AE000B105C82AC092B1050E94080A812F0E9410
:104AF000E81D18C08091B005C82AC092B005F4CF57
:104B0000812F0E94761DCC2069F0C094105E183071
:104B100010F001112FC08091B105C822C092B105DB
:104B20000E94080A2D2D2850330B2430310510F433
:104B30000E944F0B85E0F701DE01119601900D9266
:104B40008A95E1F789819A810E948B0A9A81E9818D
:104B5000F0E036E0939FE00DF11D112494E5899F6C
:104B6000E00DF11D1124EE0FFF1FE759F84F85915D
:104B700094917ACA8091B005C822C092B005D0CF76
:104B8000892F8F70907F903211F08295807F013055
:104B900061F4222329F0323028F60E940C0BC2CF98
:104BA0003111C0CF0E94010BBDCF222319F0332356
:104BB000A1F39CCF3323B1F3093349F48FEF97EE80
:104BC000E3E081509040E040E1F700C00000812F19
:104BD0000E94761DA7CF892F86958695837061F0F8
:104BE000813009F09FCF812F9370211102C090E096
:104BF00080E00E94160B96CF812F9370211102C086
:104C000090E080E00E942C0B8DCF812F222329F091
:104C10000E9491090E94E91885CF0E94C808FACF26
:104C2000892F837009F06CC021117CCF812F829570
:104C300086958770880F880F612F6F70462E512CD4
:104C4000712C612C082E04C0440C551C661C771C6A
:104C50000A94D2F740E050E0BA0114FF0FC04FE0D1
:104C600050E060E070E004C0440F551F661F771FDE
:104C70008A95D2F740955095609570959695969542
:104C80009370923019F1A8F58090B2059090B30519
:104C9000A090B405B090B505913069F0442955292C
:104CA00066297729CB01BA01682179218A219B21C4
:104CB0000E947D1937CF84289528A628B728CB01D4
:104CC000BA01682979298A299B29F2CF44295529D3
:104CD000662977298090B2059090B305A090B4051D
:104CE000B090B505CB01BA01682579258A259B25A9
:104CF000DFCFCB01BA016429752986299729D8CF3E
:104D00008695222311F0892F8170882309F40ACF18
:104D1000812F829586958770880F880F612F6F701D
:104D2000462E512C712C612C082E04C0440C551CAD
:104D3000661C771C0A94D2F740E050E0BA0114FFD9
:104D40000FC04FE050E060E070E004C0440F551F1A
:104D5000661F771F8A95D2F740955095609570959C
:104D6000969596959370923019F1A8F58090D60596
:104D70009090D705A090D805B090D905913069F0F2
:104D80004429552966297729CB01BA01682179215F
:104D90008A219B210E942D19C5CE84289528A628FA
:104DA000B728CB01BA01682979298A299B29F2CF32
:104DB00044295529662977298090D6059090D705F2
:104DC000A090D805B090D905CB01BA016825792506
:104DD0008A259B25DFCFCB01BA0164297529862955
:104DE0009729D8CF092F0F70222329F0802F0E94F6
:104DF0005C19812FD2CE812F0E94010B802F0E943F
:104E0000391990CE812F013F09F43DC050F4003F85
:104E1000E1F0222309F448C0311168CE892F8F7147
:104E200037C0023FC1F1033FA1F72223C9F1292F67
:104E30002F7161E070E080E090E004C0660F771FA2
:104E4000881F991F2A95D2F7A5CF2223C1F03111CF
:104E500069CE292F2F7161E070E080E090E004C0FE
:104E6000660F771F881F991F2A95D2F78090D60565
:104E70009090D705A090D805B090D905A7CF323033
:104E800008F050CEE6CF892F8F71222309F4B7CFD7
:104E90000E945C1947CE892F8F712223C9F3AFCFAF
:104EA00060E070E0CB0176CF332359F0893309F00D
:104EB0008ECEFFEF07EE23E0F15000402040E1F7F7
:104EC00084CE892F8F719BCF023FA1F1F0F4003F78
:104ED00029F1013FB9F180913E05332309F43EC029
:104EE000882341F080913F0591E0892780933F0519
:104EF00010923E05812F2111FACD0E94761D86E089
:104F0000F70111928A95E9F70DCE043FB1F080F0D8
:104F1000053F09F7211106CE81E007C0222309F4DD
:104F200001CE80913F0591E0892780933F05FACD1E
:104F300081E0282720933F05F5CD2111F3CD109274
:104F40003F05F0CD222339F080913E05882349F3B7
:104F500010923E05E7CD332321F3E4CD882309F4F5
:104F6000E1CD2111DFCD80913F0591E0892780932C
:104F70003F05EECF85E0DE01119601900D928A95F6
:104F8000E1F7F701228189819A81211183C80E946A
:104F90008B0A082F87C806311C4509F00BCD80917C
:104FA0003D05811178CC89E20E942C0A5BCC82728B
:104FB000F801E35CFC45E431F10508F0F3CCE45F73
:104FC000F94C0C94A1321F93CF93DF938091450548
:104FD000807FA9F480914205882389F0809177052C
:104FE000D09146056091400570914105A09143051F
:104FF000B0914405C62FC72316E0D81304C0DF9133
:10500000CF911F91089590E0109711F0CF3F19F4C0
:1050100001968770F2CF189F9001199F300D1124CF
:10502000F901E95BFA4F41814713F2CF4081461302
:10503000EFCF42814111ECCF438154814A1B5B0B7E
:10504000483C510528F7809145058F708061809319
:105050004505F901E45BFA4F80818F7080618083A0
:1050600080E495E00E941220DF91CF911F910C9473
:10507000E20AAF92BF92CF92DF92EF92FF920F932C
:105080001F93CF93DF93CDB7DEB761970FB6F89438
:10509000DEBF0FBECDBF8C0185E0F801DE011D969D
:1050A00001900D928A95E1F7F80180819181E2806B
:1050B00020E4A22E25E0B22E6091430570914405B4
:1050C0006115710509F43EC13091400540914105DB
:1050D000232F24232F3F09F435C1C380D480F090BF
:1050E0004205F601E61BF70BFF2009F4FBC02091F7
:1050F0004505522F507FE83CF10508F0BBC0511127
:1051000078C0FE2C491321C038131FC0E1101DC008
:105110002F70206120934505C5010E9412208091C7
:105120004505F80185838F2D61960FB6F894DEBF93
:105130000FBECDBFDF91CF911F910F91FF90EF90E8
:10514000DF90CF90BF90AF900895CD2829F0282F01
:1051500029232F3F09F022C120E0F22FF170DF2E2A
:1051600020FF3DC0209177054091460556E024136D
:1051700015C08D879E878D859E850E945612292F8A
:1051800022952F702230F8F0243020F59F70F9F02E
:10519000F8019581907FD9F4D12C1FC030E0529F47
:1051A000F001539FF00D1124E95BFA4F61819613D2
:1051B00006C06081861303C06281E61210C02F5FB3
:1051C0003F4F2770D4CF9F7011F0882329F3805E62
:1051D000883010F3C8010E941220FD2CA4CFEE20CD
:1051E00009F4A1CF80914505816080934505F12C9C
:1051F0009ACF491312C0381310C0E1100EC0F80145
:105200002583C8010E94122086E0F801A0E4B5E0E1
:1052100001900D928A95E1F786CF8D879E878D85C7
:105220009E850E946012882309F1EE20F9F080919A
:105230004505803270F02091400530914105388756
:105240002F831986DB86CA868C87CE0107960E943B
:10525000122086E0F801A0E4B5E001900D928A9555
:10526000E1F70E94E327FF24F3945DCFC8010E9479
:105270001220F9CF51110AC080E495E00E9412205B
:1052800086E0F50111928A95E9F7B1CF49130FC075
:1052900038130DC0E1100BC0F8012583C8010E942E
:1052A000122086E0F50111928A95E9F73CCF8D87AF
:1052B0009E878D859E850E9460128823B9F2EE201C
:1052C000A9F280914505803220F22091400530916D
:1052D00041053A8329831B82DD82CC828E83CE01F5
:1052E0000196B5CFE83CF105E0F6FE2CEE2009F47E
:1052F000BDCF491316C0381314C08091450580FDF9
:1053000083CF982F907F09F47FCFF8018583903F5A
:1053100009F477CF982F907F905F8F70892B8583CA
:1053200070CF8D879E878D859E850E94601281112A
:1053300090CF80914505816080934505C8010E940A
:105340001220F1CEEE2009F491CF8D879E878D85B6
:105350009E850E946012F82E882309F487CF86E08C
:10536000F801A0E4B5E001900D928A95E1F78091F3
:105370004005909141050E94561292959F7096307B
:1053800051F4863F41F080913F0591E08927809359
:105390003F0590933E050E94E327C5CE21E02E25D0
:1053A000DCCE1F93CF93DF93CDB7DEB767970FB6F1
:1053B000F894DEBF0FBECDBF6D8B7E8B8F8B8E8939
:1053C0009F89892BD9F0842F85238F3F09F098C0BE
:1053D0005FEF4FEF13C030913F053323E1F1E42F2E
:1053E000F0E036E0539FE00DF11D1124EE0FFF1F9A
:1053F000EC51FE4F40815181822B8C931A8A198A7D
:105400004B8B5C8B85E0FE017396DE011D9601904F
:105410000D928A95E1F786E0FE013D96DE01179632
:1054200001900D928A95E1F7CE0107960E943928E6
:105430008823A1F016E080917705909146058913A5
:105440004CC067960FB6F894DEBF0FBECDBFDF919C
:10545000CF911F91089580958223CFCF86E0FE01E2
:105460003796DE01119601900D928A95E1F78A85B3
:105470009B85892BF9F288859F8189238F3FD1F203
:105480002091460530E0C901019687709927409127
:1054900077054817190671F40E948719109246057E
:1054A0001092770586E0E0E4F5E0DF011D928A9531
:1054B000E9F7C0CF96E0929FD001939FB00D1124E1
:1054C000A95BBA4FFE01319601900D929A95E1F7D2
:1054D000809346050E94E20AADCF819FC00111244E
:1054E000895B9A4F0E943928882309F4AACF8091BA
:1054F000770590E0019687709927809377059BCF79
:1055000081E090E0042E01C0880F0A94EAF7A52FED
:10551000B0E0A35DBA4F2C913D8931115CCF322FA1
:1055200038235BCF8F929F92BF92CF92DF92EF9200
:10553000FF920F931F93CF93DF9380910801909177
:105540000901892BA1F08091C3038F5F8093C3036E
:1055500081110DC00E94B71790E0909309018093CC
:105560000801892B21F40E94A2140E949B1726ECAB
:10557000822E25E0922E740110E000E097E0C92E03
:10558000C00E802F0E942E188C2D0E942E18802F66
:105590000E948218E70199917E01D12C891729F088
:1055A000FE0131978083DD24D3948C2D0E948218D4
:1055B000F7019681891709F47CC0868381E08D29E3
:1055C000182B0E94DC130F5F0730C1F60E94DD1814
:1055D0006091C5037091C6039093C6038093C50381
:1055E0002091C40330E0261B370B820F931F6BEF13
:1055F00070E00E947932E82E392F082F8093C4037F
:10560000F090C803FF2009F475C31092C803E0911D
:10561000BB05F091BC05AF01425F5F4F20E08BEF0F
:10562000B82E6BEF70E0A191AB3FA1F0CA2ED12C48
:105630008E2D932F0A1708F43EC08C199D09092E50
:10564000000CAA0BBB0B4E97A105B105D0F1DF01F1
:105650001197BC92E417F50731F72093C803111195
:1056600002C0211149C31092C703A091BB05B0919C
:10567000BC059091C803EDEDF5E04BEE55E080E000
:105680003191E40129914E01321751F03C913B3F99
:10569000D1F40C93BF0161507109EB01288391E0B3
:1056A00011964E175F0761F79093C8038093C70365
:1056B00027C380E084CFDB01AC19BD098A0F9B1F93
:1056C000BECF2F2DC7CF81E0EBCF109216014093B4
:1056D0003A0650933B0660933C0670933D0681E08A
:1056E000809315013BC380910701081316C0909168
:1056F0003E0693702091060130E081E09217130678
:1057000009F480E0817080931801063178F4E02F6D
:10571000F0E0E05EF94C0C94A13281E0F3CF8823F5
:1057200049F140E060E080E00E94B20B80E022C0DE
:1057300080911601C82FCC0FCC0FC80FD5E0FD2EDD
:10574000FC0EEF2CD0E3DF1510F4B0E3EB2E6091EC
:105750003F0670914006809141060E94230ED62E8E
:10576000C72EB82ED0E0CE1508F47AC181E0FFE252
:10577000FF15E0F2909116019F5F90931601811141
:105780008CC282E08093150180911801811185C23D
:10579000002309F48FC2809108068111DFC2809135
:1057A000C20583FDDBC26091D6057091D70580915B
:1057B000D8059091D9050E948412C82FD0E04CE101
:1057C00050E070E060E0CE010E9408134BE150E031
:1057D00061E070E0CE010E9408134AE150E062E00F
:1057E00070E0CE010E94081349E150E063E070E0F0
:1057F000CE010E94081348E150E064E070E0CE0161
:105800000E94081350E040E065E070E0CE010E9485
:10581000081341E050E066E070E0CE010E940813FA
:1058200042E050E067E070E0CE010E94081343E0E0
:1058300050E068E070E0CE010E94081344E050E0C0
:1058400069E070E0CE010E94081341E250E06AE096
:1058500070E0CE010E94081340E250E06BE070E07F
:10586000CE010E9408134FE150E06CE070E0CE01E1
:105870000E9408134EE150E06DE070E0CE010E94FE
:1058800008134DE150E06EE070E0CE010E94081375
:1058900045E050E06FE070E0CE010E94081346E062
:1058A00050E060E170E0CE010E94081347E050E054
:1058B00061E170E0CE010E94081348E050E062E12F
:1058C00070E0CE010E94081349E050E063E170E00F
:1058D000CE010E94081346E250E064E170E0CE0180
:1058E0000E94081345E250E065E170E0CE010E949D
:1058F000081344E250E066E170E0CE010E94081314
:1059000043E250E067E170E0CE010E94081342E2FA
:1059100050E068E170E0CE010E9408134AE050E0D8
:1059200069E170E0CE010E9408134BE050E06AE1AB
:1059300070E0CE010E9408134CE050E06BE170E093
:10594000CE010E9408134DE050E06CE170E0CE0102
:105950000E9408134EE050E06DE170E0CE010E941D
:1059600008134BE250E06EE170E0CE010E94081394
:105970004AE250E06FE170E0CE010E94081349E274
:1059800050E060E270E0CE010E94081348E250E06F
:1059900061E270E0CE010E94081347E250E062E24B
:1059A00070E0CE010E9408134FE050E063E270E027
:1059B000CE010E94081340E150E064E270E0CE01A5
:1059C0000E94081341E150E065E270E0CE010E94C0
:1059D000081342E150E066E270E0CE010E94081335
:1059E00043E150E067E270E0CE010E9408134FE20D
:1059F00050E068E270E0CE010E9408134EE250E0F1
:105A000069E270E0CE010E9408134DE250E06AE2C4
:105A100070E0CE010E9408134CE250E06BE270E0AF
:105A2000CE010E94081344E150E06CE270E0CE0128
:105A30000E94081345E150E06DE270E0CE010E9443
:105A4000081346E150E06EE270E0CE010E940813B8
:105A500047E150E06FE270E0CE010E9408137EC182
:105A6000FE01EF58FC4F808190911701892331F09E
:105A70002B2D4D2D6C2DCE010E94B40B219673CE93
:105A800080911601C82FCC0FCC0FC80FA5E0FA2EBD
:105A9000FC0EDF2C20E32F1510F4F0E3DF2EC09076
:105AA0004006B090410620914206E0E4EE2E3E2DE5
:105AB000329F312D1124E32ED0E0CD1530F081E05E
:105AC0009FE29F1508F056CE31CEFE01EF58FC4FF5
:105AD0008081909117018923B9F0FE01EE0FFF1F1D
