:100000000C945A0B0C94770B0C94770B0C94770B85
:100010000C94770B0C94770B0C94770B0C94770B58
:100020000C94770B0C94770B0C944C220C940822B4
:100030000C94BE340C94770B0C94770B0C94770BC8
:100040000C94770B0C94770B0C94770B0C94770B28
:100050000C94770B0C945B1E0C94770B0C94770B21
:100060000C94770B0C94770B0C94770B0C94770B08
:100070000C94770B0C94770B0C94770B0C94770BF8
:100080000C94770B0C94770B0C94770B0C94770BE8
:100090000C94770B0C94770B0C94770B0C94770BD8
:1000A0000C94770B0C94770B0C94770BBFFFFFBF6E
:1000B000FFFFBFFFFFBFFFFFBFFFFFBFFFFFBFFF90
:1000C000FFBFFFFFBFFFFFBFFFFFAAFFFFAAFFFFAA
:1000D000AAFFFFAAFFFFAAFFFFAAFFFFAAFFFFAA2E
:1000E000FFFFAAFFFFAAFFFFAAFFFFAAFFFFAAFFC9
:1000F000FFAAFFFFAAFFFFAAFFFFAAFFFFAAFFFFB9
:10010000AAFFFF55FFFFAAFFFFAAFFFFAAFFFFAA52
:10011000FFFFAAFFFFAAFFFFAAFFFFAAFFFFAAFF98
:10012000FF55FFFF80FFFF55FFFF55FFFF55FFFF06
:1001300055FFFF55FFFF55FFFF55FFFF0000000073
:1001400000000000000000000000000000000000AF
:100150000000000000000000000000FFFF00FFFFA3
:1001600000FFFF00FFFF00FFFF000000EA80FF80AC
:10017000FF80EA80FF00000000FFFF00FFFF00FF9C
:10018000FF00FFFF00FFFF00000080FF8080FF8076
:1001900080FF8000000000FFFF00FFFF0000000064
:1001A000FFFF000000000000000000000000000051
:1001B000000000000000000000000000000000003F
:1001C000000000000000000000000000000000002F
:1001D000000000000000000000000000000000001F
:1001E0000055FFFF55FFFF55FFFF00000055FFFFC3
:1001F00055FFFF55FFFF0000000000001CFFFF1C23
:10020000FFFF1CFFFF55FFFF55FFFF55FFFF55FF89
:10021000FF55FFFF55FFFF0000001CFFFF1CFFFF05
:100220001CFFFF55FFFF00000055FFFF55FFFF5566
:10023000FFFF55FFFF0000001CFFFF1CFFFF1CFF1E
:10024000FF55FFFF00000000000055FFFF55FFFFB6
:10025000000000000000000000000000000000009E
:10026000000000000000000000000000000000008E
:10027000000000000000000000000000000000007E
:10028000000000000000000000000000000000006E
:100820000000000000000000000000001CFFFF1C92
:10083000FFFF1CFFFF1CFFFF0000001EDADA1EDABC
:10084000DA1EDADA0000000000001CFFFF1CFFFFC8
:100850001CFFFF1CFFFF0000007B5A707B5A707B5F
:100860005A700000000000001CFFFF1CFFFF1CFF6F
:10087000FF1CFFFF0000000000000000000000005F
:100880000000000000000000000000000000000068
:100890000000000000000000000000000000000058
:1008A0000055FFFF55FFFF55FFFF55FFFF55FFFFA9
:1008B00055FFFF55FFFF0000000000001CFFFF1C5C
:1008C000FFFF1CFFFF55FFFF55FFFF55FFFF55FFC3
:1008D000FF55FFFF55FFFF0000001CFFFF1CFFFF3F
:1008E0001CFFFF55FFFF55FFFF55FFFF55FFFF554D
:1008F000FFFF55FFFF0000001CFFFF1CFFFF1CFF58
:10090000FF55FFFF00000000000000000000000095
:1009100000000000000000000000000000000000D7
:1009200000000000000000000000000000000000C7
:1009300000000000000000000000000000EA80FF4E
:1009400080FF80EA80FFEA80FF2BFFFF2BFFFF2B59
:10095000FFFF2BFFFF00000000FFFF80FF8080FFF4
:100960008080FF80EA80FF80FF8080FF8080FF80A2
:1009700080FF802BFFFF00FFFF00FFFF00FFFF0055
:10098000FFFFEA80FF000000000000000000000000
:100990000000000000000000000000000000000057
:1009A00000000000000000FFFF00FFFF0001010148
:1009B000010101010101020202020202020202031C
:1009C00003030303030303040404040404040505EC
:1009D00005050506060606060707070707080808AF
:1009E00008090909090A0A0A0B0B0B0C0C0C0D0D5E
:1009F0000D0E0E0E0F0F0F101011111112121313F6
:100A00001414151516161717181819191A1A1B1B6E
:100A10001C1D1D1E1E1F20202122222324242526CA
:100A200026272829292A2B2C2D2D2E2F3031323202
:100A3000333435363738393A3B3C3D3E3F4041420E
:100A4000434445464748494A4C4D4E4F50515354F4
:100A5000555658595A5B5D5E5F61626465666869A8
:100A60006B6C6D6F7072737577787A7B7D7E808228
:100A7000838587888A8C8E8F91939596989A9C9E71
:100A8000A0A2A3A5A7A9ABADAFB1B3B5B7BABCBE81
:100A9000C0C2C4C6C9CBCDCFD1D4D6D8DBDDDFE24E
:100AA000E4E7E9EBEEF0F3F5F8FAFDFF39000E515B
:100AB0002B00E1000F5100001E00140004001D0077
:100AC0000D5129001F001A0016001B00E00028002D
:100AD0002000080007000600E3002C00210015009C
:100AE00009001900E2000000220017000A000500BA
:100AF000000000001F504C0000002A000000000011
:100B000011504C0000002A000000000023001C00CF
:100B10000B00110000000000240018000D00100060
:100B20002D00000025000C000E0036002E002C00C9
:100B3000260012000F0037002F00280027001300A6
:100B4000330038003000290000000E513400E1006D
:100B50000F510000000029004C000E0C0F51000046
:100B600000000E030F0800000D51160800001E08BB
:100B70002008F4000000280000000C0836003A00AD
:100B800000002C000000000037003E0000000000C4
:100B900000001D0A1D0800000000000010500000A9
:100BA00000000000000000001250000000000000E3
:100BB0000000000000000000000000000000000035
:100BC0000000F400F2000000000000000000F0004F
:100BD000F1000000000000000000F500F30000003C
:100BE0000000000000000000000000000000000005
:100BF00000000000000000000000000000002900CC
:100C00000408E1000F51000000000F02150200006F
:100C1000000016080000160210001B0000004C0027
:100C200000001200050217001D08E3000000120278
:100C3000150018001C0800000000000009000C0846
:100C40000000000011500000000000000000000043
:100C50001D50000000000000000000000000000027
:100C600000000000000000000000240021001E0021
:100C7000000000003800250022001F0000002700AF
:100C80002502260023002000000028002D002E024F
:100C900037002A0000002B000000000000000000C8
:100CA0000F510000000000000000000000000000E4
:100CB0000000000000000000000000000000000034
:100CC0000000000000000000000000000000000024
:100CD0000000000000000000000000000000000014
:100CE0000000000000000000000000000000000004
:1013400000000000000000000D510000000000003F
:10135000AA00AC000000000000000000A800AE00E1
:101360000000000000000000A900AB000000000029
:10137000000000000000000000000000125000000B
:1013800000000000000000001E50000000000000EF
:10139000000000000000000000000000000000004D
:1013A00000003A003E0042000000000000003B0048
:1013B0003F0043000000000000003C0040004400EB
:1013C0000000000000003D0041004500000000005A
:1013D00000000000000000000000000000000E51AE
:1013E0002B00000000000000000033023502310035
:1013F000000029000000260223022002000028002D
:101400000000250222021F0200002C00000024021E
:1014100021021E0200000000000000003500310221
:10142000000000001D504C0000002A0000000000D9
:101430001F504C0000002A000000000000000000C7
:1014400000000000000000000000240021001E0039
:10145000000000005400250022001F0000002700AB
:10146000550026002300200000002C0056005700E5
:10147000630058000000000000000E510000000052
:1014800000000000000000000000E1000F5100001B
:101490000000000004081D08000029000000F400FE
:1014A000F2001B08000000000000F000F100060838
:1014B0000000E0000000F500F30019080000000043
:1014C0000000F600F900FA00000000001E504C0079
:1014D00000002A000000000010504C0000002A000C
:1014E0000000000000004A00500000000000000062
:1014F00000004E00510000000000000000004B0002
:10150000520000000000E30000004D004F0000000A
:101510005001000000000000E20000004F0129001F
:101520000F0A0000000000000F5100000501090231
:10153000A10185020901A10005091901290515006C
:10154000250195057501810295017503810105014C
:10155000093009311581257F950275088106093802
:101560001581257F950175088106050C0A3802153D
:1015700081257F950175088106C0C005010980A1FC
:101580000185031A81002A830016010026030095B5
:101590000175108100C0050C0901A10185041A0123
:1015A000002A9C02160100269C02950175108100FC
:1015B000C005010906A1018505050719E029E71500
:1015C0000025019508750181020507190029EF150D
:1015D00000250195F075018102050819012905957D
:1015E0000575019102950175039101C00501090678
:1015F000A101050719E029E71500250195087501E6
:1016000081029501750881010507190029FF150060
:1016100026FF009506750881000508190129059522
:101620000575019102950175039101C009023B0006
:10163000020100A0FA0904000001030101000921D0
:10164000110100012240000705810308000A090476
:101650000100010300000009211101000122C00066
:101660000705820320000A1201100100000008EDA6
:10167000FE071301000102030104033000000016FD
:10168000034500720067006F0044006F007800207F
:101690000045005A00000016034500720067006F05
:1016A0000044006F007800200045005A000000044C
:1016B0000309040011241FBECFEFDAE0DEBFCDBF67
:1016C00013E0A0E0B1E0E4EEF2E702C005900D9275
:1016D000A23AB107D9F726E0A2EAB3E001C01D9211
:1016E000A734B207E1F70E9472320C9412390C94BD
:1016F0000000E8EDF0E080818E7F80831092E200B0
:101700001092DA001092E100A0EEB0E08C918160BE
:101710008C9380818F77808319BCA7EDB0E08C918A
:101720008E7F8C9380818F7E808310920606089531
:101730002091E4003091E50095E6A9012091EC00AC
:10174000822F817020FF06C08091E80080FF06C0D4
:1017500080E008952091E80022FD1AC080912C06B7
:10176000882389F0853089F08091EB0085FD0FC0DA
:101770002091E4003091E50042175307F9F29150AF
:10178000E1F684E0089582E0089583E0089581E021
:101790000895EF92FF920F931F93CF937C018B01DB
:1017A0000E94980BC82F811117C08091E80085FD19
:1017B0000BC08091E8008E778093E8000E94980B20
:1017C000882399F3C82F08C0F70181917F01809386
:1017D000F1000150110949F78C2FCF911F910F9102
:1017E000FF90EF90089580912E0687FF13C080919F
:1017F000E80082FF06C08091E8008B778093E800C4
:1018000004C080912C068111F2CF089580912C069E
:101810008823D9F38091E80080FFF8CF8091E80019
:101820008E77ECCF982F9093E900242F762F50E0FD
:10183000891731F07091EC002091ED005091F0008B
:1018400021FD07C09F5F973071F78093E90081E029
:1018500008953091EB003E7F3093EB003091ED0026
:101860003D7F3093ED003091EB0031603093EB0021
:101870007093EC002093ED005093F0002091EE0067
:1018800027FDE0CF80E00895CF92DF92EF92FF92A4
:101890000F931F93CF93DF93C8EDD0E088818F7EA5
:1018A0008883E7EDF0E080818160808384E082BFFF
:1018B00081E08093060688818E7F888302EE10E0A7
:1018C000F80110821092DA0081EEC82ED12CF601B8
:1018D000108288818F778883888180688883888157
:1018E0008F7D888319BC10922C0610922D061092C1
:1018F0002B0610922A0690EEE92EF12CF70180813A
:101900008B7F808388818160888342E060E080E013
:101910000E94120CF60180818E7F8083F801808105
:1019200081608083808188608083F70180818E7FE1
:101930008083888180618883DF91CF911F910F918F
:10194000FF90EF90DF90CF900895FC0180913406D6
:101950009091350686179707A0F06115710529F457
:101960009091E8009E779093E80090E061157105F2
:1019700051F4911108C08091E80082FF34C080E0EA
:101980000895BC01F2CF80912C068823C1F18530E7
:10199000C1F18091E80083FD30C08091E80082FDB4
:1019A000EACF8091E80080FFE1CF8091F3002091A1
:1019B000F200382F6115710519F02830310558F003
:1019C00091E02830310509F090E02091E8002E7771
:1019D0002093E800CBCF81918093F1006150710991
:1019E0002F5F3F4FE7CF80912C06882341F0853051
:1019F00041F08091E80083FFBECF81E0089582E04E
:101A0000089583E0089580912C06843011F482E0DB
:101A1000089581E008958091090608959091EF0559
:101A2000803F41F48091F00587FD1092F0059923E5
:101A300071F00895813F29F48091F0051816ACF3F8
:101A4000F6CF823F81F497FFF2CF1092EF0580919D
:101A5000F0059091F105892B9091F205892B49F7BA
:101A60001092F3050895833F19F4191674F3DFCF2C
:101A7000893F39F48091F1051816CCF61092F105E2
:101A8000D6CF8A3F29F48091F10587FFD0CFF6CFDA
:101A90008B3F39F48091F20587FFC9CF1092F20590
:101AA000C6CF8C3F29F48091F2051816BCF3BFCF46
:101AB000843F31F48091EE058E7F8093EE05B7CFA1
:101AC000853F21F48091EE058D7FF7CF863F21F48D
:101AD0008091EE058B7FF1CF873F21F48091EE0559
:101AE000877FEBCF883F21F48091EE058F7EE5CF95
:101AF0008D3F31F48091BD058E7F8093BD0597CFDA
:101B00008E3F21F48091BD058D7FF7CF8F3F09F087
:101B10008ECF8091BD058B7FF0CF8091BD0580FD7C
:101B200016C081FD16C082FD16C08091F305882382
:101B3000A1F0883280F428E0829FC001112468E27D
:101B400070E00E94D935862F672B39F0089582E026
:101B5000089584E0089588E0089581E008958091D3
:101B6000BD0580FD16C081FD16C082FD18C08091A4
:101B7000F305882391F08C3390F423E2829FC00117
:101B800011246CE370E00E94D935862F672B49F051
:101B9000089588E0089581E1089585E0089583E23D
:101BA000089581E00895803F31F40E94AF0D819542
:101BB0008093F0050895813F19F40E94AF0DF8CF8E
:101BC000823F31F40E94AF0D81958093EF05089517
:101BD000833F19F40E94AF0DF8CF893F29F40E948A
:101BE0008D0D8093F10508958A3F21F40E948D0D9B
:101BF0008195F7CF8B3F31F40E948D0D81958093B5
:101C0000F20508958C3F19F40E948D0DF8CF843FA2
:101C100031F48091EE0581608093EE050895853F53
:101C200021F48091EE058260F7CF863F21F4809108
:101C3000EE058460F1CF873F21F48091EE05886046
:101C4000EBCF883F21F48091EE058061E5CF8D3F99
:101C500031F48091BD0581608093BD0508958E3F6C
:101C600021F48091BD058260F7CF8F3FB9F7809155
:101C7000BD058460F1CFCF92DF92EF92FF920F9378
:101C80001F932FB7F8944091B9055091BA05609110
:101C9000BB057091BC052FBF6A017B01EE24FF24B8
:101CA0008C0130E020E0C016D106E206F30650F0C9
:101CB000481B590BCA011F910F91FF90EF90DF90C5
:101CC000CF90089541505109F3CFCF92DF92EF9218
:101CD000FF926C01EE24FF2420E0C114D104E10442
:101CE000F10419F0C701B60120E1C72ED82EE92E64
:101CF000FF24C114D104E104F10419F0285FC701E5
:101D0000B6016B017C0154E0F694E794D794C79434
:101D10005A95D1F7C114D104E104F10419F02C5FF4
:101D2000C701B6016B017C0142E0F694E794D794B9
:101D3000C7944A95D1F7C114D104E104F10419F014
:101D40002E5FC701B6019695879577956795672BA6
:101D5000682B692B09F02F5F822FFF90EF90DF90A7
:101D6000CF9008958091B40581111092B405089523
:101D70008091B3059091B205892B9091B105892B83
:101D80008093A2039091B4059923A1F0892B8093AD
:101D9000A20380911501882341F18091D60587FF28
:101DA00024C08EE1E4EAF3E090E0815000F5911167
:101DB0000E94B20EE091DC05F091DD053097E1F074
:101DC00080911501882359F08091D60587FF07C0BF
:101DD0008091A2038093A30385E08093A2030280F5
:101DE000F381E02D82EA93E0099486E0DBCF219134
:101DF0002223D9F29F5FD9CF08959091150199239D
:101E0000D1F09091D60597FF16C0E82FE695E6959C
:101E1000E695EE31E0F4F0E0EE55FC4F282F277008
:101E200081E090E001C0880F2A95EAF780959281C1
:101E3000892382830895E4EAF3E09191891303C032
:101E4000DF0111971C9293E0EA3AF907B1F7089580
:101E5000909115019923C1F09091D60597FF14C078
:101E6000E82FE695E695E695EE31F8F4F0E0EE55CC
:101E7000FC4F877021E030E001C0220F8A95EAF71D
:101E80008281822B82830895A4EAB3E0EFEF90E091
:101E90002D91821751F0EF3F19F4211101C0E92F64
:101EA0009F5F9630A9F7EF3F09F408950E2E000CBE
:101EB000FF0BEE55FC4FE6CFE92FEE0FE90FEE0FCB
:101EC0008E0F982F977086958695869525E0829F30
:101ED000F0011124E758FA4F50E040E080E02191F2
:101EE00030E0092E02C0369527950A94E2F721705A
:101EF0003327042E01C0220F0A94EAF7822B4F5F8A
:101F00005F4F4530510559F70895E92FEE0FE90F5E
:101F1000EE0F8E0F982F977041E001C0440F9A95F5
:101F2000EAF786958695869595E0899FF0011124BC
:101F3000E758FA4F30E020E070E05191DF0111974F
:101F4000CB01022E02C0969587950A94E2F7817024
:101F500081958527842385278C932F5F3F4F2530DC
:101F6000310559F7089580917805909147059813A8
:101F700001C008958F5F8770FACF882341F0809564
:101F80009091B20589238093B2050C94B80E089500
:101F9000882339F09091B205982B9093B2050C9458
:101FA000B80E0895882341F080959091B305892358
:101FB0008093B3050C94B80E0895882339F090915E
:101FC000B305982B9093B3050C94B80E0895209107
:101FD0002A0530912B052817390771F090932B05AE
:101FE00080932A05E091DC05F091DD05309721F022
:101FF0000084F185E02D0994089520912805309101
:1020000029052817390771F0909329058093280531
:10201000E091DC05F091DD05309721F00680F78135
:10202000E02D09940895E091DC05F091DD053097ED
:1020300021F00190F081E02D099480E00895FA01EB
:10204000811101C0FB0109948033910538F5880F97
:10205000991F880F991FFC01EC5DFE4F528133815F
:1020600080818370E181A82FB0E070E9879FC00173
:10207000112480529C4FE80FF92FF11DB497608313
:10208000FC01E50FF11DB4974083830F911DFC0106
:10209000B4972083A252BC4F81E08C930895FF92A5
:1020A0000F931F93CF93DF93182F062FF42ED0E0BA
:1020B000C0E02F2D402F612FCE010E9424102196C9
:1020C000C033D105B1F7DF91CF911F910F91FF90F0
:1020D000089580913E06837011F41092080180915A
:1020E0003E068C7F816080933E0608950C944F10CD
:1020F0000C9424100F931F9310E0F801EE0FFF1FB4
:10210000EF5EFC4F9081905797FD9195000F111F46
:10211000F801EE5EFC4F00810052110B2003F0012C
:10212000219FF00D112408E310E0091B110997FD10
:10213000139540039001419F300D1124E20FF31FCE
:102140009F01220F331F2E0F3F1F37FF02C0215860
:102150003F4F220F232F221F330B620F1F910F912E
:1021600008950F931F93522F10E0F801EE0FFF1FF9
:10217000EE5EFC4FA081A052BB0B9D015203F0010B
:10218000539FF00D1124000F111FD801AF5EBC4FFB
:102190000C910057110B40039001419F300D112409
:1021A0002E0F3F1F37FF02C0215C3F4F96E0359551
:1021B00027959A95E1F7620F1F910F9108950F935C
:1021C0001F93522F10E0F801EE0FFF1FEE5EFC4F41
:1021D000A081A052BB0B9D015203F001539FF00D53
:1021E0001124000F111FD801AF5EBC4F0C91005796
:1021F000110B40039001419F300D11242E0F3F1F02
:1022000037FF02C021583F4F220F232F221F330BCD
:10221000620F1F910F910895EF920F93972F23E074
:10222000029FB0011124759567956E0D792F0F915E
:10223000EF900895322F50E0FA01EE0FFF1FEE5E8F
:10224000FC4F9081905297FD9195440F551FFA01D4
:10225000EF5EFC4F2081231B330B290F311D97FDAF
:102260003A95620F0895E42FF0E0EE0FFF1FEE5E47
:10227000FC4F6081621B0895E42FF0E0EE0FFF1F1A
:10228000EF5EFC4F6081621B0895622F0895E42F7A
:10229000F0E0EE0FFF1FEF5EFC4F408134EE439FF6
:1022A000412D1124E82FF0E050E0445E5F4FDA0149
:1022B000A21BB1099D01B7FF03C0319521953109DA
:1022C00093E0220F331F9A95E1F7AF01421B530BA6
:1022D0009A0157FD20E0582F259F212D1124822F90
:1022E0000895E42FF0E0EE0FFF1FEF5EFC4F4081FA
:1022F00034EE439F412D1124E72FF0E050E0445E7F
:102300005F4FDA01A21BB1099D01B7FF03C03195F0
:102310002195310993E0220F331F9A95E1F7AF0120
:10232000421B530B9A0157FD20E0279F212D1124BA
:10233000722F0895FC019B01009729F480E077FF3C
:102340002BC080E80895AC0197FF04C044275527AF
:10235000481B590BB901640F751F37FD10C0241BB2
:10236000350BC901A5E0880F991FAA95E1F70E94D6
:10237000D93580E2861BF7FF0FC081950895CB0108
:1023800065E0880F991F6A95E1F7BA01621B730B2C
:102390000E94D93580E6EECF0895EF920F93CF9348
:1023A000DF93D72FC82FC9010E19BA010E949A11C5
:1023B000602F681B7D2F8C2FDF91CF910F91EF90B5
:1023C00008950F93CF93DF93D72FC82FC901BA0178
:1023D0000E949A11682F600F7D2F8C2FDF91CF9173
:1023E0000F910895EF920F931F93CF93DF93D62F02
:1023F000C72F182FC9010E19010FBA010E949A1197
:10240000081B202F219F212D1124822F6D2F7C2F1F
:10241000DF91CF911F910F91EF900895EF920F935D
:102420001F93CF93DF93D62F172FC82FC9010E19F3
:10243000070FBA010E949A11702F781B719F712D9E
:1024400011246D2F8C2FDF91CF911F910F91EF9061
:1024500008950F931F93CF93DF93D62FC72F182F75
:10246000C901212F201B022FBA010E949A11982F17
:10247000990F990F891B800F282F219F212D11243F
:10248000822F6D2F7C2FDF91CF911F910F91089597
:102490000F931F93CF93DF93D62F172FC82FC90108
:1024A000272F201B022FBA010E949A11982F990FF3
:1024B000990F782F791B700F719F712D11246D2F3B
:1024C0008C2FDF91CF911F910F910895E82F86FDFA
:1024D000E0952E2F2F7086FD2F5FE695E695E69509
:1024E000E670F0E0E45EFE4F9181929F902D212DE9
:1024F000112492959F702295207F922B2081920F1C
:1025000087FD919580E8890F0895AC01823091058F
:1025100008F408959FEF413E8EE1580740F49A0178
:1025200095E0369527959A95E1F798E0920F61E04E
:10253000E62FE90FFF27FF1F9F0135952795822F73
:10254000229FF001239FF00DF00D11244E175F071D
:1025500038F49FEF920F961758F78FEF860F089574
:102560002F3FE9F361E0620FF6CF0F93CF93DF9334
:10257000D72FC82F47FD419588E390E0841B910930
:1025800047FD9395889FB001899F700D700D1124B0
:10259000229FC001239F900D900D1124860F971F3D
:1025A0000E948512982F990F890F682F600F7D2F39
:1025B0008C2FDF91CF910F91089530E020E0869F1E
:1025C000212D969F200D311D1124C9010895AF9230
:1025D000BF92CF92DF92FF920F931F93CF93DF931F
:1025E000362F472FE82FF0E0E455F64F71110DC05C
:1025F0006491762F862FDF91CF911F910F91FF90DD
:10260000DF90CF90BF90AF900895C72FD0E0249176
:10261000F22E022F10E056E0659FC0011124EFEF6B
:10262000F0E0BF010E94C535832F90E0880F991F0D
:1026300035E5369FD001379FB00D11248A1B9B0BC7
:10264000982F990F980F6F01CC1ADD0AC09ED00108
:10265000C19EB00DD09EB00D11248B2F949FA00170
:102660001124452F55276F01C41AD50AC09EA00119
:10267000C19E500DD09E500D11245F01A91AB108C2
:10268000AC9E6001AD9ED00CBC9ED00C1124CD2C14
:10269000DD24EC19FD09E09FE001E19FD00DF09FE2
:1026A000D00D1124ED2F62307105A1F048F46115B1
:1026B000710569F06130710589F0EB2F852F07C036
:1026C0006430710571F088F066307105B1F76E2FD6
:1026D000722F91CFE22F2B2F8D2FF9CFE22F252FA5
:1026E000F6CFEB2F822F2D2FF2CF2B2F8F2DE52F13
:1026F000EECF9F92AF92BF92CF92DF92EF92FF9276
:102700000F931F93CF93DF936C0180911601C82F15
:10271000CC0FCC0FC80F15E01C0FB12E113310F0E9
:1027200030E3B32E60914206669566958091360639
:10273000909137060E94DD12F82E80E48F0D0E94E2
:10274000661290E8A92EA80E8F2D0E94661220E82E
:10275000922E980ED0E0CB1580F081E0103308F077
:1027600080E0DF91CF911F910F91FF90EF90DF906C
:10277000CF90BF90AF909F900895FE01EF58FC4F0F
:102780008081909117018923A1F060913F0670919B
:10279000400680914106EF2C0C2F292D4A2DF60181
:1027A00009950E94E712462F282F672FCE010E941D
:1027B00078102196D0CF7F928F929F92AF92BF9246
:1027C000CF92DF92EF92FF920F931F93CF93DF93FD
:1027D0005C0180911601C82FCC0FCC0FC80F15E0FB
:1027E0001C0FF12E113310F030E3F32E60914206EE
:1027F000669580913606909137060E94DD12782EFC
:10280000D0E0CF1590F081E0103308F080E0DF9148
:10281000CF911F910F91FF90EF90DF90CF90BF90DD
:10282000AF909F908F907F900895FE01EF58FC4FDE
:102830008081909117018923C9F1CE01880F991FDA
:1028400083549D4FFC01EC5AFF4F2081422F40578B
:10285000550B6A018B5A9F4FFC018081282F205213
:10286000330B4901449F9001459F300D300D1124D9
:10287000889CC001899C900D900D1124820F931F9C
:102880000E948512082F60913F067091400680914A
:102890004106E72C9401A601F50109950E94E71273
:1028A000462F282F672FCE010E9478102196A9CF9E
:1028B000CF92DF92EF92FF920F931F93CF93DF930C
:1028C0007C0180911601C82FCC0FCC0FC80F15E0EA
:1028D0001C0FD12E113310F030E3D32E609142063D
:1028E000669580913606909137060E94DD12C82EBB
:1028F000D0E0CD1568F081E0103308F080E0DF9182
:10290000CF911F910F91FF90EF90DF90CF9008959E
:10291000FE01EF58FC4F808190911701892311F13E
:10292000CE01880F991F83549D4FFC01EB5AFF4F36
:1029300020812052330B8C5A9F4FFC01408140571D
:10294000550B60913F0670914006809141060C2D19
:10295000F70109950E94E712462F282F672FCE0115
:102960000E9478102196C5CFDF92EF92FF920F93CD
:102970001F93CF93DF937C0180911601C82FCC0F5A
:10298000CC0FC80F15E01C0F012F113308F000E326
:10299000609142066695669580913606909137065D
:1029A0000E94DD12D82ED0E0C01760F081E0103315
:1029B00008F080E0DF91CF911F910F91FF90EF9091
:1029C000DF900895FE01EF58FC4F80819091170130
:1029D000892391F060913F067091400680914106F5
:1029E0002D2D4C2FF70109950E94E712462F282F15
:1029F000672FCE010E9478102196D6CF9091D605F0
:102A000092FF06C0282F28712830F9F4877F846050
:102A100093FF06C0282F28712831F1F4877E846146
:102A20002091D70520FF06C0382F38713830D9F4EF
:102A3000877F816021FF06C0282F28712831D1F4BB
:102A4000877E816194FD877E0895282F247124302C
:102A5000F9F68B7F8860DCCF282F2471243101F7B1
:102A60008B7E8861DDCF382F3171313019F78E7F41
:102A70008860E0CF282F2171213121F78E7E886177
:102A8000E1CFCF93DF93972F70E026E0929F600D08
:102A9000711D1124FB0134E5839FE00DF11D11240C
:102AA000EE0FFF1FE455F54FC591D491CE01C2380A
:102AB000D105B9F1E8F5C133D10509F499C050F554
:102AC000C932D10509F48DC0CA32D10509F497C0C5
:102AD000C11542E5D40708F0C4C0C11521E5D207ED
:102AE00008F038C1C83ED10508F09DC0C03ED105F0
:102AF00068F5C83AD10508F089C0C53AD10508F093
:102B000005C1C130D10511F1209709F443C02497C4
:102B1000E8F440C0C533D10509F45CC0C933D10520
:102B2000B9F62091D605237089F080EE90E00EC0B2
:102B3000C33ED10591F168F4C03ED105F9F0C23E23
:102B4000D10531F62091D60522FD20C0DF91CF912D
:102B50000895C63ED10561F1C73ED10581F1C43E5D
:102B6000D10509F0B5CF2091D70521FFEFCF809196
:102B7000D60584FD0FC087EE90E0E8CF2091D60502
:102B800020FD19C13091D70530FFE0CF83EE90E0F2
:102B900024FFDCCF90E080E0D9CF2091D60522FD44
:102BA0000DC13091D70530FDC0CF24FFCFCFF2CF7C
:102BB0002091D60523FFCACF24FDECCFDCCF209196
:102BC000D60523FDFEC03091D70531FFEECF84EE50
:102BD00090E0BCCF2091D60525FFB8CF89E290E0E8
:102BE000B5CF2091D60525FFB1CF85E390E0AECFDC
:102BF0002091D60526FFAACF8AE290E0A7CF2091A8
:102C0000D60526FFA3CF81E390E0A0CFCF3BD1052F
:102C100008F6C85AD0E0CC0FDD1FC157DD4F8881C0
:102C20009981946493CFC11530E2D30760F4C11544
:102C300041E0D40708F08ACFCE019065C03FD105AE
:102C400008F084CFA7CFC11580E4D80708F4A2CF3D
:102C5000C11590E5D90708F061C0CE019F70906A58
:102C600075CFC11526E5D20718F5C11535E5D3078F
:102C700008F086C0C11544E5D40708F07CC09C2F3D
:102C800096959695AE0143705527C115D34508F426
:102C900066C021E030E002C0220F331F4A95E2F700
:102CA00040E2949FC0011124822B932B9A684ECF4F
:102CB000C1159AE5D90778F4C11529E5D20708F0BE
:102CC00069C0C11538E5D30708F464CF9C2F882765
:102CD000806F906A3BCFC1154BE5D40708F45ACFFB
:102CE000C1158CE5D80708F462C0CE019056811555
:102CF000904208F04FCF8D2F8F710E94FE1490E00C
:102D0000982F882788279F718C2B42C0C55AD0E006
:102D1000C457DD4F888190E0906418CF9E01E4E0B5
:102D200036952795EA95E1F723708C2F8695869541
:102D3000837030E2839FC0011124922BC37021E085
:102D400030E002C0220F331FCA95E2F7822B932B8B
:102D50009C68FCCE9C2F8827816F906AF7CE21E07B
:102D600030E002C0220F331F4A95E2F740E2949F01
:102D7000C0011124EBCF9C2F8827846F906AE6CE88
:102D80008C2F0E94FE1490E0982F882788279F712F
:102D90009062DCCE8C2F8F700E94FE1434E0D695AA
:102DA000C7953A95E1F7CF709C2F9069CFCECE01B1
:102DB00099279066CBCE89E390E0C8CE82EE90E072
:102DC000C5CE86EE90E0C2CEBF92CF92DF92EF9258
:102DD000FF920F931F93CF93DF938C01C090D80580
:102DE000D090D905E090DA05F090DB058091B5052B
:102DF0009091B605A091B705B091B805C82AD92A17
:102E0000EA2AFB2ACFE1D0E0BC2ED701C6010C2E66
:102E100004C0B695A795979587950A94D2F780FD3B
:102E20000EC0219788F7B12C8B2DDF91CF911F9188
:102E30000F91FF90EF90DF90CF90BF900895B80171
:102E40008C2F0E944115019761F3EECFCF93DF9352
:102E5000EC010E94E416BE01DF91CF910C94411564
:102E60000E942617292F2F7092959F7092509E30A6
:102E700078F4E92FF0E0EC5EF64C0C94ED35803FF1
:102E800019F020F4883E20F481E00895843FE1F3B6
:102E900080E00895883EC0F3813FD1F7F5CF822FBF
:102EA0008695869586950895BF92CF92DF92EF9290
:102EB000FF920F931F93CF93DF93EA01FB01EE0F75
:102EC000FF1FE60FF71F20E9AC01249FC001259FDB
:102ED000900D11248E0F9F1FFC01E455FF4F64914C
:102EE000FC01E355FF4F749182559F4FFC01849183
:102EF000962F972B982B79F420E040E060E0CE01EC
:102F0000DF91CF911F910F91FF90EF90DF90CF90C5
:102F1000BF900C9478100E94E7128B01B82E60913C
:102F2000410670E090E080E00E94EC3620E030E066
:102F30004FE753E40E944B366B017C016B2D70E030
:102F400090E080E00E94EE36A70196010E947A3759
:102F50000E94BD36B62E602F70E090E080E00E94A7
:102F6000EE36A70196010E947A370E94BD36062FE1
:102F7000612F70E090E080E00E94EE36A70196019C
:102F80000E947A370E94BD362B2D402FB8CFCF93A9
:102F9000DF93EC014CE150E070E060E00E945417D8
:102FA0004BE150E061E070E0CE010E9454174AE12D
:102FB00050E062E070E0CE010E94541749E150E019
:102FC00063E070E0CE010E94541748E150E064E0F5
:102FD00070E0CE010E94541750E040E065E070E0E0
:102FE000CE010E94541741E050E066E070E0CE014F
:102FF0000E94541742E050E067E070E0CE010E946A
:10300000541743E050E068E070E0CE010E9454178E
:1030100044E050E069E070E0CE010E94541741E2C4
:1030200050E06AE070E0CE010E94541740E250E0A8
:103030006BE070E0CE010E9454174FE150E06CE06D
:1030400070E0CE010E9454174EE150E06DE070E058
:10305000CE010E9454174DE150E06EE070E0CE01C9
:103060000E94541745E050E06FE070E0CE010E94EE
:10307000541746E050E060E170E0CE010E94541722
:1030800047E050E061E170E0CE010E94541748E053
:1030900050E062E170E0CE010E94541749E050E038
:1030A00063E170E0CE010E94541746E250E064E113
:1030B00070E0CE010E94541745E250E065E170E0F7
:1030C000CE010E94541744E250E066E170E0CE0168
:1030D0000E94541743E250E067E170E0CE010E9485
:1030E000541742E250E068E170E0CE010E945417AC
:1030F0004AE050E069E170E0CE010E9454174BE0D5
:1031000050E06AE170E0CE010E9454174CE050E0BC
:103110006BE170E0CE010E9454174DE050E06CE18D
:1031200070E0CE010E9454174EE050E06DE170E077
:10313000CE010E9454174BE250E06EE170E0CE01E8
:103140000E9454174AE250E06FE170E0CE010E9405
:10315000541749E250E060E270E0CE010E9454173B
:1031600048E250E061E270E0CE010E94541747E26D
:1031700050E062E270E0CE010E9454174FE050E050
:1031800063E270E0CE010E94541740E150E064E237
:1031900070E0CE010E94541741E150E065E270E01A
:1031A000CE010E94541742E150E066E270E0CE0189
:1031B0000E94541743E150E067E270E0CE010E94A4
:1031C00054174FE250E068E270E0CE010E945417BD
:1031D0004EE250E069E270E0CE010E9454174DE2E9
:1031E00050E06AE270E0CE010E9454174CE250E0D9
:1031F0006BE270E0CE010E94541744E150E06CE2B3
:1032000070E0CE010E94541745E150E06DE270E09D
:10321000CE010E94541746E150E06EE270E0CE010C
:103220000E94541747E150E06FE270E0CE01DF9159
:10323000CF910C94541740E060E080E00E9476103B
:1032400040E060E080E00E94761081E08093070615
:10325000089527982F98089526982E9808952598D0
:103260002D98089556985E980895279A2F9A089554
:10327000269A2E9A0895259A2D9A0895CF92DF9234
:10328000EF92FF926B017C010E943219C701B601D7
:103290000E94650E8031C0F4E82FF0E0EE5DF64C40
:1032A0000C94ED350E942F190E942C190BC00E941E
:1032B0002F190E942C190E94351906C00E942F193F
:1032C0000E9438190E942919C701B601FF90EF909A
:1032D000DF90CF9008950E942F190E943819EBCFEC
:1032E0000E943B19E1CF0E943B19E3CF0E943B199A
:1032F000E7CF0E943B19F1CF84B1807F84B985B1BB
:10330000807F85B98AB1837F8AB98BB1837F8BB97E
:103310003E984698089580B38C7080BB81B3836FCC
:1033200081BB0895CF9384E090E00E940336C82FBC
:1033300081E290E00E940336982F8C2FCF91089560
:10334000CF93DF9300D00F92CDB7DEB790912C06CC
:10335000943019F589837B836A8382E08093E90046
:103360008FEF9091E800815095FD06C095ED9A95FC
:10337000F1F700008111F5CF8091E80085FF0DC0C5
:1033800050E040E063E070E0CE0101960E94C90B7E
:103390008091E8008E778093E8000F900F900F9057
:1033A000DF91CF910895CF93DF93EC010E94030D3D
:1033B000823011F0843031F4BE0184E0DF91CF918E
:1033C0000C94A019DF91CF910895BC016058710948
:1033D00083E00C94A019CF93DF93EC010E94030DBE
:1033E000823011F08430F9F482E08093E9008FEFAD
:1033F0009091E800815095FD06C095ED9A95F1F702
:1034000000008111F5CF8091E80085FF0CC050E0ED
:1034100040E066E070E0CE010E94C90B8091E800B8
:103420008E778093E800DF91CF910895CF93DF935B
:10343000EC010E94030D823011F08430B9F58091C7
:1034400015018823B1F18091D60587FF32C060E273
:1034500082E08093E9008FEF9091E800815095FD24
:1034600006C095ED9A95F1F700008111F5CF809196
:10347000E80085FF1BC08091150170E050E040E03E
:10348000811104C050E040E068E070E0CE010E948D
:10349000C90B8091E8008E778093E80080E2FE01FE
:1034A000AAE0B6E001900D928A95E1F7DF91CF9105
:1034B000089568E081E0CDCF0E9432190E942F1953
:1034C0000E942C190E9429198FEF90E09093890097
:1034D0008093880090938B0080938A0090938D0056
:1034E00080938C000E943B192FEF80E792E02150DF
:1034F00080409040E1F700C000000E9438192FEF93
:1035000080E792E0215080409040E1F700C0000049
:103510000E9435192FEF80E792E0215080409040C3
:10352000E1F700C000000E942F192FEF80E792E022
:10353000215080409040E1F700C000000E942C190B
:103540002FEF80E792E0215080409040E1F700C0EB
:1035500000000E9429190E9432190E942F190E940E
:103560002C190C9429196091C0058CE090E00C9402
:1035700027366CEE7EEF90E080E00E94453660E0FA
:1035800082E090E00E94273660E083E090E00E94B5
:1035900027361092B5051092B6051092B705109215
:1035A000B80560E084E090E00E94273660E081E2A8
:1035B00090E00E94273660E085E090E00E94273688
:1035C00060E086E090E00E9427366FEF87E090E0B1
:1035D0000E94273640E050E0BA0188E090E00E9467
:1035E000393660E08DE090E00E94273640E050E000
:1035F000BA0188E190E00E94393660E087E190E00E
:103600000E94273640E050E0BA018CE190E00E9431
:10361000393660E080E290E00E9427361092C405BF
:103620001092C5051092C6051092C70584E080610E
:103630008093C4054091C4055091C5056091C605AD
:103640007091C7058FE090E00E94393640E050E06D
:10365000BA0183E190E00C9439360F931F93CF9316
:10366000DF93082F000FEB0114E21093CA03EBEC79
:10367000F3E0DE018D91819383E0EB3DF807D1F714
:1036800024E630E041E150E06AEC73E0802F0E94D4
:103690009A35105F6096143B41F7DF91CF911F91EF
:1036A0000F9108958091DE03882329F060EE73E086
:1036B00084E70E942D1B1092DE038091DF03882394
:1036C00029F060E774E087E70E942D1B1092DF036A
:1036D0000895EAECF3E06083418324E630E042E0C1
:1036E00050E0BF01880F0C949A350F931F93CF932E
:1036F000DF93082FE62FF0E0EC5DFA4F80818823FE
:1037000079F082E1689FE0011124C050DB4F10E0A6
:103710004991612F802F0E94691B1F5F1231C1F7F1
:10372000DF91CF911F910F910895CF93DF93C82F11
:103730004BE06DEF0E94691B40E06AE08C2F0E9415
:10374000691B8FE39CE90197F1F700C0000040E09E
:1037500060E08C2F0E94691B40E061E08C2F0E948A
:10376000691B40E066E08C2F0E94691B40E06DEF12
:103770008C2F0E94691BD0E040E06D2F8C2F0E949F
:10378000691BDF5FD231C1F740E06D2F8C2F0E94A3
:10379000691BDF5FD432C1F740E06D2F8C2F0E9490
:1037A000691BDF5FD43BC1F74BE06DEF8C2F0E94AC
:1037B000691B41E06AE08C2F0E94691B40E06DEFBD
:1037C0008C2FDF91CF910C94691B6F927F928F9217
:1037D0009F92AF92BF92CF92DF92EF92FF920F93A0
:1037E0001F93CF93DF930E94E53484E70E94951BDB
:1037F00087E70E94951B64E2E62E61E0F62ED12C4D
:10380000C12C72E1772EE8E08E2E912CAA24A3948D
:10381000B12C66246394F701418150E0CA0184977A
:1038200002810452110BC381C452DD0BF601EE0F6D
:10383000FF1FEE0FFF1FEC5DFE4F2081237030E075
:10384000FC0197FD379643E0F595E7954A95E1F73A
:10385000729EA001739E500D112440505B4FE40FE7
:10386000F52FF11DB4010E94D935A50101C0440F07
:103870008A95EAF78081842B8083F80117FD3796BB
:1038800093E0F595E7959A95E1F7729EC001739ED6
:10389000900D112480509B4FE80FF92FF11DC801A6
:1038A000B4010E94D935A50101C0440F8A95EAF7F9
:1038B0008081842B8083FE01D7FD379683E0F595C8
:1038C000E7958A95E1F7729EC001739E900D1124D1
:1038D00080509B4FE80FF92FF11DCE01B4010E94DB
:1038E000D935A50101C0440F8A95EAF78081842B60
:1038F00080832C5D3A4FF9016082FFEFCF1ADF0A17
:1039000084E0E80EF11CE0E3CE16D10409F083CF89
:1039100060E084E70E94751B61E087E7DF91CF914B
:103920001F910F91FF90EF90DF90CF90BF90AF90DD
:103930009F908F907F906F900C94751B45E050E0A6
:103940006CE170E08EE396E00C94173680913E06B1
:10395000982F969596959F5F9F738370963148F444
:10396000990F990F892B80933E06109208010C94B1
:103970009E1C8460F8CF80913E06845080933E0662
:10398000982F9C7F21F48370846580933E0610926B
:1039900008010C949E1CEEE3F6E08181885F818330
:1039A0000C949E1CEEE3F6E08181885081830C9498
:1039B0009E1CEEE3F6E0228130E1230F08F42FEFA6
:1039C00022830C949E1CEEE3F6E0228130E1231B5F
:1039D00008F420E022830C949E1CEEE3F6E02381A1
:1039E00030E1230F08F42FEF23830C949E1CEEE3A9
:1039F000F6E0238130E1231B08F420E023830C94BC
:103A00009E1CEEE3F6E0248130E1230F08F42FEF53
:103A100024830C949E1CEEE3F6E0248130E1231B0A
:103A200008F420E024830C949E1C90913E06969509
:103A30009695981720F0961710F40C94A61C982FC2
:103A4000990F990F80913E068370892B80933E06D3
:103A5000109208010C949E1CEEE3F6E081E3808353
:103A60008091190190911A01A0911B018183928389
:103A7000A3838FE784830C949E1C0E94E51B90E037
:103A800080E00E9411368C3E9E4F21F00E94B91AB0
:103A90000E942C1D45E050E06CE170E08EE396E062
:103AA0000E94F33580913E068C7F11F40C942C1DFE
:103AB000089580E290E090930A018093090180913B
:103AC000C90381110EC00E94E53481E08093C903CF
:103AD0002FEF83ED90E3215080409040E1F700C04C
:103AE000000064E670E080E40E94EB3490930A01E9
:103AF00080930901892B09F04EC064E670E080E0F4
:103B00000E94473590930A0180930901892B09F09F
:103B100042C064E670E080E00E94473590930A015D
:103B200080930901892BB9F564E670E08FE30E9468
:103B3000473590930A0180930901892B61F50E9412
:103B4000C13564E670E080E40E94EB3490930A0192
:103B500080930901892BF9F464E670E08CE00E94FF
:103B6000473590930A0180930901892BA1F464E6FB
:103B700070E080E00E94473590930A01809309012C
:103B8000892B49F464E670E08FE30E9447359093F7
:103B90000A01809309010E94C135809109010895AD
:103BA000CF93C82F873070F58091090190910A0159
:103BB000892B89F564E670E080E40E94EB349093F1
:103BC0000A0180930901892BD1F464E670E082E157
:103BD0000E94473590930A0180930901892B79F45B
:103BE00081E090E001C0880FCA95EAF764E670E0D2
:103BF00080950E94473590930A0180930901CF91E7
:103C00000C94C1358A30B9F040F4883071F08930B5
:103C100079F0209A2898CF9108958C3091F070F027
:103C20008D30B9F73E9A4698F6CF219A2998F3CF6E
:103C3000229A2A98F0CF239A2B98EDCF529A5A982D
:103C4000EACF539A5B98E7CFCF93873050F58091B6
:103C5000090190910A01C0E0892B71F464E670E0DB
:103C600081E40E94EB3490930A0180930901892B2F
:103C700031F0C0E00E94C1358C2FCF91089584E6C9
:103C800090E00E94763597FF05C090930A018093DB
:103C90000901EFCFC82FC09510920A0110920901B7
:103CA000E9CFCFB18FB1869586958C73C3708C2B7D
:103CB000C82FC095E1CF78941F921FB61F92112490
:103CC0008F939F93AF93BF938091B9059091BA055D
:103CD000A091BB05B091BC050196A11DB11D8093BB
:103CE000B9059093BA05A093BB05B093BC05BF91ED
:103CF000AF919F918F911F901FBE1F9018952FB766
:103D0000F8948091B9059091BA05A091BB05B09146
:103D1000BC052FBF0895E091DC05F091DD053097DB
:103D200049F082E08093ED050480F581E02D8DEE71
:103D300095E009950E947F1E9093F5058093F40508
:103D400008951092B2051092B1050E94B80E86E057
:103D5000EDEEF5E0DF011D928A95E9F71092F3058B
:103D60001092BD050E948B1E90E080E00E94FD0F26
:103D700090E080E00C94E70F0E943E196093D80514
:103D80007093D9058093DA059093DB050C94A11EFE
:103D90000F931F9341E050E060E070E004C0440FD7
:103DA000551F661F771F8A95D2F7CB01BA01609520
:103DB0007095809590950091D8051091D905209126
:103DC000DA053091DB0560237123822393231F9151
:103DD0000F910C94BC1E9091B0058095892380931F
:103DE000B005282F277071F4282F082E000C330BF4
:103DF0009217130639F08595859585950E94C81E02
:103E00001092B00508950F931F9341E050E060E0D9
:103E100070E004C0440F551F661F771F8A95D2F7C4
:103E20008091D8059091D905A091DA05B091DB0574
:103E30008A019B01082B192B2A2B3B2BC901B801A6
:103E40001F910F910C94BC1E6093B5057093B6053D
:103E50008093B7059093B8050C94A11E1092B305FA
:103E600080911501E4EAF3E0882359F08091D605AA
:103E700087FF07C08EE1DF011D928A95E9F70C9458
:103E8000A11E86E0F8CF1F93CF93DF93CDB7DEB7A7
:103E9000AA970FB6F894DEBF0FBECDBF8EE296E0B4
:103EA0002091F100FC012193CF01F6E086339F07BA
:103EB000B9F780912F06833009F46FC0B8F48130D0
:103EC00009F446C0823009F4B0C08091E80083FF55
:103ED00087C280912E0690912F069A3008F080C2FA
:103EE000E92FF0E0EE5CF64C0C94ED358A3009F4E5
:103EF0008BC08B3009F46EC0893039F780912E0663
:103F0000813219F780913206909133060297E8F6D4
:103F10008091E800877F8093E8008091E80082FF2D
:103F200037C09091F3008091F200029729F48091BC
:103F3000F1008B7F813021F48091F100809309069C
:103F40008091E8008B778093E8000E94F30BBDCF4F
:103F500080912E06813A09F0B8CF8091E800877FE2
:103F60008093E8008091320690913306892B61F4AA
:103F700060E28AE096E070E00E94A50C8091E80083
:103F80008B778093E800A1CF60E090E080E0F3CFF2
:103F900080912C068111C1CF98CF80912E06813A55
:103FA00009F093CF8091320690913306892B09F066
:103FB0008CCF8091E800877F8093E8008091E800B3
:103FC00080FFFCCF809115018093F1008091E80083
:103FD0008E77B9CF80912E06813209F076CF80910D
:103FE000320690913306892B09F06FCF8091E8005B
:103FF000877F8093E8000E94F30B809130068093C6
:1040000015010E942E1F61CF80912E06813209F08A
:104010005CCF8091E800877F8093E8000E94F30BDB
:10402000809131068093080650CF80912E06813A08
:1040300009F04BCF8091E800877F8093E800809162
:10404000E80080FFFCCF80910806BECF803899F051
:10405000823809F0C5C1809132068F70873008F030
:10406000BFC18093E9008091EB0085FB882780F930
:104070001092E90006C080912A0690912B069111BA
:1040800082609091E800977F9093E8008093F10020
:104090001092F1008091E8008E779EC1882309F488
:1040A0008CC1823009F09CC18091300681118FC192
:1040B000809132068F702FEF280F263008F090C1C4
:1040C0008093E9002091EB0020FF81C1933031F40F
:1040D0008091EB0080628093EB0079C19091EB00BE
:1040E00090619093EB0021E030E001C0220F8A95AF
:1040F000EAF72093EA001092EA008091EB008860D2
:10410000EACF81116DC1109130061F778091E300D5
:104110008078812B8093E3008091E800877F8093F3
:10412000E8000E94F30B8091E80080FFFCCF8091B3
:10413000E30080688093E30082E0111183E08093C4
:104140002C064EC18058823008F04AC1809130065A
:10415000909131068C3D23E09207A1F583E08A839C
:104160008AE289834FB7F894DE01139620E03EE09F
:1041700051E2E32FF0E050935700E49120FF03C099
:10418000E295EF703F5FEF708E2F90E0EA30C0F065
:10419000C7968D939D932F5F243159F74FBF809120
:1041A000E800877F8093E8006AE270E0CE01019624
:1041B0000E94A50C8091E8008B778093E80010C1E5
:1041C000C096E7CF4091320650913306292F33270E
:1041D0002330310509F445C078F52130310509F463
:1041E0007BC08BE390E0ECE2F6E12230310509F090
:1041F000F7C02091E800277F2093E8002091340643
:10420000309135068217930708F49C0140E0211590
:10421000310509F070C041116EC08091E80082FD47
:10422000C9CF80912C06882329F2853019F280911C
:10423000E80083FFF2CFBECF2132310509F440C040
:104240002232310509F0CCC04115510509F44EC0A8
:104250004130510509F0C4C080EC90E0ECE2F5E19A
:10426000C8CF992781309105D9F0009771F082303D
:104270009105F1F0039709F0B3C0E9E7F6E1E491A5
:104280008E2F90E0E9E7F6E107C0EFEAF6E1E4916E
:104290008E2F90E0EFEAF6E1009709F4A1C0A9CFD4
:1042A000E7E9F6E1E4918E2F90E0E7E9F6E1F4CF5B
:1042B000EFE7F6E1E4918E2F90E0EFE7F6E1ECCF47
:1042C0004115510571F04130510509F089C089E06F
:1042D00090E0E7E5F6E18DCF82E190E0E7E6F6E1F8
:1042E00088CF89E090E0EEE3F6E183CF80E490E0D0
:1042F000ECEEF5E17ECF80912C06882309F45ACFAD
:10430000853009F457CF8091E80083FD53CF809129
:10431000E80082FD82CF8091E80080FF78CF909105
:10432000F3008091F2002115310519F088309105D4
:1043300050F041E0089709F040E08091E8008E7766
:104340008093E80064CF44914093F100319621506E
:1043500031090196E8CF803809F042C08091E80029
:10436000877F8093E80080912D068093F10092CEA4
:10437000811136C010913006123090F58091E8001E
:10438000877F8093E80010932D060E94F30B112382
:1043900011F084E005C08091E30087FDFACF81E051
:1043A00080932C0642E061EC81E00E94120C42E214
:1043B00061EC82E00E94120C13C0809130068130C3
:1043C00079F481E0933009F080E080932B0610921D
:1043D000E9008091E800877F8093E8000E94F30B5A
:1043E0008091E80083FF0AC08091E800877F809376
:1043F000E8008091EB0080628093EB00AA960FB6F4
:10440000F894DEBF0FBECDBFDF91CF911F9108950D
:104410001F920F920FB60F9211242F933F934F9339
:104420005F936F937F938F939F93AF93BF93CF933C
:10443000DF93EF93FF93D091E900DF708091EC0060
:10444000C82FC17080FDC0E81092E9008091F00093
:10445000877F8093F00078940E94431F1092E900B8
:104460008091F00088608093F000CD2BCF70C093D6
:10447000E900FF91EF91DF91CF91BF91AF919F91B3
:104480008F917F916F915F914F913F912F910F90FD
:104490000FBE0F901F9018951F920F920FB60F929C
:1044A00011242F933F934F935F936F937F938F9339
:1044B0009F93AF93BF93EF93FF938091E10082FFAF
:1044C00009C08091E20082FF05C08091E1008B7FEE
:1044D0008093E1008091DA0080FF24C08091D800B1
:1044E00080FF20C08091DA008E7F8093DA00809177
:1044F000D90080FFA1C080E189BD82E189BD09B4F6
:1045000000FEFDCF81E080932C068091060681118C
:1045100009C00E94790B0E94440C8091E2008460E3
:104520008093E2008091E10080FF17C08091E2005B
:1045300080FF13C08091E2008E7F8093E200809123
:10454000E20080618093E2008091D80080628093D5
:10455000D80019BC85E080932C068091E10084FF8F
:104560002FC08091E20084FF2BC080E189BD82E1F1
:1045700089BD89B5982F917080FFFBCF8091D800BD
:104580008F7D8093D8008091E1008F7E8093E10041
:104590008091E2008F7E8093E2008091E200816052
:1045A0008093E20080912D06882309F44BC084E0BB
:1045B00080932C060E942E1F0E9413101092070653
:1045C0008091E10083FF27C08091E20083FF23C038
:1045D0008091E100877F8093E10082E080932C0648
:1045E00010922D068091E1008E7F8093E1008091F2
:1045F000E2008E7F8093E2008091E20080618093F0
:10460000E20042E060E080E00E94120C8091F00045
:1046100088608093F000FF91EF91BF91AF919F91DF
:104620008F917F916F915F914F913F912F910F905B
:104630000FBE0F901F90189519BC10922C06109267
:10464000060670CF8091E30087FD93E090932C06DF
:10465000B1CF882309F459C0823871F40E94131035
:1046600081FF53C089E30E94280F0E94B80E89E39E
:104670000E94FD0E0C94B80E833859F40E9413105A
:1046800080FF43C083E50E94280F0E94B80E83E597
:10469000EFCF843859F40E94131082FF36C087E4AC
:1046A0000E94280F0E94B80E87E4E2CF9CEF980F7B
:1046B000913AF0F290E2980F983088F4877021E0F8
:1046C00030E0A90102C0440F551F8A95E2F7CA01E4
:1046D00080959091B30589238093B305CBCF9BE55B
:1046E000980F933020F490E080E00C94FD0F98E553
:1046F000980F973120F490E080E00C94E70F803F12
:1047000020F00E940E0D0C948B1E0895882309F44E
:104710007BC08238B9F40E94131081FD75C089E313
:104720000E94280F0E94B80E2FEF81EE94E02150D6
:1047300080409040E1F700C0000089E30E94FD0E38
:104740000C94B80E8338A1F40E94131080FD5CC055
:1047500083E50E94280F0E94B80E2FEF81EE94E0AF
:10476000215080409040E1F700C0000083E5E6CF93
:104770008438A1F40E94131082FD46C087E40E9491
:10478000280F0E94B80E2FEF81EE94E02150804058
:104790009040E1F700C0000087E4D0CF9CEF980F75
:1047A000913A18F40E94280FCBCF90E2980F9830DE
:1047B00068F4877021E030E001C0220F8A95EAF7A3
:1047C0008091B305822B8093B305BACFEBE5E80F58
:1047D000E33038F4F0E0E457FD4F808190E00C9432
:1047E000FD0FE8E5E80FE73148F4F0E0EE0FFF1FBA
:1047F000E157FD4F808191810C94E70F803F20F0BD
:104800000E94D30D0C948B1E0895CF93C82F0E9445
:104810008623C93349F42FEF87EE93E0215080407F
:104820009040E1F700C000008C2FCF910C94292319
:104830000F931F93CF93DF93C62FD42F022FFC012A
:1048400082818823A1F060933B050E947F1E909394
:10485000270580932605C77081E001C0880FCA959F
:10486000EAF7DF91CF911F910F910C94DD0F10911A
:104870003B05161335C080912605909127050E94AF
:104880003B0E883C910560F5C0E2CD0F1D17B9F0D5
:1048900080E2810F883040F4177081E001C0880FFA
:1048A0001A95EAF70E94D20FC83048F481E09D2F94
:1048B000977001C0880F9A95EAF70E94DD0F802F4C
:1048C0000E940524C83098F4D77081E001C0880F99
:1048D000DA95EAF7DF91CF911F910F910C94D20FE7
:1048E000C77081E001C0880FCA95EAF7F3CFDF9166
:1048F000CF911F910F9108954F925F926F927F9287
:104900008F929F92AF92BF92CF92DF92EF92FF92DF
:104910000F931F93CF93DF9300D000D00F92CDB7AA
:10492000DEB76C01FC0183819481892B39F0108101
:10493000F180812F8F218F3F09F04FC70F900F908B
:104940000F900F900F90DF91CF911F910F91FF90DB
:10495000EF90DF90CF90BF90AF909F908F907F901F
:104960006F905F904F9008950E94E416082F682F73
:1049700089819A810E94850FE12FF0E026E0F29E66
:10498000E00DF11D112434E5039FE00DF11D11240C
:10499000EE0FFF1FE455F54F0591149108308DE59A
:1049A000180709F441C009309DE5190709F441C110
:1049B000023CECE51E0709F064C1F6018281882300
:1049C00009F4BCCF909117018091C4059F3F09F075
:1049D00051C1109217018F7E8093C40540E060E0C2
:1049E00080E00E9476104091C4055091C505609109
:1049F000C6057091C7058FE090E00F900F900F9063
:104A00000F900F90DF91CF911F910F91FF90EF903A
:104A1000DF90CF90BF90AF909F908F907F906F90DE
:104A20005F904F900C943936F60182818823C9F14A
:104A30008091C40591E0980F9770887F953008F4B5
:104A4000892B8093C4058091C4058770FFEF8F9FE9
:104A5000C0011124959587959595879599279093F1
:104A600089008093880090938B0080938A009093B4
:104A70008D0080938C004091C4055091C5056091D4
:104A8000C6057091C7058FE090E00E9439366091AD
:104A9000D8057091D9058091DA059091DB050E94C7
:104AA0003E19F6018281882389F0033EFCE51F0749
:104AB00009F411C108F0FBC0013E3CE5130709F4FD
:104AC00003C1023E8CE5180709F403C117FF30C18A
:104AD000F6018281882309F44DC08091B30580934B
:104AE0003A051092B3058091C005813009F4FBC0EE
:104AF000882309F4F4C0823009F402C1843009F437
:104B000006C18FE39CE90197F1F700C0000058014E
:104B1000E894B7F84CE0E42EF12C95010E2C02C07D
:104B2000369527950A94E2F72F7087E290E031F0EE
:104B3000822F90E02A3008F0EFC04D960E940524A5
:104B400094E0E91AF108ECEFEE16EFEFFE0629F714
:104B50008091C005813009F4E5C0882309F4DEC0E6
:104B6000823009F4DBC0843009F4E0C080913A055A
:104B70008093B305F6019281992309F468C61092D7
:104B80003B050230FCE51F0708F438C606312CE56A
:104B9000120738F098012A5F3C452930310508F0AA
:104BA0002DC60E9492199093D7058093D6050031A7
:104BB0003CE5130709F4B7C108F045C108309CE58E
:104BC000190709F4A6C108F014C10430FCE51F0759
:104BD00009F497C108F0FAC002303CE5130709F464
:104BE00086C103301C4509F488C16091D605109137
:104BF000D70584E090E00E942736612F81E290E0A3
:104C00000E9427360F900F900F900F900F90DF911A
:104C1000CF911F910F91FF90EF90DF90CF90BF90B9
:104C2000AF909F908F907F906F905F904F900C947B
:104C30002E1FF6018281882309F433CF9091C40599
:104C4000892F877F93FF88608093C40583FF05C009
:104C500040E060E080E00E9476104091C4055091F1
:104C6000C5056091C6057091C7058FE090E00E9470
:104C7000393617CF9FEF9093170180618093C40559
:104C8000B2CE0A30FDE51F0741F008F40ACF0E301E
:104C90003DE5130708F452CE04CFF6018281882344
:104CA00009F44CCE80913E068370846086C1043E38
:104CB0009CE5190791F084E0053EECE51E0709F03C
:104CC00005CF8093C00502C01092C0050E94B31AA0
:104CD000FDCE81E0F6CF82E0F4CF83E0F2CF82EE2A
:104CE0000E9486230ECF83E00E94C80F88E10E94B5
:104CF000862388E10E94292383E00E94BD0F01CF13
:104D000082EE0E94862387E50E940524FACE86EE75
:104D10000E94052488E1F8CF069710CF82EE0E940A
:104D2000292324CF8CE20E94052420CF88E2FBCFE8
:104D3000033FFCE51F07D9F140F5083D3CE51307AB
:104D400091F1093D8CE51807F1F1073D9CE5190744
:104D500009F010CF26E241EE61EEC6010F900F90F0
:104D60000F900F900F90DF91CF911F910F91FF90B7
:104D7000EF90DF90CF90BF90AF909F908F907F90FB
:104D80006F905F904F900C941824053FECE51E0740
:104D9000B1F088F0063F2CE5120709F0EBCE27E2D0
:104DA00045EE66EEDACF27E245EE65EED6CF26E297
:104DB00041EE60EED2CF27E245EE64EECECF26E2A2
:104DC00041EE62EECACF28E241E0EFCF8091D605F6
:104DD000806106309CE5190709F48CC08091D605E6
:104DE000886007301C4508F485C08091D605806234
:104DF00081C08091D6058D7F0C30FCE51F0709F43A
:104E000079C070F48091D6058C600A303CE51307B8
:104E100009F470C008F481C08091D6058E7F6AC005
:104E20008091D605877F0E309CE5190709F462C092
:104E30008091D6058B7F0F301C4508F45BC08091B4
:104E4000D6058F7E57C00B3FFCE51F0709F45DC0F8
:104E500030F503313CE5130709F46DC078F40131F6
:104E60009CE5190709F463C002311C4509F0BDCE69
:104E70000E942E1F8091D6058F773CC00531FCE53E
:104E80001F0709F460C008F474C08091D7058160E1
:104E90000A3F1C4509F0A9CE8093D705A6CE0F3F47
:104EA0008CE5180709F44BC088F48091D7058D7FF5
:104EB0000D3FECE51E0781F38091D7058E7F0E3FF5
:104EC0001C4550F38091D7058360E6CF01302DE576
:104ED000120709F457C008F442C060E002301D45D3
:104EE00009F083CE8EE090E00E9427367ECE80913E
:104EF000D60581608093D60578CE8091D6058260F4
:104F0000F9CF8091D6058460F5CF8091D705826076
:104F1000C3CF8091D6058064EDCF0E942E1F809173
:104F2000D6058068E7CF8091D6058F7DE3CF80914D
:104F3000D6058F7BDFCF8091D605837FDBCF809135
:104F4000D7058C7FA9CF8091D60582FB992790F950
:104F500021E0922790FB82F990FB83F9CBCF8091DF
:104F6000D705982F909591708E7F892B90FB81F9B2
:104F700093CF0E942E1F9091D605892F97FB87F91A
:104F80008058B8CF61E0AECF85E348C485E368C4FC
:104F9000992309F4B0C08091B3058272F801E25CF4
:104FA000FC45E431F10508F09DC0E45CF64C0C943E
:104FB000ED3580913E0691E0892780933E06109260
:104FC00008010F900F900F900F900F90DF91CF91ED
:104FD0001F910F91FF90EF90DF90CF90BF90AF9017
:104FE0009F908F907F906F905F904F900C949E1C3D
:104FF0004BEB5CE166EA7CE10F900F900F900F9015
:105000000F90DF91CF911F910F91FF90EF90DF9064
:10501000CF90BF90AF909F908F907F906F905F9058
:105020004F900C941F1046EA5CE16BEB7CE1E4CFFF
:1050300042ED5CE16BEC7CE1DFCF4BEC5CE162EDDF
:105040007CE1DACF43EE5CE169ED7CE1D5CF49ED5F
:105050005CE163EE7CE1D0CF47EF5CE16DEE7CE19B
:10506000CBCF4DEE5CE167EF7CE1C6CF4BE05DE17D
:1050700061E07DE1C1CF41E05DE16BE07DE1BCCF6E
:1050800065E082E00F900F900F900F900F90DF91EE
:10509000CF911F910F91FF90EF90DF90CF90BF9035
:1050A000AF909F908F907F906F905F904F900C94F7
:1050B000151D68E086E0E6CF6EE089E0E3CF64E1AD
:1050C0008FE0E0CF67E185E1DDCF80913E06837020
:1050D000806673CF62E289E1D5CF80913E0683700E
:1050E0008C686BCF0115ECE51E0709F443C00E3D3B
:1050F0001C4509F47CC0F60100811181992309F453
:105100008DC0C8010E94E416F82E682FC8010E94C5
:10511000850FB8018F2D0E9441158C01B82EF60124
:10512000E580E2943FE0E322F280F1101092B205B4
:105130008091B005877079F0FF2069F080E2800FE0
:10514000883048F082E00E94EB1E8091B0058770A5
:10515000AA24A3948111A12C912E92942FE0922243
:10516000FBE0F91508F494C0E92DF0E0E05BF64CA3
:105170000C94ED350E942E1F2FEF34E38CE021506C
:1051800030408040E1F700C00000F89481E0809357
:10519000E00080E28093D8001092C900EFE1FEE4C5
:1051A0003197F1F700C000001DBA109268001CBCD6
:1051B00010BE1FBA10927A0010926E0010926F000B
:1051C00010927100109272001092C9001092BC00EF
:1051D00014B817B81AB81DB810BA1092BC0015B898
:1051E00018B81BB81EB811BA0C94003FA7CB0F908B
:1051F0000F900F900F900F90DF91CF911F910F9113
:10520000FF90EF90DF90CF90BF90AF909F908F90E6
:105210007F906F905F904F900C94B91AC8010E94D4
:105220005C0FF82E76CF212F2F70E22E107F19F011
:10523000E29490EFE922FF20C9F0EE2069F080E2CD
:10524000800F883010F0B1100BC08091B305E82AB0
:10525000E092B3050E94B80E802F0E94862318C0EA
:105260008091B205E82AE092B205F4CF802F0E9427
:105270002923EE2069F0E094005E083010F0B110B0
:105280003CC08091B305E822E092B3050E94B80EBD
:10529000292D2850330B2430310510F40E941310AF
:1052A000AA2009F44BCB8091B00580FD47CBF601D5
:1052B00012828595859585950E94031FC6010E94DF
:1052C0007C248091B0058595859585950F900F90EC
:1052D0000F900F900F90DF91CF911F910F91FF9042
:1052E000EF90DF90CF90BF90AF909F908F907F9086
:1052F0006F905F904F900C94C81E8091B205E82289
:10530000E092B205C3CF312F3F70832E107F103251
:1053100019F0829480EF8822802FBB2041F091E029
:10532000B91631F1FF2079F1EE2041F195CFFF2040
:1053300091F09091B405892F8829E11003C00E9453
:10534000DD0FA6CFE1E0EE12FACF981709F4A0CF57
:105350008093B4059DCFE11006C00E94B20E882D47
:105360000E94D20F95CFF1E0EF1609F491CFF5CF5F
:10537000FF2031F021E02E1508F48ACF882DDFCFF1
:10538000E11086CFECCFEE2051F3893349F43FEFA3
:1053900087EE93E0315080409040E1F700C000007C
:1053A000802F0E94292374CF812F86958695837044
:1053B00061F0813009F06CCFC8019370F11002C028
:1053C00090E080E00E94E70F63CFC8019370F11076
:1053D00002C090E080E00E94FD0F5ACFFF2009F14B
:1053E000053F99F0063FB9F0043F49F480913D052F
:1053F00090913E05816090933E0580933D05802FFE
:105400000E94D30D0E948B1E43CF80913D05909149
:105410003E058260F0CF80913D0590913E0584600D
:10542000EACF053F89F0063FA9F0043F49F4809197
:105430003D0590913E058E7F90933E0580933D05FE
:10544000802F0E940E0DDECF80913D0590913E058C
:105450008D7FF2CF80913D0590913E058B7FECCF03
:10546000812F837009F066C0F11012CF802F8295D2
:1054700086958770880F880F602F6F70462E512C8D
:10548000712C612C082E04C0440C551C661C771C22
:105490000A94D2F740E050E0BA0104FF0FC04FE099
:1054A00050E060E070E004C0440F551F661F771F96
:1054B0008A95D2F74095509560957095812F869585
:1054C00086958370823019F1D8F40091B50510915A
:1054D000B6052091B7053091B805813069F04429AF
:1054E000552966297729CB01BA01602371238223CC
:1054F00093230E94241FCCCE402A512A622A732A69
:10550000CB01BA016429752986299729F2CF44294C
:105510005529662977290091B5051091B605209186
:10552000B7053091B805CB01BA01602771278227F2
:105530009327DFCF8695FF2011F0812F817088237C
:1055400009F4A6CE802F829586958770880F880FE4
:10555000602F6F70462E512C712C612C082E04C0C8
:10556000440C551C661C771C0A94D2F740E050E0AE
:10557000BA0104FF0FC04FE050E060E070E004C0EB
:10558000440F551F661F771F8A95D2F74095509597
:1055900060957095812F869586958370823019F17C
:1055A000D8F40091D8051091D9052091DA053091F1
:1055B000DB05813069F04429552966297729CB011B
:1055C000BA0160237123822393230E94BC1E60CE04
:1055D000402A512A622A732ACB01BA01642975290B
:1055E00086299729F2CF44295529662977290091E0
:1055F000D8051091D9052091DA053091DB05CB0152
:10560000BA016027712782279327DFCF1F70FF2001
:1056100029F0812F0E94031F802F91CE802F0E949E
:10562000D20F812F0E94C81E33CE802FE2EFBE160C
:1056300009F44EC0EB1578F0F0EFBF1619F121EF29
:10564000B21609F43DC0FF2009F465C0E11004CE94
:10565000812F8F713AC033EFB31609F43EC094EF37
:10566000B912F1CFFF2009F44BC01F71812F0E94A6
:10567000031FF8E01F9FC001112483608093B005D1
:10568000812F23C0FF20B9F0E11002CE1F7161E02D
:1056900070E080E090E004C0660F771F881F991FBC
:1056A0001A95D2F70091D8051091D9052091DA0505
:1056B0003091DB05A6CFE1E0EE1508F4E9CDE6CFA9
:1056C000812F8F71FF2009F4ADCF0E94031FE0CD21
:1056D000812F8F71FF20C9F3A5CF60E070E0CB016F
:1056E000FF2009F472CF1F7161E070E080E090E06C
:1056F00004C0660F771F881F991F1A95D2F765CFD0
:1057000081E00E94EB1E21E02E1508F0C1CD82E061
:105710000E94EB1EBDCDE11038CE812F8F7182CF5C
:10572000E2EFBE16D1F1EB1500F1F0EFBF1649F133
:1057300021EFB216D1F180913F05EE2009F441C06E
:10574000882341F08091400591E0892780934005AE
:1057500010923F05802FF11080CD0E94292386E012
:10576000F60111928A95E9F793CD34EFB316C1F0A3
:10577000B31688F085EFB812DECFF11089CD81E045
:1057800007C0FF2009F484CD8091400591E089276E
:10579000809340057DCD81E0F826F092400578CDDC
:1057A000F11076CD1092400573CDFF2039F0809135
:1057B0003F05882349F310923F056ACDEE2021F37F
:1057C00067CD882309F464CDF11062CD8091400546
:1057D00091E0892780934005EECF85E0DE011196A8
:1057E00001900D928A95E1F7F601228189819A81D3
:1057F0002111BAC80E945C0F082FBEC80631FCE513
:105800001F0709F0C5CB8091B3058A7A91E009F4AE
:1058100090E090933C058111B7CB89E20E94280F5C
:105820000F900F900F900F900F90DF91CF911F91DD
:105830000F91FF90EF90DF90CF90BF90AF909F902F
:105840008F907F906F905F904F900C94B80E0631C0
:105850001C4509F050CC80913C05811197CB89E221
:105860000E94FD0EDDCF1F93CF93DF9380914605FD
:10587000807FC1F4809143058823A1F08091780551
:10588000C0914705609141057091420540914405E2
:1058900050914505D62FD723DA01A095B09516E093
:1058A000C81304C0DF91CF911F91089590E0411576
:1058B000510511F0DF3F31F401968770F1CF2A0FC7
:1058C0003B1F17C0189FF001199FF00D1124E85BD2
:1058D000FA4F21812713F0CF20812613EDCF2281AB
:1058E0002111EACF238134812417350740F3241B8B
:1058F000350B283C310500F7209146052F702061BB
:105900002093460526E0289FF001299FF00D1124E1
:10591000E35BFA4F80818F708061808381E495E042
:105920000E947C24DF91CF911F910C94B30FBF9202
:10593000CF92DF92EF92FF920F931F93CF93DF935B
:10594000CDB7DEB761970FB6F894DEBF0FBECDBFFF
:105950008C0185E0F801DE011D9601900D928A957B
:10596000E1F7D8012C9111963C9111971296EC9089
:1059700012978091440590914505009709F463C101
:105980004091410550914205642F65236F3F09F412
:105990005AC11396CD90DC90B0904305BB2009F41A
:1059A00013C1C816D906C0F1F601E81BF90BCF01E7
:1059B000FF24F394883C910508F0F12C8091460572
:1059C000982F907FFF2009F4C1C091117DC0FE2C5B
:1059D000531327C0421325C0E11023C08F7080618C
:1059E0008093460581E495E00E947C2480914605E1
:1059F000D80115968C938F2D61960FB6F894DEBF63
:105A00000FBECDBFDF91CF911F910F91FF90EF900F
:105A1000DF90CF90BF900895809590958C0D9D1D3F
:105A2000C7CFCD2829F0822F83238F3F09F035C1BE
:105A300080E0B82FB170DB2E80FF3CC080917805EC
:105A40004091470556E0841315C02D873E878D850C
:105A50009E850E942617292F22952F702230F0F064
:105A6000243018F59F70F1F0F8019581907FD1F402
:105A7000D12C1EC090E0589FF001599FF00D1124C9
:105A8000E85BFA4F6181361306C06081261303C0BC
:105A90006281E6120FC001968770D5CF9F7011F01A
:105AA000882331F3805E883018F3C8010E947C247B
:105AB000FD2CA1CFEE2009F49ECF80914605816098
:105AC00080934605F12C97CF531313C0421311C096
:105AD000E1100FC0D80115968C93C8010E947C2458
:105AE00086E0F801A1E4B5E001900D928A95E1F716
:105AF00082CF2D873E878D859E850E943017882313
:105B000009F1EE20F9F080914605803270F0209185
:105B100041053091420538872F831986DB86CA8676
:105B20008C87CE0107960E947C2486E0F801A1E4D0
:105B3000B5E001900D928A95E1F70E94332CFF2485
:105B4000F39459CFC8010E947C24F9CF91110CC065
:105B500081E495E00E947C2486E0E1E4F5E0DF0149
:105B60001D928A95E9F747CF531312C0421310C014
:105B7000E1100EC0F8018583C8010E947C24E1E495
:105B8000F5E086E0DF011D928A95E9F7FB2C33CF23
:105B90002D873E878D859E850E943017882391F240
:105BA000EE2081F280914605803208F4BECF20912C
:105BB0004105309142053A8329831B82DD82CC82E4
:105BC0008E83CE010196AFCFC816D90640F0C81A11
:105BD000D90AB8ECCB16D10448F0F12CBDCF809592
:105BE00090958C0D9D1D883C9105B8F7FE2CEE20FC
:105BF00009F4A8CF531316C0421314C08091460570
:105C000080FD6ECF982F907F09F46ACFF8018583CD
:105C1000903F09F462CF982F907F905F8F70892B0F
:105C200085835BCF2D873E878D859E850E943017AB
:105C300081117BCF80914605816080934605C80124
:105C40000E947C24D8CEEE2009F47CCF2D873E879D
:105C50008D859E850E943017F82E882309F472CF17
:105C600086E0F801A1E4B5E001900D928A95E1F794
:105C700080914105909142050E94261792959F7050
:105C8000963041F48091400591E08927809340054A
:105C900090933F050E94332CAECE81E08E25C9CE75
:105CA0001F93CF93DF93CDB7DEB767970FB6F89406
:105CB000DEBF0FBECDBF6D8B7E8B8F8B8E899F8994
:105CC000892BE1F0852F84238F3F09F098C05FEF87
:105CD0004FEF14C030914005332309F44EC0E42F38
:105CE000F0E036E0539FE00DF11D1124EE0FFF1F91
:105CF000EC51FE4F40815181822B8C931A8A198A74
:105D00004B8B5C8B85E0FE017396DE011D96019046
:105D10000D928A95E1F786E0FE013D96DE01179629
:105D200001900D928A95E1F7CE0107960E94972C7B
:105D3000811112C086E0FE013796DE0111960190B6
:105D40000D928A95E1F78A859B85892B29F08F81B1
:105D5000988589238F3FC9F516E080917805909149
:105D60004705891320C067960FB6F894DEBF0FBEB3
:105D7000CDBFDF91CF911F91089580958223BDCF34
:105D800096E0929FD001939FB00D1124A85BBA4F6B
:105D9000FE01319601900D929A95E1F780934705A7
:105DA0000E94B30FD9CF819FC0011124885B9A4F05
:105DB0000E94972C8823B9F28091780590E0019693
:105DC0008770992780937805C8CF2091470530E0E8
:105DD000C9010196877099274091780548171906DF
:105DE00079F60E942E1F109247051092780586E0E2
:105DF000E1E4F5E0DF011D928A95E9F7ADCF81E09E
:105E000090E0042E01C0880F0A94EAF7A52FB0E0B5
:105E1000A45DBA4F2C913D8931115CCF322F3823CC
:105E20005BCF8F929F92AF92BF92CF92DF92EF9211
:105E3000FF920F931F93CF93DF938091090190916D
:105E40000A01892BA1F08091C8038F5F8093C8035A
:105E500081110DC00E94591D90E090930A0180931A
:105E60000901892B21F40E945C1A0E943D1D08EC57
:105E700015E07801C0E0D0E067E0C62ECC0E8C2F94
:105E80000E94D01D8C2D0E94D01D8C2F0E94241E9C
:105E9000D7019D917D01D12C891729F0FD01319702
:105EA0008083DD24D3948C2D0E94241EF7019681DB
:105EB000891709F464C0868381E08D29D82B0E945C
:105EC0007C19CF5FC730C1F60E947F1E6AEF70E079
:105ED0000E94C535882E9090C303992009F475C29D
:105EE0001092C303E091BE05F091BF057F012EE043
:105EF000E20EF11C40E0CBEF5AEFC52ED12C5191B0
:105F00005B3F81F0652F70E0282D392F8517C8F190
:105F1000261B370B2E313105D4F19F012150310959
:105F2000D901CC93EE15FF0551F74093C303D1116E
:105F300002C041114CC21092C203A091BE05B091A3
:105F4000BF052091C303EFEDF5E04DEE55E090E085
:105F50006191E80139918E01631741F06C916B3FBB
:105F6000C1F48C93EF012197388321E011964E17ED
:105F70005F0771F72093C3039093C2032CC280E0A4
:105F80009CCFD601A61BB70B2A0F3B1FC3CF492DB1
:105F9000C9CF91E0EBCF0197A109B10935C2840FB8
:105FA000951FA61FB71F66C210921601C092360633
:105FB000D0923706E0923806F092390681E080935D
:105FC0000801011181C28091C40583FD7DC26091E9
:105FD000D8057091D9058091DA059091DB050E9472
:105FE000650E823009F4E8C108F0D4C1882309F4B1
:105FF000DBC1813009F4DDC180911701811164C2D8
:1060000040E060E00E9476105FC2809107011813A3
:1060100016C090913E0693702091060130E081E019
:106020009217130609F480E08170809318011631ED
:1060300010F5E12FF0E0E45AF64C0C94ED3581E0D8
:10604000F3CF882309F443C080911601C82FCC0FE9
:10605000CC0FC80F35E0F32EFC0EEF2CE0E3EF156C
:1060600010F420E3E22ED0E0CE1538F081E09FE27C
:10607000A92EAF1460F580E02AC020E040E060E087
:10608000CE010E9478102196EFCF80911601C82F83
:10609000CC0FCC0FC80FD5E0ED2EEC0EFE2C80E31C
:1060A000B82EBE1410F4B0E3FB2E60913F06709141
:1060B0004006809141060E94E712D62EC72EB82EC8
:1060C000D0E0CF15C0F081E03FE23E15A0F2909104
:1060D00016019F5F909316018111EFC182E08093BA
:1060E0000801809118018111E8C11111E6C183E016
:1060F00080930801E2C1FE01EF58FC4F808190912E
:106100001701892331F02B2D4D2D6C2DCE010E94CE
:1061100078102196D6CF80911601C82FCC0FCC0FC6
:10612000C80FA5E0FA2EFC0EDF2C80E38F1510F4CB
:10613000F0E3DF2EC0904006B09041062091420669
:10614000E0E4EE2E3E2D329F312D1124E32ED0E0DF
:10615000CD1530F081E09FE29F1508F0B8CF8BCFCE
:10616000FE01EF58FC4F8081909117018923B9F00F
:10617000FE01EE0FFF1FEE5EFC4F808182958F7057
:1061800060913F068E9D600D11247C2D8B2D0E9409
:10619000E712462F282F672FCE010E9478102196F4
:1061A000D7CF80911601C82FCC0FCC0FC80F65E058
:1061B000F62EFC0EDF2CA0E3AF1510F450E3D52E25
:1061C000C0904006B09041062091420640E4E42E83
:1061D0003E2D329F312D1124E32ED0E0CD1508F055
:1061E000B9CFFE01EF58FC4F8081909117018923B0
:1061F000D9F0FE01EE0FFF1FEF5EFC4F6081E69EBF
:10620000B001112435E0759567953A95E1F78091D5
:106210003F06680F7C2D8B2D0E94E712462F282FFA
:10622000672FCE010E9478102196D8CF8091160159
:10623000C82FCC0FCC0FC80F95E0F92EFC0EEF2C19
:10624000A0E3AF1510F480E3E82ED0903F06D09184
:106250004006C09041066091420666956695669537
:1062600080913606909137060E94DD120E946612D8
:10627000805887FD8195880F282F3C2D239F212D45
:106280001124822F6D2D7D2F0E94E712D62EC72E4E
:10629000B82ED0E0CE1508F05DCFFE01EF58FC4FD0
:1062A000808190911701892331F02B2D4D2D6C2D7C
:1062B000CE010E9478102196EDCF81E791E10E94F6
:1062C000B41405CF87E491E1FACF88E492E10E940B
:1062D0005814FDCE89E292E1FACF8EE092E10E945D
:1062E000DB13F5CE82EF91E1FACF85E491E1E7CFC0
:1062F0008CE391E1E4CF83E391E1E1CF8AE191E1A5
:10630000DECF8CE091E1EBCF85EB92E1E0CF81EE47
:1063100091E1DDCF8DEC91E1E2CF8FED90E10E9434
:106320007913D5CE81EB90E1FACF8AE790E1F7CFF0
:106330001093070180913E068370809306010E94AE
:10634000521BD5CE409136065091370660913806E3
:10635000709139062FB7F8948091B9059091BA05DC
:10636000A091BB05B091BC052FBF84179507A60768
:10637000B70760F0841B950BA60BB70B4A97A105D6
:10638000B10508F49AC01092080197C00197A109BD
:10639000B109F0CF8E3099F08F30A1F08D3009F037
:1063A0002BCE8DE090E002C090E080E00E94C71705
:1063B0008BC081E090E0FACF82E090E0F7CF8EE0F2
:1063C00090E0F4CF8FE090E0F1CFD111B4CD909177
:1063D000C2039111B0CD4091C4035091C5036091A7
:1063E000C6037091C7032FB7F8948091B9059091B7
:1063F000BA05A091BB05B091BC052FBF84179507C6
:10640000A607B70708F4C7CD841B950BA60BB70BDF
:106410002FB7F894C090B905D090BA05E090BB05AD
:10642000F090BC052FBFC092C403D092C503E09288
:10643000C603F092C70340913A0650913B06609123
:106440003C0670913D064F3FDFEF5D076D077D070E
:10645000C9F0AA27BB278C019D01009510952095B6
:106460003095041715072607370708F098CD8FEFEA
:106470009FEFDC0180933A0690933B06A0933C0685
:10648000B0933D060091070610E0011108C080910D
:106490003E06182F137019F0182F16951695809137
:1064A0000801813009F4B1CD882309F47DCD823013
:1064B00009F43ECF833009F445CF011105C0809126
:1064C0000706882309F47FCD81E0DF91CF911F91EA
:1064D0000F91FF90EF90DF90CF90BF90AF909F9083
:1064E0008F900895CDB7DEB72A970FB6F894DEBF28
:1064F0000FBECDBF84B7877F84BF0FB6F894A89531
:1065000080916000886180936000109260000FBEEF
:1065100080E890E00FB6F89480936100909361005A
:106520000FBE85B7806885BF85B7806885BF0E942C
:10653000790B0E94440C8091E20084608093E20019
:10654000789480912C068823A1F01091E9001F70A7
:106550009091EC00892F817090FD80E8182B1092AB
:10656000E9008091E80083FD0E94431F1F70109393
:10657000E90082E084BD93E095BD9AEF97BD8093DA
:106580006E000E94591D90E090930A0180930901CA
:106590000E947C190E948B19A8ECB5E0EFEDF5E0A4
:1065A00011921D9225E0ED3EF207D1F78EE090E0CA
:1065B0000E94E7378093BE059093BF05FC010E96BD
:1065C0002BEF2193E817F907E1F790E080E00E94B4
:1065D00011368C3E9E4F11F00E94B91A0E943D1D4B
:1065E0008CE090E00E94033690E0B0E0A0E0809361
:1065F000C0059093C105A093C205B093C30589EA75
:106600008093800089E08093810024982C983F98A3
:106610008AB18F7C8AB96E98479A8BB180638BB9A7
:10662000769A8FE090E00E940B366093C4057093D9
:10663000C5058093C6059093C70567708FEF869F49
:10664000B0011124759567957595679577277093B7
:1066500089006093880070938B0060938A00709328
:106660008D0060938C009091C40594FFA3C080932B
:1066700017010E945C1A90E080E00E9411368C3E67
:106680009E4F11F00E94B91A82E090E00E940336FA
:106690008093F7050E9492199093D7058093D605B1
:1066A00083E090E00E940336682F70E090E080E085
:1066B0000E94241F0E9469106091D8057091D9052D
