:100000000C9456060C9473060C9473060C947306A9
:100010000C9473060C9473060C9473060C9473067C
:100020000C9473060C9473060C94BD1B0C94791BF2
:100030000C94E72F0C9473060C9473060C947306BF
:100040000C9473060C9473060C9473060C9473064C
:100050000C9473060C94DD170C9473060C947306C1
:100060000C9473060C9473060C9473060C9473062C
:100070000C9473060C9473060C9473060C9473061C
:100080000C9473060C9473060C9473060C9473060C
:100090000C9473060C9473060C9473060C947306FC
:1000A0000C9473060C9473060C947306AAFFFFAAB3
:1000B000FFFFAAFFFFAAFFFFAAFFFFAAFFFFAAFFF9
:1000C000FFAAFFFFAAFFFFAAFFFFAAFFFFAAFFFFE9
:1000D000AAFFFFAAFFFFAAFFFFAAFFFFAAFFFFAA2E
:1000E000FFFFAAFFFFAAFFFFAAFFFFAAFFFFAAFFC9
:1000F000FFAAFFFFAAFFFFAAFFFFAAFFFFAAFFFFB9
:10010000AAFFFF55FFFFAAFFFFAAFFFFAAFFFFAA52
:10011000FFFFAAFFFFAAFFFFAAFFFFAAFFFFAAFF98
:10012000FF55FFFF0000FF1CFFFF1CFFFF1CFFFF30
:1001300055FFFF55FFFF55FFFF55FFFF0000000073
:1001400000000000000000000000000000000000AF
:100150000055FFFF55FFFF55FFFF80FFFF55FFFFD5
:1001600055FFFF55FFFF80FFFF000000AAFFFFAA19
:10017000FFFFAAFFFF55FFFF80FFFF55FFFF55FF61
:10018000FF55FFFF80FFFF0000FFAAFFFFAAFFFF50
:10019000AAFFFF55FFFF80FFFF55FFFF55FFFF55EB
:1001A000FFFF80FFFF000000AAFFFFAAFFFFAAFFDA
:1001B000FF0000FF00000000000000000000000041
:1001C00055FFFF00000000000000000000000000DC
:1001D000000000000000000000000000000000001F
:1001E0000000000000000000000080FF8080FF8011
:1001F00080FF8080FF8080FF80EA80FFEA80FFEA46
:1002000080FFEA80FF00000024FFFFEA80FFEA8011
:10021000FFEA80FF80FF8080FF8080FF8080FF807A
:1002200080FF801CFFFF24FFFF24FFFF24FFFF242B
:10023000FFFF80FF8000000055FFFF55FFFF00001B
:1002400000000000000000000000000000000000AE
:100250000000000000000000FF0000FF00000000A0
:10026000000000000000000000000000000000008E
:10027000000000000000000000000000000000007E
:100280000000000000000000000000002BFFFF2B1A
:10029000FFFF2BFFFF2BFFFF00000080FFFF7B5ABB
:1002A0007080FFFF0000000000002BFFFF2BFFFF0E
:1002B0002BFFFF2BFFFF00000024FFFF1EDADA24D4
:1002C000FFFF0000000000002BFFFF2BFFFF2BFFB4
:1002D000FF2BFFFF000000000000000000000000F6
:1002E000000000000000000000000000000000000E
:1002F00000000000000000000000000000000000FE
:100300000000000000000000000000FFFF00FFFFF1
:1003100000FFFF00FFFF00FFFF000000EA80FF80FA
:10032000FF80EA80FF00000000FFFF00FFFF00FFEA
:10033000FF00FFFF00FFFF00000080FF8080FF80C4
:1003400080FF8000000000FFFF00FFFF00FFFF00B4
:10035000FFFF00000000000000000000000000009F
:100360000000000000000000FFFF0000000000008F
:10037000000000000000000000000000000000007D
:10038000000000000000000000000000000000006D
:100390000055FFFF55FFFF55FFFF00000055FFFF11
:1003A00055FFFF55FFFF000000000000AAFFFFAA55
:1003B000FFFFAAFFFF55FFFF55FFFF55FFFF55FF4A
:1003C000FF55FFFF55FFFF000000AAFFFFAAFFFF38
:1003D000AAFFFF55FFFF00000055FFFF55FFFF5527
:1003E000FFFF55FFFF000000AAFFFFAAFFFFAAFFC3
:1003F000FF0000FF00000000000055FFFF55FFFF59
:1004000000000000000000000000000000000000EC
:1004100000000000000000000000000000000000DC
:10042000000000000000000000000000FF00FFFFCF
:1004300080FFFF2BFFFF2BFFFF00000000000000EC
:10044000000000000000000000FFFF80FFFF80FFB1
:10045000FF80FFFF00FFFF00000000000000000021
:100460000000000000002BFFFF0000FF0000FF2B3A
:10047000FFFF2BFFFF000000000000000000000055
:10048000000000002BFFFF000000000000EA80FFDA
:10049000000000000000000000000000000000005C
:1004A000000000000000000000000000000000004C
:1004B0007E0F00D4FFFFFFC700000078000000009F
:1004C000000000002A2B28000000000000000000AF
:1004D0000000000000000029000000002C1E342055
:1004E000212224342627252E362D3738271E1F207B
:1004F0002122232425263333362E37381F040506C0
:100500000708090A0B0C0D0E0F1011121314151603
:100510001718191A1B1C1D2F3130232D3504050601
:100520000708090A0B0C0D0E0F10111213141516E3
:100530001718191A1B1C1D2F3130354C00010101F1
:100540000101010101010202020202020202020390
:100550000303030303030304040404040404050560
:100560000505050606060606070707070708080823
:1005700008090909090A0A0A0B0B0B0C0C0C0D0DD2
:100580000D0E0E0E0F0F0F1010111111121213136A
:100590001414151516161717181819191A1A1B1BE3
:1005A0001C1D1D1E1E1F202021222223242425263F
:1005B00026272829292A2B2C2D2D2E2F3031323277
:1005C000333435363738393A3B3C3D3E3F40414283
:1005D000434445464748494A4C4D4E4F5051535469
:1005E000555658595A5B5D5E5F616264656668691D
:1005F0006B6C6D6F7072737577787A7B7D7E80829D
:10060000838587888A8C8E8F91939596989A9C9EE5
:10061000A0A2A3A5A7A9ABADAFB1B3B5B7BABCBEF5
:10062000C0C2C4C6C9CBCDCFD1D4D6D8DBDDDFE2C2
:10063000E4E7E9EBEEF0F3F5F8FAFDFF010128013C
:100640000435307C6767010435307C0101280001E6
:1006500003E1010128010435307C476F6F642047B6
:10066000616D6521010435307C0101280102E10042
:10067000010128010435307C676C6866010435305F
:100680007C01012800390001512B00E100025100DA
:10069000001E00140004001D00035129001F001A51
:1006A0000016001B00E0004C0020000800070006B8
:1006B00000E3002A002100150009001900E20000F3
:1006C00000220017000A000500000000002B5D2832
:1006D0000000002C0000002D5D2C5D4C0000002A65
:1006E000000000000023001C000B001100000000AF
:1006F00000240018000D0010002D00000025000C43
:10070000000E0036002E002C00260012000F0037CD
:10071000002F002800270013003300380030002984
:1007200000000000003400015102510000000001EF
:10073000512B0000000000000000003302350231A0
:1007400000000029000000240221021E0200004CCB
:10075000000000250222021F0200002A00000026DD
:1007600002230220020000000000002702350031B1
:1007700002000000002B5D280000002C0000002D6E
:100780005D2C5D4C0000002A00000000000000000D
:10079000002B000000000000000000240021001ECB
:1007A00000560000005400250022001F0000002712
:1007B00000550026002300200000002C00560057A2
:1007C0000063005800000029000000000000000144
:1007D0005100000000000000000000E10002510094
:1007E000000000141F04081D080000290000001A62
:1007F0001FF4001B08000000000000081FF60006A0
:10080000080000E0000000151FF5001908000000B6
:10081000000000171F0A1F051F000000002B5D00CD
:10082000000000000000002D5D2C5D0000000000B5
:10083000000000000000004A00500000000000001E
:100840000000004E0051002D000000000000004B91
:100850000052002E000000E30000004D004F000099
:10086000005001000000000000E20000004F0129DC
:10087000000F0A000000000000025100000000000C
:100880000000000000000000000000000000000068
:10089000000351000000000000AA00AC00000000AE
:1008A0000000000000A800AE0000000000000000F2
:1008B00000A900AB000000000000000000000000E4
:1008C00000000000002B5D00000000000000002D73
:1008D0005D2C5D0000000000000000000000000032
:1008E00000000000000000000000003A003E00424E
:1008F000000000000000003B003F0043000000003B
:100900000000003C00400044000000000000003DEA
:100910000041004500000000000000000000000051
:100920000000000000000029004C000E0C025100E5
:100930000000000E030F0800000351280000001EF5
:10094000082008F4000000160800000C0836003AE1
:100950000000002C000000000037003E00000000F6
:100960000000001D0A1D080000000000002B5D00B3
:10097000000000000000002D5D2C5D000000000064
:100980000000000000000000000000000000000067
:10099000000000F400F2000000000000000000F081
:1009A00000F1000000000000000000F500F300006E
:1009B0000000000000000000000000000000000037
:1009C00000000000000000000000000000000029FE
:1009D000000408E1000251000000000F02150200AF
:1009E00000000016080000160210001B0000004C5A
:1009F0000000001200050217001D08E300000012AD
:100A000002150018001C0800000000000009000C7E
:100A100008000000002B5D00000000000000002D19
:100A20005D2C5D00000000000000000000000000E0
:100A30000000000000000000000000240021001E53
:100A400000000000003800250022001F00000027E1
:100A5000002502260023002000000028002D002E83
:100A60000237002A0000002B0000000000000000F8
:100A70000002510000460800002B00E100E00000E9
:100A80000000003A0019001E001F00290000001499
:100A900000040006000000280000001A0016001CD8
:100AA0000000002C000000080007000B00110000EF
:100AB00000000015001B001700000000002B5D2E39
:100AC0005D00002F5D00002D5D2C5D00000000002A
:100AD0000000000000000000000000000000000016
:100AE0000000000000000000000000000000000006
:100AF00000000000000000000000000000000000F6
:100B000000000000000000000000000000000000E5
:100B100000000000000000000000000000050109C6
:100B200002A10185020901A1000509190129051584
:100B30000025019505750181029501750381010567
:100B400001093009311581257F9502750881060953
:100B5000381581257F950175088106050C0A380234
:100B60001581257F950175088106C0C005010980A2
:100B7000A101850319012AB700150126B7009501C7
:100B800075108100C0050C0901A101850419012A15
:100B9000A002150126A002950175108100C0050173
:100BA0000906A1018505050719E029E715002501BA
:100BB0009508750181020507190029EF1500250127
:100BC00095F0750181020508190129059505750142
:100BD0009102950175039101C005010906A1010566
:100BE0000719E029E715002501950875018102958F
:100BF00001750881010507190029FF150026FF006E
:100C000095067508810005081901290595057501E6
:100C10009102950175039101C009023B0002010098
:100C2000A0FA0904000001030101000921110100DB
:100C3000012240000705810308000A0904010001A0
:100C40000300000009211101000122BC00070582F8
:100C50000320000A120110010000000897327449B5
:100C600001000102000116034500720067006F00D9
:100C700044006F007800200045005A00000028035F
:100C80005A005300410020005400650063006800D2
:100C90006E006F006C006F006700790020004C0050
:100CA00061006200730000000403090411241FBEE8
:100CB000CFEFDAE0DEBFCDBF13E0A0E0B1E0E6E5C4
:100CC000F9E602C005900D92A23AB107D9F726E0E5
:100CD000A2EAB3E001C01D92A634B207E1F70E9478
:100CE000382D0C943B340C940000E8EDF0E080814A
:100CF0008E7F80831092E2001092DA001092E10061
:100D0000A0EEB0E08C9181608C9380818F7780839E
:100D100019BCA7EDB0E08C918E7F8C9380818F7E83
:100D200080831092060608952091E4003091E5003A
:100D300095E6A9012091EC00822F817020FF06C06A
:100D40008091E80080FF06C080E008952091E800CF
:100D500022FD1AC080912C06882389F0853089F005
:100D60008091EB0085FD0FC02091E4003091E500FB
:100D700042175307F9F29150E1F684E0089582E0BA
:100D8000089583E0089581E00895EF92FF920F9314
:100D90001F93CF937C018B010E949406C82F811171
:100DA00017C08091E80085FD0BC08091E8008E7728
:100DB0008093E8000E949406882399F3C82F08C006
:100DC000F70181917F018093F1000150110949F7EA
:100DD0008C2FCF911F910F91FF90EF9008958091EC
:100DE0002E0687FF13C08091E80082FF06C0809125
:100DF000E8008B778093E80004C080912C06811175
:100E0000F2CF089580912C068823D9F38091E800D1
:100E100080FFF8CF8091E8008E77ECCF982F9093E9
:100E2000E900242F762F50E0891731F07091EC0003
:100E30002091ED005091F00021FD07C09F5F973099
:100E400071F78093E90081E008953091EB003E7FD7
:100E50003093EB003091ED003D7F3093ED00309109
:100E6000EB0031603093EB007093EC002093ED00C9
:100E70005093F0002091EE0027FDE0CF80E0089530
:100E8000CF92DF92EF92FF920F931F93CF93DF9356
:100E9000C8EDD0E088818F7E8883E7EDF0E0808127
:100EA0008160808384E082BF81E080930606888130
:100EB0008E7F888302EE10E0F80110821092DA0033
:100EC00081EEC82ED12CF601108288818F7788831D
:100ED00088818068888388818F7D888319BC10927F
:100EE0002C0610922D0610922B0610922A0690EED8
:100EF000E92EF12CF70180818B7F808388818160CE
:100F0000888342E060E080E00E940E07F601808165
:100F10008E7F8083F80180818160808380818860FA
:100F20008083F70180818E7F8083888180618883C0
:100F3000DF91CF911F910F91FF90EF90DF90CF90B5
:100F40000895FC0180913406909135068617970725
:100F5000A0F06115710529F49091E8009E779093B7
:100F6000E80090E06115710551F4911108C080917D
:100F7000E80082FF34C080E00895BC01F2CF809188
:100F80002C068823C1F18530C1F18091E80083FDF2
:100F900030C08091E80082FDEACF8091E80080FFB8
:100FA000E1CF8091F3002091F200382F6115710597
:100FB00019F02830310558F091E02830310509F05A
:100FC00090E02091E8002E772093E800CBCF81912C
:100FD0008093F100615071092F5F3F4FE7CF8091FF
:100FE0002C06882341F0853041F08091E80083FF92
:100FF000BECF81E0089582E0089583E00895809156
:10100000090608959091F205803F59F48091F30507
:1010100087FF0DC01092F30591110BC01092ED05E2
:1010200008C0813F81F48091F30518169CF3992341
:1010300081F08091F4059091F505892B09F064C049
:101040001092EA050895823F49F497FFF0CF10927D
:10105000F2058091F3058111ECCFE0CF833F19F4C5
:101060001916ACF3E4CF2091F405893F29F4121648
:10107000F4F61092F405DBCF8A3F19F427FFD7CF9F
:10108000F8CF2091F5058B3F29F427FFD0CF1092A0
:10109000F505CDCF8C3F19F41216CCF3C8CF843FA1
:1010A00031F48091F1058E7F8093F105C0CF853FAB
:1010B00021F48091F1058D7FF7CF863F21F4809157
:1010C000F1058B7FF1CF873F21F48091F105877F78
:1010D000EBCF883F21F48091F1058F7EE5CF8D3FE6
:1010E00031F48091BA058E7F8093BA05A0CF8E3FF0
:1010F00021F48091BA058D7FF7CF8F3F09F097CF0C
:101100008091BA058B7FF0CF08958091BA0580FD5C
:1011100016C081FD16C082FD16C08091EA058823A5
:10112000A1F0883280F428E0829FC001112468E297
:1011300070E00E940231862F672B39F0089582E01B
:10114000089584E0089588E0089581E008958091ED
:10115000BA0580FD16C081FD16C082FD18C08091C1
:10116000ED05882391F08C3390F423E2829FC00137
:1011700011246CE370E00E940231862F672B49F046
:10118000089588E0089581E1089585E0089583E257
:10119000089581E00895803F31F40E94A708819569
:1011A0008093F3050895813F19F40E94A708F8CFB2
:1011B000823F31F40E94A70881958093F20508953B
:1011C000833F19F40E94A708F8CF893F29F40E94B1
:1011D00085088093F40508958A3F21F40E948508CC
:1011E0008195F7CF8B3F31F40E94850881958093DC
:1011F000F50508958C3F19F40E948508F8CF843FC7
:1012000031F48091F10581608093F1050895853F67
:1012100021F48091F1058260F7CF863F21F480911F
:10122000F1058460F1CF873F21F48091F10588605A
:10123000EBCF883F21F48091F1058061E5CF8D3FB0
:1012400031F48091BA0581608093BA0508958E3F8C
:1012500021F48091BA058260F7CF8F3FB9F7809172
:10126000BA058460F1CF9C014FB7F8948091B60520
:101270009091B705A091B805B091B9054FBF821BF9
:10128000930B08958091B1059091B005892B9091B1
:10129000AF05892B8093A203E091D905F091DA057F
:1012A000309799F090911401992349F09091D305CA
:1012B00097FF05C08093A30385E08093A20302807B
:1012C000F381E02D82EA93E009940895909114014E
:1012D0009923D1F09091D30597FF16C0E82FE6959A
:1012E000E695E695EE31E0F4F0E0EE55FC4F282F60
:1012F000277081E090E001C0880F2A95EAF7809579
:101300009281892382830895E4EAF3E0919189131D
:1013100003C0DF0111971C9293E0EA3AF907B1F795
:101320000895909114019923C1F09091D30597FFEE
:1013300014C0E82FE695E695E695EE31F8F4F0E076
:10134000EE55FC4F877021E030E001C0220F8A95F6
:10135000EAF78281822B82830895A4EAB3E0EFEF5B
:1013600090E02D91821751F0EF3F19F4211101C047
:10137000E92F9F5F9630A9F7EF3F09F408950E2EED
:10138000000CFF0BEE55FC4FE6CFE92FEE0FE90FF7
:10139000EE0F8E0F982F977086958695869525E08F
:1013A000829FF0011124E858FA4F50E040E080E0BD
:1013B000219130E0092E02C0369527950A94E2F774
:1013C00021703327042E01C0220F0A94EAF7822BE2
:1013D0004F5F5F4F4530510559F70895E92FEE0FE4
:1013E000E90FEE0F8E0F982F977041E001C0440F68
:1013F0009A95EAF786958695869595E0899FF001FE
:101400001124E858FA4F30E020E070E05191DF01FC
:101410001197CB01022E02C0969587950A94E2F7A8
:10142000817081958527842385278C932F5F3F4F7B
:101430002530310559F7089580917705909146053B
:10144000981301C008958F5F8770FACF882341F009
:1014500080959091B00589238093B0050C94420942
:101460000895882339F09091B005982B9093B0059A
:101470000C9442090895882341F080959091B1051C
:1014800089238093B1050C9442090895882339F08B
:101490009091B105982B9093B1050C944209089551
:1014A00020912B0530912C052817390771F0909366
:1014B0002C0580932B05E091D905F091DA05309742
:1014C00021F00084F185E02D0994089520912905EB
:1014D00030912A052817390771F090932A058093D7
:1014E0002905E091D905F091DA05309721F00680C1
:1014F000F781E02D09940895E091D905F091DA057E
:10150000309721F00190F081E02D099480E008955A
:10151000FA01811101C0FB0109948033910538F56E
:10152000880F991F880F991FFC01EC5DFE4F5281B7
:10153000338180818370E181A82FB0E070E9879FBB
:10154000C00111248D519C4FE80FF92FF11DB49764
:101550006083FC01E50FF11DB4974083830F911D5B
:10156000FC01B4972083AF51BC4F81E08C93089568
:10157000FF920F931F93CF93DF93182F062FF42E14
:10158000D0E0C0E02F2D402F612FCE010E948D0AA8
:101590002196C033D105B1F7DF91CF911F910F9103
:1015A000FF90089580913D06837011F4109215010B
:1015B00080913D068C7F816080933D0608950C9458
:1015C000B80A0C948D0A0F931F9310E0F801EE0FE8
:1015D000FF1FEF5EFC4F9081905797FD9195000F94
:1015E000111FF801EE5EFC4F00810052110B200329
:1015F000F001219FF00D112408E310E0091B1109EF
:1016000097FD139540039001419F300D1124E20F87
:10161000F31F9F01220F331F2E0F3F1F37FF02C002
:1016200021583F4F220F232F221F330B620F1F9190
:101630000F9108950F931F93522F10E0F801EE0FB2
:10164000FF1FEE5EFC4FA081A052BB0B9D01520319
:10165000F001539FF00D1124000F111FD801AF5E50
:10166000BC4F0C910057110B40039001419F300D6E
:1016700011242E0F3F1F37FF02C0215C3F4F96E021
:10168000359527959A95E1F7620F1F910F9108956F
:101690000F931F93522F10E0F801EE0FFF1FEE5E25
:1016A000FC4FA081A052BB0B9D015203F001539F40
:1016B000F00D1124000F111FD801AF5EBC4F0C912B
:1016C0000057110B40039001419F300D11242E0F44
:1016D0003F1F37FF02C021583F4F220F232F221FE9
:1016E000330B620F1F910F910895EF920F93972F75
:1016F00023E0029FB0011124759567956E0D792F37
:101700000F91EF900895322F50E0FA01EE0FFF1F76
:10171000EE5EFC4F9081905297FD9195440F551FBE
:10172000FA01EF5EFC4F2081231B330B290F311D83
:1017300097FD3A95620F0895E42FF0E0EE0FFF1F3A
:10174000EE5EFC4F6081621B0895E42FF0E0EE0F27
:10175000FF1FEF5EFC4F6081621B0895622F0895AA
:10176000E42FF0E0EE0FFF1FEF5EFC4F408134EE00
:10177000439F412D1124E82FF0E050E0445E5F4F7D
:10178000DA01A21BB1099D01B7FF03C03195219574
:10179000310993E0220F331F9A95E1F7AF01421B05
:1017A000530B9A0157FD20E0582F259F212D11241E
:1017B000822F0895E42FF0E0EE0FFF1FEF5EFC4F45
:1017C000408134EE439F412D1124E72FF0E050E09B
:1017D000445E5F4FDA01A21BB1099D01B7FF03C050
:1017E00031952195310993E0220F331F9A95E1F746
:1017F000AF01421B530B9A0157FD20E0279F212D7B
:101800001124722F0895FC019B01009729F480E0B8
:1018100077FF2BC080E80895AC0197FF04C04427F0
:101820005527481B590BB901640F751F37FD10C0B0
:10183000241B350BC901A5E0880F991FAA95E1F774
:101840000E94023180E2861BF7FF0FC08195089548
:10185000CB0165E0880F991F6A95E1F7BA01621B19
:10186000730B0E94023180E6EECF0895EF920F9342
:10187000CF93DF93D72FC82FC9010E19BA010E9449
:10188000030C602F681B7D2F8C2FDF91CF910F9160
:10189000EF9008950F93CF93DF93D72FC82FC901EF
:1018A000BA010E94030C682F600F7D2F8C2FDF91EF
:1018B000CF910F910895EF920F931F93CF93DF93E2
:1018C000D62FC72F182FC9010E19010FBA010E9478
:1018D000030C081B202F219F212D1124822F6D2FF7
:1018E0007C2FDF91CF911F910F91EF900895EF9290
:1018F0000F931F93CF93DF93D62F172FC82FC901B4
:101900000E19070FBA010E94030C702F781B719FEC
:10191000712D11246D2F8C2FDF91CF911F910F917D
:10192000EF9008950F931F93CF93DF93D62FC72F78
:10193000182FC901212F201B022FBA010E94030C6E
:10194000982F990F990F891B800F282F219F212DE8
:101950001124822F6D2F7C2FDF91CF911F910F913A
:1019600008950F931F93CF93DF93D62F172FC82F70
:10197000C901272F201B022FBA010E94030C982FA8
:10198000990F990F782F791B700F719F712D11246A
:101990006D2F8C2FDF91CF911F910F910895E82F1C
:1019A00086FDE0952E2F2F7086FD2F5FE695E6953C
:1019B000E695E670F0E0E45EFE4F9181929F902DF7
:1019C000212D112492959F702295207F922B2081AA
:1019D000920F87FD919580E8890F0895AC018230C0
:1019E000910508F408959FEF413E8EE1580740F4B9
:1019F0009A0195E0369527959A95E1F798E0920F30
:101A000061E0E62FE90FFF27FF1F9F01359527951E
:101A1000822F229FF001239FF00DF00D11244E170D
:101A20005F0738F49FEF920F961758F78FEF860FE6
:101A300008952F3FE9F361E0620FF6CF0F93CF9344
:101A4000DF93D72FC82F47FD419588E390E0841B93
:101A5000910947FD9395889FB001899F700D700D86
:101A60001124229FC001239F900D900D1124860FF9
:101A7000971F0E94EE0C982F990F890F682F600F07
:101A80007D2F8C2FDF91CF910F91089530E020E0D2
:101A9000869F212D969F200D311D1124C901089587
:101AA000AF92BF92CF92DF92FF920F931F93CF938B
:101AB000DF93362F472FE82FF0E0E45CFA4F7111E7
:101AC0000FC0E4918E2F2E2F6E2F722FDF91CF91AA
:101AD0001F910F91FF90DF90CF90BF90AF9008952E
:101AE000C72FD0E02491F22E022F10E056E0659F20
:101AF000C0011124EFEFF0E0BF010E94EE30832F10
:101B000090E0880F991F35E5369FD001379FB00DC3
:101B100011248A1B9B0B982F990F980F6F01CC1AD9
:101B2000DD0AC09ED001C19EB00DD09EB00D112423
:101B30008B2F499FA0011124452F55276F01C41AEF
:101B4000D50AC09EA001C19E500DD09E500D1124FB
:101B50005F01A91AB108AC9E6001AD9ED00CBC9E7D
:101B6000D00C1124CD2CDD24EC19FD09E09FE001FF
:101B7000E19FD00DF09FD00D1124ED2F6230710543
:101B8000A1F050F46115710509F49ECF6130710523
:101B900081F0EB2F852F98CF6430710569F080F0CC
:101BA0006630710509F490CFF4CFE22F2B2F8D2FE3
:101BB0008BCFE22F252F88CFEB2F822F2D2F84CF95
:101BC0002B2F8F2DE52F80CF9F92AF92BF92CF9278
:101BD000DF92EF92FF920F931F93CF93DF936C01ED
:101BE00080911601C82FCC0FCC0FC80F15E01C0F29
:101BF000B12E113310F030E3B32E6091410666959B
:101C000066958091390690913A060E94460DF82E0D
:101C100080E48F0D0E94CF0C90E8A92EA80E8F2D86
:101C20000E94CF0C20E8922E980ED0E0CB1580F0C9
:101C300081E0103308F080E0DF91CF911F910F9188
:101C4000FF90EF90DF90CF90BF90AF909F9008955E
:101C5000FE01EF58FC4F8081909117018923A1F07C
:101C600060913E0670913F0680914006EF2C0C2F4C
:101C7000292D4A2DF60109950E94500D462F282F37
:101C8000672FCE010E94E10A2196D0CF7F928F92DA
:101C90009F92AF92BF92CF92DF92EF92FF920F93FB
:101CA0001F93CF93DF935C0180911601C82FCC0F57
:101CB000CC0FC80F15E01C0FF12E113310F030E3DC
:101CC000F32E6091410666958091390690913A060F
:101CD0000E94460D782ED0E0CF1590F081E01033B1
:101CE00008F080E0DF91CF911F910F91FF90EF906E
:101CF000DF90CF90BF90AF909F908F907F9008958E
:101D0000FE01EF58FC4F8081909117018923C9F1A2
:101D1000CE01880F991F83549D4FFC01EC5AFF4F51
:101D20002081422F4057550B6A018B5A9F4FFC016F
:101D30008081282F2052330B4901449F9001459FF9
:101D4000300D300D1124889CC001899C900D900DA0
:101D50001124820F931F0E94EE0C082F60913E0603
:101D600070913F0680914006E72C9401A601F50191
:101D700009950E94500D462F282F672FCE010E94F3
:101D8000E10A2196A9CFCF92DF92EF92FF920F93B3
:101D90001F93CF93DF937C0180911601C82FCC0F46
:101DA000CC0FC80F15E01C0FD12E113310F030E30B
:101DB000D32E6091410666958091390690913A063E
:101DC0000E94460DC82ED0E0CD1568F081E010339A
:101DD00008F080E0DF91CF911F910F91FF90EF907D
:101DE000DF90CF900895FE01EF58FC4F80819091D5
:101DF0001701892311F1CE01880F991F83549D4F3C
:101E0000FC01EB5AFF4F20812052330B8C5A9F4F1D
:101E1000FC0140814057550B60913E0670913F0692
:101E2000809140060C2DF70109950E94500D462F18
:101E3000282F672FCE010E94E10A2196C5CFDF929D
:101E4000EF92FF920F931F93CF93DF937C018091CA
:101E50001601C82FCC0FCC0FC80F15E01C0F012F97
:101E6000113308F000E36091410666956695809114
:101E7000390690913A060E94460DD82ED0E0C01740
:101E800060F081E0103308F080E0DF91CF911F9186
:101E90000F91FF90EF90DF900895FE01EF58FC4FF7
:101EA000808190911701892391F060913E06709195
:101EB0003F06809140062D2D4C2FF70109950E9479
:101EC000500D462F282F672FCE010E94E10A219640
:101ED000D6CF9091D30592FF06C0282F28712830C5
:101EE000F9F4877F846093FF06C0282F287128317A
:101EF000F1F4877E84612091D40520FF06C0382F3D
:101F000038713830D9F4877F816021FF06C0282FCF
:101F100028712831D1F4877E816194FD877E0895F0
:101F2000282F24712430F9F68B7F8860DCCF282F8E
:101F30002471243101F78B7E8861DDCF382F317118
:101F4000313019F78E7F8860E0CF282F2171213141
:101F500021F78E7E8861E1CFCF93DF93972F70E0DA
:101F600026E0929F600D711D1124FB0134E5839FD3
:101F7000E00DF11D1124EE0FFF1FEB57F94FC59136
:101F8000D491CE01C238D105B9F1E8F5C133D105FC
:101F900009F499C050F5C932D10509F48DC0CA328F
:101FA000D10509F497C0C11541E5D40708F0BFC0B9
:101FB000C11550E5D50708F031C1C83ED10508F07C
:101FC0009DC0C13ED10568F5C83AD10508F089C069
:101FD000C53AD10508F01AC1C130D10511F12097D9
:101FE00009F443C02497E8F440C0C533D10509F48F
:101FF0005CC0C933D105B9F62091D305237089F0AF
:1020000080EE90E00EC0C33ED10591F168F4C03E71
:10201000D105F9F0C23ED10531F62091D30522FD5C
:1020200020C0DF91CF910895C63ED10561F1C73E32
:10203000D10581F1C43ED10509F0B5CF2091D40579
:1020400021FFEFCF8091D30584FD0FC087EE90E094
:10205000E8CF2091D30520FD0BC13091D40530FF8E
:10206000E0CF83EE90E024FFDCCF90E080E0D9CF9A
:102070002091D30522FDFFC03091D40530FDC0CFA3
:1020800024FFCFCFF2CF2091D30523FFCACF24FD69
:10209000ECCFDCCF2091D30523FDF0C03091D405E7
:1020A00031FFEECF84EE90E0BCCF2091D30525FF29
:1020B000B8CF89E290E0B5CF2091D30525FFB1CF0D
:1020C00085E390E0AECF2091D30526FFAACF8AE228
:1020D00090E0A7CF2091D30526FFA3CF81E390E026
:1020E000A0CFCF3BD10508F6C85AD0E0CC0FDD1FFA
:1020F000C157DD4F88819981946493CFC11520E247
:10210000D20760F4C11531E0D30708F08ACFCE01C1
:102110009065C03FD10508F084CFA7CFC11540E43A
:10212000D40708F4A2CFCE019F70906A7ACFC11570
:1021300059E5D507F0F5C11588E5D80708F08FC037
:10214000C11593E5D907C8F4C11522E5D20708F4F3
:1021500081C09E012370332781E090E0AC0102C072
:10216000440F551F2A95E2F79A018C2F8695869584
:1021700050E2859FC001112469C0C11534E5D30721
:1021800008F073CF9E012370332781E090E0AC010B
:1021900002C0440F551F2A95E2F79A018C2F8695AD
:1021A000869550E2859FC0011124822B932B9A685B
:1021B00038CFC1154CE5D407B8F4C1155BE5D50798
:1021C00008F052C0C1158AE5D80708F04ECF8C2F11
:1021D0008F700E94690F34E0D695C7953A95E1F764
:1021E000CF709C2F90691DCFCE01905681159042E3
:1021F00008F03BCF8D2F8F710E94690F90E0982FD0
:10220000882788279F718C2B90620BCFC55AD0E00E
:10221000C457DD4F888190E0906403CF9E0164E055
:10222000369527956A95E1F723708C2F86958695CC
:10223000837030E2839FC0011124922BC37021E090
:1022400030E002C0220F331FCA95E2F7822B932B96
:102250009C68E7CE9C2F8827816F906AE2CE9C2FE6
:102260008827806F906ADDCECE0199279066D9CEFF
:1022700089E390E0D6CE82EE90E0D3CE86EE90E079
:10228000D0CEBF92CF92DF92EF92FF920F931F9327
:10229000CF93DF938C01C090D505D090D605E09008
:1022A000D705F090D8058091B2059091B305A09123
:1022B000B405B091B505C82AD92AEA2AFB2ACFE18C
:1022C000D0E0BC2ED701C6010C2E04C0B695A79550
:1022D000979587950A94D2F780FD0EC0219788F7CD
:1022E000B12C8B2DDF91CF911F910F91FF90EF902B
:1022F000DF90CF90BF900895B8018C2F0E94AC0F53
:10230000019761F3EECFCF93DF93EC010E9441116F
:10231000BE01DF91CF910C94AC0F0E948311292F45
:102320002F7092959F7092509E3078F4E92FF0E0D4
:10233000E35CFB4C0C941631803F19F020F4883E8E
:1023400020F481E00895843FE1F380E00895883E21
:10235000C0F3813FD1F7F5CF822F8695869586957C
:102360000895CF92DF92EF92FF926C01EE24FF244A
:1023700020E0C114D104E104F10419F0C701B60151
:1023800020E1C72ED82EE92EFF24C114D104E10488
:10239000F10419F0285FC701B6016B017C0154E01C
:1023A000F694E794D794C7945A95D1F7C114D10401
:1023B000E104F10419F02C5FC701B6016B017C0147
:1023C00042E0F694E794D794C7944A95D1F7C114A4
:1023D000D104E104F10419F02E5FC701B60196950E
:1023E000879577956795672B682B692B09F02F5F89
:1023F000822FFF90EF90DF90CF900895CF93DF93DF
:102400009C013A9521153F4168F5EC01CC27D1702C
:10241000DC01AA27B270AC01442754709C0122272A
:10242000387094FF11C080E1CD2B09F480E0AB2B14
:1024300009F08062452B09F08064232B09F0806845
:10244000FB01DF91CF91099481E0CD2B09F480E06D
:10245000AB2B09F08260452B09F08460232B81F3BC
:102460008860EECFDF91CF910895BF92CF92DF9237
:10247000EF92FF920F931F93CF93DF93EA01FB013B
:10248000EE0FFF1FE60FF71F20E9AC01249FC001EC
:10249000259F900D11248E0F9F1FFC01E455FF4FC7
:1024A0006491FC01E355FF4F749182559F4FFC01ED
:1024B0008491962F972B982B79F420E040E060E0F0
:1024C000CE01DF91CF911F910F91FF90EF90DF90A0
:1024D000CF90BF900C94E10A0E94500D8B01B82E52
:1024E0006091400670E090E080E00E94153220E0AC
:1024F00030E04FE753E40E9474316B017C016B2D97
:1025000070E090E080E00E941732A70196010E94DF
:10251000A3320E94E631B62E602F70E090E080E09A
:102520000E941732A70196010E94A3320E94E63151
:10253000062F612F70E090E080E00E941732A70123
:1025400096010E94A3320E94E6312B2D402FB8CF76
:1025500040E060E080E00E94DF0A40E060E080E070
:102560000E94DF0A81E080930706089527982F983C
:10257000089526982E98089525982D980895569890
:102580005E980895279A2F9A0895269A2E9A08956C
:10259000259A2D9A0895CF92DF92EF92FF926B01C8
:1025A0007C010E94BF12C701B6010E94B1118032A6
:1025B000C0F4E82FF0E0E55BFB4C0C9416310E9470
:1025C000BC120E94B9120BC00E94BC120E94B91228
:1025D0000E94C21206C00E94BC120E94C5120E9434
:1025E000B612C701B601FF90EF90DF90CF9008952B
:1025F0000E94BC120E94C512EBCF0E94C812E1CF0C
:102600000E94C812E3CF0E94C812E7CF0E94C812EE
:10261000F1CF209828982198299822982A982398D1
:102620002B9852985A9853985B983E9846980895DC
:102630008098889A8198899A84988C9A85988D9A9E
:1026400086988E9A87988F9A0895CF9384E090E029
:102650000E942C31C82F81E290E00E942C31982FEB
:102660008C2FCF910895CF93DF9300D00F92CDB7E9
:10267000DEB790912C06943019F589837B836A83A9
:1026800082E08093E9008FEF9091E800815095FD02
:1026900006C095ED9A95F1F700008111F5CF809174
:1026A000E80085FF0DC050E040E063E070E0CE013F
:1026B00001960E94C5068091E8008E778093E8001D
:1026C0000F900F900F90DF91CF910895BC0184E09F
:1026D0000C943313BC0183E00C9433139C0182E00F
:1026E0008093E9009FEF8091E800915085FD06C03E
:1026F00085ED8A95F1F700009111F5CF8091E80002
:1027000085FF0CC050E040E066E070E0C9010E9427
:10271000C5068091E8008E778093E8000895CF93F6
:10272000DF93EC01809114018823B1F18091D305EE
:1027300087FF32C060E282E08093E9008FEF9091E2
:10274000E800815095FD06C095ED9A95F1F70000DF
:102750008111F5CF8091E80085FF1BC080911401A5
:1027600070E050E040E0811104C050E040E068E0DB
:1027700070E0CE010E94C5068091E8008E778093BC
:10278000E80080E2FE01AAE0B6E001900D928A9591
:10279000E1F7DF91CF91089568E081E0CDCF0E940D
:1027A000BF120E94BC120E94B9120E94B6128FEF93
:1027B00090E0909389008093880090938B008093A1
:1027C0008A0090938D0080938C000E94C8122FEF96
:1027D00080E792E0215080409040E1F700C0000087
:1027E0000E94C5122FEF80E792E021508040904078
:1027F000E1F700C000000E94C2122FEF80E792E0D4
:10280000215080409040E1F700C000000E94BC12BF
:102810002FEF80E792E0215080409040E1F700C028
:1028200000000E94B9122FEF80E792E02150804013
:102830009040E1F700C000000E94B6120E94BF1253
:102840000E94BC120E94B9120C94B6126CEE7EEF7C
:1028500090E080E00E946E3160E082E090E00E94B3
:10286000503160E083E090E00E9450311092B20558
:102870001092B3051092B4051092B50560E084E0A3
:1028800090E00E94503160E081E290E00E9450317F
:1028900060E085E090E00E94503160E086E090E0EA
:1028A0000E9450316FEF87E090E00E94503140E08D
:1028B00050E0BA0188E090E00E94623160E08DE073
:1028C00090E00E94503140E050E0BA0188E190E091
:1028D0000E94623160E087E190E00E94503140E068
:1028E00050E0BA018CE190E00E94623160E080E249
:1028F00090E00E94503140E050E0BA0188E190E061
:102900000E9462311092C1051092C2051092C30557
:102910001092C40584E080618093C1054091C10597
:102920005091C2056091C3057091C4058FE090E09D
:102930000E94623140E050E0BA0183E190E00C94E3
:1029400062310F931F93CF93DF93082F000FEB019A
:1029500014E21093CD03EEECF3E0DE018D91819350
:1029600083E0EE3DF807D1F724E630E041E150E0A6
:102970006DEC73E0802F0E94C330105F6096143BB3
:1029800041F7DF91CF911F910F9108958091E1035D
:10299000882329F063EE73E084E70E94A11410926B
:1029A000E1038091E203882329F063E774E087E77D
:1029B0000E94A1141092E2030895EDECF3E060830D
:1029C000418324E630E042E050E0BF01880F0C94E0
:1029D000C330EF92FF920F931F93CF93DF93E82EB4
:1029E000062F10E0095D1A4FF8018081882381F0DD
:1029F000F2E16F9FE0011124CD5FDA4FF12C499194
:102A00006F2D8E2D0E94DD14F39482E1F812F7CF22
:102A1000F8011082DF91CF911F910F91FF90EF90FD
:102A20000895CF93DF93C82F4BE06DEF0E94DD1424
:102A300040E06AE08C2F0E94DD148FE39CE901974F
:102A4000F1F700C0000040E060E08C2F0E94DD1430
:102A500040E061E08C2F0E94DD1440E066E08C2FA6
:102A60000E94DD1440E06DEF8C2F0E94DD14D0E059
:102A700040E06D2F8C2F0E94DD14DF5FD231C1F753
:102A800040E06D2F8C2F0E94DD14DF5FD432C1F740
:102A900040E06D2F8C2F0E94DD14DF5FD43BC1F727
:102AA0004BE06DEF8C2F0E94DD1441E06AE08C2F2B
:102AB0000E94DD1440E06DEF8C2FDF91CF910C94DC
:102AC000DD146F927F928F929F92AF92BF92CF92BE
:102AD000DF92EF92FF920F931F93CF93DF930E94A9
:102AE0000E3084E70E94111587E70E94111564E2F9
:102AF000E62E61E0F62ED12CC12C72E1772EE8E0B3
:102B00008E2E912CAA24A394B12C66246394F701F1
:102B1000418150E0CA01849702810452110BC381A4
:102B2000C452DD0BF601EE0FFF1FEE0FFF1FEC5D31
:102B3000FE4F2081237030E0FC0197FD379643E083
:102B4000F595E7954A95E1F7729EA001739E500DA9
:102B500011244D5F5A4FE40FF52FF11DB4010E946F
:102B60000231A50101C0440F8A95EAF78081842BC8
:102B70008083F80117FD379693E0F595E7959A95D0
:102B8000E1F7729EC001739E900D11248D5F9A4FE4
:102B9000E80FF92FF11DC801B4010E940231A5010F
:102BA00001C0440F8A95EAF78081842B8083FE015F
:102BB000D7FD379683E0F595E7958A95E1F7729E04
:102BC000C001739E900D11248D5F9A4FE80FF92F6D
:102BD000F11DCE01B4010E940231A50101C0440FD4
:102BE0008A95EAF78081842B8083295D3A4FF90129
:102BF0006082FFEFCF1ADF0A84E0E80EF11CE0E309
:102C0000CE16D10409F083CF60E084E70E94E91476
:102C100061E087E7DF91CF911F910F91FF90EF90D7
:102C2000DF90CF90BF90AF909F908F907F906F90EC
:102C30000C94E91445E050E06CE170E08DE396E01F
:102C40000C94403190913D06937089F0811107C03A
:102C5000946090933D06109215010C941A168631DB
:102C600010F09465F6CF880F880F982BF2CF089557
:102C700080913D0686958695815009F485E10C94F6
:102C8000221680913D06869586958F5F863108F0E5
:102C900081E00C94221690913D06937041F0809350
:102CA0003E0660933F06409340060C941A16089522
:102CB000EDE3F6E0438120E1421B08F440E081812E
:102CC000628190E00C944B16EDE3F6E0438120E145
:102CD000420F08F44FEF8181628190E00C944B1613
:102CE000EDE3F6E0628120E1621B08F460E081819F
:102CF000438190E00C944B16EDE3F6E0628120E115
:102D0000620F08F46FEF8181438190E00C944B16C1
:102D1000EDE3F6E08181438162818850990B0C9448
:102D20004B16EDE3F6E0818190E0438162810896E5
:102D30000C944B16EDE3F6E0248130E1230F08F408
:102D40002FEF24830C941A16EDE3F6E0248130E192
:102D5000231B08F420E024830C941A16EDE3F6E01C
:102D600081E380838091190190911A01A0911B0148
:102D700081839283A3838FE784830C941A160E9425
:102D8000611590E080E00E943A318C3E9E4F21F028
:102D90000E9426140E94AE1645E050E06CE170E0FF
:102DA0008DE396E00E941C3180913D068C7F11F4EA
:102DB0000C94AE16089580E290E090930901809300
:102DC00008018091C20381110EC00E940E3081E083
:102DD0008093C2032FEF83ED90E321508040904019
:102DE000E1F700C0000064E670E080E40E94143067
:102DF0009093090180930801892B09F04EC064E685
:102E000070E080E00E947030909309018093080187
:102E1000892B09F042C064E670E080E00E947030C7
:102E20009093090180930801892BB9F564E670E05D
:102E30008FE30E9470309093090180930801892BE1
:102E400061F50E94EA3064E670E080E40E9414308C
:102E50009093090180930801892BF9F464E670E0EE
:102E60008CE00E9470309093090180930801892BB7
:102E7000A1F464E670E080E00E9470309093090154
:102E800080930801892B49F464E670E08FE30E9487
:102E9000703090930901809308010E94EA3080917C
:102EA00008010895CF93C82F873070F580910801ED
:102EB00090910901892B89F564E670E080E40E9415
:102EC00014309093090180930801892BD1F464E6B2
:102ED00070E082E10E9470309093090180930801B4
:102EE000892B79F481E090E001C0880FCA95EAF758
:102EF00064E670E080950E947030909309018093A1
:102F00000801CF910C94EA308A30B9F040F488304F
:102F100071F0893079F0209A2898CF9108958C30FB
:102F200091F070F08D30B9F73E9A4698F6CF219A1D
:102F30002998F3CF229A2A98F0CF239A2B98EDCF95
:102F4000529A5A98EACF539A5B98E7CFCF9387303B
:102F500050F58091080190910901C0E0892B71F42E
:102F600064E670E081E40E9414309093090180933C
:102F70000801892B31F0C0E00E94EA308C2FCF91FC
:102F8000089584E690E00E949F3097FF05C09093DB
:102F9000090180930801EFCFC82FC0951092090155
:102FA00010920801E9CFCFB18FB1869586958C73C9
:102FB000C3708C2BC82FC095E1CF78941F921FB699
:102FC0001F9211248F939F93AF93BF938091B60567
:102FD0009091B705A091B805B091B9050196A11DD2
:102FE000B11D8093B6059093B705A093B805B09333
:102FF000B905BF91AF919F918F911F901FBE1F90F8
:1030000018952FB7F8948091B6059091B705A091C7
:10301000B805B091B9052FBF08950E9401189C0111
:103020009091F2058091F305982B21F03093EF05F4
:103030002093EE059091F4058091F505982B21F0F1
:103040003093EC052093EB05E091D905F091DA057A
:10305000309749F082E08093F0050480F581E02DFF
:1030600080EF95E0099408951092B0051092AF0595
:103070000E94420986E0E0EFF5E0DF011D928A95AB
:10308000E9F71092ED051092EA051092BA050E9438
:103090000D1890E080E00E94660A90E080E00C94B9
:1030A000500A0E94CB126093D5057093D605809389
:1030B000D7059093D8050C9434180F931F9341E0D3
:1030C00050E060E070E004C0440F551F661F771F9A
:1030D0008A95D2F7CB01BA0160957095809590954D
:1030E0000091D5051091D6052091D7053091D805CE
:1030F00060237123822393231F910F910C94511805
:103100000F931F9341E050E060E070E004C0440F73
:10311000551F661F771F8A95D2F78091D50590912C
:10312000D605A091D705B091D8058A019B01082B3F
:10313000192B2A2B3B2BC901B8011F910F910C941D
:1031400051186093B2057093B3058093B4059093C2
:10315000B5050C9434181092B10580911401E4EA7D
:10316000F3E0882359F08091D30587FF07C08EE1F3
:10317000DF011D928A95E9F70C94341886E0F8CFA8
:103180001F93CF93DF93CDB7DEB7AA970FB6F8940E
:10319000DEBF0FBECDBF8EE296E02091F100FC01B4
:1031A0002193CF01F6E086339F07B9F780912F0670
:1031B000833009F46FC0B8F4813009F446C082301E
:1031C00009F4B0C08091E80083FF7BC280912E0695
:1031D00090912F069A3008F074C2E92FF0E0E5597B
:1031E000FB4C0C9416318A3009F48BC08B3009F4F7
:1031F0006EC0893039F780912E06813219F780919F
:103200003206909133060297E8F68091E800877FB6
:103210008093E8008091E80082FF37C09091F3002E
:103220008091F200029729F48091F1008B7F813028
:1032300021F48091F100809309068091E8008B775A
:103240008093E8000E94EF06BDCF80912E06813A60
:1032500009F0B8CF8091E800877F8093E8008091E3
:10326000320690913306892B61F460E28AE096E0A1
:1032700070E00E94A1078091E8008B778093E800BE
:10328000A1CF60E090E080E0F3CF80912C06811127
:10329000C1CF98CF80912E06813A09F093CF8091CB
:1032A000320690913306892B09F08CCF8091E8008B
:1032B000877F8093E8008091E80080FFFCCF8091B9
:1032C00014018093F1008091E8008E77B9CF80914E
:1032D0002E06813209F076CF809132069091330626
:1032E000892B09F06FCF8091E800877F8093E800F9
:1032F0000E94EF0680913006809314010E94AB1863
:1033000061CF80912E06813209F05CCF8091E80078
:10331000877F8093E8000E94EF06809131068093BA
:10332000080650CF80912E06813A09F04BCF80914C
:10333000E800877F8093E8008091E80080FFFCCF61
:1033400080910806BECF803899F0823809F0B9C163
:10335000809132068F70873008F0B3C18093E90006
:103360008091EB0085FB882780F91092E90006C068
:1033700080912A0690912B06911182609091E8002D
:10338000977F9093E8008093F1001092F100809174
:10339000E8008E7792C1882309F480C1823009F059
:1033A00090C180913006811183C1809132068F7067
:1033B0002FEF280F263008F084C18093E900209178
:1033C000EB0020FF75C1933031F48091EB008062F7
:1033D0008093EB006DC19091EB0090619093EB00B6
:1033E00021E030E001C0220F8A95EAF72093EA003D
:1033F0001092EA008091EB008860EACF811161C1F0
:10340000109130061F778091E3008078812B8093A4
:10341000E3008091E800877F8093E8000E94EF0638
:103420008091E80080FFFCCF8091E300806880936A
:10343000E30082E0111183E080932C0642C18058A2
:10344000823008F03EC180913006909131068C3D6B
:1034500023E09207A1F583E08A838AE289834FB74C
:10346000F894DE01139620E03EE051E2E32FF0E015
:1034700050935700E49120FF03C0E295EF703F5F47
:10348000EF708E2F90E0EA30C0F0C7968D939D9339
:103490002F5F243159F74FBF8091E800877F8093D9
:1034A000E8006AE270E0CE0101960E94A1078091D7
:1034B000E8008B778093E80004C1C096E7CF409185
:1034C000320650913306292F33272330310509F472
:1034D00044C078F52130310509F46FC08BE390E0EA
:1034E000E9E1FCE02230310509F0EBC02091E80071
:1034F000277F2093E800209134063091350682170B
:10350000930708F49C0140E02115310509F064C0DF
:10351000411162C08091E80082FDC9CF80912C06E4
:10352000882329F2853019F28091E80083FFF2CFD9
:10353000BECF21323105A9F12232310509F0C1C0D7
:103540004115510509F443C04130510509F0B9C096
:103550008CEB90E0EDE1FBE0C9CF9927813091053C
:10356000C1F0009759F0029709F0ABC0E6E6FCE025
:10357000E4918E2F90E0E6E6FCE007C0E8EAFCE08C
:10358000E4918E2F90E0E8EAFCE0009709F499C0FE
:10359000ADCFEEE7FCE0E4918E2F90E0EEE7FCE0AB
:1035A000F4CF4115510571F04130510509F089C042
:1035B00089E090E0E4E4FCE099CF82E190E0E4E58A
:1035C000FCE094CF89E090E0EBE2FCE08FCF80E478
:1035D00090E0E9EDFBE08ACF80912C06882309F486
:1035E00066CF853009F463CF8091E80083FD5FCF1B
:1035F0008091E80082FD8ECF8091E80080FF84CF2B
:103600009091F3008091F2002115310519F0883076
:10361000910550F041E0089709F040E08091E80002
:103620008E778093E80070CF44914093F1003196FB
:10363000215031090196E8CF803809F042C08091CD
:10364000E800877F8093E80080912D068093F10049
:103650009ECE811136C010913006123090F58091C7
:10366000E800877F8093E80010932D060E94EF0604
:10367000112311F084E005C08091E30087FDFACFAB
:1036800081E080932C0642E061EC81E00E940E070D
:1036900042E261EC82E00E940E0713C08091300686
:1036A000813079F481E0933009F080E080932B063B
:1036B0001092E9008091E800877F8093E8000E94E3
:1036C000EF068091E80083FF0AC08091E800877FC1
:1036D0008093E8008091EB0080628093EB00AA96D3
:1036E0000FB6F894DEBF0FBECDBFDF91CF911F9113
:1036F00008951F920F920FB60F9211242F933F93AC
:103700004F935F936F937F938F939F93AF93BF93E9
:10371000CF93DF93EF93FF93D091E900DF70809117
:10372000EC00C82FC17080FDC0E81092E9008091C4
:10373000F000877F8093F00078940E94C018109268
:10374000E9008091F00088608093F000CD2BCF706D
:10375000C093E900FF91EF91DF91CF91BF91AF91BD
:103760009F918F917F916F915F914F913F912F9199
:103770000F900FBE0F901F9018951F920F920FB6CB
:103780000F9211242F933F934F935F936F937F93E7
:103790008F939F93AF93BF93EF93FF938091E1003B
:1037A00082FF09C08091E20082FF05C08091E100A4
:1037B0008B7F8093E1008091DA0080FF24C08091AC
:1037C000D80080FF20C08091DA008E7F8093DA00DD
:1037D0008091D90080FFA1C080E189BD82E189BDCF
:1037E00009B400FEFDCF81E080932C06809106068F
:1037F000811109C00E9475060E9440078091E20075
:1038000084608093E2008091E10080FF17C0809186
:10381000E20080FF13C08091E2008E7F8093E2007F
:103820008091E20080618093E2008091D800806204
:103830008093D80019BC85E080932C068091E1002C
:1038400084FF2FC08091E20084FF2BC080E189BDFE
:1038500082E189BD89B5982F917080FFFBCF80915F
:10386000D8008F7D8093D8008091E1008F7E809377
:10387000E1008091E2008F7E8093E2008091E2007F
:1038800081608093E20080912D06882309F44BC06B
:1038900084E080932C060E94AB180E947C0A109250
:1038A00007068091E10083FF27C08091E20083FF3B
:1038B00023C08091E100877F8093E10082E08093C4
:1038C0002C0610922D068091E1008E7F8093E100FE
:1038D0008091E2008E7F8093E2008091E20080611F
:1038E0008093E20042E060E080E00E940E07809159
:1038F000F00088608093F000FF91EF91BF91AF914D
:103900009F918F917F916F915F914F913F912F91F7
:103910000F900FBE0F901F90189519BC10922C0697
:103920001092060670CF8091E30087FD93E090939C
:103930002C06B1CF882309F459C0823871F40E9453
:103940007C0A81FF53C089E30E9491090E944209C9
:1039500089E30E9466090C944209833859F40E9455
:103960007C0A80FF43C083E50E9491090E944209BE
:1039700083E5EFCF843859F40E947C0A82FF36C079
:1039800087E40E9491090E94420987E4E2CF9CEFFC
:10399000980F913AF0F290E2980F983088F487707F
:1039A00021E030E0A90102C0440F551F8A95E2F7DB
:1039B000CA0180959091B10589238093B105CBCF41
:1039C0009BE5980F933020F490E080E00C94660A19
:1039D00098E5980F973120F490E080E00C94500A1D
:1039E000803F20F00E9402080C940D180895CF9398
:1039F000DF93EC010E949A1CCE01805E910908972A
:103A000020F066E27AE0209711F46BE37AE0CE01D1
:103A1000DF91CF910C94FE11CF93C82F882309F426
:103A2000AEC08238C1F40E947C0A81FDA8C089E33F
:103A30000E9491090E9442092FEF81EE94E02150EB
:103A400080409040E1F700C0000089E30E946609D1
:103A5000CF910C9442098338A1F40E947C0A80FD26
:103A60008EC083E50E9491090E9442092FEF81EEEA
:103A700094E0215080409040E1F700C0000083E5D1
:103A8000E5CF8438A1F40E947C0A82FD78C087E4E7
:103A90000E9491090E9442092FEF81EE94E021508B
:103AA00080409040E1F700C0000087E4CFCF8CEF6A
:103AB0008C0F813A88F580911401882301F180915F
:103AC000D30587FF1CC0EC2FE695E695E695F0E060
:103AD000EE55FC4F828190E04C2F477021E030E0A2
:103AE00002C0220F331F4A95E2F782239323892BCA
:103AF00079F08C2F0E9466090E94420909C0E4EA0D
:103B0000F3E08191C817A9F323E0EA3AF207C9F775
:103B10008C2F0E9491099CCF80E28C0F883068F432
:103B2000C77021E030E001C0220FCA95EAF780910A
:103B3000B105822B8093B1058BCFEBE5EC0FE33021
:103B400040F4F0E0E457FD4F808190E0CF910C9479
:103B5000660AE8E5EC0FE73150F4F0E0EE0FFF1FE6
:103B6000E157FD4F80819181CF910C94500AC03F65
:103B700030F08C2F0E94CB08CF910C940D18CF9170
:103B80000895CF93C82F0E940C1DC93349F42FEF1D
:103B900087EE93E0215080409040E1F700C00000A4
:103BA0008C2FCF910C949A1C0F931F93CF93DF937C
:103BB000C62FD42F022FFC0182818823A1F06093AD
:103BC00038060E9401189093370680933606C77016
:103BD00081E001C0880FCA95EAF7DF91CF911F916C
:103BE0000F910C94460A80913806681335C0809175
:103BF0003606909137060E943309883C910560F59E
:103C000010E21D0FCD17B9F080E28C0F883040F420
:103C1000C77081E001C0880FCA95EAF70E943B0A8D
:103C2000183048F481E09D2F977001C0880F9A9555
:103C3000EAF70E94460A802F0E94C11D183098F4AE
:103C4000D77081E001C0880FDA95EAF7DF91CF9154
:103C50001F910F910C943B0AC77081E001C0880F3F
:103C6000CA95EAF7F3CFDF91CF911F910F91089595
:103C7000CF92DF92EF92FF920F931F93CF93DF9338
:103C8000EC018AE0C82EFE018491882309F481C0EA
:103C9000813009F03EC031968491813039F422960A
:103CA000FE0184910E94C11D2196EDCF823031F436
:103CB0002296FE0184910E940C1DF6CF833031F4D0
:103CC0002296FE0184910E949A1CEECF843009F066
:103CD0005EC02296FE01249190E080E0FE013196C4
:103CE0002053330B2A30310548F00197E8F2EFE911
:103CF000FFE03197F1F700C00000F7CFC89EA001A8
:103D0000C99E500D1124C901840F951F2491EF0104
:103D1000E5CFE82FF0E0E454FB4FD490082F069550
:103D20000695069510E0F801E455FB4FE490877086
:103D3000F12C082E02C0F594E7940A94E2F721E0F2
:103D4000E222FF2404561B4FF801049110E002C048
:103D5000159507958A95E2F701701127E114F10492
:103D600019F081EE0E940C1D0115110519F086EE67
:103D70000E940C1D8D2D0E94C11D012B19F086EE95
:103D80000E949A1CEF2809F48FCF81EE9CCFEF019F
:103D90008BCFDF91CF911F910F91FF90EF90DF902C
:103DA000CF900895CF93DF93EC01805E910908973F
:103DB00020F061E37AE0209711F466E47AE0CE0126
:103DC0000E94FE118C2FDF91CF910C940C1D4F920D
:103DD0005F926F927F928F929F92AF92BF92CF929B
:103DE000DF92EF92FF920F931F93CF93DF9300D058
:103DF00000D00F92CDB7DEB77C01FC0183819481A6
:103E0000892B39F01081D180812F8D218F3F09F0CE
:103E100011C70F900F900F900F900F90DF91CF91DF
:103E20001F910F91FF90EF90DF90CF90BF90AF90D8
:103E30009F908F907F906F905F904F9008950E9419
:103E40004111082F682F89819A810E94EE09E12F84
:103E5000F0E016E0D19EE00DF11D112424E5029F53
:103E6000E00DF11D1124EE0FFF1FEB57F94F0591E7
:103E70001491F70182810932FDE51F0709F43FC063
:103E80000A322DE5120709F459C1033C3CE513073A
:103E900009F07AC1882309F4BCCF90911701809171
:103EA000C1059F3F09F069C1109217018F7E809371
:103EB000C10540E060E080E00E94DF0A4091C1055A
:103EC0005091C2056091C3057091C4058FE090E0E8
:103ED0000F900F900F900F900F90DF91CF911F9147
:103EE0000F91FF90EF90DF90CF90BF90AF909F9099
:103EF0008F907F906F905F904F900C9462318823E9
:103F0000C9F18091C10591E0980F9770887F953035
:103F100008F4892B8093C1058091C1058770EFEF6C
:103F20008E9FC00111249595879595958795992722
:103F3000909389008093880090938B0080938A00EF
:103F400090938D0080938C004091C1055091C205E3
:103F50006091C3057091C4058FE090E00E946231CA
:103F60006091D5057091D6058091D7059091D805BF
:103F70000E94CB12F7018281882369F0C801825E1A
:103F80009C45059740F46EE1600F6093BD058CE0A1
:103F900090E00E94503117FFADC1F7018281882364
:103FA00009F46DC0E091D905F091DA0580E0309711
:103FB00021F00190F081E02D099586958170809324
:103FC0003C059091BD05913029F4882319F089E3CF
:103FD0000E94C11D8091B10580933B051092B105EF
:103FE0008091BD05813009F45AC1882309F453C179
:103FF000823009F45DC1843009F461C18FE39CE92A
:104000000197F1F700C000006801E894D7F86CE070
:10401000862E912CC601082C02C0969587950A948D
:10402000E2F78F7057E2A52EB12C882341F0A82E1D
:10403000B12C8A3008F048C19DE1A90EB11CC50120
:104040000E94D21EC5010E94F71CF4E08F1A91084D
:104050002CEF82162FEF9206E9F68091BD05813094
:1040600009F43AC1882309F433C1823009F430C11C
:10407000843009F43DC180913B058093B105F7017F
:104080009281992309F4E7C5109238060230FCE5C5
:104090001F0708F4ECC506312CE5120738F098012B
:1040A0002B5F3C452930310508F0E1C50E942513FE
:1040B0009093D4058093D30500313CE5130709F4B0
:1040C00014C208F0A2C108309CE5190709F403C224
:1040D00008F071C10430FCE51F0709F4F4C108F0D1
:1040E00057C102303CE5130709F4E3C103301C4516
:1040F00009F4E5C16091D3051091D40584E090E006
:104100000E945031612F81E290E00E9450310F9067
:104110000F900F900F900F90DF91CF911F910F9103
:10412000FF90EF90DF90CF90BF90AF909F908F90D7
:104130007F906F905F904F900C94AB18882309F498
:1041400019CF9091C105892F877F93FF8860809355
:10415000C10583FF05C040E060E080E00E94DF0A07
:104160004091C1055091C2056091C3057091C4058D
:104170008FE090E00E946231FDCE9FEF9093170197
:1041800080618093C1059ACE0E32FDE51F0709F4C8
:1041900063C008F049C00B323DE5130708F4EACECE
:1041A000882309F436CE6091D5057091D6058091AB
:1041B000D7059091D8050E94B11190E00C32EDE541
:1041C0001E0709F440C00D321D4509F440C0019797
:1041D00087309105E1F18F3F9807D9F141E050E038
:1041E00060E070E08A019B0104C0000F111F221FD4
:1041F000331F8A95D2F7C901B8010F900F900F9025
:104200000F900F90DF91CF911F910F91FF90EF9042
:10421000DF90CF90BF90AF909F908F907F906F90E6
:104220005F904F900C9451180F329DE5190709F0DB
:10423000A1CE882309F4EDCD8091B10581FF28C07E
:104240008FE496E00EC001968730910539F680E044
:10425000C5CF86E090E0C2CF882309F4DACD80E7AD
:1042600096E00F900F900F900F900F90DF91CF91ED
:104270001F910F91FF90EF90DF90CF90BF90AF9084
:104280009F908F907F906F905F904F900C94381E0E
:104290008CE396E0E6CF82EE0E940C1DAFCE88E163
:1042A00093E00E94D21E88E193E00E94F71CA6CE04
:1042B00082EE0E940C1D87E50E94C11D9FCE86EEF6
:1042C0000E94C11D88E1F8CFE6E0AE1AB108B7CE72
:1042D00082EE0E949A1CCFCE8CE20E94C11D80917A
:1042E0003C05882309F4C7CE89E30E94C11DC3CED3
:1042F00088E2FBCF043F3CE51307D9F188F4093D80
:104300009CE5190791F10A3DECE51E07F1F1083D26
:10431000FCE51F0709F0B3CE26E241EE61EE0DC0C9
:10432000063F2CE5120769F140F127E245EE66EE03
:10433000073F8CE5180709F0A2CEC7010F900F9038
:104340000F900F900F90DF91CF911F910F91FF90E1
:10435000EF90DF90CF90BF90AF909F908F907F9025
:104360006F905F904F900C94D41D27E245EE65EE60
:10437000E4CF26E241EE60EEE0CF27E245EE64EEC8
:10438000DCCF26E241EE62EED8CF28E241E0EFCF6B
:104390008091D305806106309CE5190709F48CC033
:1043A0008091D305886007301C4508F485C0809152
:1043B000D305806281C08091D3058D7F0C30FCE5F0
:1043C0001F0709F479C070F48091D3058C600A301E
:1043D0003CE5130709F470C008F481C08091D3054F
:1043E0008E7F6AC08091D305877F0E309CE51907C8
:1043F00009F462C08091D3058B7F0F301C4508F40F
:104400005BC08091D3058F7E57C00C3FFCE51F0732
:1044100009F45DC030F503313CE5130709F46DC0C4
:1044200078F401319CE5190709F463C002311C4599
:1044300009F060CE0E94AB188091D3058F773CC005
:104440000531FCE51F0709F460C008F474C08091D1
:10445000D40581600B3F1C4509F04CCE8093D405F8
:1044600049CE01158DE5180709F44BC088F48091F9
:10447000D4058D7F0E3FECE51E0781F38091D405B6
:104480008E7F0F3F1C4550F38091D4058360E6CFAB
:1044900002302DE5120709F457C008F442C060E06D
:1044A00003301D4509F026CE8EE090E00E94503189
:1044B00021CE8091D30581608093D3051BCE80915E
:1044C000D3058260F9CF8091D3058460F5CF8091C8
:1044D000D4058260C3CF8091D3058064EDCF0E9464
:1044E000AB188091D3058068E7CF8091D3058F7D8D
:1044F000E3CF8091D3058F7BDFCF8091D305837F7E
:10450000DBCF8091D4058C7FA9CF8091D30582FB2E
:10451000992790F921E0922790FB82F990FB83F98B
:10452000CBCF8091D405982F909591708E7F892B59
:1045300090FB81F993CF0E94AB189091D305892FFE
:1045400097FB87F98058B8CF61E0AECF85E39FC372
:1045500085E38AC3992309F49BC08091B1058272D7
:10456000F801E35CFC45E431F10508F089C0EB5843
:10457000FB4C0C94163180913D0691E08927809385
:104580003D06109215010F900F900F900F900F9015
:10459000DF91CF911F910F91FF90EF90DF90CF901F
:1045A000BF90AF909F908F907F906F905F904F9053
:1045B0000C941A1648E356E161E476E10F900F90EF
:1045C0000F900F900F90DF91CF911F910F91FF905F
:1045D000EF90DF90CF90BF90AF909F908F907F90A3
:1045E0006F905F904F900C94880A41E456E168E325
:1045F00076E1E4CF48E856E161E976E1DFCF41E9D1
:1046000056E168E876E1DACF40E756E16CE776E11B
:10461000D5CF4CE756E160E776E1D0CF48E556E1EB
:1046200064E676E1CBCF44E656E168E576E1C6CFB5
:1046300044EA56E16AE976E1C1CF4AE956E164EA23
:1046400076E1BCCF81E00F900F900F900F900F900C
:10465000DF91CF911F910F91FF90EF90DF90CF905E
:10466000BF90AF909F908F907F906F905F904F9092
:104670000C94221684E0E7CF8CE0E5CF81E1E3CF14
:104680000115ECE51E0771F10F3D1C4509F467C0EB
:10469000F70100811181992309F478C0C8010E94B3
:1046A0004111D82E682FC8010E94EE09B8018D2D46
:1046B0000E94AC0F182F082FF701358132953F70FB
:1046C000228121111092B005D92ED2944FE0D4222C
:1046D000FBE0FD1508F494C0ED2DF0E0E757FB4C2E
:1046E0000C9416310E94AB180FEF14E32CE001502C
:1046F00010402040E1F700C00000F89481E0809372
:10470000E00080E28093D8001092C9008FE19EE41F
:104710000197F1F700C000001DBA109268001CBCA0
:1047200010BE1FBA10927A0010926E0010926F00A5
:1047300010927100109272001092C9001092BC0089
:1047400014B817B81AB81DB810BA1092BC0015B832
:1047500018B81BB81EB811BA0C94003F5ACB0F9072
:104760000F900F900F900F90DF91CF911F910F91AD
:10477000FF90EF90DF90CF90BF90AF909F908F9081
:104780007F906F905F904F900C942614C8010E9408
:10479000C509D82E8BCF392F3F70B32E907F19F0DB
:1047A000B29490EFB9222223C9F0BB2069F080E2D5
:1047B000810F883010F001110BC08091B105B82A2B
:1047C000B092B1050E944209812F0E940C1D18C0B1
:1047D0008091B005B82AB092B005F4CF812F0E9425
:1047E0009A1CBB2069F0B094105E183010F00111D3
:1047F0002FC08091B105B822B092B1050E94420944
:104800002D2D2850330B2430310510F40E947C0AE2
:1048100085E0F701DE01119601900D928A95E1F78E
:1048200089819A810E94C5099A81E981F0E036E088
:10483000939FE00DF11D112494E5899FE00DF11D7A
:104840001124EE0FFF1FEB57F94F85919491E1CAA8
:104850008091B005B822B092B005D0CF892F8F706B
:10486000907F903211F08295807F013061F4222395
:1048700029F0323028F60E94460AC2CF3111C0CF4B
:104880000E943B0ABDCF222319F03323A1F39CCF12
:104890003323B1F3093349F48FEF97EEE3E081500E
:1048A0009040E040E1F700C00000812F0E949A1C78
:1048B000A7CF892F86958695837061F0813009F0A6
:1048C0009FCF812F9370211102C090E080E00E9461
:1048D000500A96CF812F9370211102C090E080E0A2
:1048E0000E94660A8DCF812F222329F00E94CB08D7
:1048F0000E940D1885CF0E940208FACF892F83707D
:1049000009F065C021117CCF812F82958695877033
:10491000880F880F612F6F70862E912CB12CA12CDF
:10492000082E04C0880C991CAA1CBB1C0A94D2F740
:1049300040E050E0BA0114FF0FC04FE050E060E0EB
:1049400070E004C0440F551F661F771F8A95D2F789
:104950004095509560957095969596959370923088
:1049600019F1D8F44090B2055090B3056090B405A9
:104970007090B505913069F0482959296A297B2939
:10498000CB01BA0164217521862197210E94A118CB
:1049900037CF84289528A628B728CB01BA016829E3
:1049A00079298A299B29F2CF482959296A297B2903
:1049B0008090B2059090B305A090B405B090B50575
:1049C000CB01BA01682579258A259B25DFCF8695FD
:1049D000222311F0892F8170882309F411CF812FB0
:1049E000829586958770880F880F612F6F70862E4D
:1049F000912CB12CA12C082E04C0880C991CAA1C47
:104A0000BB1C0A94D2F740E050E0BA0114FF0FC07B
:104A10004FE050E060E070E004C0440F551F661F97
:104A2000771F8A95D2F74095509560957095969529
:104A300096959370923019F1D8F44090D505509026
:104A4000D6056090D7057090D805913069F0482957
:104A500059296A297B29CB01BA0164217521862154
:104A600097210E945118CCCE84289528A628B728D3
:104A7000CB01BA01682979298A299B29F2CF4829D3
:104A800059296A297B298090D5059090D605A09058
:104A9000D705B090D805CB01BA01682579258A25BC
:104AA0009B25DFCF092F0F70222329F0802F0E9432
:104AB0008018812FE0CE812F0E943B0A802F0E9418
:104AC0005D189ECE812F013F09F43DC050F4003F98
:104AD000E1F0222309F448C0311176CE892F8F717D
:104AE00037C0023FC1F1033FA1F72223C9F1292FAB
:104AF0002F7161E070E080E090E004C0660F771FE6
:104B0000881F991F2A95D2F7ACCF2223C1F031110B
:104B100077CE292F2F7161E070E080E090E004C033
:104B2000660F771F881F991F2A95D2F78090D505A9
:104B30009090D605A090D705B090D805AECF323072
:104B400008F05ECEE6CF892F8F71222309F4B7CF0C
:104B50000E94801855CE892F8F712223C9F3AFCFC1
:104B600060E070E0CB017DCF332359F0893309F049
:104B70009CCEFFEF07EE23E0F15000402040E1F72C
:104B800092CE892F8F719BCF023FA1F1F0F4003FAD
:104B900029F1013FB9F180913E05332309F43EC06C
:104BA000882341F080913F0591E0892780933F055C
:104BB00010923E05812F211108CE0E949A1C86E09A
:104BC000F70111928A95E9F71BCE043FB1F080F00E
:104BD000053F09F7211114CE81E007C0222309F413
:104BE0000FCE80913F0591E0892780933F0508CE45
:104BF00081E0282720933F0503CE211101CE10929A
:104C00003F05FECD222339F080913E05882349F3EC
:104C100010923E05F5CD332321F3F2CD882309F41C
:104C2000EFCD2111EDCD80913F0591E08927809353
:104C30003F05EECF85E0DE01119601900D928A9539
:104C4000E1F7F701228189819A812111F8C80E9438
:104C5000C509082FFCC806311C4509F019CD809103
:104C60003D05811175CC89E20E94660912C00631AA
:104C70002CE5120709F06ECC8091B1058A7A91E09B
:104C800009F490E090933D05811160CC89E20E9487
:104C900091090F900F900F900F900F90DF91CF918F
:104CA0001F910F91FF90EF90DF90CF90BF90AF904A
:104CB0009F908F907F906F905F904F900C944209DF
:104CC0001F93CF93DF9380914505807FA9F4809156
:104CD0004205882389F080917705D091460560913F
:104CE000400570914105A0914305B0914405C62F40
:104CF000C72316E0D81304C0DF91CF911F91089508
:104D000090E0109711F0CF3F19F401968770F2CF21
:104D1000189F9001199F300D1124F901E95BFA4F9A
:104D200041814713F2CF40814613EFCF42814111B9
:104D3000ECCF438154814A1B5B0B483C510528F75B
:104D4000809145058F70806180934505F901E45B92
:104D5000FA4F80818F708061808380E495E00E94AB
:104D6000E71EDF91CF911F910C941C0AAF92BF9266
:104D7000CF92DF92EF92FF920F931F93CF93DF9327
:104D8000CDB7DEB761970FB6F894DEBF0FBECDBFCB
:104D90008C0185E0F801DE011D9601900D928A9547
:104DA000E1F7F80180819181E28020E4A22E25E0E4
:104DB000B22E60914305709144056115710509F4A7
:104DC0003EC13091400540914105232F24232F3FC0
:104DD00009F435C1C380D480F0904205F601E61B8A
:104DE000F70BFF2009F4FBC020914505522F507F9F
:104DF000E83CF10508F0BBC0511178C0FE2C491306
:104E000021C038131FC0E1101DC02F7020612093F6
:104E10004505C5010E94E71E80914505F80185837F
:104E20008F2D61960FB6F894DEBF0FBECDBFDF9118
:104E3000CF911F910F91FF90EF90DF90CF90BF9097
:104E4000AF900895CD2829F0282F29232F3F09F06E
:104E500022C120E0F22FF170DF2E20FF3DC0209113
:104E600077054091460556E0241315C08D879E872F
:104E70008D859E850E948311292F22952F702230C7
:104E8000F8F0243020F59F70F9F0F8019581907FBB
:104E9000D9F4D12C1FC030E0529FF001539FF00D88
:104EA0001124E95BFA4F6181961306C06081861375
:104EB00003C06281E61210C02F5F3F4F2770D4CF2E
:104EC0009F7011F0882329F3805E883010F3C801A9
:104ED0000E94E71EFD2CA4CFEE2009F4A1CF809103
:104EE0004505816080934505F12C9ACF491312C086
:104EF000381310C0E1100EC0F8012583C8010E94CC
:104F0000E71E86E0F801A0E4B5E001900D928A95D5
:104F1000E1F786CF8D879E878D859E850E948D11B6
:104F2000882309F1EE20F9F080914505803270F078
:104F3000209140053091410538872F831986DB8603
:104F4000CA868C87CE0107960E94E71E86E0F8018C
:104F5000A0E4B5E001900D928A95E1F70E946026E9
:104F6000FF24F3945DCFC8010E94E71EF9CF5111D1
:104F70000AC080E495E00E94E71E86E0F5011192E8
:104F80008A95E9F7B1CF49130FC038130DC0E1106E
:104F90000BC0F8012583C8010E94E71E86E0F501D9
:104FA00011928A95E9F73CCF8D879E878D859E85E6
:104FB0000E948D118823B9F2EE20A9F28091450557
:104FC000803220F220914005309141053A832983B7
:104FD0001B82DD82CC828E83CE010196B5CFE83C68
:104FE000F105E0F6FE2CEE2009F4BDCF491316C002
:104FF000381314C08091450580FD83CF982F907F92
:1050000009F47FCFF8018583903F09F477CF982F7B
:10501000907F905F8F70892B858370CF8D879E875F
:105020008D859E850E948D11811190CF80914505BF
:10503000816080934505C8010E94E71EF1CEEE20F5
:1050400009F491CF8D879E878D859E850E948D1155
:10505000F82E882309F487CF86E0F801A0E4B5E0B4
:1050600001900D928A95E1F780914005909141055C
:105070000E94831192959F70963051F4863F41F0C3
:1050800080913F0591E0892780933F0590933E05ED
:105090000E946026C5CE21E02E25DCCE1F93CF9343
:1050A000DF93CDB7DEB767970FB6F894DEBF0FBEBC
:1050B000CDBF6D8B7E8B8F8B8E899F89892BD9F08D
:1050C000842F85238F3F09F098C05FEF4FEF13C007
:1050D00030913F053323E1F1E42FF0E036E0539FB8
:1050E000E00DF11D1124EE0FFF1FEC51FE4F40812A
:1050F0005181822B8C931A8A198A4B8B5C8B85E0A9
:10510000FE017396DE011D9601900D928A95E1F7DE
:1051100086E0FE013D96DE01179601900D928A957C
:10512000E1F7CE0107960E94B6268823A1F016E08B
:10513000809177059091460589134CC067960FB60C
:10514000F894DEBF0FBECDBFDF91CF911F910895C0
:1051500080958223CFCF86E0FE013796DE0111963F
:1051600001900D928A95E1F78A859B85892BF9F24A
:1051700088859F8189238F3FD1F22091460530E0B9
:10518000C90101968770992740917705481719063C
:1051900071F40E94AB18109246051092770586E0D4
:1051A000E0E4F5E0DF011D928A95E9F7C0CF96E0D3
:1051B000929FD001939FB00D1124A95BBA4FFE01BD
:1051C000319601900D929A95E1F7809346050E94E1
:1051D0001C0AADCF819FC0011124895B9A4F0E94A8
:1051E000B626882309F4AACF8091770590E001962E
:1051F00087709927809377059BCF81E090E0042EFC
:1052000001C0880F0A94EAF7A52FB0E0A35DBA4F5A
:105210002C913D8931115CCF322F38235BCF8F9297
:105220009F92BF92CF92DF92EF92FF920F931F93C4
:10523000CF93DF938091080190910901892BA1F010
:105240008091C3038F5F8093C30381110DC00E94BF
:10525000DB1690E09093090180930801892B21F4DB
:105260000E94CF130E94BF1625EC822E25E0922EBD
:10527000740110E000E097E0C92EC00E802F0E945C
:1052800052178C2D0E945217802F0E94A617E701FB
:1052900099917E01D12C891729F0FE0131978083E5
:1052A000DD24D3948C2D0E94A617F70196818917CF
:1052B00009F47CC0868381E08D29182B0E94091394
:1052C0000F5F0730C1F60E9401186091C50370910D
:1052D000C6039093C6038093C5032091C40330E0B6
:1052E000261B370B820F931F6BEF70E00E94EE308E
:1052F000E82E392F082F8093C403F090C803FF20B5
:1053000009F475C31092C803E091BB05F091BC0588
:10531000AF01425F5F4F20E08BEFB82E6BEF70E084
:10532000A191AB3FA1F0CA2ED12C8E2D932F0A173D
:1053300008F43EC08C199D09092E000CAA0BBB0B6A
:105340004E97A105B105D0F1DF011197BC92E4178A
:10535000F50731F72093C803111102C0211149C389
:105360001092C703A091BB05B091BC059091C803F2
:10537000ECEDF5E04AEE55E080E03191E401299151
:105380004E01321751F03C913B3FD1F40C93BF01D9
:1053900061507109EB01288391E011964E175F0768
:1053A00061F79093C8038093C70327C380E084CF3D
:1053B000DB01AC19BD098A0F9B1FBECF2F2DC7CFB4
:1053C00081E0EBCF109216014093390650933A06D4
:1053D00060933B0670933C0681E0809315013BC3CC
:1053E00080910701081316C090913D06937020919B
:1053F000060130E081E09217130609F480E0817025
:1054000080931801063178F4E02FF0E0EB56FB4C66
:105410000C94163181E0F3CF882349F140E060E03D
:1054200080E00E94DF0A80E022C080911601C82F30
:10543000CC0FCC0FC80FD5E0FD2EFC0EEF2CD0E327
:10544000DF1510F4B0E3EB2E60913E0670913F063D
:10545000809140060E94500DD62EC72EB82ED0E067
:10546000CE1508F47AC181E0FFE2FF15E0F29091D9
:1054700016019F5F9093160181118CC282E0809388
:10548000150180911801811185C2002309F48FC292
:10549000809107068111DFC28091C10583FDDBC2C7
:1054A0006091D5057091D6058091D7059091D8056A
:1054B0000E94B111C82FD0E04CE150E070E060E0F4
:1054C000CE010E9435124BE150E061E070E0CE0168
:1054D0000E9435124AE150E062E070E0CE010E9485
:1054E000351249E150E063E070E0CE010E943512D0
:1054F00048E150E064E070E0CE010E94351250E0D7
:1055000040E065E070E0CE010E94351241E050E0DD
:1055100066E070E0CE010E94351242E050E067E0A4
:1055200070E0CE010E94351243E050E068E070E088
:10553000CE010E94351244E050E069E070E0CE01F7
:105540000E94351241E250E06AE070E0CE010E9414
:10555000351240E250E06BE070E0CE010E9435125F
:105560004FE150E06CE070E0CE010E9435124EE158
:1055700050E06DE070E0CE010E9435124DE150E048
:105580006EE070E0CE010E94351245E050E06FE021
:1055900070E0CE010E94351246E050E060E170E01C
:1055A000CE010E94351247E050E061E170E0CE018B
:1055B0000E94351248E050E062E170E0CE010E94A6
:1055C000351249E050E063E170E0CE010E943512EF
:1055D00046E250E064E170E0CE010E94351245E2FF
:1055E00050E065E170E0CE010E94351244E250E0E7
:1055F00066E170E0CE010E94351243E250E067E1BF
:1056000070E0CE010E94351242E250E068E170E0A5
:10561000CE010E9435124AE050E069E170E0CE010F
:105620000E9435124BE050E06AE170E0CE010E942A
:1056300035124CE050E06BE170E0CE010E94351273
:105640004DE050E06CE170E0CE010E9435124EE07A
:1056500050E06DE170E0CE010E9435124BE250E067
:105660006EE170E0CE010E9435124AE250E06FE137
:1056700070E0CE010E94351249E250E060E270E035
:10568000CE010E94351248E250E061E270E0CE01A6
:105690000E94351247E250E062E270E0CE010E94C3
:1056A00035124FE050E063E270E0CE010E94351207
:1056B00040E150E064E270E0CE010E94351241E129
:1056C00050E065E270E0CE010E94351242E150E008
:1056D00066E270E0CE010E94351243E150E067E2DD
:1056E00070E0CE010E9435124FE250E068E270E0B7
:1056F000CE010E9435124EE250E069E270E0CE0128
:105700000E9435124DE250E06AE270E0CE010E9444
:1057100035124CE250E06BE270E0CE010E9435128F
:1057200044E150E06CE270E0CE010E94351245E1A8
:1057300050E06DE270E0CE010E94351246E150E08B
:105740006EE270E0CE010E94351247E150E06FE258
:1057500070E0CE010E9435127EC1FE01EF58FC4F71
:10576000808190911701892331F02B2D4D2D6C2DC7
:10577000CE010E94E10A219673CE80911601C82FB6
:10578000CC0FCC0FC80FA5E0FA2EFC0EDF2C20E3C7
:105790002F1510F4F0E3DF2EC0903F06B0904006C6
:1057A00020914106E0E4EE2E3E2D329F312D112452
:1057B000E32ED0E0CD1530F081E09FE29F1508F098
:1057C00056CE31CEFE01EF58FC4F808190911701EB
:1057D0008923B9F0FE01EE0FFF1FEE5EFC4F8081C2
:1057E00082958F7060913E068E9D600D11247C2DF8
:1057F0008B2D0E94500D462F282F672FCE010E941F
:10580000E10A2196D7CF80911601C82FCC0FCC0F7B
:10581000C80F65E0F62EFC0EDF2CD0E3DF1510F488
:1058200050E3D52EC0903F06B0904006209141062F
:1058300040E4E42E3E2D329F312D1124E32ED0E0A2
:10584000CD1508F0B9CFFE01EF58FC4F8081909143
:1058500017018923D9F0FE01EE0FFF1FEF5EFC4F09
:105860006081E69EB001112435E0759567953A9503
:10587000E1F780913E06680F7C2D8B2D0E94500D24
:10588000462F282F672FCE010E94E10A2196D8CFFC
:1058900080911601C82FCC0FCC0FC80F95E0F92EC0
:1058A000FC0EEF2CD0E3DF1510F480E3E82ED0904F
:1058B0003E06D0913F06C090400660914106669535
:1058C000669566958091390690913A060E94460D3C
:1058D0000E94CF0C805887FD8195880F282F3C2D82
:1058E000239F212D1124822F6D2D7D2F0E94500D7D
:1058F000D62EC72EB82ED0E0CE1508F05DCFFE0113
:10590000EF58FC4F808190911701892331F02B2DA6
:105910004D2D6C2DCE010E94E10A2196EDCF8AED2E
:105920009BE00E941F0FA3CD80EB9BE0FACF81EBA1
:105930009CE00E94C30E9BCD82E99CE0FACF87E7F2
:105940009CE00E94460E93CD8BE59CE0FACF8EEA58
:105950009BE0E7CF85EA9BE0E4CF8CE99BE0E1CFD9
:1059600083E89BE0DECF85E79BE0EBCF8EE19DE017
:10597000E0CF8AE49CE0DDCF86E39CE0E2CF88E4E0
:105980009BE00E94E40D73CD8AE19BE0FACF83EEA9
:105990009AE0F7CF002309F45EC07ACD00930701A7
:1059A00080913D068370809306010E94C61483E0B7
:1059B00014CD4091390650913A0660913B067091A2
:1059C0003C062FB7F8948091B6059091B705A09149
:1059D000B805B091B9052FBF841B950BA60BB70B6B
:1059E0004A97A105B105B8F11092150134C0111103
:1059F000B7CC8091C7038111B3CC8FB7F894409195
:105A0000B6055091B7056091B8057091B9058FBF83
:105A10004093C9035093CA036093CB037093CC03A4
:105A20008091070600E0811108C080913D06082F93
:105A3000037019F0082F06950695809115018130A5
:105A400009F4CECC882309F4BDCC823009F4A6CF6A
:105A5000833009F4AECF812FDF91CF911F910F9149
:105A6000FF90EF90DF90CF90BF909F908F90089520
:105A7000CDB7DEB760970FB6F894DEBF0FBECDBFCF
:105A800084B7877F84BF0FB6F894A8958091600093
:105A9000886180936000109260000FBE80E890E003
:105AA0000FB6F89480936100909361000FBE85B7A4
:105AB000806885BF85B7806885BF0E9475060E9493
:105AC00040078091E20084608093E20078948091A6
:105AD0002C068823A1F01091E9001F709091EC0032
