:1000000075C7000090C700008EC700008CC70000B5
:100010008AC7000088C7000086C7000084C70000A8
:1000200082C7000080C700000C94E4170C941B1CCE
:100030000C94962D78C7000076C7000074C70000A6
:1000400072C7000070C700006EC700006CC70000D8
:100050006AC700000C94CB1866C7000064C7000094
:1000600062C7000060C700005EC700005CC70000F8
:100070005AC7000058C7000056C7000054C7000008
:1000800052C7000050C700004EC700004CC7000018
:100090004AC7000048C7000046C7000044C7000028
:1000A00042C7000040C700003EC7000005010980AC
:1000B000A101850319012AB700150126B700950192
:1000C00075108100C0050C0901A101850419012AE0
:1000D000A002150126A002950175108100C005013E
:1000E0000906A1018506050719E029E71500250184
:1000F0009508750181020507190029EF15002501F2
:1001000095F075018102050819012905950575010C
:100110009102950175039101C005010902A1010930
:1001200001A1000509190129081500250195087587
:100130000181020501093009311581257F9502757C
:1001400008810609381581257F9501750881060506
:100150000C0A38021581257F950175088106C0C0FB
:1001600005010906A101050719E029E71500250188
:10017000950875018102950175088101050719002F
:1001800029FF150026FF009506750881000508194E
:100190000129051500250195057501910295017547
:1001A000039101C0AAFFFFAAFFFFAAFFFFAAFFFF5A
:1001B000AAFFFFAAFFFFAAFFFFAAFFFFAAFFFFAA4D
:1001C000FFFFAAFFFFAAFFFFAAFFFFAAFFFFAAFFE8
:1001D000FFAAFFFFAAFFFFAAFFFFAAFFFFAAFFFFD8
:1001E000AAFFFFAAFFFFAAFFFFAAFFFFAAFFFFAA1D
:1001F000FFFFAAFFFFAAFFFFAAFFFF55FFFFAAFF0D
:10020000FFAAFFFFAAFFFFAAFFFFAAFFFFAAFFFFA7
:10021000AAFFFFAAFFFFAAFFFF55FFFF0000FF157F
:10022000FFFF15FFFF15FFFF55FFFF55FFFF55FFB0
:10023000FF55FFFF0000000000000000000000006C
:1002400000000000000000000000000000000000AE
:10025000000000000000000000000000000000009E
:10026000000000000000000000000000000000008E
:10027000000000000000000000000000000000007E
:10028000000000000000000000000000000000006E
:10029000000000000000000000000000000000005E
:1002A000000000000000000000000000000000004E
:1002B000000000000055FFFF55FFFF55FFFF80FFC6
:1002C000FF55FFFF55FFFF55FFFF80FFFF000000B8
:1002D000AAFFFFAAFFFFAAFFFF55FFFF80FFFF5500
:1002E000FFFF55FFFF55FFFF80FFFF0000FFAAFF44
:1002F000FFAAFFFFAAFFFF55FFFF80FFFF55FFFF8B
:1003000055FFFF55FFFF80FFFF000000AAFFFFAA77
:10031000FFFFAAFFFF0000FF000000000000000038
:100320000000000055FFFF0000000000000000007A
:1003300000000000000000000000000000000000BD
:1003400000000000000000000000000000000000AD
:10035000000000000000000000000000000000009D
:10036000000000000000000000000000000000008D
:10037000000000000000000000000000000000007D
:10038000000000000000000000000000000000006D
:10039000000000000000000000000000000000005D
:1003A000000000000000000000000000000000004D
:1003B0000000000000000000000080FF8080FF803F
:1003C00080FF8080FF8080FF80EA80FFEA80FFEA74
:1003D00080FFEA80FF00000024FFFFEA80FFEA8040
:1003E000FFEA80FF80FF8080FF8080FF8080FF80A9
:1003F00080FF8015FFFF24FFFF24FFFF24FFFF2461
:10040000FFFF80FF8000000055FFFF55FFFF000049
:1004100000000000000000000000000000000000DC
:100420000000000000000000FF0000FF00000000CE
:1004300000000000000000000000000000000000BC
:1004400000000000000000000000000000000000AC
:10045000000000000000000000000000000000009C
:10046000000000000000000000000000000000008C
:10047000000000000000000000000000000000007C
:10048000000000000000000000000000000000006C
:10049000000000000000000000000000000000005C
:1004A000000000000000000000000000000000004C
:1004B000000000000000000000000000000000003C
:1004C00000000000000000002BFFFF2BFFFF2BFFB0
:1004D000FF2BFFFF00000080FFFF7B5A7080FFFFB3
:1004E0000000FF0000002BFFFF2BFFFF2BFFFF2B67
:1004F000FFFF00000024FFFF1EDADA24FFFF0000E8
:10050000000000002BFFFF2BFFFF2BFFFF2BFFFF47
:1005100000000000000000000000000000000000DB
:1005200000000000000000000000000000000000CB
:1005300000000000000000000000000000000000BB
:1005400000000000000000000000000000000000AB
:10055000000000000000000000000000000000009B
:10056000000000000000000000000000000000008B
:10057000000000000000000000000000000000007B
:10058000000000000000000000000000000000006B
:10059000000000000000000000000000000000005B
:1005A000000000000000000000000000000000004B
:1005B000000000000000000000000000000000003B
:1005C000000000000000000000000000000000002B
:1005D000000000000000000000000000000000001B
:1005E000000000000000000000000000000000000B
:1005F00000000000000000000000000000000000FB
:1006000000000000000000000000000000000000EA
:1006100000000000000000000000000000000000DA
:1006200000000000000000000000000000000000CA
:1006300000000000000000000000000000000000BA
:1006400000000000000000000000000000000000AA
:10065000000000000000000000000000000000009A
:10066000000000000000000000000000000000008A
:10067000000000000000000000000000000000007A
:10068000000000000000000000000000000000006A
:10069000000000000000000000000000000000005A
:1006A000000000000000000000000000000000FF4B
:1006B000FF00FFFF00FFFF00FFFF00FFFF00000043
:1006C000EA80FF80FF80EA80FF00000000FFFF005B
:1006D000FFFF00FFFF00FFFF00FFFF00000080FFA3
:1006E0008080FF8080FF8000000000FFFF00FFFF90
:1006F00000FFFF00FFFF00000000000000000000FE
:10070000000000000000000000000000FFFF0000EB
:1007100000000000000000000000000000000000D9
:1007200000000000000000000000000000000000C9
:1007300000000000000000000000000000000000B9
:1007400000000000000000000000000000000000A9
:100750000000000000000000000000000000000099
:100760000000000000000000000000000000000089
:100770000000000000000000000000000000000079
:10078000000000000000000000000000010128013E
:100790000435307C6767010435307C010128000195
:1007A00003E1010128010435307C476F6F64204765
:1007B000616D6521010435307C0101280102E100F1
:1007C000010128010435307C676C6866010435300E
:1007D0007C01012800390021522B00E10022520047
:1007E000001E00140004001D00235229001F001ADF
:1007F0000016001B00E0004C002000080007000667
:1008000000E3002A002100150009001900E200425F
:100810007E220017000A00050000005200407E28DA
:100820000000002C0000005100417E4C0000002A16
:10083000000000500023001C000B00110000004FBE
:1008400000240018000D0010002D00427825000C37
:10085000000E0036002E002C00260012000F00377C
:10086000002F002800270013003300380030002933
:10087000000000000034002152225200000000213C
:10088000522B00000000000000000033023502314E
:1008900000000029000000240221021E0200004C7A
:1008A000000000250222021F0200002A000000268C
:1008B00002230220020000427E00002702350031A0
:1008C0000200000000407E280000002C0000000014
:1008D00000417E4C0000002A0000000000000000E3
:1008E000002B000000000000000000240021001E7A
:1008F00000560000005400250022001F00000027C1
:1009000000550026002300200000002C0056005750
:1009100000630058000000290000000000000021D2
:100920005200000000000000000000E10022520020
:10093000000000141F04081D080000290000001A10
:100940001FD1001B08000000000000081FD3000694
:10095000080000E0000000151FD200190800004246
:100960007E0000171F0A1F051F00000000407E00C8
:10097000000000000000000000417E0000000000B8
:10098000000000000000004A0050000000000000CD
:100990000000004E0051002D000000000000004B40
:1009A0000052002E000000E30000004D004F000048
:1009B000005001000000000000E20000004F01298B
:1009C000000F0A000000000000225200000000009A
:1009D0000000000000000000000000000000000017
:1009E000002352000000000000AA00AC000000003C
:1009F0000000000000A800AE0000000000000000A1
:100A000000A900AB000000427E000000000A1F00A9
:100A10000000000000407E00000000000000000018
:100A200000417E0000000000000000000000000007
:100A300000000000000000000000003A003E0042FC
:100A4000000000000000003B003F004300000000E9
:100A50000000003C00400044000000000000003D99
:100A60000041004500000000000000000000000000
:100A70000000000000000000000000000000000076
:100A80000000000000000000000000000000000066
:100A90000000000000000000000000000000000056
:100AA0000000000000000000000000000000004204
:100AB0007E000000000000000000000000407E00FA
:100AC000000000000000000000417E000000000067
:100AD000000000000000001C070B071107000000C9
:100AE00000240718070D0710072D07000025070C25
:100AF000070E0736072E072C07260712070F0737A2
:100B0000072F0700000000000000000000000000A8
:100B100000000000000000000000000000000029AC
:100B2000004C000E0C2252000000000E030F0800C3
:100B3000002352280000001E082008D100000016E3
:100B40000800000C0836003A0000002C00000000ED
:100B50000037003E000000427E00001D0A1D080014
:100B60000000000000407E000000000000000000C7
:100B700000417E00000000000000000000000000B6
:100B80000000000000000000000000D100CF0000C5
:100B900000000000000000CD00CE000000000000BA
:100BA000000000D200D000000000000000000000A3
:100BB0000000000000000000000000000000000035
:100BC000000000000000010101010101010101021A
:100BD00002020202020202020303030303030303ED
:100BE00004040404040404050505050506060606B8
:100BF00006070707070708080808090909090A0A74
:100C00000A0B0B0B0C0C0C0D0D0D0E0E0E0F0F0F17
:100C100010101111111212131314141515161617A2
:100C200017181819191A1A1B1B1C1D1D1E1E1F2010
:100C300020212222232424252626272829292A2B5D
:100C40002C2D2D2E2F303132323334353637383982
:100C50003A3B3C3D3E3F404142434445464748497C
:100C60004A4C4D4E4F50515354555658595A5B5D4E
:100C70005E5F616264656668696B6C6D6F707273EC
:100C80007577787A7B7D7E8082838587888A8C8E53
:100C90008F91939596989A9C9EA0A2A3A5A7A9AB85
:100CA000ADAFB1B3B5B7BABCBEC0C2C4C6C9CBCD77
:100CB000CFD1D4D6D8DBDDDFE2E4E7E9EBEEF0F329
:100CC000F5F8FAFDFF00201030005040600031219F
:100CD00041006151710012022200423252007262E0
:100CE000820013032300534363001404240064545C
:100CF00074001505250045355500756585001606F7
:100D00002600463656001707270047375700281891
:100D100038005848680039294900695979001A0A89
:100D20002A004A3A5A012010300150406001312116
:100D3000410161517101120222014232520172627B
:100D400082011303230153436301140424016454F7
:100D50007401150525014535550175658501160692
:100D6000260146365601170727014737570128182D
:100D700038015848680139294901695979011A0A25
:100D80002A014A3A5A09025400030100A0FA090450
:100D900000000103010100092111010001224400AA
:100DA0000705810308000109040100010301020095
:100DB00009211101000122470007058203100001EB
:100DC00009040200010300000009211101000122B1
:100DD0006D000705830320000112010002000000DE
:100DE0000897327649010001020001200345007294
:100DF0000067006F0044006F007800200045005A33
:100E000000200047006C006F007700000028035AA4
:100E10000053004100200054006500630068006E2C
:100E2000006F006C006F006700790020004C0061CB
:100E300000620073000000040309040000000000C9
:100E400000000000000000000000000000000000A2
:100E50000000000000000000000000000000007E14
:100E60000F00D4FFFFFFC700000078000000000063
:100E70000000002A2B2800000000000000000000F5
:100E800000000000000029000000002C1E3420217A
:100E90002224342627252E362D3738271E1F2021C1
:100EA00022232425263333362E37381F0405060720
:100EB00008090A0B0C0D0E0F10111213141516173A
:100EC00018191A1B1C1D2F3130232D350405060758
:100ED00008090A0B0C0D0E0F10111213141516171A
:100EE00018191A1B1C1D2F3130354C0011241FBE40
:100EF000CFEFDAE0DEBFCDBF12E0A0E0B1E0E8E680
:100F0000FCE602C005900D92AE35B107D9F725E099
:100F1000AEE5B2E001C01D92A23BB207E1F70E942C
:100F2000BD2D0C949C356CC88091AD05816080937B
:100F3000AD0508959091A505937039F08093A605AD
:100F40006093A7054093A805EFCF08959091A5055C
:100F5000937041F0811107C094609093A5051092A1
:100F60002301E2CF08958F3110F09867F6CF880FF4
:100F7000880F982BF2CF482F20919D059091640502
:100F800057E0291302C080E0089530E0529FF0013D
:100F9000539FF00D1124EB59FA4F8181681306C05D
:100FA0008081481303C085818111EECF2F5F3F4FB1
:100FB0002770E7CFE8EDF0E080818E7F808310928C
:100FC000E2001092DA001092E100A0EEB0E08C9105
:100FD00081608C9380818F77808319BCA7EDB0E00E
:100FE0008C918E7F8C9380818F7E808310924F05B1
:100FF00008952091E4003091E50095E6A901209143
:10100000EC00822F817020FF06C08091E80080FFF5
:1010100006C080E008952091E80022FD1AC080916A
:101020005A05882389F0853089F08091EB0085FD91
:101030000FC02091E4003091E50042175307F9F208
:101040009150E1F684E0089582E0089583E00895E8
:1010500081E0089580915C0587FF13C08091E800CE
:1010600082FF06C08091E8008B778093E80004C07F
:1010700080915A058111F2CF089580915A058823F5
:10108000D9F38091E80080FFF8CF8091E8008E7757
:10109000ECCF982F9093E900242F762F50E08917FA
:1010A00031F07091EC002091ED005091F00021FDA5
:1010B00007C09F5F973071F78093E90081E0089542
:1010C0003091EB003E7F3093EB003091ED003D7F9F
:1010D0003093ED003091EB0031603093EB00709372
:1010E000EC002093ED005093F0002091EE0027FDDE
:1010F000E0CF80E00895B0E0A0E0E1E8F8E00C94F3
:101100004132C8EDD0E088818F7E8883E7EDF0E042
:1011100080818160808384E082BF81E080934F057D
:1011200088818E7F888302EE10E0F8011082109291
:10113000DA0081EEC82ED12CF601108288818F77DB
:10114000888388818068888388818F7D888319BCA3
:1011500010925A0510925B0510925905109258058D
:1011600090EEE92EF12CF70180818B7F80838881BE
:101170008160888342E060E080E08BDFF60180815F
:101180008E7F8083F8018081816080838081886088
:101190008083F70180818E7F80838881806188834E
:1011A000CDB7DEB7E8E00C945D32FC0180916205BA
:1011B0009091630586179707A0F06115710529F4D2
:1011C0009091E8009E779093E80090E0611571059A
:1011D00051F4911108C08091E80082FF34C080E092
:1011E0000895BC01F2CF80915A058823C1F1853062
:1011F000C1F18091E80083FD30C08091E80082FD5C
:10120000EACF8091E80080FFE1CF8091F300209148
:10121000F200382F6115710519F02830310558F0AA
:1012200091E02830310509F090E02091E8002E7718
:101230002093E800CBCF81918093F1006150710938
:101240002F5F3F4FE7CF80915A05882341F08530CB
:1012500041F08091E80083FFBECF81E0089582E0F5
:10126000089583E008952FB7F89460914B0570912D
:101270004C0580914D0590914E052FBF08958091AA
:101280001D01089590911E019130D1F4909148056F
:1012900097FF16C0E82FE695E695E695EE31E0F467
:1012A000F0E0E859FD4F282F277081E090E001C061
:1012B000880F2A95EAF78095928189238283089581
:1012C000E2E6F2E09191891303C0DF0111971C92CD
:1012D00092E0E836F907B1F7089590911E01913038
:1012E000C1F49091480597FF14C0E82FE695E69564
:1012F000E695EE31F8F4F0E0E859FD4F877021E013
:1013000030E001C0220F8A95EAF78281822B828326
:101310000895A2E6B2E0EFEF90E02D91821751F030
:10132000EF3F19F4211101C0E92F9F5F9630A9F713
:10133000EF3F09F408950E2E000CFF0BE05AFD4F0D
:10134000E6CFA3E0B0E0E7EAF9E00C944732209161
:1013500046053091470528173907B1F090934705A6
:1013600080934605E0914405F0914505309761F082
:101370000084F185E02D309739F024E029839B83A8
:101380008A83CE01019609952396E2E00C9463329C
:10139000A3E0B0E0EEECF9E00C9447322091420576
:1013A0003091430528173907B1F090934305809396
:1013B0004205E0914405F0914505309761F00084C5
:1013C000F185E02D309739F023E029839B838A83D0
:1013D000CE01019609952396E2E00C946332E091E8
:1013E0004405F0914505309739F00190F081E02DEA
:1013F000309711F00995089580E00895DC01ED9192
:10140000FC91119784913196ED93FC93089580910E
:10141000380580FD1AC081FD14C082FD14C0809182
:101420003705882391F08C3370F427E0829FC00148
:1014300011246CE370E00E946E32862F672B29F036
:10144000089583E0089587E0089581E008958091EC
:10145000380580FD16C081FD16C082FD18C0809140
:101460003605882391F08C3390F428E3829FC001E5
:1014700011246CE370E00E946E32862F672B49F0D6
:1014800008958EE008958CE1089588E0089588E33A
:10149000089581E00895282F35EB2303C00111241E
:1014A00097FF04C080589109892F089580589F4F55
:1014B000FBCFE5EAF5E0248130E1231B08F420E0CE
:1014C000248332CDE5EAF5E0248130E1230F08F4EE
:1014D0002FEF248329CDE5EAF5E0438120E1421B8B
:1014E00008F440E08181628190E024CDE5EAF5E0F6
:1014F000438120E1420F08F44FEF8181628190E047
:1015000019CDE5EAF5E0628120E1621B08F460E0B4
:101510008181438190E00ECDE5EAF5E0628120E132
:10152000620F08F46FEF8181438190E003CDE5EA1B
:10153000F5E08181438162818850990BFBCCE5EA1B
:10154000F5E0818190E0438162810896F3CC80913F
:10155000A50586958695815009F48EE1F7CC80919A
:10156000A505869586958F5F8F3108F081E0EECCDA
:101570008091A505837011F4109223018091A50537
:101580008C7F81608093A5050895E5EAF5E0808170
:1015900091E08927808310922301C6CC982F990F60
:1015A000990F890F95E0980F913308F090E3089513
:1015B0000F931F9310E0F801EE0FFF1FE353FE4F50
:1015C0009081905797FD9195000F111FF801E253FC
:1015D000FE4F00810052110B2003F001219FF00DFE
:1015E000112408E310E0091B110997FD139540032E
:1015F0009001419F300D1124E20FF31F9F01220F34
:10160000331F2E0F3F1F37FF02C021583F4F220FBD
:10161000232F221F330B620F1F910F9108950F93F9
:101620001F93522F10E0F801EE0FFF1FE253FE4F01
:10163000A081A052BB0B9D015203F001539FF00DFE
:101640001124000F111FD801A353BE4F0C91005756
:10165000110B40039001419F300D11242E0F3F1FAD
:1016600037FF02C0215C3F4F96E0359527959A954C
:10167000E1F7620F1F910F9108950F931F93522F5F
:1016800010E0F801EE0FFF1FE253FE4FA081A052C1
:10169000BB0B9D015203F001539FF00D1124000F6D
:1016A000111FD801A353BE4F0C910057110B4003DB
:1016B0009001419F300D11242E0F3F1F37FF02C0B4
:1016C00021583F4F220F232F221F330B620F1F91F0
:1016D0000F910895EF920F93972F23E0029FB0018F
:1016E0001124759567956E0D792F0F91EF900895E0
:1016F000322F50E0FA01EE0FFF1FE253FE4F9081B0
:10170000905297FD9195440F551FFA01E353FE4FF8
:101710002081231B330B290F311D97FD3A95620F52
:101720000895E42FF0E0EE0FFF1FE253FE4F6081BB
:10173000621B0895E42FF0E0EE0FFF1FE353FE4F0E
:101740006081621B0895622F08950C94EC15089532
:101750000C9494150895FC019B01009729F480E0F6
:1017600077FF2BC080E80895AC0197FF04C04427A1
:101770005527481B590BB901640F751F37FD10C061
:10178000241B350BC901A5E0880F991FAA95E1F725
:101790000E946E3280E2861BF7FF0FC0819508958C
:1017A000CB0165E0880F991F6A95E1F7BA01621BCA
:1017B000730B0E946E3280E6EECF0895EF920F9386
:1017C000CF93DF93D72FC82FC9010E19BA01C3DFFA
:1017D000602F681B7D2F8C2FDF91CF910F91EF90A1
:1017E00008950F93CF93DF93D72FC82FC901BA0164
:1017F000B2DF682F600F7D2F8C2FDF91CF910F917B
:101800000895E82F86FDE0952E2F2F7086FD2F5F1F
:10181000E695E695E695E670F0E0E05AFE4F918198
:10182000929F902D212D112492959F702295207FBB
:10183000922B2081920F87FD919580E8890F089562
:10184000409112015091130125E038E0429FC00100
:10185000439F900D529F900D1124875E994C909359
:10186000130180931201890F0895CF93C82FE8DFE9
:101870008C9FC0011124892FCF910895AC01823033
:10188000910508F408959FEF413E8EE1580740F41A
:101890009A0195E0369527959A95E1F798E0920F91
:1018A00061E0E62FE90FFF27FF1F9F013595279580
:1018B000822F229FF001239FF00DF00D11244E176F
:1018C0005F0738F49FEF920F961758F78FEF860F48
:1018D00008952F3FE9F361E0620FF6CF0F93CF93A6
:1018E000DF93D72FC82F47FD419588E390E0841BF5
:1018F000910947FD9395889FB001899F700D700DE8
:101900001124229FC001239F900D900D1124860F5A
:10191000971FB4DF982F990F890F682F600F7D2FC5
:101920008C2FDF91CF910F91089530E020E0869FBA
:10193000080E211D969F200D311D1124290F311DE8
:10194000C90108952091A90530E1230F08F42FEF74
:1019500060E1822F90E0E9DFBC0188EB9BE00E9410
:10196000233290E080E00895282F269F020E20E089
:10197000211D1124822F08951F93CF93DF93C62F2B
:10198000172FD82FE42FF0E0EE0FFF1FE353FE4F89
:101990008081821B87FD819568E1E6DF682F6C0FEF
:1019A000712F8D2FDF91CF911F9108950F931F936A
:1019B000CF93DF93D62F072F182FC42F822F21DF2D
:1019C000EC2FF0E0EE0FFF1FE353FE4F9081905895
:1019D000890F87FD81956CE0880FC6DF682F6D0F3A
:1019E000702F812FDF91CF911F910F9108951F9339
:1019F000CF93DF93C62F172FD82F822F869501DF25
:101A0000805887FD81956CE0880FAEDF682F6C0FE2
:101A1000712F8D2FDF91CF911F910895EF920F932A
:101A20001F93CF93DF93162FD72FC82FC9010E19FD
:101A30000C0FBA0190DE6C2F081B802F95DF612FF1
:101A40007D2FDF91CF911F910F91EF900895EF922D
:101A50000F931F93CF93DF93162FC72FD82FC90152
:101A60000E19070FBA0177DE6C2F081B802F7CDF61
:101A7000612F782F8D2FDF91CF911F910F91EF90D4
:101A800008950F931F93CF93DF93162FD72FC82F4F
:101A9000C9012C2F201B022FBA015DDE982F990F50
:101AA000990F891B6C2F800F5FDF612F7D2FDF91D6
:101AB000CF911F910F9108950F931F93CF93DF93B1
:101AC000162FC72FD82FC901272F201B022FBA018D
:101AD00042DE982F990F990F891B6C2F800F44DFDE
:101AE000612F782F8D2FDF91CF911F910F91089546
:101AF0000F931F93CF93DF93162FD72FC82F022F4B
:101B0000E42FF0E0EE0FFF1FE353FE4F64EE808101
:101B10002BDF4C2F50E0282F30E0245E3F4F201B5E
:101B2000310937FF03C031952195310983E0220F38
:101B3000331F8A95E1F7CA01821B930B97FD80E062
:101B40006C2F12DF612F7D2FDF91CF911F910F91AD
:101B500008950F931F93CF93DF93162FC72FD82F7E
:101B6000022FE42FF0E0EE0FFF1FE353FE4F64EE71
:101B70008081FADE4C2F50E0282F30E0245E3F4F6A
:101B8000201B310937FF03C031952195310983E0CE
:101B9000220F331F8A95E1F7CA01821B930B97FD31
:101BA00080E06C2FE1DE612F782F8D2FDF91CF91B8
:101BB0001F910F9108951F93CF93DF93D62FC72FB7
:101BC000182F822F86951DDE805887FD8195612F05
:101BD000880FCADE6D2F7C2FDF91CF911F91089562
:101BE000B0E0A0E0E6EFFDE00C9441329B01E82F6D
:101BF000F0E0EB53F44F311109C0E4918E2F7E2FAA
:101C00006E2FCDB7DEB7E8E00C945D32E32EF12CF9
:101C1000E491FE2F0E2F10E046E0649FC0011124D6
:101C2000CFEFD0E0BE010E942332AB01822F90E0C3
:101C3000880F991F25E5249FB001259F700D112461
:101C4000861B970B982F990F980FBE016E197F096D
:101C5000609FD001619FB00D709FB00D11248B2F3C
:101C6000399F90011124232F3327BE01621B730B70
:101C7000609F9001619F300D709F300D11246E01A7
:101C8000C91AD108CE9CB001CF9C700DDE9C700D9E
:101C90001124672F7727C61BD70BC09F7001C19FE8
:101CA000F00CD09FF00C11247F2D42305105A1F093
:101CB00050F44115510509F4A3CF4130510581F08D
:101CC0007B2F832F9DCF4430510569F080F0463043
:101CD000510509F495CFF4CFEB2F8F2D7F2F90CFA7
:101CE0007E2FE32F8DCFEF2D7B2F8F2F89CF732F5B
:101CF000EB2FFBCFB0E0A0E0E0E8FEE00C94423236
:101D0000C82FD0E0FE01E35DFD4F8081682329F1FB
:101D1000D090A7050091A8051091A605E12EF12C01
:101D200083E0A3DD282FC7018C549F4F68E671E044
:101D30000E946E328E199F0997FD0396959587959F
:101D400095958795612F289F600D11247D2D802FFB
:101D500047DF472F282FCE01FBDCCDB7DEB7E7E00A
:101D60000C945E32EF92FF920F931F93CF93DF9309
:101D70007C018091200112DCC82F192F6091A905E8
:101D80006695669521E0620F08F46FEF80919E05DD
:101D900090919F05CADD082FD0E0C11748F081E07F
:101DA000103308F080E0CDB7DEB7E6E00C945F3288
:101DB000FE01E35DFD4F808190912101892379F03F
:101DC0006091A6057091A7058091A805202F4C2F42
:101DD000F701099505DF472F282FCE01B9DC2196A1
:101DE000DCCFB0E0A0E0E7EFFEE00C943F326C0106
:101DF00080912001D3DBC82FF92E6091A90566954B
:101E0000669580919E0590919F058FDD182F80E447
:101E1000810FF7DC90E8B92EB80E812FF2DC20E8B4
:101E2000A22EA80ED0E0CF1550F081E09FE29F15C2
:101E300008F480E0CDB7DEB7EAE00C945B32FE0137
:101E4000E35DFD4F808190912101892389F06091AC
:101E5000A6057091A7058091A805E12E0C2F2A2DCB
:101E60004B2DF6010995BCDE472F282FCE0170DCE3
:101E70002196D9CFB0E0A0E0E0E4FFE00C943D3241
:101E80006C01809120018ADBC82F192F6091A90570
:101E9000669580919E0590919F0547DDF82ED0E0D4
:101EA000C11748F081E0103308F080E0CDB7DEB70D
:101EB000ECE00C945932FE01E35DFD4F808190917E
:101EC00021018923A9F1CE01880F991F87589E4FC0
:101ED000FC01EC5AFF4F2081422F4057550B5A010D
:101EE0008B5A9F4FFC018081282F2052330B4901D0
:101EF000449F9001459F300D300D1124889CC001F6
:101F0000899C900D900D1124820F931FB7DC082F30
:101F10006091A6057091A7058091A805EF2C94010A
:101F2000A501F60109955CDE472F282FCE0110DCB4
:101F30002196B6CFB0E0A0E0E0EAFFE00C94423298
:101F40007C01809120012ADBC82F192F6091A905FF
:101F5000669580919E0590919F05E7DCD82ED0E094
:101F6000C11748F081E0103308F080E0CDB7DEB74C
:101F7000E7E00C945E32FE01E35DFD4F80819091BD
:101F800021018923F9F0CE01880F991F87589E4FB0
:101F9000FC01EB5AFF4F20812052330B8C5A9F4F8C
:101FA000FC0140814057550B6091A6057091A70533
:101FB0008091A8050D2DF701099512DE472F282FD6
:101FC000CE01C6DB2196CCCF1F93CF93DF93C82FD2
:101FD000D0E0FE01E35DFD4F8081682371F030DCCD
:101FE000182F80E842DC7FE7780F612F8091A805E9
:101FF000F7DD472F282FCE01ABDBDF91CF911F916B
:10200000089580E008959091480592FF10C041E046
:10201000282F2471243009F040E031E0282F287166
:10202000283009F030E0431711F02CE0822793FFAD
:1020300010C041E0282F2471243109F040E031E044
:10204000282F2871283109F030E0431711F02CE0D7
:1020500082273091490530FF10C051E0282F2171AF
:10206000213009F050E041E0282F2871283009F094
:1020700040E0541711F029E0822731FF10C041E001
:10208000282F2171213109F040E031E0282F2871FB
:10209000283109F030E0431711F029E0822794FD40
:1020A000877E089582389105B9F1B0F481339105A6
:1020B00009F47DC048F48932910509F46DC08A3273
:1020C000910509F47BC008958533910509F45FC03B
:1020D0008933910509F10895833E9105D9F138F4CA
:1020E000803E910529F1823E910579F10895863E61
:1020F0009105D9F1873E910509F43EC0843E9105D2
:1021000041F52091490521FF24C08091480584FDB7
:1021100019C087EE90E0089520914805237009F0DA
:102120005AC02091490523FF14C089E290E0089528
:102130002091480520FD38C03091490530FF09C085
:1021400024FF43C090E080E008952091480522FDDF
:10215000F7CF08952091480522FD3AC030914905F6
:1021600030FD39C024FFF5CFEDCF2091480523FF86
:10217000F0CF24FDE7CFCDCF2091480523FD2EC021
:102180003091490531FFEECF84EE90E00895209123
:10219000480525FFDECFC9CF2091480525FD21C088
:1021A0002091490523FFD5CF89E390E0D2CF20913C
:1021B000480526FFCECF8AE290E008952091480599
:1021C00026FFC7CF81E390E0089583EE90E0089565
:1021D00082EE90E0089580EE90E0089586EE90E023
:1021E000089585E390E00895972F7E30B8F4663027
:1021F000A8F48630B0F470E026E0929F600D711D67
:102200001124FB0194E5899FE00DF11D1124EE0FCF
:10221000FF1FEB52F84F85919491089580E090E074
:10222000089581E0FCCF1F93CF93DF933BDFEC0158
:10223000C11580E5D807F0F5C11580E4D80708F08E
:10224000A8C0C03ED10520F5CD3CD10508F090C016
:10225000C83AD10578F4C53AD10508F081C0C1303B
:10226000D10519F1209709F1C430D105F0F4D0E07F
:10227000C0E01BC0C33CD105D0F7C85AD0E0CC0F9A
:10228000DD1FC65DDE4F0990D881C02DD4640DC01E
:10229000C11580E2D80708F0C5C0C11581E0D80794
:1022A00008F068C0C83ED10510F7CE01DF91CF918C
:1022B0001F910895C03682E5D80718F5C03482E52D
:1022C000D80708F076C0C03282E5D80708F06AC0A7
:1022D000C11582E5D80708F48BC02C2F26952695CA
:1022E00080E2289F900111248C2F8370C1E0D0E000
:1022F00002C0CC0FDD1F8A95E2F7C22BD32BDD681D
:10230000D4CFC03C82E5D807F8F4C03A82E5D807BC
:1023100008F064C0C03882E5D80708F0A8CF2C2F99
:1023200026952695277080E2289F900111248C2FF6
:102330008370C1E0D0E002C0CC0FDD1F8A95E2F7C8
:10234000C22BD32BDA68B1CFC03E82E5D80708F0A4
:102350008ECFDC2FCC27CC27DF71C06FD06AA5CF02
:10236000C55AD0E0C95DDE4FC881D0E0D0649DCFB2
:10237000D0659BCF8D2F47DE182FCE01992792DE97
:10238000C12FD0E0DC2FCC27CC27DF71C82BD92B75
:102390008CCFCE01992786DECC27DF70C82BD92BB6
:1023A000D06A83CFCF71D0E0DC2FCC27C16FD06A49
:1023B0007CCF2C2F26952695277080E2289F9001B0
:1023C00011248C2F8370C1E0D0E002C0CC0FDD1F40
:1023D0008A95E2F7C22BD32BDC6867CF8C2F8F71E5
:1023E00012DEC82FD0E0DC2FCC27CC27DF715DCFE9
:1023F0008C2F8F7108DE55E0D695C7955A95E1F779
:10240000CF70D0E0DC2FCC27282F30E084FF06C02F
:1024100044E0220F331F4A95E1F73327C22BD32B19
:10242000D06943CF8D2F8F71EEDD182FCE01992704
:1024300039DEC12FD0E0DC2FCC27CC27DF71C82BB1
:10244000D92BD06232CF80919D059091640598136D
:1024500001C008958F5F8770FACFB0E0A0E0E3E39A
:10246000F2E10C9440327C010091E7031091E80303
:102470008091FF0290910003082B192BCFE0D0E050
:10248000CC24C394D12CBC2EC6010C2E02C0880FC4
:10249000991F0A94E2F780239123892B49F421970D
:1024A00090F7B12C8B2DCDB7DEB7E9E00C945C3200
:1024B000B7018C2F99DEB7DE019789F3F3CFCF9365
:1024C000DF93EC01CADFBE018FDEADDEDF91CF917D
:1024D00008959E3078F5863068F5E82FF0E086E0C4
:1024E000989FE00DF11D11249E2F977083E0F695C3
:1024F000E7958A95E1F7EE0FFF1FEE0FFF1FE657F6
:10250000FD4F50E040E080E0219130E0092E02C014
:10251000369527950A94E2F721703327042E01C0DF
:10252000220F0A94EAF7822B4F5F5F4F4430510528
:1025300059F7089580E008959E3098F5863088F523
:10254000E82FF0E086E0989FE00DF11D11248E2F1A
:10255000877041E001C0440F8A95EAF783E0F69561
:10256000E7958A95E1F7EE0FFF1FEE0FFF1FE65785
:10257000FD4F30E020E070E05191DF011197CB0179
:10258000022E02C0969587950A94E2F78170819594
:102590008527842385278C932F5F3F4F2430310577
:1025A00059F70895909300038093FF020895FC016A
:1025B00024812223B9F08081918181DF92959F70DF
:1025C000963091F058F4925F9F70923058F4803FAB
:1025D00019F030F4883E30F481E008959A5FF4CF2A
:1025E000843FD1F380E00895883EB0F3813FD1F776
:1025F000F3CFCF92DF92EF92FF92C72ED82EE92E23
:10260000FF2420E0C114D104E104F10419F0C70152
:10261000B60128E06B017C0154E0F694E794D7946E
:10262000C7945A95D1F7C114D104E104F10419F00B
:102630002C5FC701B6016B017C0142E0F694E79480
:10264000D794C7944A95D1F7C114D104E104F10499
:1026500019F02E5FC701B601969587957795679516
:10266000672B682B692B09F02F5F822FFF90EF906B
:10267000DF90CF900895A6E0B0E0E1E4F3E10C94A0
:10268000463226E0FC01DE01119601900D922A955A
:10269000E1F7FC01258189819A81222381F066235B
:1026A00071F0DBDE182F682F89819A8145DF6981FF
:1026B0007A81812F99DD2696E3E00C94623209DF5E
:1026C000182FF5CFB0E0A0E0E8E6F3E10C9440323B
:1026D000EA01FB01EE0FFF1FE60FF71F2CEFAC0125
:1026E000249FC001259F900D11248E0F9F1FFC0178
:1026F000EC55FE4F6491FC01EB55FE4F74918A55E9
:102700009E4FFC018491962F972B982B51F420E03B
:1027100040E060E0CE011CD8CDB7DEB7E9E00C9414
:102720005C325EDA162F072FB82E6091A80570E094
:1027300090E080E00E94AB3420E030E04FE753E4CB
:102740000E9417346B017C016B2D70E090E080E0FB
:102750000E94AD34A70196010E9439350E947F3452
:10276000B62E602F70E090E080E00E94AD34A701AB
:1027700096010E9439350E947F34062F612F70E048
:1027800090E080E00E94AD34A70196010E943935A7
:102790000E947F342B2D402FBDCF27982F9808956E
:1027A00026982E98089525982D98089556985E9805
:1027B0000895279A2F9A0895269A2E9A0895259A71
:1027C0002D9A0895CF93DF93EC01F0DFBE0190E0E6
:1027D00080E00FDF803280F4E82FF0E0E256FA4C20
:1027E0000C948132E0DFDCDF06C0DDDFD9DFE1DF22
:1027F00003C0D9DFE1DFD1DFCE01DF91CF910895B2
:10280000D2DFDADFF4CFDBDFEECFD9DFEFCFD7DFF8
:10281000F1CFD5DFF6CFD6DF9093E8038093E703BF
:10282000089521E030E002C0220F331F8A95E2F7BD
:10283000209530958091E7039091E80382239323BC
:10284000EACF21E030E002C0220F331F8A95E2F781
:102850008091E7039091E803822B932BDCCF2098A3
:1028600028982198299822982A9823982B9852984A
:102870005A9853985B983E98469808958098889AFD
:102880008198899A84988C9A85988D9A86988E9A40
:1028900087988F9A08950F931F93CF93DF938B019F
:1028A000EA0190915A05943061F58093E9008FEF29
:1028B0009091E800815095FD06C095ED9A95F1F74D
:1028C00000008111F5CF8091E80085FF1AC00E94B9
:1028D000F907811111C08091E80085FD06C0809143
:1028E000E8008E778093E800F2CFF80181918F01A4
:1028F0008093F100219779F78091E8008E7780939B
:10290000E800DF91CF911F910F91089543E050E0CF
:10291000BC0183E0C0CF45E050E0BC0182E0BBCF0A
:1029200040E250E0BC0183E0B6CFCF93DF93EC01EF
:1029300048E050E0BC0181E0AEDF88E0FE01A0E5A8
:10294000B5E001900D928A95E1F7DF91CF9108955E
:102950002DDF29DF25DF21DF8FEF90E090938900C5
:102960008093880090938B0080938A0090938D00D1
:1029700080938C0024DF2FEF80E792E0215080408D
:102980009040E1F700C0000017DF2FEF80E792E0F2
:10299000215080409040E1F700C000000ADF2FEF97
:1029A00080E792E0215080409040E1F700C00000B5
:1029B000FADE2FEF80E792E0215080409040E1F76F
:1029C00000C00000EDDE2FEF80E792E02150804054
:1029D0009040E1F700C00000E0DEE8DEE4DEE0DE8B
:1029E000DCCEEF92FF920F931F93CF9380917E04E2
:1029F0008823B1F09EEEE92E93E0F92EC4E204E6BE
:102A000010E020E130E0A7016C2F88EE0E94DF315A
:102A1000C05F80E1E80EF11CC43B89F710927E0490
:102A2000809122058823B1F082E9E82E84E0F82E17
:102A3000C4E204E610E020E130E0A7016C2F8EEE46
:102A40000E94DF31C05F80E1E80EF11CC43B89F7D2
:102A500010922205CF911F910F91FF90EF90089552
:102A6000A1E0B0E0E6E3F5E10C9445324983E82FBC
:102A7000F0E0E859FE4F808104E610E021E030E00C
:102A8000AE014F5F5F4F880F0E94DF312196E4E077
:102A90000C946132A1E0B0E0E0E5F5E10C94453240
:102AA000873008F52091100130911101232BB9F4E2
:102AB00021E030E001C0220F8A95EAF720952983B2
:102AC00004E610E021E030E0AE014F5F5F4F62E1CD
:102AD00080E40E94DF3190931101809310012196D0
:102AE000E4E00C9461328A30B1F038F4883069F057
:102AF000893071F0209A2898F2CF8C3091F070F0E4
:102B00008D30C1F73E9A4698EACF219A2998E7CFAF
:102B1000229A2A98E4CF239A2B98E1CF529A5A9876
:102B2000DECF539A5B98DBCFA4E0B0E0EAE9F5E1B1
:102B30000C944332F62E042F122F8033910508F0A7
:102B400047C0880F991F880F991FBC016B53734FA3
:102B500044E050E0CE0101960E9487328981837063
:102B60002A8130E0482F50E064EA869FC00111249A
:102B700082519C4FFC01E20FF31F6081AB81EC801E
:102B80006F110DC0BC016A0F711DFB0160816013E4
:102B900006C08E0D911DFC0180818117C9F064EA89
:102BA000649FC001659F900D112482519C4F280F96
:102BB000391FF901F082A80FB92FB11D0C93FC0148
:102BC000EE0DF11D108380579F4F21E0FC01208303
:102BD0002496E6E00C945F32FF920F931F93CF93FD
:102BE000DF93182F062FF42ED0E0C0E02F2D402FBA
:102BF000612FCE0199DF2196C033D105B9F7CDB74A
:102C0000DEB7E5E00C946032A4E0B0E0EAE0F6E183
:102C10000C9441320E94073110E04BE06DEF812FA0
:102C20001FDF40E06AE0812F1BDF8FE39CE9019703
:102C3000F1F700C0000040E060E0812F11DF40E0CC
:102C400061E0812F0DDF40E066E0812F09DF40E089
:102C50006DEF812F05DF00E040E0602F812F00DF66
:102C60000F5F0231C9F740E0602F812FF9DE0F5F5F
:102C70000432C9F740E0602F812FF2DE0F5F043B82
:102C8000C9F74BE06DEF812FEBDE41E06AE0812F69
:102C9000E7DE40E06DEF812FE3DE113009F087C001
:102CA00005EC1CE024EAC22EEE24E394F12CDD2492
:102CB000D39444E050E0B801CE0101960E948732DF
:102CC0004A813B812C8189818370E42FE695E695CA
:102CD000E695C89EC001112482519C4FE80FF92F40
:102CE000F11DEF56FF4F4770B70101C0660F4A95BF
:102CF000EAF74081462B4083E32FE695E695E6957B
:102D0000E80FF92FF11DEF56FF4F3770A70101C0F3
:102D1000440F3A95EAF73081342B3083E22FE69561
:102D2000E695E695E80FF92FF11DEF56FF4F277056
:102D3000A70101C0440F2A95EAF72081242B2083A4
:102D40008D559F4FFC01D0820C5F1F4FFDE0053871
:102D50001F0709F0AECF80919104882381F09FE78F
:102D6000E92E94E0F92E10E0F70141917F01612FE7
:102D700080E076DE1F5F1231B9F7109291048091E6
:102D80003505882381F083E2E82E85E0F82E10E0F7
:102D9000F70141917F01612F81E062DE1F5F1231F7
:102DA000B9F7109235052496E8E00C945D3211E0F5
:102DB00034CFA2E0B0E0EFEDF6E10C94453280E2D2
:102DC00090E090931101809310018091880281110D
:102DD0000EC00E94073181E0809388022FEF83EDBF
:102DE00090E3215080409040E1F700C0000019823C
:102DF0008FE38A8304E610E022E030E0AE014F5F0B
:102E00005F4F60E080E40E94DF3190931101809376
:102E10001001892B69F422E030E0AE014F5F5F4F73
:102E20006CE080E40E94DF319093110180931001E7
:102E3000809110012296E4E00C946132E5EAF5E01D
:102E400085E380838091240190912501A091260142
:102E500081839283A3838FE784838FEF858348E008
:102E600050E067E170E0CF010E94EA331092AD05B7
:102E70000895CADE81E08093AD0548E050E067E147
:102E800070E085EA95E00E94C8331092AD0580910C
:102E9000A5058C7F09F4D2CF08958091DD02909131
:102EA000DE02892B90911E01913059F590914805D1
:102EB00097FF27C08093690240E250E06DEB72E01B
:102EC00088E692E00E94BB33892BD1F080E2E8E6ED
:102ED000F2E0ADEBB2E001900D928A95E1F7E0915E
:102EE0004405F0914505309759F00480F581E02DB7
:102EF000309731F086E08093680288E692E0099589
:102F000008958093600248E050E06FED72E080E643
:102F100092E00E94BB33892B99F388E0E0E6F2E06F
:102F2000AFEDB2E001900D928A95E1F7E091440592
:102F3000F0914505309721F30280F381E02D309721
:102F4000F9F280E692E0DBCF882339F0809590910A
:102F5000DE0289238093DE02A0CF0895882331F01A
:102F60009091DE02982B9093DE0297CF0895A1E016
:102F7000B0E0EDEBF7E10C9447328730D8F4809164
:102F8000100190911101892BE9F4198224E630E0B7
:102F900041E050E0BE016F5F7F4F80E40E948131CD
:102FA0009093110180931001898180952196E2E030
:102FB0000C9463329FB18FB1869586958C73937014
:102FC000892BF3CF80E0F2CF1F920F920FB60F92B2
:102FD00011242F933F934F935F936F937F938F931E
:102FE0009F93AF93BF93EF93FF938091E10082FF94
:102FF00009C08091E20082FF05C08091E1008B7FD3
:103000008093E1008091DA0080FF24C08091D80095
:1030100080FF20C08091DA008E7F8093DA0080915B
:10302000D90080FFAAC080E189BD82E189BD09B4D1
:1030300000FEFDCF81E080935A0580914F058111FC
:1030400009C00E94DA070E947B088091E200846038
:103050008093E2008091E10080FF1AC08091E2003D
:1030600080FF16C08091E2008E7F8093E200809105
:10307000E20080618093E2008091D80080628093BA
:10308000D80019BC85E080935A0583E080931F0126
:103090008091E10084FF30C08091E20084FF2CC069
:1030A00080E189BD82E189BD99B5892F817090FF4A
:1030B000FBCF9091D8009F7D9093D8009091E10034
:1030C0009F7E9093E1009091E2009F7E9093E200BA
:1030D0009091E20091609093E20090915B059923BA
:1030E00009F451C094E090935A0590915A05943098
:1030F00009F482E080931F018091E10083FF2CC0DE
:103100008091E20083FF28C08091E100877F809357
:10311000E10082E080935A0510925B058091E10006
:103120008E7F8093E1008091E2008E7F8093E200A9
:103130008091E20080618093E20042E060E080E004
:103140000E9449088091F00088608093F00081E03F
:1031500080931F0180931E01FF91EF91BF91AF916A
:103160009F918F917F916F915F914F913F912F919F
:103170000F900FBE0F901F90189519BC10925A0512
:1031800010924F0567CF9091E30097FD02C0982FF2
:10319000AACF93E0A8CF78941F921FB61F92112454
:1031A0008F939F93AF93BF9380914B0590914C0564
:1031B000A0914D05B0914E050196A11DB11D8093C2
:1031C0004B0590934C05A0934D05B0934E05BF91D0
:1031D000AF919F918F911F901FBE1F9018952FB791
:1031E000F89480914B0590914C05A0914D05B091BC
:1031F0004E052FBF0895CF93DF93EC01F0DF8C1BBA
:103200009D0BDF91CF910895EADF9C0190913E05DF
:1032100080913F05982B21F030933C0520933B058E
:103220009091400580914105982B21F030933A050B
:1032300020933905E0914405F0914505309741F020
:103240000680F781E02D309719F08DE395E0099520
:1032500008951092DE0280911E01813021F5809147
:10326000480587FF20C0EAE6F2E08EE1DF011D920B
:103270008A95E9F790E080E00E94C80990E080E03C
:103280000E94A1091092DD0208DE85E0EDE3F5E081
:10329000DF011D928A95E9F71092360510923705E5
:1032A00010923805B1CFE2E6F2E086E0DFCFAAE285
:1032B000B0E0EDE5F9E10C9446328CE595E0209123
:1032C000F100DC012D93CD01B5E084369B07B9F701
:1032D00080915D05833009F472C0B8F4813009F43F
:1032E00049C0823009F4B6C08091E80083FF3EC136
:1032F00080915C0590915D059A3008F037C1E92F07
:10330000F0E0E254FA4C0C9481328A3009F491C016
:103310008B3009F471C0893039F780915C058132B6
:1033200019F78091600590916105009711F002975F
:10333000D9F68091E800877F8093E8008091E800CB
:1033400082FF38C09091F3008091F200029731F42F
:103350008091F100813011F0863021F48091F100EC
:1033600080931D018091E8008B778093E8000E9494
:103370002A08BACF80915C05813A09F0B5CF8091D7
:10338000E800877F8093E800809160059091610557
:10339000892B61F468E080E595E070E00E94D50833
:1033A0008091E8008B778093E8009ECF60E090E00A
:1033B00080E0F3CF80915A058111C0CF95CF8091E5
:1033C0005C05813A09F090CF80916005909161058C
:1033D000892B09F089CF8091E800877F8093E800EE
:1033E0008091E80080FFFCCF80911E018093F10066
:1033F0008091E8008E77B9CF80915C05813209F029
:1034000073CF8091600590916105892B09F06CCF95
:103410008091E800877F8093E8000E942A0881E07D
:1034200090915E05911101C080E080931E0111DF33
:103430005BCF80915C05813209F056CF8091E80026
:10344000877F8093E8000E942A0880915F0580931F
:103450001C014ACF80915C05813A09F045CF8091EB
:10346000E800877F8093E8008091E80080FFFCCF30
:1034700080911C01BBCF803899F0823809F076C06A
:10348000809160058F70873008F070C08093E900EC
:103490008091EB0085FB882780F91092E90006C037
:1034A0008091580590915905911182609091E800A2
:1034B000977F9093E8008093F1001092F100809143
:1034C000E8008E77B3C1882309F4A0C1823009F0E7
:1034D0004DC080915E058111A4C1809160058F70FF
:1034E0002FEF280F263008F041C08093E90020918B
:1034F000EB0020FF96C1933031F48091EB008062A5
:103500008093EB008EC19091EB0090619093EB0063
:1035100021E030E001C0220F8A95EAF72093EA000B
:103520001092EA008091EB008860EACF81111EC002
:1035300010915E051F778091E3008078812B809346
:10354000E3008091E800877F8093E8000E942A08CA
:103550008091E80080FFFCCF8091E3008068809339
:10356000E30082E0111183E080935A058091E80026
:1035700083FF0AC08091E800877F8093E8008091F4
:10358000EB0080628093EB00AA96E3E00C94623239
:103590008058823058F720915E0530915F052C3DB0
:1035A000E3E03E07A1F583E08A838AE289834FB78F
:1035B000F894DE01139620E03EE051E2E32FF0E0C4
:1035C00050935700E49120FF03C0E295EF703F5FF6
:1035D000EF708E2F90E0EA30C0F0C7968D939D93E8
:1035E0002F5F243159F74FBF8091E800877F809388
:1035F000E8006AE270E0CE0101960E94D508809151
:10360000E8008B778093E800B1CFC096E7CF809138
:10361000600590916105432F55274330510509F40A
:103620004AC078F54130510509F47AC084E590E04C
:10363000E5E8FDE04230510509F098CF2091E8001F
:10364000277F2093E800209162053091630582175F
:10365000930708F49C0140E02115310509F065C08D
:10366000411163C08091E80082FDC9CF80915A0565
:10367000882329F2853019F28091E80083FFF2CF88
:10368000BECF4132510509F43CC04232510509F028
:103690006DCF8330910508F069CFFC01EE0FFF1F5D
:1036A000E359FE4F0190F081E02D86599E4FDC01D9
:1036B0008C9190E01AC0332721303105D1F02115CB
:1036C000310561F02230310509F050CFEBEEFDE01D
:1036D000E4918E2F90E0EBEEFDE007C0E7E3FEE023
:1036E000E4918E2F90E0E7E3FEE0009709F43ECFEF
:1036F000A5CFEDE0FEE0E4918E2F90E0EDE0FEE05E
:10370000F4CF8330910508F031CF880F991FFC0169
:10371000ED58FE4F0190F081E02D89E090E08ECFD2
:1037200082E190E0E9EDFDE089CF80915A058823A0
:1037300009F465CF853009F462CF8091E80083FDFC
:103740005ECF8091E80082FD8DCF8091E80080FF00
:1037500083CF9091F3008091F2002115310519F08B
:103760008830910550F041E0089709F040E08091E1
:10377000E8008E778093E8006FCF44914093F1008A
:103780003196215031090196E8CF803809F0EECE0C
:103790008091E800877F8093E80080915B058093AB
:1037A000F1008DCE8111E2CE10915E05123008F04D
:1037B000DDCE8091E800877F8093E80010935B0561
:1037C0000E942A08112311F084E005C08091E300D3
:1037D00087FDFACF81E080935A0542E061EC81E0F9
:1037E0000E94490842E161EC82E00E94490842E2FD
:1037F00061EC83E00E94490880915A05843021F0F1
:1038000081E080931F01B2CE82E0FBCF80915E0504
:10381000813009F0ABCE81E0933009F080E08093F5
:1038200059051092E9008091E800877F8093E800B5
:103830000E942A089BCE1F920F920FB60F9211245E
:103840002F933F934F935F936F937F938F939F93A8
:10385000AF93BF93CF93DF93EF93FF93D091E900A2
:10386000DF708091EC00C82FC17080FDC0E810921D
:10387000E9008091F000877F8093F000789417DD55
:103880001092E9008091F00088608093F000CD2BC9
:10389000CF70C093E900FF91EF91DF91CF91BF917D
:1038A000AF919F918F917F916F915F914F913F91D8
:1038B0002F910F900FBE0F901F901895CADC2FEF1D
:1038C00084E39CE0215080409040E1F700C000007C
:1038D00088E19AE00FB6F894A895809360000FBE37
:1038E00090936000FFCF662309F45BC08D3C31F4F8
:1038F0000E94270A819580933F0586CC8E3C19F45F
:103900000E94270AF8CF8F3C31F40E94270A819544
:1039100080933E05F2CF803D19F40E94270AF8CF2C
:10392000893D29F40E94070A80934005E6CF8A3D2D
:1039300021F40E94070A8195F7CF8B3D31F40E9454
:10394000070A819580934105D8CF8C3D19F40E94D8
:10395000070AF8CF9FE2980F983070F4815D990BB9
:1039600021E030E001C0220F8A95EAF780913D0501
:10397000822B80933D05C1CF8D3D31F48091380578
:10398000816080933805B9CF8E3D21F48091380550
:103990008260F7CF8F3D09F0B0CF80913805846009
:1039A000F0CF40913E058D3C59F480913F0587FF53
:1039B0000DC010923F0541110BC01092360508C092
:1039C0008E3C81F480913F0518169CF3442381F0CE
:1039D0008091400590914105892B09F08ECF10927E
:1039E00037058BCF8F3C49F447FFF0CF10923E054F
:1039F00080913F058111ECCFE0CF803D19F4141682
:103A0000ACF3E4CF90914005893D29F41916F4F602
:103A100010924005DBCF8A3D19F497FFD7CFF8CF3E
:103A2000909141058B3D29F497FFD0CF109241052D
:103A3000CDCF8C3D19F41916CCF3C8CF9FE2980F67
:103A4000983090F4815D990B21E030E0B90102C01B
:103A5000660F771F8A95E2F7CB01809590913D051F
:103A6000892380933D05B2CF8D3D31F48091380597
:103A70008E7F80933805AACF8E3D21F48091380542
:103A80008D7FF7CF8F3D09F0A1CF809138058B7FD7
:103A9000F0CF882309F455C0823861F40E94EF0901
:103AA00081FF4FC089E30E946D09F7D989E30E9425
:103AB0004209F3C9833851F40E94EF0980FF41C0E5
:103AC00083E50E946D09E9D983E5F1CF843851F48B
:103AD0000E94EF0982FF35C087E40E946D09DDD99D
:103AE00087E4E5CF9CEF980F913A08F390E2980FA6
:103AF000983088F4877021E030E0A90102C0440FBB
:103B0000551F8A95E2F7CA0180959091DE028923BC
:103B10008093DE02CECF9BE5980F933020F490E0A7
:103B200080E00C94C80998E5980F9B3120F490E050
:103B300080E00C94A10993E3980F933110F460E0B6
:103B4000D2CE0895CF93C82F8823B9F08238B9F424
:103B50000E94EF0981FD11C089E30E946D099DD982
:103B60002FEF87EE93E0215080409040E1F700C0B6
:103B7000000089E30E94420990D9CF9108958338CB
:103B800099F40E94EF0980FDF8CF83E50E946D094A
:103B900084D92FEF81EE94E0215080409040E1F7EE
:103BA00000C0000083E5E6CF843899F40E94EF0955
:103BB00082FDE3CF87E40E946D096FD92FEF81EE7C
:103BC00094E0215080409040E1F700C0000087E47D
:103BD000D1CF8CEF8C0F813A80F580911E0181301E
:103BE000F9F48091480587FF1BC0EC2FE695E69518
:103BF000E695F0E0E859FD4F828190E04C2F477048
:103C000021E030E002C0220F331F4A95E2F7822301
:103C10009323892B71F08C2F0E9442093ED909C051
:103C2000E2E6F2E08191C817B1F322E0E836F2074C
:103C3000C9F78C2F0E946D099FCF80E28C0F8830CE
:103C400068F4C77021E030E001C0220FCA95EAF79E
:103C50008091DE02822B8093DE028ECFEBE5EC0FAB
:103C6000E33040F4F0E0E95DFE4F808190E00E9497
:103C7000C80983CFE8E5EC0FEB3150F4F0E0EE0F2C
:103C8000FF1FE65DFE4F808191810E94A10975CFE3
:103C900083E38C0F833108F070CF61E08C2F23DE3B
:103CA0006CCF1F93CF93DF93182FEB014BDF20973F
:103CB00031F4812FEEDEDF91CF911F9108958FE9CE
:103CC0009FE00197F1F700C000002197F0CFEF923D
:103CD000FF920F931F93CF93DF93C62FD42F022F02
:103CE000FC018581882399F06093A40578DA90938C
:103CF000A3058093A205C77081E001C0880FCA9513
:103D0000EAF72CD9CDB7DEB7E6E00C945F328091AC
:103D1000A405681331C0E090A205F090A3055FDA16
:103D20008E199F09883C910538F510E21D0FCD17BB
:103D3000A9F080E28C0F883038F4C77081E001C0B0
:103D4000880FCA95EAF700D9183040F481E09D2F1A
:103D5000977001C0880F9A95EAF700D970E060E08B
:103D6000802F9FDF183070F6D77081E001C0880F78
:103D7000DA95EAF7E9D8C6CFC77081E001C0880FAD
:103D8000CA95EAF7F7CFA2E0B0E0E9ECFEE10C94C7
:103D90003F329A8389838AE0A82ECE0101960E9441
:103DA000FE098823C9F1813009F050C0CE01019687
:103DB0000E94FE09813061F4CE0101960E94FE0945
:103DC00070E060E0893311F460E570E06ADFE5CF10
:103DD000823031F4CE0101960E94FE09B3DEDDCFC0
:103DE000833031F4CE0101960E94FE0952DED5CF18
:103DF000843081F4CE0101960E94FE0910E000E0BB
:103E0000482F4053550B9A014A30510548F001158F
:103E1000110599F48111C1CF2296EAE00C945B322E
:103E2000A09EC001A19E900D11248901080F191FA9
:103E3000CE0101960E94FE09E3CFEFE9FFE0319742
:103E4000F1F700C0000001501109E1CFE82FF0E0C8
:103E5000E559F14FB490282F26952695269530E008
:103E6000F901E55AF14FE4908770F12C082E02C059
:103E7000F594E7940A94E2F7F1E0EF22FF24F901C8
:103E8000E55BF14FC490D12C082E02C0D594C794A5
:103E90000A94E2F741E0C422DD24F901E55CF14F28
:103EA000049110E002C0159507958A95E2F701701C
:103EB0001127E114F10411F081EE44DEC114D104A4
:103EC00011F086EE3FDE70E060E08B2DEADEC1147B
:103ED000D10411F086EEDDDDE114F10411F081EE84
:103EE000D8DD0115110509F458CF70E060E08CE2CF
:103EF0006DCFB0E0A0E0EFE7FFE10C9442328C011F
:103F0000FC0184818823B1F161E0C8010E943B1368
:103F1000EC018115FEE79F0791F181302EE79207B2
:103F200009F486C0823438E7930709F0ACC0F80181
:103F300085818823F9F08091AA058F3F09F098C008
:103F40001092AA050E9494078091E9038F7E8093C6
:103F5000E90340E060E080E00E94A50B4091E903A6
:103F60005091EA036091EB037091EC038FE090E0D5
:103F70000E940B34CDB7DEB7E7E00C945E32F80157
:103F800085818823A9F18091E90391E0980F9770CA
:103F9000887F953008F4892B8093E9038091E903A9
:103FA0008770FFEF8F9FC001112495958795959598
:103FB00087959927909389008093880090938B0030
:103FC00080938A0090938D0080938C004091E90348
:103FD0005091EA036091EB037091EC038FE090E065
:103FE0000E940B348091E7039091E8030E94E21352
:103FF000F8019581992309F4FFC31092A4059E014D
:1040000030572332310508F0E3C384E090E00E948A
:10401000E5339093490580934805FE01E150F04750
:10402000E232F10508F0B4C0E853FA4C0C94813246
:10403000F80185818823E1F29091E903892F877F38
:1040400093FF88608093E90383FF05C040E060E050
:1040500080E00E94A50B4091E9035091EA03609132
:10406000EB037091EC038FE090E00E940B34C0CF23
:104070008FEF8093AA050E9494078091E9038061E5
:104080008093E9036BCF8434FEE79F0709F457C0A0
:1040900070F480349E47D0F4FE01E851FC47E730CD
:1040A000F10508F0A5CFE651FA4C0C948132853425
:1040B0009E4791F7F8018581882309F45BCF8091B1
:1040C000DE0281FF45C08FE997E040C0F80185819D
:1040D000882309F44FCF6091E7037091E80390E0E3
:1040E00080E00E94F912282F30E0C234FEE7DF079B
:1040F00021F1C3344EE7D407E9F0C134DE4779F447
:104100002F5F3F4F26303105C1F081E090E002C0C3
:10411000880F991F2A95E2F70E940B142BCF21508C
:1041200031092630310549F02F3F320771F725E07C
:1041300030E0EBCF24E030E0E8CF20E0E6CFF8013C
:104140008581882309F416CF80EC97E01CDE12CF1E
:104150008CE897E0FBCF26E241EE61EEC801B7DDC7
:1041600009CF27E245EE65EEF9CF26E241EE60EE9B
:10417000F5CF27E245EE64EEF1CF26E241EE62EEA6
:10418000EDCF27E245EE66EEE9CF28E241E0EBCF46
:104190008091480581608093480594C080914905CD
:1041A0008860809349058EC0809148058260F3CF76
:1041B000809148058460EFCF809148058860EBCFFF
:1041C000809149058160EDCF809149058260E9CFFA
:1041D000809148058061DFCF809148058062DBCF08
:1041E000809148058064D7CF34D880914805806895
:1041F000D2CF809148058C60CECF809149058360F5
:10420000D0CF809148058E7FC6CF80914905877FAA
:10421000C8CF809148058D7FBECF809148058B7FA8
:10422000BACF80914805877FB6CF809149058E7FB0
:10423000B8CF809149058D7FB4CF809148058F7E9E
:10424000AACF809148058F7DA6CF809148058F7BAE
:10425000A2CF0E942919809148058F779CCF809129
:104260004805837F98CF809149058C7F9ACF8091B4
:10427000480582FB992790F921E0922790FB82F96B
:1042800090FB83F988CF80914905982F9095917084
:104290008E7F892B90FB81F984CF90914805892FDF
:1042A0008F7B96FF806477CF0E94291990914805F3
:1042B000892F97FB87F980586ECF61E08EE090E000
:1042C0000E94F933609148057091490584E090E0BF
:1042D0000E9413340E9429194DCE60E0EFCF9091D7
:1042E0004805892F8F7E94FF806155CF90914805B6
:1042F000892F8E7F90FF81604ECF90914905892F45
:10430000877F93FF88604DCF85E371C285E37DC2CF
:104310000E94C50A2FCE882351F10E94A70A2ACEF7
:10432000882351F10E94970A25CE882351F10E94DB
:10433000810A20CE882351F10E946B0A1BCE88236C
:1043400051F10E94590A16CE0E94B80A0E949407A1
:1043500011CE8091A505837011F0109223018091F8
:10436000A5058C7F8093A505F1CF8823B1F20E942B
:10437000AF0A00CE8823B1F20E949F0AFBCD8823AA
:10438000B1F20E948C0AF6CD8823B1F20E94760A1F
:10439000F1CD8823B1F20E94620AECCD9E01205E2D
:1043A000324520323105A8F4911116C0CF7181E059
:1043B00090E09C0102C0220F331FCA95E2F7E90189
:1043C000622F83E090E00E94F933CE010E94D21266
:1043D000D1CD992309F452C0C1303CE7D30709F489
:1043E0004CC0C3304CE7D40709F441C0C115DC47C9
:1043F00009F044C00E9429198FEF94E3ECE081504A
:104400009040E040E1F700C00000F89481E0809324
:10441000E00080E28093D8001092C9008FE19EE412
:104420000197F1F700C000001DBA109268001CBC93
:1044300010BE1FBA10927A0010926E0010926F0098
:1044400010927100109272001092C9001092BC007C
:1044500014B817B81AB81DB810BA1092BC0015B825
:1044600018B81BB81EB811BA0C94003F83CD6FEF7B
:104470007FEF90E080E00E94133420DAF801C081E1
:10448000D181992309F1CE010E942D12F82E682FB7
:10449000CE010E949C12BE018F2D0E94F4100E943A
:1044A0001311C82FD82EF8016581268122952F700F
:1044B000892F82958F70E82EF12C8C30D8F5F7017A
:1044C000EF50FA4C0C948132CE010E946912F82E02
:1044D000E2CFD92FDF70907F11F0D295D07F8C2F53
:1044E0006623C1F0DD2369F090E29C0F983010F054
:1044F000C1110AC08091DE02D82BD093DE020E9447
:104500004D178C2F1FDB16C08091DD02D82BD09366
:10451000DD02F5CFBEDADD2369F0D095C05EC8308C
:1045200010F0D11015C08091DE02D823D093DE02A6
:104530000E944D17E8E0EE1AF108F4E0EF16F104DE
:1045400010F40E94EF0960E0C8010E943B1312CDF5
:104550008091DD02D823D093DD02EACF892F8F70BE
:10456000907F903211F08295807FF1E0DF120CC0D5
:10457000662329F02230F0F60E94AE17DBCF21111E
:10458000D9CF0E94A417D6CF662319F02223A1F316
:10459000B8CF2223B1F3C93349F42FEF37EE43E00C
:1045A000215030404040E1F700C000008C2F71DA0C
:1045B000C1CF892F86958695837061F0813009F08F
:1045C000B9CF8C2F9370611102C080E090E00E94FF
:1045D000A109B0CF8C2F9370611102C080E090E0F0
:1045E0000E94C809A7CF8C2F7ED9A4CF892F8370B2
:1045F00009F042C061119ECF8C2F829586958770FD
:10460000880F880F2C2F2F7030E0082E02C0220F49
:10461000331F0A94E2F750E040E0C4FF09C04FE0C6
:1046200050E002C0440F551F8A95E2F7409550951F
:104630009695969593709230A9F080F46091FF0260
:1046400070910003913041F0C901842B952B862392
:1046500097230E94D2126ECF262B372BC901842BB1
:10466000952BF7CFC901842B952B2091FF02309118
:10467000000382279327EDCF8695662311F0892FBB
:104680008170882309F456CF8C2F82958695877088
:10469000880F880F2C2F2F7030E0082E02C0220FB9
:1046A000331F0A94E2F750E040E0C4FF09C04FE036
:1046B00050E002C0440F551F8A95E2F7409550958F
:1046C0009695969593709230A9F080F46091E703E7
:1046D0007091E803913041F0C901842B952B86231A
:1046E00097230E940B1426CF262B372BC901842B2E
:1046F000952BF7CFC901842B952B2091E70330919F
:10470000E80382279327EDCFD92FDF70662329F0A6
:104710008D2F0E9421148C2F2FCF8C2F0E94A41735
:104720008D2F0E94111406CF8C2F51EFC51789F1E0
:104730005C1750F0E0EFCE17D1F06623C9F12111DC
:10474000E0CE892F8F7129C0F2EFCF1749F133EFF7
:10475000C313F3CF662349F19F7121E030E0A90133
:1047600002C0440F551F9A95E2F7CA01BACF6623DB
:1047700061F02111DFCE292F2F7181E090E002C07E
:10478000880F991F2A95E2F7B8CF223008F0D2CED1
:10479000F2CF892F8F71662321F20E942114CACE95
:1047A000892F8F716623C9F3BCCF90E080E099CF49
:1047B000222359F0893309F0F9CE5FEF87EE93E0B9
:1047C000515080409040E1F7EFCE892F8F71A9CFF3
:1047D0008091DE02C6312CE7D207D1F48A7A91E0CB
:1047E00009F490E09093890281118ECD89E20E94B4
:1047F0006D090E944D17BECBC6313CE7D307A1F42B
:1048000080918902811182CD89E20E944209F1CF13
:104810008272FE01E052F847EB30F10508F0BECDA0
:10482000E350FA4C0C9481328091DE028272FE01D8
:10483000E054F847ED30F10508F0B0CDE85FF94CF1
:104840000C948132CF93DF938091BC02807F09F07A
:104850004CC08091BB02882309F447C0E0919D05BC
:1048600050916405C091B702D091B6026091B80230
:104870007091B90247E05E17C1F18E2F90E0E49F7E
:10488000F0011124EB59FA4F2481222389F1489F2A
:10489000F001499FF00D1124DF01AB59BA4F119679
:1048A0002C9111972C1324C02C912D1321C01596F7
:1048B0002C91159721111CC012962D913C91261B0D
:1048C000370B283C3105A0F48091BC028F708061C9
:1048D0008093BC02E559FA4F80818F70806180839C
:1048E00086EB92E006DB0E942312DF91CF910895C0
:1048F000FC013196E770BFCFA4E1B0E0E2E8F4E25A
:104900000C943D328C0186E0F801DE011F96019087
:104910000D928A95E1F7F8018481E58096EBA92E46
:1049200092E0B92E9091BA02911126C0882309F124
:10493000EE20E9F0C8010E94D712F82E8823B9F0C2
:1049400087E0F801D50101900D928A95E1F78091F9
:10495000BA02813031F48091B6029091B7020E9480
:104960005F1270DF8F2D6496ECE00C945932C80111
:10497000C0DAFF24F394F6CFD080C1808280938088
:10498000F090BB022091B8023091B902A401421B01
:10499000530BFF2009F4D3C0483C510508F08EC0EA
:1049A000882301F39091B7028091BC02282F207FC9
:1049B00009F054C0C91213C09091B602D9120FC0A9
:1049C000E11046C08F7080618093BC0286EB92E05C
:1049D00090DA8091BC02F8018683F12CC3CFE110FC
:1049E00037C06C2D8D2D0E94BB076C2D8D2D0E9424
:1049F000BB07E82E8111F1CFDF86C88A8F859889A1
:104A00000E945F12292F22952F70243058F49F7036
:104A1000223080F0992391F0F8019681907F71F413
:104A2000FE2CA0CF2A5F2F70223060F0C80161DA1F
:104A3000EF2CF6CF992311F0882391F3805E883014
:104A400078F3F4CF803F60F3815F833078F7E8CF6D
:104A50008091BC0281608093BC02BFCFC91207C0A5
:104A60009091B602D91203C0EE2009F489C0C801A2
:104A70000E94D712882309F47ACFEE2009F477CF69
:104A80008091BC02803280F02091B6023091B70252
:104A9000398728879B868A869091BA029C871D86D3
:104AA0008E87CE01089625DA87E0F801A6EBB2E002
:104AB00001900D928A95E1F7C5DE5BCF9091BC0223
:104AC000292F207F49F486EB92E013DA87E0F50185
:104AD00011928A95E9F781CF882309F443CF809119
:104AE000B7028C110FC08091B602D8120BC0E11032
:104AF00009C09683C801FDD987E0F50111928A9516
:104B0000E9F730CFC8010E94D712882309F42FCFCC
:104B1000EE2009F42CCF8091BC02803228F2209143
:104B2000B6023091B7023A8329839C828B8290919E
:104B3000BA029D831E828F83CE010196B4CF483C7A
:104B40005105D0F6882309F414CFFE2CEE2009F489
:104B50000ECF8091B7028C111FC08091B602D8127F
:104B60001BC08091BC0280FD0EC0982F907F59F031
:104B70008683903F31F0982F907F905F8F70892BC4
:104B80008683C801B6D987E0F801A6EBB2E00190B0
:104B90000D928A95E1F7E6CEC8010E94D7128111E5
:104BA00083CF8091BC0281608093BC02C801A1D9EF
:104BB000D9CEABE1B0E0EFEDF5E20C9446324E8B8E
:104BC0005F8B688F798F8A8F9B8F91111092DD0296
:104BD0001D8A86E0FE017696DE011F9601900D92F9
:104BE0008A95E1F78B89882351F061E0CE010F9619
:104BF0000E943B1361E0CE010F960E943B1387E0B9
:104C0000FE013F96DE01189601900D928A95E1F71C
:104C1000CE01089671DE81110CC087E0FE01389646
:104C2000DE01119601900D928A95E1F78C85811134
:104C30000BC017E080919D0590916405891331C0E8
:104C40006B96E3E00C9462322091640530E0C90178
:104C500001968770992740919D054817190699F08C
:104C600097E0929FD001939FB00D1124AB59BA4F9A
:104C7000FE01319601900D929A95E1F780936405BB
:104C80000E942312D6CF0E94291910926405109217
:104C90009D0587E0E6EBF2E0DF011D928A95E9F7DA
:104CA000C8CF819FC00111248B599A4F25DE8823DC
:104CB00039F280919D0590E0019687709927809345
:104CC0009D05B8CFA5E0B0E0E8E6F6E20C943732F7
:104CD000782E80911B01871124C09091A5059370B7
:104CE00020911A0130E081E09217130609F480E068
:104CF0008170809322018091AA05909121019817DB
:104D000039F08093210140E060E080E00E94A50B33
:104D10002EE1271598F0E72DF0E0EB5EF94C0C94AE
:104D2000813281E0E5CF309122013983332309F4C8
:104D30000EC140E060E080E00E94A50B198207C12F
:104D4000809120010E94CE0A8983192F6091A605C7
:104D50007091A7058091A8050E94F00D062FF72EEF
:104D6000E82E5981452F50E05D834C839C8191173B
:104D700018F0A1E0A98340C0EC81FD81E35DFD4F07
:104D8000808190912101892339F02E2D4F2D602FA4
:104D90008C819D810E94A80B8C819D8101969D83B1
:104DA0008C83E4CF809120010E94CE0A8983192F41
:104DB000F090A7050091A805B091A605BA836B2FC6
:104DC0007F2D802F0E94F00DE62ED72EC82E6091E9
:104DD000A905EA816E0F7F2D802F0E94F00D062F0E
:104DE000F72EB82E3981232F30E03D832C835C8150
:104DF000511730F081E08983103308F4A8C09ECFAA
:104E0000EC81FD81E35DFD4F90818091210189233B
:104E100061F02B2D4F2D602F90FD03C02C2D4D2DBB
:104E20006E2D8C819D810E94A80B4C815D814F5F0E
:104E30005F4F5D834C83DBCF809120010E94CE0ABF
:104E40008983192FF090A705E090A8056091A90526
:104E500080E40E94B40C082FB981AB2FB0E0BD8371
:104E6000AC83FC81F11718F021E02983C5CFEC81D8
:104E7000FD81E35DFD4F8081909121018923C1F087
:104E8000EC81FD81EE0FFF1FE253FE4F8081829582
:104E90008F706091A605809F600D11247F2D8E2D4F
:104EA0000E94F00D472F282F8C819D810E94A80B16
:104EB000EC81FD813196FD83EC83D3CF809120017D
:104EC0000E94CE0A8983192FF090A705E090A805CB
:104ED0006091A90580E40E94B40C082F5981452FE8
:104EE00050E05D834C839C81911708F042CFEC81A8
:104EF000FD81E35DFD4F8081909121018923E1F0E7
:104F0000EC81FD81EE0FFF1FE353FE4F6081069F92
:104F1000B0011124E5E075956795EA95E1F7809178
:104F2000A605680F7F2D8E2D0E94F00D472F282F8C
:104F30008C819D810E94A80B8C819D8101969D830F
:104F40008C83D1CF8BED9DE00E94B20E898380913E
:104F500020018F5F80932001898181110CC082E044
:104F60008093230180912201811105C0711003C03B
:104F700083E0809323012596E2E10C94533289EA81
:104F80009DE0E2CF88E79DE0DFCF8CE59DE00E94C9
:104F90009A0FDCCF81E49DE0FACF87E29DE00E948A
:104FA0003A0FD4CF8EE09DE0FACF83EA9BE0CCCFDE
:104FB0008AE99BE0C9CF81E99BE0C6CF88E79BE007
:104FC000C3CF8AE69BE0EBCF8EE69CE0E0CF81EF9B
:104FD0009BE0DDCF8EED9BE0E2CF8DE39BE00E9476
:104FE000F10EB4CF8FE09BE0FACF88ED9AE0F7CFD7
:104FF0008091200181111AC06091A90520E1620F02
:1050000008F46FEF80919E0590919F050E94950C8A
:105010006AE070E00E942332892B41F480E30E9411
:10502000350C90E09093150180931401809120013C
:105030000E94CE0A9A83898390912201911121C006
:1050400020911401309115018217130609F0E8F43C
:105050004A8142171306C9F0C0F060912101822FE6
:105060000E947A0E81E390E09093150180931401E1
:105070000CC06091210189810E947A0EB981BF5FC5
:10508000B983EA81F981FE17A0F351E059838A813F
:10509000803308F45CCF52CE8091200181111AC078
:1050A0006091A90520E1620F08F46FEF80919E05E1
:1050B00090919F050E94950C65E070E00E9423325C
:1050C000892B41F480E30E94350C90E09093170106
:1050D00080931601809120010E94CE0A9A838983D1
:1050E00090912201911121C0209116013091170158
:1050F0008217130609F0E8F4EA81E2171306C9F0F3
:10510000C0F060912101822F0E94E40F81E390E0C2
:1051100090931701809316010CC060912101898141
:105120000E94E40F99819F5F9983AA81B981BA1780
:10513000A0F3F1E0F9832A81203308F408CFFECDF3
:1051400087EF9CE001CF86ED9CE0FECE8CEB9CE0EF
:10515000FBCE80912001811123C040911F0350910B
:1051600020035D834C830E94EF184091A90520E441
:1051700031E0241B3109AC81BD818A1B9B0B2817B0
:10518000390770F480E30E94350C90E09093190188
:10519000809318010E94EF189093200380931F03BF
:1051A000809120010E94CE0A192FE0911801F09100
:1051B0001901FD83EC838E171F0609F040F59E1739
:1051C0001F0629F120F1E35DFD4F808190912101BF
:1051D0008923E9F00E94200C81FD1CC00E94200C54
:1051E000082F80E80E94350C7FE7780F8091A80592
:1051F000602F0E94F00D472F282F8C819D810E94E7
:10520000A80B81E390E09093190180931801F1E0DD
:10521000F983F2CD80E070E000E0EACF4091B10385
:105220005091B2036091B3037091B40380919E05D5
:1052300090919F05A091A005B091A10584179507B5
:10524000A607B70708F47ACD80912201882301F1DF
:1052500040E060E080E00E94A50B21E233E03D8366
:105260002C8301EB13E00E94200C81FF32C0AC8143
:10527000BD811C9211961C92119712961C922C8142
:105280003D812D5F3F4F3D832C830217130759F754
:10529000809120010E94CE0AE92E082F10E093E0B1
:1052A000899FA00111244F5D5C4F5D834C830E15D7
:1052B00018F1F1E0F9832FE22E1508F419823FE28C
:1052C0003E1508F044CE20E04E2D4150550B7A019A
:1052D00045C00E94200CF82E80E80E94350C7FE724
:1052E000780F6F2D8091A8050E94F00DEC81FD8153
:1052F000608371838283C3CFF801E35DFD4F8081BA
:1053000090912101892361F0AC81BD8112962C918D
:10531000129711964C9111976C91C8010E94A80B9D
:10532000EC81FD813396FD83EC830F5F1F4FBFCF70
:10533000FC01EE0FFF1FE80FF91FEF5DFC4F019618
:10534000DC01AA0FBB1FA80FB91FAF5DBC4F8D9129
:105350009D91AC9180839183A2832F5F822F90E0F7
:105360008E159F052CF30E94200C8701000F111F42
:1053700081FF21C0F801EE0DFF1DEF5DFC4F108293
:10538000118212820E94A20C00919E0510919F052D
:105390002091A0053091A105DC01CB01800F911F68
:1053A000A21FB31F8093B1039093B203A093B303E2
:1053B000B093B403CCCD0E94200C8A8380E80E9475
:1053C000350C7FE7780F6A818091A8050E94F00D67
:1053D000F801EE0DFF1DEF5DFC4F6083718382834A
:1053E000D1CF80912201882329F040E060E080E065
:1053F0000E94A50B809120010E94CE0A9B834091C0
:105400009E0550919F056091A0057091A105809126
:10541000DF039091E003A091E103B091E2038417D0
:105420009507A607B70708F0AFC06091A605709171
:10543000A7058091A8050E94F00D362E7A83282EAC
:1054400005EB13E089E791E09D838C83AC80BD8000
:1054500036E0A30EB11C8C809D8065017801198215
:1054600002C091E09983D7018D917D01412C512C8F
:10547000612C882319F0422C5A80632CD401ED91C1
:105480004D01F0E0DF01A35DBD4F9C9180912101B2
:10549000982331F0242D452D662DCF010E94A80BB5
:1054A000D601EE916D01F0E0DF01A35DBD4F9C914F
:1054B00080912101982331F0242D452D662DCF01B7
:1054C0000E94A80BF701808131978083F981F13028
:1054D00041F6D80112968C91D12CE12CF12C882325
:1054E00019F0D22CEA80F32CAC81BD811296EC919C
:1054F000F0E0DF01A35DBD4F9C91809121019823D5
:1055000031F02D2D4E2D6F2DCF010E94A80BAC81B7
:10551000BD811396EC91F0E0DF01A35DBD4F9C913E
:1055200080912101982331F02D2D4E2D6F2DCF012B
:105530000E94A80B0E94200C837091E009F090E07B
:10554000F80192830D5F1F4FBD82AC822DEC31E0DC
:105550002A153B0509F07ACF0E94A20C00919E0506
:1055600010919F052091A0053091A105DC01CB0190
:10557000800F911FA21FB31F8093DF039093E0035E
:10558000A093E103B093E20341E049835B81503390
:1055900008F4DDCCD3CBCF92DF92EF92FF92CF9382
:1055A000DF930E9433096093E3037093E4038093D5
:1055B000E5039093E6032091ED03C0E0211108C0BC
:1055C0002091A505C22FC37019F0C22FC695C695AC
:1055D000209123012130E9F0222369F0223009F4DF
:1055E00085C1233009F48DC1DF91CF91FF90EF90F9
:1055F000DF90CF9008951092200160939E057093E4
:105600009F058093A0059093A10581E080932301DD
:10561000EBCF8C2F57DBCC2339F3809123018230E1
:1056200009F05EC18091E90383FD5AC16091E703EF
:105630007091E80390E080E00E94F912C82FD0E05A
:105640004CE150E070E060E0CE010E9462134BE15B
:1056500050E061E070E0CE010E9462134AE150E048
:1056600062E070E0CE010E94621349E150E063E025
:1056700070E0CE010E94621348E150E064E070E007
:10568000CE010E94621350E040E065E070E0CE0180
:105690000E94621341E050E066E070E0CE010E949B
:1056A000621342E050E067E070E0CE010E946213B6
:1056B00043E050E068E070E0CE010E94621344E0F5
:1056C00050E069E070E0CE010E94621341E250E0D8
:1056D0006AE070E0CE010E94621340E250E06BE0AD
:1056E00070E0CE010E9462134FE150E06CE070E088
:1056F000CE010E9462134EE150E06DE070E0CE01F9
:105700000E9462134DE150E06EE070E0CE010E9415
:10571000621345E050E06FE070E0CE010E9462133A
:1057200046E050E060E170E0CE010E94621347E085
:1057300050E061E170E0CE010E94621348E050E069
:1057400062E170E0CE010E94621349E050E063E143
:1057500070E0CE010E94621346E250E064E170E026
:10576000CE010E94621345E250E065E170E0CE0197
:105770000E94621344E250E066E170E0CE010E94B4
:10578000621343E250E067E170E0CE010E946213D1
:1057900042E250E068E170E0CE010E9462134AE00C
:1057A00050E069E170E0CE010E9462134BE050E0EE
:1057B0006AE170E0CE010E9462134CE050E06BE1C0
:1057C00070E0CE010E9462134DE050E06CE170E0A9
:1057D000CE010E9462134EE050E06DE170E0CE0118
:1057E0000E9462134BE250E06EE170E0CE010E9435
:1057F00062134AE250E06FE170E0CE010E94621352
:1058000049E250E060E270E0CE010E94621348E29B
:1058100050E061E270E0CE010E94621347E250E086
:1058200062E270E0CE010E9462134FE050E063E25A
:1058300070E0CE010E94621340E150E064E270E04B
:10584000CE010E94621341E150E065E270E0CE01BA
:105850000E94621342E150E066E270E0CE010E94D5
:10586000621343E150E067E270E0CE010E946213F0
:105870004FE250E068E270E0CE010E9462134EE217
:1058800050E069E270E0CE010E9462134DE250E008
:105890006AE270E0CE010E9462134CE250E06BE2DB
:1058A00070E0CE010E94621344E150E06CE270E0CF
:1058B000CE010E94621345E150E06DE270E0CE013E
:1058C0000E94621346E150E06EE270E0CE010E9459
:1058D000621347E150E06FE270E0CE010E94621374
:1058E0008091200181500E94CE0A7ECEC0931B0180
:1058F0008091A505837080931A010E94F11483E0C2
:1059000085CE8091AD05882349F048E050E067E1FD
:1059100070E085EA95E05ED71092AD05C0909E05D7
:10592000D0909F05E090A005F090A1050E9433095A
:105930006C197D098E099F096A31710581059105F0
:1059400008F452CE109223014FCEB0E0A0E0EAEA74
:10595000FCE297C58091100190911101892BA1F073
:105960008091E9028F5F8093E90281110DC00E944E
:10597000D91690E09093110180931001892B21F4A6
:105980000E94A8140E94391701EF12E07801C0E0CC
:10599000D0E087E0C82ECD0E8D2F0E944A158C2DA9
:1059A0000E944A158D2F0E94B7178F73F7019191AE
:1059B0007F01D12C891721F031978083DD24D39486
:1059C0008C2D0E94B7178F73F7019681891709F400
:1059D00044C0868381E08D29C82B0E942F14DF5F8D
:1059E000D730B9F61092EE02D091ED02DD23F1F13D
:1059F0000E94EF182091EB023091EC02AC01421BA7
:105A0000530B9A019093EC028093EB024F3F5105A8
:105A100009F028F5452BE9F01092ED021092EA0208
:105A2000E091EF02F091F002AF01425F5F4F90E032
:105A300030E08191882331F0DF011197281790F031
:105A40001C929D2FE417F507A1F73093ED02909378
:105A5000EA02C11119C0CD2F0BC080E0BCCF2FEFDF
:105A600030E0DACF821B8C933D2FECCFC11106C002
:105A70008091EA02882399F1C11106C00E94EF18B3
:105A80009093EC028093EB021092EA02A091EF0255
:105A9000B091F0022091ED02E1E0F3E080E05EE100
:105AA0003191E80199918E01391781F03C913111C2
:105AB0000DC05C93EF014A914927282F30E0242B39
:105AC00081E0232B09F480E0988321E01196D3E054
:105AD000EF30FD0729F78093EE022093ED028091CD
