:100000000C940C060C9429060C9429060C942906D1
:100010000C9429060C9429060C9429060C942906A4
:100020000C9429060C9429060C942A1D0C94E61CA9
:100030000C94EC2F0C9429060C9429060C94290698
:100040000C9429060C9429060C9429060C94290674
:100050000C9429060C9432190C9429060C94290648
:100060000C9429060C9429060C9429060C94290654
:100070000C9429060C9429060C9429060C94290644
:100080000C9429060C9429060C9429060C94290634
:100090000C9429060C9429060C9429060C94290624
:1000A0000C9429060C9429060C942906AAFFFFAA91
:1000B000FFFFAAFFFFAAFFFFAAFFFFAAFFFFAAFFF9
:1000C000FFAAFFFFAAFFFFAAFFFFAAFFFFAAFFFFE9
:1000D000AAFFFFAAFFFFAAFFFFAAFFFFAAFFFFAA2E
:1000E000FFFFAAFFFFAAFFFFAAFFFFAAFFFFAAFFC9
:1000F000FFAAFFFFAAFFFFAAFFFFAAFFFFAAFFFFB9
:10010000AAFFFF55FFFFAAFFFFAAFFFFAAFFFFAA52
:10011000FFFFAAFFFFAAFFFFAAFFFFAAFFFFAAFF98
:10012000FF55FFFF0000FF1CFFFF1CFFFF1CFFFF30
:1001300055FFFF55FFFF55FFFF55FFFF0000000073
:1001400000000000000000000000000000000000AF
:100150000055FFFF55FFFF55FFFF80FFFF55FFFFD5
:1001600055FFFF55FFFF80FFFF000000AAFFFFAA19
:10017000FFFFAAFFFF55FFFF80FFFF55FFFF55FF61
:10018000FF55FFFF80FFFF0000FFAAFFFFAAFFFF50
:10019000AAFFFF55FFFF80FFFF55FFFF55FFFF55EB
:1001A000FFFF80FFFF000000AAFFFFAAFFFFAAFFDA
:1001B000FF0000FF00000000000000000000000041
:1001C00055FFFF0000000000000000000000FF00DD
:1001D000FFFF1CFFFF2BFFFF55FFFF55FFFF2BFF0E
:1001E000FF1CFFFF00FFFF0000FF00FFFF1CFFFFE1
:1001F0002BFFFF55FFFFAAFFFFAAFFFF55FFFF2BB5
:10020000FFFF1CFFFF00FFFF1CFFFF2BFFFF55FF41
:10021000FFAAFFFFBFFFFFBFFFFFAAFFFF55FFFFC2
:100220002BFFFF1CFFFF2BFFFF55FFFFAAFFFFBFA8
:10023000FFFF0000FF0000FFBFFFFFAAFFFF55FF09
:10024000FF2BFFFF55FFFFAAFFFFBFFFFF0000FFCF
:100250000000FFBFFFFFAAFFFF55FFFF00000000E7
:10026000000000000000000000000000000000008E
:100270000000000000000000000080FF8080FF8080
:1002800080FF8080FF8080FF80EA80FFEA80FFEAB5
:1002900080FFEA80FF00000024FFFFEA80FFEA8081
:1002A000FFEA80FF80FF8080FF8080FF8080FF80EA
:1002B00080FF801CFFFF24FFFF24FFFF24FFFF249B
:1002C000FFFF80FF8000000055FFFF55FFFF00008B
:1002D000000000000000000000000000000000001E
:1002E0000000000000000000FF0000FF0000000010
:1002F00000000000000000000000000000000000FE
:1003000000000000000000000000000000000000ED
:100310000000000000000000000000002BFFFF2B89
:10032000FFFF2BFFFF2BFFFF00000080FFFF7B5A2A
:100330007080FFFF0000000000002BFFFF2BFFFF7D
:100340002BFFFF2BFFFF00000024FFFF1EDADA2443
:10035000FFFF0000000000002BFFFF2BFFFF2BFF23
:10036000FF2BFFFF00000000000000000000000065
:10037000000000000000000000000000000000007D
:10038000000000000000000000000000000000006D
:100390000000000000000000000000FFFF00FFFF61
:1003A00000FFFF00FFFF00FFFF000000EA80FF806A
:1003B000FF80EA80FF00000000FFFF00FFFF00FF5A
:1003C000FF00FFFF00FFFF00000080FF8080FF8034
:1003D00080FF8000000000FFFF00FFFF00FFFF0024
:1003E000FFFF00000000000000000000000000000F
:1003F0000000000000000000FFFF000000000000FF
:1004000000000000000000000000000000000000EC
:1004100000000000000000000000000000000000DC
:100420000055FFFF55FFFF55FFFF00000055FFFF80
:1004300055FFFF55FFFF000000000000AAFFFFAAC4
:10044000FFFFAAFFFF55FFFF55FFFF55FFFF55FFB9
:10045000FF55FFFF55FFFF000000AAFFFFAAFFFFA7
:10046000AAFFFF55FFFF00000055FFFF55FFFF5596
:10047000FFFF55FFFF000000AAFFFFAAFFFFAAFF32
:10048000FF0000FF00000000000055FFFF55FFFFC8
:100490000000000000000000000000000001010159
:1004A0000101010101010202020202020202020331
:1004B0000303030303030304040404040404050501
:1004C00005050506060606060707070707080808C4
:1004D00008090909090A0A0A0B0B0B0C0C0C0D0D73
:1004E0000D0E0E0E0F0F0F1010111111121213130B
:1004F0001414151516161717181819191A1A1B1B84
:100500001C1D1D1E1E1F20202122222324242526DF
:1005100026272829292A2B2C2D2D2E2F3031323217
:10052000333435363738393A3B3C3D3E3F40414223
:10053000434445464748494A4C4D4E4F5051535409
:10054000555658595A5B5D5E5F61626465666869BD
:100550006B6C6D6F7072737577787A7B7D7E80823D
:10056000838587888A8C8E8F91939596989A9C9E86
:10057000A0A2A3A5A7A9ABADAFB1B3B5B7BABCBE96
:10058000C0C2C4C6C9CBCDCFD1D4D6D8DBDDDFE263
:10059000E4E7E9EBEEF0F3F5F8FAFDFF0AF6010007
:1005A00018F601001FF6010022F601001BF60100FB
:1005B00006F6010002F6010023F9010089F30100AB
:1005C00073F901004FF401004CF6010064270000AC
:1005D0009CF4010008F301000C2700004DF4010019
:1005E000062B00004EF40100072B000082F30100EF
:1005F000390001512B00E100035100001E001400DE
:1006000004001D00045129001F001A0016001B00E1
:10061000E0004C002000080007000600E3002A006C
:100620002100150009001900E20000002200170057
:100630000A000500000000001650280000002C00F1
:100640000000105011504C0000002A000000000073
:1006500023001C000B001100000000002400180003
:100660000D0010002D00000025000C000E003600CB
:100670002E002C00260012000F0037002F0028004B
:100680002700130033003800300029000000025119
:100690003400015103510000000001512B00000003
:1006A0000000000000003302350231000000290084
:1006B0000000240221021E0200004C00000025025E
:1006C00022021F0200002A0000002602230220024C
:1006D0000000000000002702350031020000000089
:1006E0001050280000002C000000105012504C0048
:1006F00000002A0000000000000000002B000000A5
:10070000000000000000240021001E005600000030
:100710005400250022001F0000002700550026007D
:100720002300200000002C005600570063005800F2
:10073000000029000000000000000151000000003E
:1007400000000000000000000000000000000000A9
:1007500080C000000000000000008AC582C10000C7
:1007600000000000000088C484C2000000000000F7
:10077000000090C886C392C900000000000014CA9F
:100780008CC68EC700000000115000000000000061
:100790000000105013500000000000000000000096
:1007A0000000000000000000000000000000000049
:1007B0000000000000000000000000000000000039
:1007C0000000E10000000000000000000000000048
:1007D00000000000000000000000000000000251C6
:1007E0000000000000000000000000000000E10028
:1007F000035100000000141F04081D080000290018
:1008000000001A1FF4001B08000000000000081F71
:10081000F60006080000E0000000151FF5001908AA
:10082000000000000000171F0A1F051F0000000045
:100830001150000000000000000010501450000093
:10084000000000000000000000004A00500000000E
:100850000000000000004E0051002D0000000000CC
:1008600000004B0052002E000000E30000004D008D
:100870004F0000005001000000000000E2000000F6
:100880004F0129000F0A0000000000000351000082
:100890000000000000000000000000000000000058
:1008A000000000000451000000000000AA00AC009D
:1008B0000000000000000000A800AE0000000000E2
:1008C00000000000A900AB000000000000000000D4
:1008D00000000000000000001350000000000000B5
:1008E0000000105015500000000000000000000043
:1008F00000000000000000000000000000003A00BE
:100900003E0042000000000000003B003F004300AA
:100910000000000000003C00400044000000000017
:1009200000003D0041004500000000000000000004
:100930000000000000000000000029004C000E0C28
:100940000351000000000E030F08000004512800AE
:1009500000001E082008F4000000160800000C0823
:1009600036003A0000002C000000000037003E0076
:100970000000000000001D0A1D080000000000002B
:10098000145000000000000000001050165000003D
:100990000000000000000000000000000000000057
:1009A000000000000000F400F20000000000000061
:1009B0000000F000F1000000000000000000F50061
:1009C000F300000000000000000000000000000034
:1009D0000000000000000000000000000000000017
:1009E000000029000408E1000351000000000F028C
:1009F00015020000000016080000160210001B007F
:100A000000004C0000001200050217001D08E30062
:100A100000001202150018001C0800000000000071
:100A200009000C0800000000155000000000000044
:100A300000001050105000000000000000000000F6
:100A40000000000000000000000000000000240082
:100A500021001E00000000003800250022001F00B9
:100A600000002700250226002300200000002800A7
:100A70002D002E0237002A0000002B00000000008D
:100A8000000000000351000005010902A1018502D8
:100A90000901A10005091901290515002501950580
:100AA0007501810295017503810105010930093144
:100AB0001581257F95027508810609381581257FE6
:100AC000950175088106050C0A38021581257F9568
:100AD0000175088106C0C005010980A101850319BF
:100AE000012AB700150126B700950175108100C0D5
:100AF000050C0901A101850419012AA0021501268E
:100B0000A002950175108100C005010906A10185AB
:100B100005050719E029E7150025019508750181EC
:100B2000020507190029EF1500250195F0750181CF
:100B300002050819012905950575019102950175B0
:100B4000039101C005010906A101050719E029E784
:100B5000150025019508750181029501750881012F
:100B60000507190029FF150026FF00950675088165
:100B70000005081901290595057501910295017572
:100B8000039101C009023B00020100A0FA09040020
:100B900000010301010009211101000122400007A9
:100BA00005810308000A090401000103000000098F
:100BB000211101000122BC000705820320000A1256
:100BC0000110010000000897327449010001020081
:100BD0000116034500720067006F0044006F007843
:100BE00000200045005A00000028035A005300412D
:100BF00000200054006500630068006E006F006C08
:100C0000006F006700790020004C006100620073F3
:100C1000000000040309040011241FBECFEFDAE036
:100C2000DEBFCDBF13E0A0E0B1E0ECE5F9E602C025
:100C300005900D92A23AB107D9F726E0A2EAB3E0F7
:100C400001C01D92AA34B207E1F70E94352D0C9421
:100C500040340C940000E8EDF0E080818E7F8083CA
:100C60001092E2001092DA001092E100A0EEB0E0E3
:100C70008C9181608C9380818F77808319BCA7EDE4
:100C8000B0E08C918E7F8C9380818F7E80831092D8
:100C90000A0608952091E4003091E50095E6A90147
:100CA0002091EC00822F817020FF06C08091E80027
:100CB00080FF06C080E008952091E80022FD1AC060
:100CC00080913006882389F0853089F08091EB008F
:100CD00085FD0FC02091E4003091E50042175307D5
:100CE000F9F29150E1F684E0089582E0089583E0FE
:100CF000089581E00895EF92FF920F931F93CF9391
:100D00007C018B010E944A06C82F811117C0809177
:100D1000E80085FD0BC08091E8008E778093E800A5
:100D20000E944A06882399F3C82F08C0F7018191D1
:100D30007F018093F1000150110949F78C2FCF9169
:100D40001F910F91FF90EF9008958091320687FFD9
:100D500013C08091E80082FF06C08091E8008B7785
:100D60008093E80004C0809130068111F2CF08958D
:100D7000809130068823D9F38091E80080FFF8CF76
:100D80008091E8008E77ECCF982F9093E900242F84
:100D9000762F50E0891731F07091EC002091ED0032
:100DA0005091F00021FD07C09F5F973071F780934D
:100DB000E90081E008953091EB003E7F3093EB0035
:100DC0003091ED003D7F3093ED003091EB003160CC
:100DD0003093EB007093EC002093ED005093F00003
:100DE0002091EE0027FDE0CF80E00895CF92DF92C2
:100DF000EF92FF920F931F93CF93DF93C8EDD0E054
:100E000088818F7E8883E7EDF0E080818160808338
:100E100084E082BF81E080930A0688818E7F888388
:100E200002EE10E0F80110821092DA0081EEC82E76
:100E3000D12CF601108288818F7788838881806821
:100E4000888388818F7D888319BC10923006109228
:100E5000310610922F0610922E0690EEE92EF12CFC
:100E6000F70180818B7F808388818160888342E065
:100E700060E080E00E94C406F60180818E7F80835E
:100E8000F801808181608083808188608083F701A0
:100E900080818E7F8083888180618883DF91CF917C
:100EA0001F910F91FF90EF90DF90CF900895FC017C
:100EB000809138069091390686179707A0F0611542
:100EC000710529F49091E8009E779093E80090E0F6
:100ED0006115710551F4911108C08091E80082FFFD
:100EE00034C080E00895BC01F2CF809130068823A1
:100EF000C1F18530C1F18091E80083FD30C080915F
:100F0000E80082FDEACF8091E80080FFE1CF809188
:100F1000F3002091F200382F6115710519F0283087
:100F2000310558F091E02830310509F090E020912A
:100F3000E8002E772093E800CBCF81918093F100D9
:100F4000615071092F5F3F4FE7CF809130068823B2
:100F500041F0853041F08091E80083FFBECF81E011
:100F6000089582E0089583E0089580910D06089524
:100F70009091F605803F59F48091F70587FF0DC0E9
:100F80001092F70591110BC01092F10508C0813F36
:100F900081F48091F70518169CF3992381F08091D4
:100FA000F8059091F905892B09F064C01092EE05BF
:100FB0000895823F49F497FFF0CF1092F605809193
:100FC000F7058111ECCFE0CF833F19F41916ACF38C
:100FD000E4CF2091F805893F29F41216F4F6109217
:100FE000F805DBCF8A3F19F427FFD7CFF8CF209140
:100FF000F9058B3F29F427FFD0CF1092F905CDCF0B
:101000008C3F19F41216CCF3C8CF843F31F4809191
:10101000F5058E7F8093F505C0CF853F21F4809143
:10102000F5058D7FF7CF863F21F48091F5058B7F05
:10103000F1CF873F21F48091F505877FEBCF883F83
:1010400021F48091F5058F7EE5CF8D3F31F48091BD
:10105000BD058E7F8093BD05A0CF8E3F21F480918A
:10106000BD058D7FF7CF8F3F09F097CF8091BD05EC
:101070008B7FF0CF08958091BD0580FD16C081FD66
:1010800016C082FD16C08091EE058823A1F088323B
:1010900080F428E0829FC001112468E270E00E9481
:1010A0000731862F672B39F0089582E0089584E098
:1010B000089588E0089581E008958091BD0580FD40
:1010C00016C081FD16C082FD18C08091F1058823ED
:1010D00091F08C3390F423E2829FC00111246CE3E1
:1010E00070E00E940731862F672B49F0089588E051
:1010F000089581E1089585E0089583E2089581E0EF
:101100000895803F31F40E945D0881958093F70532
:101110000895813F19F40E945D08F8CF823F31F4B1
:101120000E945D0881958093F6050895833F19F428
:101130000E945D08F8CF893F29F40E943B08809304
:10114000F80508958A3F21F40E943B088195F7CF66
:101150008B3F31F40E943B0881958093F9050895F7
:101160008C3F19F40E943B08F8CF843F31F4809102
:10117000F50581608093F5050895853F21F4809100
:10118000F5058260F7CF863F21F48091F5058460F4
:10119000F1CF873F21F48091F5058860EBCF883F40
:1011A00021F48091F5058061E5CF8D3F31F4809188
:1011B000BD0581608093BD0508958E3F21F4809127
:1011C000BD058260F7CF8F3FB9F78091BD05846080
:1011D000F1CF9C014FB7F8948091B9059091BA0571
:1011E000A091BB05B091BC054FBF821B930B089526
:1011F0008091B40581111092B40508958091B305D2
:101200009091B205892B9091B105892B8093A2030F
:101210009091B4059923A1F0892B8093A20380912A
:101220001401882341F18091D70587FF24C08EE106
:10123000E4EAF3E090E0815000F591110E94F80893
:10124000E091DD05F091DE053097E1F08091140129
:10125000882359F08091D70587FF07C08091A203AA
:101260008093A30385E08093A2030280F381E02DA5
:1012700082EA93E0099486E0DBCF21912223D9F220
:101280009F5FD9CF0895909114019923D1F0909147
:10129000D70597FF16C0E82FE695E695E695EE315F
:1012A000E0F4F0E0EE55FC4F282F277081E090E04D
:1012B00001C0880F2A95EAF780959281892382835D
:1012C0000895E4EAF3E09191891303C0DF011197D7
:1012D0001C9293E0EA3AF907B1F70895909114014E
:1012E0009923C1F09091D70597FF14C0E82FE69598
:1012F000E695E695EE31F8F4F0E0EE55FC4F877098
:1013000021E030E001C0220F8A95EAF78281822B2A
:1013100082830895A4EAB3E0EFEF90E02D91821765
:1013200051F0EF3F19F4211101C0E92F9F5F963072
:10133000A9F7EF3F09F408950E2E000CFF0BEE55B0
:10134000FC4FE6CFE92FEE0FE90FEE0F8E0F982F2F
:10135000977086958695869525E0829FF0011124E9
:10136000E758FA4F50E040E080E0219130E0092E4C
:1013700002C0369527950A94E2F721703327042E90
:1013800001C0220F0A94EAF7822B4F5F5F4F45306E
:10139000510559F70895E92FEE0FE90FEE0F8E0F63
:1013A000982F977041E001C0440F9A95EAF786950F
:1013B0008695869595E0899FF0011124E758FA4FAC
:1013C00030E020E070E05191DF011197CB01022E57
:1013D00002C0969587950A94E2F7817081958527DA
:1013E000842385278C932F5F3F4F2530310559F794
:1013F00008958091780590914705981301C008954C
:101400008F5F8770FACF882341F080959091B20565
:1014100089238093B2050C94FE080895882339F03F
:101420009091B205982B9093B2050C94FE08089504
:10143000882341F080959091B30589238093B3056B
:101440000C94FE080895882339F09091B305982BE9
:101450009093B3050C94FE08089520912B053091CC
:101460002C052817390771F090932C0580932B05D4
:10147000E091DD05F091DE05309721F00084F185E3
:10148000E02D099408952091290530912A05281707
:10149000390771F090932A0580932905E091DD05C5
:1014A000F091DE05309721F00680F781E02D099458
:1014B0000895E091DD05F091DE05309711F480E0AC
:1014C00008950190F081E02D09950895E091DD05E2
:1014D000F091DE05309721F00190F081E02D099424
:1014E00080E00895FA01811101C0FB010994803365
:1014F000910538F5880F991F880F991FFC01EC5D45
:10150000FE4F5281338180818370E181A82FB0E04A
:1015100070E9879FC00111248D519C4FE80FF92F6E
:10152000F11DB4976083FC01E50FF11DB497408372
:10153000830F911DFC01B4972083AF51BC4F81E014
:101540008C930895FF920F931F93CF93DF93182FDF
:10155000062FF42ED0E0C0E02F2D402F612FCE01BA
:101560000E94770A2196C033D105B1F7DF91CF9160
:101570001F910F91FF90089580914106837011F49F
:1015800010921501809141068C7F81608093410605
:1015900008950C94A20A0C94770A0F931F9310E0FD
:1015A000F801EE0FFF1FEF5EFC4F9081905797FD03
:1015B0009195000F111FF801EE5EFC4F0081005263
:1015C000110B2003F001219FF00D112408E310E01E
:1015D000091B110997FD139540039001419F300DA0
:1015E0001124E20FF31F9F01220F331F2E0F3F1F05
:1015F00037FF02C021583F4F220F232F221F330BEA
:10160000620F1F910F9108950F931F93522F10E0B7
:10161000F801EE0FFF1FEE5EFC4FA081A052BB0B46
:101620009D015203F001539FF00D1124000F111F73
:10163000D801AF5EBC4F0C910057110B40039001D5
:10164000419F300D11242E0F3F1F37FF02C0215C38
:101650003F4F96E0359527959A95E1F7620F1F91D8
:101660000F9108950F931F93522F10E0F801EE0F82
:10167000FF1FEE5EFC4FA081A052BB0B9D015203E9
:10168000F001539FF00D1124000F111FD801AF5E20
:10169000BC4F0C910057110B40039001419F300D3E
:1016A00011242E0F3F1F37FF02C021583F4F220F3A
:1016B000232F221F330B620F1F910F910895EF927A
:1016C0000F93972F23E0029FB00111247595679522
:1016D0006E0D792F0F91EF900895322F50E0FA019F
:1016E000EE0FFF1FEE5EFC4F9081905297FD91959B
:1016F000440F551FFA01EF5EFC4F2081231B330B73
:10170000290F311D97FD3A95620F0895E42FF0E0FF
:10171000EE0FFF1FEE5EFC4F6081621B0895E42F09
:10172000F0E0EE0FFF1FEF5EFC4F6081621B08953B
:10173000622F0895E42FF0E0EE0FFF1FEF5EFC4FE5
:10174000408134EE439F412D1124E82FF0E050E01A
:10175000445E5F4FDA01A21BB1099D01B7FF03C0D0
:1017600031952195310993E0220F331F9A95E1F7C6
:10177000AF01421B530B9A0157FD20E0582F259FC4
:10178000212D1124822F0895E42FF0E0EE0FFF1F8A
:10179000EF5EFC4F408134EE439F412D1124E72F33
:1017A000F0E050E0445E5F4FDA01A21BB1099D01F9
:1017B000B7FF03C031952195310993E0220F331F04
:1017C0009A95E1F7AF01421B530B9A0157FD20E0B8
:1017D000279F212D1124722F0895FC019B01009752
:1017E00029F480E077FF2BC080E80895AC0197FFD3
:1017F00004C044275527481B590BB901640F751FB6
:1018000037FD10C0241B350BC901A5E0880F991FB7
:10181000AA95E1F70E94073180E2861BF7FF0FC00F
:1018200081950895CB0165E0880F991F6A95E1F7CE
:10183000BA01621B730B0E94073180E6EECF089558
:10184000EF920F93CF93DF93D72FC82FC9010E19B3
:10185000BA010E94ED0B602F681B7D2F8C2FDF914A
:10186000CF910F91EF9008950F93CF93DF93D72FE0
:10187000C82FC901BA010E94ED0B682F600F7D2FA0
:101880008C2FDF91CF910F910895EF920F931F93BB
:10189000CF93DF93D62FC72F182FC9010E19010F31
:1018A000BA010E94ED0B081B202F219F212D11242E
:1018B000822F6D2F7C2FDF91CF911F910F91EF9091
:1018C0000895EF920F931F93CF93DF93D62F172F87
:1018D000C82FC9010E19070FBA010E94ED0B702F16
:1018E000781B719F712D11246D2F8C2FDF91CF915B
:1018F0001F910F91EF9008950F931F93CF93DF9354
:10190000D62FC72F182FC901212F201B022FBA0154
:101910000E94ED0B982F990F990F891B800F282F8C
:10192000219F212D1124822F6D2F7C2FDF91CF91AC
:101930001F910F9108950F931F93CF93DF93D62F8D
:10194000172FC82FC901272F201B022FBA010E9471
:10195000ED0B982F990F990F782F791B700F719FAE
:10196000712D11246D2F8C2FDF91CF911F910F912D
:101970000895E82F86FDE0952E2F2F7086FD2F5FAE
:10198000E695E695E695E670F0E0E45EFE4F91811F
:10199000929F902D212D112492959F702295207F4A
:1019A000922B2081920F87FD919580E8890F0895F1
:1019B000AC018230910508F408959FEF413E8EE11D
:1019C000580740F49A0195E0369527959A95E1F7E6
:1019D00098E0920F61E0E62FE90FFF27FF1F9F01BC
:1019E00035952795822F229FF001239FF00DF00D52
:1019F00011244E175F0738F49FEF920F961758F790
:101A00008FEF860F08952F3FE9F361E0620FF6CF65
:101A10000F93CF93DF93D72FC82F47FD419588E3CE
:101A200090E0841B910947FD9395889FB001899FA1
:101A3000700D700D1124229FC001239F900D900DF9
:101A40001124860F971F0E94D80C982F990F890F89
:101A5000682F600F7D2F8C2FDF91CF910F9108950C
:101A600030E020E0869F212D969F200D311D11240E
:101A7000C9010895AF92BF92CF92DF92FF920F9368
:101A80001F93CF93DF93362F472FE82FF0E0E456D4
:101A9000FB4F71110FC0E4918E2F2E2F6E2F722FDE
:101AA000DF91CF911F910F91FF90DF90CF90BF906A
:101AB000AF900895C72FD0E02491F22E022F10E0AE
:101AC00056E0659FC0011124EFEFF0E0BF010E94D6
:101AD000F330832F90E0880F991F35E5369FD001B2
:101AE000379FB00D11248A1B9B0B982F990F980FCD
:101AF0006F01CC1ADD0AC09ED001C19EB00DD09EF0
:101B0000B00D11248B2F499FA0011124452F55277B
:101B10006F01C41AD50AC09EA001C19E500DD09E6F
:101B2000500D11245F01A91AB108AC9E6001AD9E51
:101B3000D00CBC9ED00C1124CD2CDD24EC19FD0959
:101B4000E09FE001E19FD00DF09FD00D1124ED2F1B
:101B500062307105A1F050F46115710509F49ECF52
:101B60006130710581F0EB2F852F98CF64307105BE
:101B700069F080F06630710509F490CFF4CFE22F60
:101B80002B2F8D2F8BCFE22F252F88CFEB2F822F5E
:101B90002D2F84CF2B2F8F2DE52F80CF9F92AF92AB
:101BA000BF92CF92DF92EF92FF920F931F93CF934A
:101BB000DF936C0180911601C82FCC0FCC0FC80F9A
:101BC00015E01C0FB12E113310F030E3B32E6091ED
:101BD00045066695669580913D0690913E060E9469
:101BE000300DF82E80E48F0D0E94B90C90E8A92EDC
:101BF000A80E8F2D0E94B90C20E8922E980ED0E0EE
:101C0000CB1580F081E0103308F080E0DF91CF91B8
:101C10001F910F91FF90EF90DF90CF90BF90AF900A
:101C20009F900895FE01EF58FC4F8081909117011D
:101C30008923A1F060914206709143068091440689
:101C4000EF2C0C2F292D4A2DF60109950E943A0DF3
:101C5000462F282F672FCE010E94CB0A2196D0CF86
:101C60007F928F929F92AF92BF92CF92DF92EF922C
:101C7000FF920F931F93CF93DF935C018091160126
:101C8000C82FCC0FCC0FC80F15E01C0FF12E11334D
:101C900010F030E3F32E60914506669580913D0685
:101CA00090913E060E94300D782ED0E0CF1590F036
:101CB00081E0103308F080E0DF91CF911F910F9108
:101CC000FF90EF90DF90CF90BF90AF909F908F905C
:101CD0007F900895FE01EF58FC4F8081909117018D
:101CE0008923C9F1CE01880F991F83549D4FFC01B0
:101CF000EC5AFF4F2081422F4057550B6A018B5AF7
:101D00009F4FFC018081282F2052330B4901449FB3
:101D10009001459F300D300D1124889CC001899C95
:101D2000900D900D1124820F931F0E94D80C082F44
:101D3000609142067091430680914406E72C94011D
:101D4000A601F50109950E943A0D462F282F672F0D
:101D5000CE010E94CB0A2196A9CFCF92DF92EF92BB
:101D6000FF920F931F93CF93DF937C018091160115
:101D7000C82FCC0FCC0FC80F15E01C0FD12E11337C
:101D800010F030E3D32E60914506669580913D06B4
:101D900090913E060E94300DC82ED0E0CD1568F01F
:101DA00081E0103308F080E0DF91CF911F910F9117
:101DB000FF90EF90DF90CF900895FE01EF58FC4F19
:101DC000808190911701892311F1CE01880F991F0D
:101DD00083549D4FFC01EB5AFF4F20812052330B5F
:101DE0008C5A9F4FFC0140814057550B6091420631
:101DF00070914306809144060C2DF70109950E94CD
:101E00003A0D462F282F672FCE010E94CB0A21962C
:101E1000C5CFDF92EF92FF920F931F93CF93DF9383
:101E20007C0180911601C82FCC0FCC0FC80F15E094
:101E30001C0F012F113308F000E3609145066695F1
:101E4000669580913D0690913E060E94300DD82EF9
:101E5000D0E0C01760F081E0103308F080E0DF913F
:101E6000CF911F910F91FF90EF90DF900895FE01A9
:101E7000EF58FC4F808190911701892391F0609178
:101E8000420670914306809144062D2D4C2FF70198
:101E900009950E943A0D462F282F672FCE010E94E8
:101EA000CB0A2196D6CF9091D70592FF06C0282F56
:101EB00028712830F9F4877F846093FF06C0282FAB
:101EC00028712831F1F4877E84612091D80520FFA4
:101ED00006C0382F38713830D9F4877F816021FFF0
:101EE00006C0282F28712831D1F4877E816194FDA6
:101EF000877E0895282F24712430F9F68B7F88601F
:101F0000DCCF282F2471243101F78B7E8861DDCF4F
:101F1000382F3171313019F78E7F8860E0CF282F4C
:101F20002171213121F78E7E8861E1CFCF93DF933C
:101F3000972F70E026E0929F600D711D1124FB0128
:101F400034E5839FE00DF11D1124EE0FFF1FE051DA
:101F5000FA4FC591D491CE01C238D105B9F1E8F557
:101F6000C133D10509F499C050F5C932D10509F43E
:101F70008DC0CA32D10509F497C0C11542E5D40716
:101F800008F0C4C0C11521E5D20708F038C1C83E29
:101F9000D10508F09DC0C03ED10568F5C83AD1050D
:101FA00008F089C0C53AD10508F005C1C130D10596
:101FB00011F1209709F443C02497E8F440C0C533D9
:101FC000D10509F45CC0C933D105B9F62091D70514
:101FD000237089F080EE90E00EC0C33ED10591F1F0
:101FE00068F4C03ED105F9F0C23ED10531F620912A
:101FF000D70522FD20C0DF91CF910895C63ED105BF
:1020000061F1C73ED10581F1C43ED10509F0B5CFDC
:102010002091D80521FFEFCF8091D70584FD0FC017
:1020200087EE90E0E8CF2091D70520FD19C13091CF
:10203000D80530FFE0CF83EE90E024FFDCCF90E0C6
:1020400080E0D9CF2091D70522FD0DC13091D80570
:1020500030FDC0CF24FFCFCFF2CF2091D70523FF93
:10206000CACF24FDECCFDCCF2091D70523FDFEC0E5
:102070003091D80531FFEECF84EE90E0BCCF2091B7
:10208000D70525FFB8CF89E290E0B5CF2091D705DD
:1020900025FFB1CF85E390E0AECF2091D70526FF95
:1020A000AACF8AE290E0A7CF2091D70526FFA3CF41
:1020B00081E390E0A0CFCF3BD10508F6C85AD0E02D
:1020C000CC0FDD1FC157DD4F88819981946493CF78
:1020D000C11530E2D30760F4C11541E0D40708F020
:1020E0008ACFCE019065C03FD10508F084CFA7CF3D
:1020F000C11580E4D80708F4A2CFC11590E5D9072F
:1021000008F061C0CE019F70906A75CFC11526E5B9
:10211000D20718F5C11535E5D30708F086C0C115FB
:1021200044E5D40708F07CC09C2F96959695AE01A7
:1021300043705527C115D34508F466C021E030E04F
:1021400002C0220F331F4A95E2F740E2949FC0017C
:102150001124822B932B9A684ECFC1159AE5D9078B
:1021600078F4C11529E5D20708F069C0C11538E532
:10217000D30708F464CF9C2F8827806F906A3BCFE9
:10218000C1154BE5D40708F45ACFC1158CE5D80723
:1021900008F462C0CE0190568115904208F04FCFEE
:1021A0008D2F8F710E94530F90E0982F88278827DA
:1021B0009F718C2B42C0C55AD0E0C457DD4F888137
:1021C00090E0906418CF9E01E4E036952795EA955B
:1021D000E1F723708C2F86958695837030E2839F7C
:1021E000C0011124922BC37021E030E002C0220F05
:1021F000331FCA95E2F7822B932B9C68FCCE9C2F51
:102200008827816F906AF7CE21E030E002C0220F6C
:10221000331F4A95E2F740E2949FC0011124EBCFAF
:102220009C2F8827846F906AE6CE8C2F0E94530FD4
:1022300090E0982F882788279F719062DCCE8C2FA2
:102240008F700E94530F34E0D695C7953A95E1F709
:10225000CF709C2F9069CFCECE0199279066CBCEC0
:1022600089E390E0C8CE82EE90E0C5CE86EE90E0A5
:10227000C2CEBF92CF92DF92EF92FF920F931F9345
:10228000CF93DF938C01C090D905D090DA05E09010
:10229000DB05F090DC058091B5059091B605A09125
:1022A000B705B091B805C82AD92AEA2AFB2ACFE196
:1022B000D0E0BC2ED701C6010C2E04C0B695A79560
:1022C000979587950A94D2F780FD0EC0219788F7DD
:1022D000B12C8B2DDF91CF911F910F91FF90EF903B
:1022E000DF90CF90BF900895B8018C2F0E94960F79
:1022F000019761F3EECFCF93DF93EC010E94391188
:10230000BE01DF91CF910C94960F0E947B11292F73
:102310002F7092959F7092509E3078F4E92FF0E0E4
:10232000EE5BFB4C0C941B31803F19F020F4883E8F
:1023300020F481E00895843FE1F380E00895883E31
:10234000C0F3813FD1F7F5CF822F8695869586958C
:102350000895CF92DF92EF92FF926C01EE24FF245A
:1023600020E0C114D104E104F10419F0C701B60161
:1023700020E1C72ED82EE92EFF24C114D104E10498
:10238000F10419F0285FC701B6016B017C0154E02C
:10239000F694E794D794C7945A95D1F7C114D10411
:1023A000E104F10419F02C5FC701B6016B017C0157
:1023B00042E0F694E794D794C7944A95D1F7C114B4
:1023C000D104E104F10419F02E5FC701B60196951E
:1023D000879577956795672B682B692B09F02F5F99
:1023E000822FFF90EF90DF90CF900895CF93DF93EF
:1023F0009C013A9521153F4168F5EC01CC27D1703D
:10240000DC01AA27B270AC01442754709C0122273A
:10241000387094FF11C080E1CD2B09F480E0AB2B24
:1024200009F08062452B09F08064232B09F0806855
:10243000FB01DF91CF91099481E0CD2B09F480E07D
:10244000AB2B09F08260452B09F08460232B81F3CC
:102450008860EECFDF91CF910895BF92CF92DF9247
:10246000EF92FF920F931F93CF93DF93EA01FB014B
:10247000EE0FFF1FE60FF71F20E9AC01249FC001FC
:10248000259F900D11248E0F9F1FFC01E455FF4FD7
:102490006491FC01E355FF4F749182559F4FFC01FD
:1024A0008491962F972B982B79F420E040E060E000
:1024B000CE01DF91CF911F910F91FF90EF90DF90B0
:1024C000CF90BF900C94CB0A0E943A0D8B01B82E8E
:1024D0006091440670E090E080E00E941A3220E0B3
:1024E00030E04FE753E40E9479316B017C016B2DA2
:1024F00070E090E080E00E941C32A70196010E94EB
:10250000A8320E94EB31B62E602F70E090E080E0A0
:102510000E941C32A70196010E94A8320E94EB3152
:10252000062F612F70E090E080E00E941C32A7012E
:1025300096010E94A8320E94EB312B2D402FB8CF7C
:10254000CF93DF93EC014CE150E070E060E00E943B
:102550002D124BE150E061E070E0CE010E942D129F
:102560004AE150E062E070E0CE010E942D1249E1A4
:1025700050E063E070E0CE010E942D1248E150E08F
:1025800064E070E0CE010E942D1250E040E065E072
:1025900070E0CE010E942D1241E050E066E070E054
:1025A000CE010E942D1242E050E067E070E0CE01C3
:1025B0000E942D1243E050E068E070E0CE010E94DE
:1025C0002D1244E050E069E070E0CE010E942D122F
:1025D00041E250E06AE070E0CE010E942D1240E23C
:1025E00050E06BE070E0CE010E942D124FE150E010
:1025F0006CE070E0CE010E942D124EE150E06DE0E3
:1026000070E0CE010E942D124DE150E06EE070E0CE
:10261000CE010E942D1245E050E06FE070E0CE0147
:102620000E942D1246E050E060E170E0CE010E9471
:102630002D1247E050E061E170E0CE010E942D12C2
:1026400048E050E062E170E0CE010E942D1249E0C6
:1026500050E063E170E0CE010E942D1246E250E0AE
:1026600064E170E0CE010E942D1245E250E065E188
:1026700070E0CE010E942D1244E250E066E170E06D
:10268000CE010E942D1243E250E067E170E0CE01DE
:102690000E942D1242E250E068E170E0CE010E94FB
:1026A0002D124AE050E069E170E0CE010E942D1247
:1026B0004BE050E06AE170E0CE010E942D124CE048
:1026C00050E06BE170E0CE010E942D124DE050E031
:1026D0006CE170E0CE010E942D124EE050E06DE101
:1026E00070E0CE010E942D124BE250E06EE170E0EE
:1026F000CE010E942D124AE250E06FE170E0CE015F
:102700000E942D1249E250E060E270E0CE010E948A
:102710002D1248E250E061E270E0CE010E942D12DD
:1027200047E250E062E270E0CE010E942D124FE0DD
:1027300050E063E270E0CE010E942D1240E150E0D3
:1027400064E270E0CE010E942D1241E150E065E2AA
:1027500070E0CE010E942D1242E150E066E270E08E
:10276000CE010E942D1243E150E067E270E0CE01FD
:102770000E942D124FE250E068E270E0CE010E940C
:102780002D124EE250E069E270E0CE010E942D125F
:102790004DE250E06AE270E0CE010E942D124CE260
:1027A00050E06BE270E0CE010E942D1244E150E057
:1027B0006CE270E0CE010E942D1245E150E06DE226
:1027C00070E0CE010E942D1246E150E06EE270E012
:1027D000CE010E942D1247E150E06FE270E0CE0181
:1027E000DF91CF910C942D1240E060E080E00E94D8
:1027F000C90A40E060E080E00E94C90A81E080935D
:102800000B06089527982F98089526982E980895D6
:1028100025982D98089556985E980895279A2F9A8E
:102820000895269A2E9A0895259A2D9A0895CF9262
:10283000DF92EF92FF926B017C010E940B14C701A3
:10284000B6010E94A9118031C0F4E82FF0E0E05BEE
:10285000FB4C0C941B310E9408140E9405140BC001
:102860000E9408140E9405140E940E1406C00E94C3
:1028700008140E9411140E940214C701B601FF90AF
:10288000EF90DF90CF9008950E9408140E941114D9
:10289000EBCF0E941414E1CF0E941414E3CF0E94E6
:1028A0001414E7CF0E941414F1CF2098289821988F
:1028B000299822982A9823982B9852985A98539896
:1028C0005B983E98469808958098889A8198899A4E
:1028D00084988C9A85988D9A86988E9A87988F9AE4
:1028E0000895CF9384E090E00E943131C82F81E2B7
:1028F00090E00E943131982F8C2FCF910895CF9383
:10290000DF9300D00F92CDB7DEB7909130069430B0
:1029100019F589837B836A8382E08093E9008FEFD6
:102920009091E800815095FD06C095ED9A95F1F7DC
:1029300000008111F5CF8091E80085FF0DC050E0C7
:1029400040E063E070E0CE0101960E947B0680913A
:10295000E8008E778093E8000F900F900F90DF9142
:10296000CF910895BC0184E00C947F14BC0183E0F6
:102970000C947F149C0182E08093E9009FEF80918A
:10298000E800915085FD06C085ED8A95F1F70000BD
:102990009111F5CF8091E80085FF0CC050E040E038
:1029A00066E070E0C9010E947B068091E8008E77A6
:1029B0008093E8000895CF93DF93EC018091140198
:1029C0008823B1F18091D70587FF32C060E282E0B1
:1029D0008093E9008FEF9091E800815095FD06C04B
:1029E00095ED9A95F1F700008111F5CF8091E800FF
:1029F00085FF1BC08091140170E050E040E0811120
:102A000004C050E040E068E070E0CE010E947B0628
:102A10008091E8008E778093E80080E2FE01AEE0CE
:102A2000B6E001900D928A95E1F7DF91CF9108957C
:102A300068E081E0CDCF0E940B140E9408140E9430
:102A400005140E9402148FEF90E090938900809308
:102A5000880090938B0080938A0090938D008093E0
:102A60008C000E9414142FEF80E792E021508040E8
:102A70009040E1F700C000000E9411142FEF80E7A2
:102A800092E0215080409040E1F700C000000E9499
:102A90000E142FEF80E792E0215080409040E1F744
:102AA00000C000000E9408142FEF80E792E0215040
:102AB00080409040E1F700C000000E9405142FEF15
:102AC00080E792E0215080409040E1F700C0000094
:102AD0000E9402140E940B140E9408140E94051404
:102AE0000C9402141092C0051092C10560E08CE0B5
:102AF00090E00C9455316CEE7EEF90E080E00E9407
:102B0000733160E082E090E00E94553160E083E044
:102B100090E00E9455311092B5051092B6051092C2
:102B2000B7051092B80560E084E090E00E9455314E
:102B300060E081E290E00E94553160E085E090E045
:102B40000E94553160E086E090E00E9455316FEFC1
:102B500087E090E00E94553140E050E0BA0188E003
:102B600090E00E94673160E08DE090E00E94553176
:102B700040E050E0BA0188E190E00E94673160E0F7
:102B800087E190E00E94553140E050E0BA018CE1CD
:102B900090E00E94673160E080E290E00E94553151
:102BA00040E050E0BA0188E190E00E946731109265
:102BB000C5051092C6051092C7051092C80584E09D
:102BC00080618093C5054091C5055091C60560910F
:102BD000C7057091C8058FE090E00E94673140E022
:102BE00050E0BA0183E190E00C9467310F931F939A
:102BF000CF93DF93082F000FEB0114E21093CD0366
:102C0000EEECF3E0DE018D91819383E0EE3DF80779
:102C1000D1F724E630E041E150E06DEC73E0802F25
:102C20000E94C830105F6096143B41F7DF91CF914E
:102C30001F910F9108958091E103882329F063EE9D
:102C400073E084E70E94F6151092E1038091E2039D
:102C5000882329F063E774E087E70E94F615109255
:102C6000E2030895EDECF3E06083418324E630E075
:102C700042E050E0BF01880F0C94C830EF92FF9201
:102C80000F931F93CF93DF93E82E062F10E0095D7B
:102C90001A4FF8018081882381F0F2E16F9FE001F3
:102CA0001124CD5FDA4FF12C49916F2D8E2D0E94AA
:102CB0003216F39482E1F812F7CFF8011082DF9117
:102CC000CF911F910F91FF90EF900895CF93DF93D5
:102CD000C82F4BE06DEF0E94321640E06AE08C2F67
:102CE0000E9432168FE39CE90197F1F700C00000C3
:102CF00040E060E08C2F0E94321640E061E08C2FB3
:102D00000E94321640E066E08C2F0E94321640E0AE
:102D10006DEF8C2F0E943216D0E040E06D2F8C2F8B
:102D20000E943216DF5FD231C1F740E06D2F8C2F49
:102D30000E943216DF5FD432C1F740E06D2F8C2F36
:102D40000E943216DF5FD43BC1F74BE06DEF8C2F52
:102D50000E94321641E06AE08C2F0E94321640E059
:102D60006DEF8C2FDF91CF910C9432166F927F9282
:102D70008F929F92AF92BF92CF92DF92EF92FF928B
:102D80000F931F93CF93DF930E94133084E70E9429
:102D9000661687E70E94661664E2E62E61E0F62E6C
:102DA000D12CC12C72E1772EE8E08E2E912CAA2432
:102DB000A394B12C66246394F701418150E0CA01C9
:102DC000849702810452110BC381C452DD0BF601BA
:102DD000EE0FFF1FEE0FFF1FEC5DFE4F20812370F3
:102DE00030E0FC0197FD379643E0F595E7954A956D
:102DF000E1F7729EA001739E500D11244D5F5A4F52
:102E0000E40FF52FF11DB4010E940731A50101C0A7
:102E1000440F8A95EAF78081842B8083F80117FD9F
:102E2000379693E0F595E7959A95E1F7729EC00184
:102E3000739E900D11248D5F9A4FE80FF92FF11DAD
:102E4000C801B4010E940731A50101C0440F8A9551
:102E5000EAF78081842B8083FE01D7FD379683E0DB
:102E6000F595E7958A95E1F7729EC001739E900DE6
:102E700011248D5F9A4FE80FF92FF11DCE01B40197
:102E80000E940731A50101C0440F8A95EAF78081AD
:102E9000842B8083295D3A4FF9016082FFEFCF1ABE
:102EA000DF0A84E0E80EF11CE0E3CE16D10409F05D
:102EB00083CF60E084E70E943E1661E087E7DF9100
:102EC000CF911F910F91FF90EF90DF90CF90BF9027
:102ED000AF909F908F907F906F900C943E1645E03E
:102EE00050E06CE170E081E496E00C944531909103
:102EF0004106937089F0811107C094609093410658
:102F0000109215010C946F17863110F09465F6CF6E
:102F1000880F880F982BF2CF0895809141068695EF
:102F20008695815009F485E10C94771780914106CC
:102F3000869586958F5F863108F081E00C9477172F
:102F400090914106937041F080934206609343064E
:102F5000409344060C946F170895E1E4F6E0438132
:102F600020E1421B08F440E08181628190E00C94F2
:102F7000A017E1E4F6E0438120E1420F08F44FEFAF
:102F80008181628190E00C94A017E1E4F6E0628117
:102F900020E1621B08F460E08181438190E00C94A1
:102FA000A017E1E4F6E0628120E1620F08F46FEF20
:102FB0008181438190E00C94A017E1E4F6E08181E7
:102FC000438162818850990B0C94A017E1E4F6E0EC
:102FD000818190E04381628108960C94A017E1E41E
:102FE000F6E0248130E1230F08F42FEF24830C94C2
:102FF0006F17E1E4F6E0248130E1231B08F420E0C0
:1030000024830C946F17E1E4F6E081E380838091E0
:10301000190190911A01A0911B0181839283A383CE
:103020008FE784830C946F170E94B61690E080E0BF
:103030000E943F318C3E9E4F21F00E947B150E94E2
:10304000031845E050E06CE170E081E496E00E94F6
:103050002131809141068C7F11F40C94031808955E
:1030600080E290E090930901809308018091C2036F
:1030700081110EC00E94133081E08093C2032FEFB4
:1030800083ED90E3215080409040E1F700C00000C4
:1030900064E670E080E40E94193090930901809307
:1030A0000801892B09F04EC064E670E080E00E94C0
:1030B00075309093090180930801892B09F042C073
:1030C00064E670E080E00E9475309093090180937F
:1030D0000801892BB9F564E670E08FE30E94753032
:1030E0009093090180930801892B61F50E94EF30CC
:1030F00064E670E080E40E941930909309018093A7
:103100000801892BF9F464E670E08CE00E947530C8
:103110009093090180930801892BA1F464E670E083
:1031200080E00E9475309093090180930801892BFB
:1031300049F464E670E08FE30E94753090930901D2
:10314000809308010E94EF30809108010895CF9389
:10315000C82F873070F58091080190910901892B63
:1031600089F564E670E080E40E94193090930901CB
:1031700080930801892BD1F464E670E082E10E941B
:1031800075309093090180930801892B79F481E0CF
:1031900090E001C0880FCA95EAF764E670E0809578
:1031A0000E9475309093090180930801CF910C948F
:1031B000EF308A30B9F040F4883071F0893079F01E
:1031C000209A2898CF9108958C3091F070F08D302E
:1031D000B9F73E9A4698F6CF219A2998F3CF229ACA
:1031E0002A98F0CF239A2B98EDCF529A5A98EACF8B
:1031F000539A5B98E7CFCF93873050F580910801C1
:1032000090910901C0E0892B71F464E670E081E4DB
:103210000E9419309093090180930801892B31F0A5
:10322000C0E00E94EF308C2FCF91089584E690E0AB
:103230000E94A43097FF05C0909309018093080174
:10324000EFCFC82FC0951092090110920801E9CF65
:10325000CFB18FB1869586958C73C3708C2BC82F98
:10326000C095E1CF78941F921FB61F9211248F93BF
:103270009F93AF93BF938091B9059091BA05A091A8
:10328000BB05B091BC050196A11DB11D8093B90588
:103290009093BA05A093BB05B093BC05BF91AF91C5
:1032A0009F918F911F901FBE1F9018952FB7F89474
:1032B0008091B9059091BA05A091BB05B091BC056C
:1032C0002FBF08950E9456199C019091F605809198
:1032D000F705982B21F03093F3052093F205909198
:1032E000F8058091F905982B21F03093F005209393
:1032F000EF05E091DD05F091DE05309749F082E0C1
:103300008093F4050480F581E02D84EF95E0099425
:1033100008951092B2051092B1050E94FE0886E051
:10332000E4EFF5E0DF011D928A95E9F71092F105CF
:103330001092EE051092BD050E94621990E080E0A7
:103340000E94430A90E080E00C942D0A0E9417141A
:103350006093D9057093DA058093DB059093DC05C3
:103360000C9489190F931F9341E050E060E070E0E6
:1033700004C0440F551F661F771F8A95D2F7CB01F3
:10338000BA0160957095809590950091D90510913E
:10339000DA052091DB053091DC056023712382235F
:1033A00093231F910F910C94A6199091B0058095CD
:1033B00089238093B005282F277071F4282F082EB9
:1033C000000C330B9217130639F08595859585957A
:1033D0000E94B2191092B00508950F931F9341E017
:1033E00050E060E070E004C0440F551F661F771F77
:1033F0008A95D2F78091D9059091DA05A091DB05E5
:10340000B091DC058A019B01082B192B2A2B3B2B41
:10341000C901B8011F910F910C94A6196093B505CD
:103420007093B6058093B7059093B8050C948919ED
:103430001092B30580911401E4EAF3E0882359F077
:103440008091D70587FF07C08EE1DF011D928A9525
:10345000E9F70C94891986E0F8CF1F93CF93DF9397
:10346000CDB7DEB7AA970FB6F894DEBF0FBECDBFBB
:1034700082E396E02091F100FC012193CF01F6E078
:103480008A339F07B9F780913306833009F46FC000
:10349000B8F4813009F446C0823009F4B0C080919C
:1034A000E80083FF7BC280913206909133069A3008
:1034B00008F074C2E92FF0E0E05AFB4C0C941B3189
:1034C0008A3009F48BC08B3009F46EC0893039F72B
:1034D00080913206813219F7809136069091370635
:1034E0000297E8F68091E800877F8093E80080915A
:1034F000E80082FF37C09091F3008091F2000297BC
:1035000029F48091F1008B7F813021F48091F100CA
:1035100080930D068091E8008B778093E8000E94ED
:10352000A506BDCF80913206813A09F0B8CF8091CF
:10353000E800877F8093E8008091360690913706F7
:10354000892B61F460E28EE096E070E00E945707FC
:103550008091E8008B778093E800A1CF60E090E055
:1035600080E0F3CF809130068111C1CF98CF809158
:103570003206813A09F093CF809136069091370652
:10358000892B09F08CCF8091E800877F8093E80039
:103590008091E80080FFFCCF809114018093F100BE
:1035A0008091E8008E77B9CF80913206813209F0A0
:1035B00076CF8091360690913706892B09F06FCF30
:1035C0008091E800877F8093E8000E94A5068091A3
:1035D0003406809314010E94181A61CF809132063C
:1035E000813209F05CCF8091E800877F8093E8000A
:1035F0000E94A5068091350680930C0650CF8091DD
:103600003206813A09F04BCF8091E800877F8093A2
:10361000E8008091E80080FFFCCF80910C06BECFCF
:10362000803899F0823809F0B9C1809136068F70E0
:10363000873008F0B3C18093E9008091EB0085FBEF
:10364000882780F91092E90006C080912E0690919B
:103650002F06911182609091E800977F9093E80087
:103660008093F1001092F1008091E8008E7792C172
:10367000882309F480C1823009F090C1809134061A
:10368000811183C1809136068F702FEF280F26306D
:1036900008F084C18093E9002091EB0020FF75C100
:1036A000933031F48091EB0080628093EB006DC128
:1036B0009091EB0090619093EB0021E030E001C02D
:1036C000220F8A95EAF72093EA001092EA0080918F
:1036D000EB008860EACF811161C1109134061F7739
:1036E0008091E3008078812B8093E3008091E80053
:1036F000877F8093E8000E94A5068091E80080FF04
:10370000FCCF8091E30080688093E30082E0111198
:1037100083E08093300642C18058823008F03EC179
:1037200080913406909135068C3D23E09207A1F5F7
:1037300083E08A838AE289834FB7F894DE01139687
:1037400020E03EE051E2E32FF0E050935700E49197
:1037500020FF03C0E295EF703F5FEF708E2F90E087
:10376000EA30C0F0C7968D939D932F5F243159F7AF
:103770004FBF8091E800877F8093E8006AE270E0A5
:10378000CE0101960E9457078091E8008B778093C5
:10379000E80004C1C096E7CF409136065091370645
:1037A000292F33272330310509F444C078F521301F
:1037B000310509F46FC08BE390E0E4E8FBE02230D0
:1037C000310509F0EBC02091E800277F2093E80045
:1037D00020913806309139068217930708F49C012E
:1037E00040E02115310509F064C0411162C08091AB
:1037F000E80082FDC9CF80913006882329F2853008
:1038000019F28091E80083FFF2CFBECF213231055B
:10381000A9F12232310509F0C1C04115510509F461
:1038200043C04130510509F0B9C08CEB90E0E8E8A5
:10383000FAE0C9CF992781309105C1F0009759F07E
:10384000029709F0ABC0E1EDFBE0E4918E2F90E030
:10385000E1EDFBE007C0E3E1FCE0E4918E2F90E0B6
:10386000E3E1FCE0009709F499C0ADCFE9EEFBE09D
:10387000E4918E2F90E0E9EEFBE0F4CF4115510585
:1038800071F04130510509F089C089E090E0EFEA1C
:10389000FBE099CF82E190E0EFEBFBE094CF89E091
:1038A00090E0E6E9FBE08FCF80E490E0E4E4FBE029
:1038B0008ACF80913006882309F466CF853009F4D9
:1038C00063CF8091E80083FD5FCF8091E80082FDA7
:1038D0008ECF8091E80080FF84CF9091F30080919B
:1038E000F2002115310519F08830910550F041E0C2
:1038F000089709F040E08091E8008E778093E80017
:1039000070CF44914093F1003196215031090196D6
:10391000E8CF803809F042C08091E800877F80932B
:10392000E800809131068093F1009ECE811136C06F
:1039300010913406123090F58091E800877F8093D3
:10394000E800109331060E94A506112311F084E0CF
:1039500005C08091E30087FDFACF81E080933006B7
:1039600042E061EC81E00E94C40642E261EC82E048
:103970000E94C40613C080913406813079F481E03E
:10398000933009F080E080932F061092E900809137
:10399000E800877F8093E8000E94A5068091E800F8
:1039A00083FF0AC08091E800877F8093E8008091C0
:1039B000EB0080628093EB00AA960FB6F894DEBF0E
:1039C0000FBECDBFDF91CF911F9108951F920F922F
:1039D0000FB60F9211242F933F934F935F936F93E2
:1039E0007F938F939F93AF93BF93CF93DF93EF9387
:1039F000FF93D091E900DF708091EC00C82FC17077
:103A000080FDC0E81092E9008091F000877F8093EC
:103A1000F00078940E942D1A1092E9008091F00035
:103A200088608093F000CD2BCF70C093E900FF91A8
:103A3000EF91DF91CF91BF91AF919F918F917F9146
:103A40006F915F914F913F912F910F900FBE0F900B
:103A50001F9018951F920F920FB60F9211242F935B
:103A60003F934F935F936F937F938F939F93AF9306
:103A7000BF93EF93FF938091E10082FF09C0809193
:103A8000E20082FF05C08091E1008B7F8093E1001E
:103A90008091DA0080FF24C08091D80080FF20C090
:103AA0008091DA008E7F8093DA008091D90080FFC8
:103AB000A1C080E189BD82E189BD09B400FEFDCFCE
:103AC00081E08093300680910A06811109C00E942E
:103AD0002B060E94F6068091E20084608093E2004B
:103AE0008091E10080FF17C08091E20080FF13C049
:103AF0008091E2008E7F8093E2008091E2008061FD
:103B00008093E2008091D80080628093D80019BC35
:103B100085E0809330068091E10084FF2FC0809182
:103B2000E20084FF2BC080E189BD82E189BD89B5B7
:103B3000982F917080FFFBCF8091D8008F7D80936C
:103B4000D8008091E1008F7E8093E1008091E200B7
:103B50008F7E8093E2008091E20081608093E2009A
:103B600080913106882309F44BC084E080933006AD
:103B70000E94181A0E94660A10920B068091E100BA
:103B800083FF27C08091E20083FF23C08091E10082
:103B9000877F8093E10082E08093300610923106A7
:103BA0008091E1008E7F8093E1008091E2008E7F22
:103BB0008093E2008091E20080618093E20042E025
:103BC00060E080E00E94C4068091F00088608093ED
:103BD000F000FF91EF91BF91AF919F918F917F91F5
:103BE0006F915F914F913F912F910F900FBE0F906A
:103BF0001F90189519BC1092300610920A0670CFCB
:103C00008091E30087FD93E090933006B1CF882345
:103C100009F459C0823871F40E94660A81FF53C0CA
:103C200089E30E946E090E94FE0889E30E9443090D
:103C30000C94FE08833859F40E94660A80FF43C042
:103C400083E50E946E090E94FE0883E5EFCF843869
:103C500059F40E94660A82FF36C087E40E946E090A
:103C60000E94FE0887E4E2CF9CEF980F913AF0F2B1
:103C700090E2980F983088F4877021E030E0A90135
:103C800002C0440F551F8A95E2F7CA0180959091B2
:103C9000B30589238093B305CBCF9BE5980F933071
:103CA00020F490E080E00C94430A98E5980F973157
:103CB00020F490E080E00C942D0A803F20F00E94D8
:103CC000B8070C9462190895CF93DF93EC010E941A
:103CD000071ECE01805E9109089720F063E07AE02C
:103CE000209711F468E17AE0CE01DF91CF910C9436
:103CF000F611CF93C82F882309F4AEC08238C1F4DF
:103D00000E94660A81FDA8C089E30E946E090E9494
:103D1000FE082FEF81EE94E0215080409040E1F7C3
:103D200000C0000089E30E944309CF910C94FE0873
:103D30008338A1F40E94660A80FD8EC083E50E944C
:103D40006E090E94FE082FEF81EE94E02150804022
:103D50009040E1F700C0000083E5E5CF8438A1F48E
:103D60000E94660A82FD78C087E40E946E090E9464
:103D7000FE082FEF81EE94E0215080409040E1F763
:103D800000C0000087E4CFCF8CEF8C0F813A88F51C
:103D900080911401882301F18091D70587FF1CC011
:103DA000EC2FE695E695E695F0E0EE55FC4F828126
:103DB00090E04C2F477021E030E002C0220F331F0B
:103DC0004A95E2F782239323892B79F08C2F0E9466
:103DD00043090E94FE0809C0E4EAF3E08191C81794
:103DE000A9F323E0EA3AF207C9F78C2F0E946E0983
:103DF0009CCF80E28C0F883068F4C77021E030E0FF
:103E000001C0220FCA95EAF78091B305822B8093F7
:103E1000B3058BCFEBE5EC0FE33040F4F0E0E45773
:103E2000FD4F808190E0CF910C94430AE8E5EC0FC0
:103E3000E73150F4F0E0EE0FFF1FE157FD4F8081B6
:103E40009181CF910C942D0AC03F30F08C2F0E94AD
:103E50008108CF910C946219CF910895CF93C82F08
:103E60000E94791EC93349F42FEF87EE93E0215069
:103E700080409040E1F700C000008C2FCF910C945F
:103E8000071E0F931F93CF93DF93C62FD42F022FBC
:103E9000FC0182818823A1F060933C060E945619A0
:103EA00090933B0680933A06C77081E001C0880F6B
:103EB000CA95EAF7DF91CF911F910F910C94230AD5
:103EC00080913C06681335C080913A0690913B067C
:103ED0000E94E908883C910560F510E21D0FCD179E
:103EE000B9F080E28C0F883040F4C77081E001C0E7
:103EF000880FCA95EAF70E94180A183048F481E042
:103F00009D2F977001C0880F9A95EAF70E94230AA7
:103F1000802F0E942E1F183098F4D77081E001C0C6
:103F2000880FDA95EAF7DF91CF911F910F910C94EA
:103F3000180AC77081E001C0880FCA95EAF7F3CF6D
:103F4000DF91CF911F910F910895CF93DF93EC01F3
:103F5000805E9109089720F06EE07AE0209711F4D6
:103F600063E27AE0CE010E94F6118C2FDF91CF91AF
:103F70000C94791E8F929F92AF92BF92EF92FF9214
:103F80000F931F93CF93DF934B015C018CE1E82EDD
:103F9000F12C07E010E0C1E0D501C4010E2C04C0F3
:103FA000B695A795979587950A94D2F78F7011F5D6
:103FB000C11108C087E290E00E94A51F87E290E04F
:103FC0000E94641E0150110984E0E81AF1080F3FB5
:103FD000100759F4DF91CF911F910F91FF90EF904F
:103FE000BF90AF909F908F90089504301105A4F674
:103FF000C0E0D2CFC82FD0E08A3048F46D96CE0111
:104000000E94A51FCE010E94641EC0E0DBCF269750
:10401000F6CF4F925F926F927F928F929F92AF9264
:10402000BF92CF92DF92EF92FF920F931F93CF93A5
:10403000DF9300D000D00F92CDB7DEB77C01FC013A
:1040400083819481892B39F01081D180812F8D213A
:104050008F3F09F02DC70F900F900F900F900F908A
:10406000DF91CF911F910F91FF90EF90DF90CF9054
:10407000BF90AF909F908F907F906F905F904F9088
:1040800008950E943911082F682F89819A810E9412
:10409000CB09E12FF0E026E0D29EE00DF11D1124C6
:1040A00034E5039FE00DF11D1124EE0FFF1FE051D9
:1040B000FA4F05911491F70182810932FDE51F073E
:1040C00009F44BC00A322DE5120709F489C1033CFB
:1040D0003CE5130709F07CC08823E9F090911701B3
:1040E0008091C5059F3F09F09AC1109217018F7EFC
:1040F0008093C50540E060E080E00E94C90A4091DD
:10410000C5055091C6056091C7057091C8058FE03F
:1041100090E00E9467318091B005877009F49BCFD1
:10412000F7018281882309F496CF82E00F900F90E7
:104130000F900F900F90DF91CF911F910F91FF90F3
:10414000EF90DF90CF90BF90AF909F908F907F9037
:104150006F905F904F900C94D5198823C9F180918E
:10416000C50591E0980F9770887F953008F4892BEA
:104170008093C5058091C5058770EFEF8E9FC001C4
:104180001124959587959595879599279093890002
:104190008093880090938B0080938A0090938D0089
:1041A00080938C004091C5055091C6056091C7056C
:1041B0007091C8058FE090E00E9467316091D90549
:1041C0007091DA058091DB059091DC050E9417144F
:1041D000F7018281882379F08091B3058272013ED4
:1041E000FCE51F0709F434C108F020C1003E3CE59E
:1041F000130709F429C117FF62C1F70182818823DF
:1042000009F4A3C068010115F0EC1F0708F426C1EA
:1042100020ECD21A8091B2059091B305892B909130
:10422000B405892B8272BB24B394811101C0B12CD7
:104230000E94590A86958170B81629F0CC0CCD2CB5
:10424000CC1CDD08D194E894C7F8DD24F601EE0F0C
:10425000FF1FEE0FFF1FE456FA4F85909590A59033
:10426000B4908114910481E1A806B10408F06DC0F6
:104270008114910491E0A906B10428F08091C10550
:10428000823009F462C00E94590A86958170809339
:104290003C059091C105913029F4882319F089E3F8
:1042A0000E942E1F8091B30580933B051092B305A9
:1042B0008091C105813009F4D8C0882309F4D1C0A8
:1042C000823009F4DBC0843009F4DFC0EFE3FCE99D
:1042D0003197F1F700C0000081149104F1E0AF06BE
:1042E000B10408F4D7C08091C1058111D3C021E089
:1042F000A21AB108C501B401EAE0969587957795B1
:104300006795EA95D1F778528F4F9F4F0E94BA1F59
:1043100033E09322AA24BB24C501B40174528F4F09
:104320009F4F0E94BA1F8091C105813009F4B9C026
:10433000882309F4B2C0823009F4AFC0843009F494
:10434000BCC080913B058093B305F701928199230E
:1043500009F4BFC510923C060230FCE51F0708F4C3
:10436000C4C506312CE5120738F098012B5F3C4597
:104370002930310508F0B9C50E9471149093D80511
:104380008093D70500313CE5130709F47FC108F09D
:104390000DC108309CE5190709F46EC108F0DCC0B6
:1043A0000430FCE51F0709F45FC108F0C2C0023009
:1043B0003CE5130709F44EC103301C4509F450C114
:1043C0006091D7051091D80584E090E00E945531A6
:1043D000612F81E290E00E9455310E94181A9BCE15
:1043E000882309F4F5CE9091C505892F877F93FF27
:1043F00088608093C50583FF05C040E060E080E0F1
:104400000E94C90A4091C5055091C6056091C70533
:104410007091C8058FE090E00E946731D9CE9FEF80
:104420009093170180618093C50569CE073E8CE5A6
:10443000180708F0E0CE6EE1600F6093C1058CE0D4
:1044400090E00E945531D7CE811104C081E003C0B5
:104450008111FCCF8FEF0E947215CDCE30E8D31AB8
:10446000F5CE82EE0E94791E31CF88E193E00E9462
:10447000A51F88E193E00E94641E28CF82EE0E946F
:10448000791E87E50E942E1F21CF86EE0E942E1FE7
:1044900088E1F8CFC501B40144CF82EE0E94071E27
:1044A00050CF8CE20E942E1F80913C05882309F496
:1044B00048CF89E30E942E1F44CF88E2FBCF043F00
:1044C0008CE5180739F188F4093DECE51E07F1F099
:1044D0000A3DFCE51F0751F1083D2CE5120709F0E4
:1044E00034CF26E241EE61EE0DC0063F3CE51307F6
:1044F000C9F0A0F027E245EE66EE073F9CE51907FC
:1045000009F023CFC7010E94411F05CE27E245EEE7
:1045100065EEF8CF26E241EE60EEF4CF27E245EEFD
:1045200064EEF0CF26E241EE62EEECCF28E241E00D
:10453000EFCF8091D705806106309CE5190709F41B
:104540008CC08091D705886007301C4508F485C071
:104550008091D705806281C08091D7058D7F0C3016
:10456000FCE51F0709F479C070F48091D7058C60D1
:104570000A303CE5130709F470C008F481C080914B
:10458000D7058E7F6AC08091D705877F0E309CE566
:10459000190709F462C08091D7058B7F0F301C4545
:1045A00008F45BC08091D7058F7E57C00C3FFCE5B7
:1045B0001F0709F45DC030F503313CE5130709F42A
:1045C0006DC078F401319CE5190709F463C002312C
:1045D0001C4509F0F5CE0E94181A8091D7058F77F7
:1045E0003CC00531FCE51F0709F460C008F474C045
:1045F0008091D80581600B3F1C4509F0E1CE809386
:10460000D805DECE01158DE5180709F44BC088F4F6
:104610008091D8058D7F0E3FECE51E0781F38091D8
:10462000D8058E7F0F3F1C4550F38091D8058360DD
:10463000E6CF02302DE5120709F457C008F442C056
:1046400060E003301D4509F0BBCE8EE090E00E9493
:104650005531B6CE8091D70581608093D705B0CE15
:104660008091D7058260F9CF8091D7058460F5CF1E
:104670008091D8058260C3CF8091D7058064EDCF4B
:104680000E94181A8091D7058068E7CF8091D705DE
:104690008F7DE3CF8091D7058F7BDFCF8091D705CA
:1046A000837FDBCF8091D8058C7FA9CF8091D70500
:1046B00082FB992790F921E0922790FB82F990FBE9
:1046C00083F9CBCF8091D805982F909591708E7FEC
:1046D000892B90FB81F993CF0E94181A9091D705EE
:1046E000892F97FB87F98058B8CF61E0AECF85E37B
:1046F0000CC485E3F7C3992309F460C08091B30526
:104700008272F801E35CFC45E431F10508F04DC02C
:10471000E659FB4C0C941B318091410691E08927AE
:1047200080934106109215010E946F17F4CC4DE85A
:1047300057E166E977E10E94720AEDCC46E957E15C
:104740006DE877E1F8CF4DED57E166EE77E1F3CF15
:1047500046EE57E16DED77E1EECF45EC57E161EDC7
:1047600077E1E9CF41ED57E165EC77E1E4CF4DEA40
:1047700057E169EB77E1DFCF49EB57E16DEA77E18C
:10478000DACF49EF57E16FEE77E1D5CF4FEE57E142
:1047900069EF77E1D0CF81E00E947717BCCC84E04D
:1047A000FBCF8CE0F9CF81E1F7CF0115ECE51E07D7
:1047B00009F44EC00F3D1C4509F487C0F701008184
:1047C0001181992309F484C0C8010E943911D82E9F
:1047D000682FC8010E94CB09B8018D2D0E94960F49
:1047E000082FD92EB82EF701C580C2947FE0C722CA
:1047F000128111111092B2058091B0058770C1F03D
:104800001123B1F08D2D807F803449F090E2900F1C
:10481000983070F0803619F4F6EFBF1649F082E058
:104820000E94D5198091B0058770AA24A3948111A4
:10483000A12C9D2C92945FE095226BE0462E4914AA
:1048400008F481C0E92DF0E0E258FB4C0C941B31D8
:104850000E94181A2FEF34E38CE021503040804042
:10486000E1F700C00000F89481E08093E00080E26E
:104870008093D8001092C900EFE1FEE43197F1F780
:1048800000C000001DBA109268001CBC10BE1FBA08
:1048900010927A0010926E0010926F0010927100C8
:1048A000109272001092C9001092BC0014B817B890
:1048B0001AB81DB810BA1092BC0015B818B81BB8B9
:1048C0001EB811BA0C94003F26CC0E947B1523CC55
:1048D000C8010E94A209D82E7FCF2D2D2F70C22E85
:1048E0008D2D807F19F0C29440EFC4221123C9F0AE
:1048F000CC2069F080E2800F883010F0B1100BC03E
:104900008091B305C82AC092B3050E94FE08802F8B
:104910000E94791E18C08091B205C82AC092B205C3
:10492000F4CF802F0E94071ECC2069F0C094005E57
:10493000083010F0B11057C08091B305C822C09262
:10494000B3050E94FE08292D2850330B2430310571
:1049500010F40E94660A112379F08D2D807F803635
:1049600019F436EFB31641F080913E05823009F01C
:1049700097C283E080933E05AA20A9F08091B005FC
:1049800080FD11C0F70112828595859585950E945D
:10499000ED19C7010E9409208091B0058595859584
:1049A00085950E94B21985E0F701DE01119601900C
:1049B0000D928A95E1F789819A810E94A2099A81D4
:1049C000E981F0E026E0929FE00DF11D112434E52D
:1049D000839FE00DF11D1124EE0FFF1FE051FA4FF0
:1049E0008591949138CB8091B205C822C092B205CE
:1049F000A8CF3D2D3F70832E8D2D807F803219F002
:104A0000829430EF8322BB2041F081E0B81631F16F
:104A1000112381F1CC2049F17ACF112391F09091AB
:104A2000B405882D892BC11003C00E94230A8BCFA7
:104A3000E1E0CE12FACF981709F485CF8093B40540
:104A400082CFC11006C00E94F808882D0E94180A63
:104A50007ACFF1E0CF1609F476CFF5CF112339F0F4
:104A6000442443944C1408F46ECF882DDECFC1103B
:104A70006ACFEBCFCC2049F329E3522EB51009C001
:104A80002FEF37EE83E0215030408040E1F700C047
:104A90000000802F0E94071E56CF8D2D869586958B
:104AA000837069F0813009F04ECF802F9D2D937077
:104AB000111102C090E080E00E942D0A44CF802FA7
:104AC0009D2D9370111102C090E080E00E94430A76
:104AD0003ACF802F112329F00E9481080E94621989
:104AE00032CF0E94B807FACF8D2D837009F067C0CE
:104AF000111129CF202F229526952770220F220FE2
:104B0000402F4F7050E070E060E0022E04C0440F70
:104B1000551F661F771F0A94D2F780E090E0DC01F2
:104B200004FF0FC08FE090E0A0E0B0E004C0880F69
:104B3000991FAA1FBB1F2A95D2F780959095A09523
:104B4000B0952D2D269526952370223029F1D8F485
:104B50004090B5055090B6056090B7057090B805C7
:104B6000213069F0842B952BA62BB72BBC01CD01EE
:104B700064217521862197210E940E1AE4CE4429D2
:104B80005529662977292A013B01482A592A6A2A88
:104B90007B2AC301B201F0CF842B952BA62BB72B18
:104BA0004090B5055090B6056090B7057090B80577
:104BB000BC01CD016425752586259725DDCF869519
:104BC000112311F08D2D8170882309F4BCCE202F84
:104BD000229526952770220F220F402F4F7050E00C
:104BE00070E060E0022E04C0440F551F661F771F5F
:104BF0000A94D2F780E090E0DC0104FF0FC08FE060
:104C000090E0A0E0B0E004C0880F991FAA1FBB1F6E
:104C10002A95D2F780959095A095B0952D2D269543
:104C200026952370223029F1D8F44090D905509070
:104C3000DA056090DB057090DC05213069F0842B8B
:104C4000952BA62BB72BBC01CD01642175218621A4
:104C500097210E94A61977CE4429552966297729DC
:104C60002A013B01482A592A6A2A7B2AC301B20138
:104C7000F0CF842B952BA62BB72B4090D9055090C5
:104C8000DA056090DB057090DC05BC01CD01642580
:104C9000752586259725DDCF2D2D2F70C22E11234A
:104CA00029F0822F0E94ED19802FBFCE802F0E9405
:104CB000180A8C2D0E94B21946CE802F32EFB316FF
:104CC00009F452C03B1578F090EFB91629F1E1EFE5
:104CD000BE1609F441C0112309F46AC0C11017CEF1
:104CE0008D2D8F713EC0F3EFBF1609F442C094EFD3
:104CF000492EB410F0CF112309F44FC00D2D0F71C0
:104D0000802F0E94ED1928E0029FC00111248360CA
:104D10008093B005802F25C01123C1F0C11013CEA0
:104D20002D2D2F7161E070E080E090E004C0660FEF
:104D3000771F881F991F2A95D2F74090D905509068
:104D4000DA056090DB057090DC05A1CF5524539403
:104D50005C1408F4F8CDE4CF8D2D8F71112309F484
:104D6000A9CF0E94ED19EFCD8D2D8F711123C9F3BD
:104D7000A1CF60E070E0CB01112309F46ACF2D2DA3
:104D80002F7161E070E080E090E004C0660F771F53
:104D9000881F991F2A95D2F75CCF81E00E94D51910
:104DA00031E03C1508F0CFCD82E00E94D519CBCD83
:104DB000CC2059F0893309F06CCE8FEF97EEE3E009
:104DC00081509040E040E1F762CE8D2D8F7172CF1F
:104DD000E0E1E00FE73008F03EC0F0E0E657FB4CC2
:104DE0000C941B31112309F4AECD8091400591E064
:104DF000892780934005A7CD10934005A4CD81E07D
:104E00008127F7CF11119FCD81E0F3CF11119BCDF9
:104E10001092400598CD112321F082E080933E0549
:104E2000F3CF80913E05823021F481E080933E05EE
:104E30008ACD833009F087CD10923E05E9CF11234A
:104E400039F080913F05882381F210923F057BCD98
:104E5000CC2059F278CD80913F05CC20A9F0882351
:104E600041F08091400591E08927809340051092A0
:104E70003F05802F11114CCD0E94071E86E0F701DF
:104E800011928A95E9F75FCD882309F45CCD111161
:104E90005ACD8091400591E0892780934005D5CF78
:104EA000813009F069CD10923E051092400564CD25
:104EB00085E0DE01119601900D928A95E1F7F701E8
:104EC000228189819A812111DCC80E94A209082FC0
:104ED000E0C806311C4509F071CC80913D05811177
:104EE00008CC89E20E94430912C006312CE5120762
:104EF00009F001CC8091B3058A7A91E009F490E041
:104F000090933D058111F3CB89E20E946E090E94C6
:104F1000FE0801C91F93CF93DF9380914605807FE0
:104F2000A9F480914305882389F080917805D09178
:104F300047056091410570914205A0914405B091EB
:104F40004505C62FC72316E0D81304C0DF91CF91C3
:104F50001F91089590E0109711F0CF3F19F401963A
:104F60008770F2CF189F9001199F300D1124F9011D
:104F7000E85BFA4F41814713F2CF40814613EFCFF0
:104F800042814111ECCF438154814A1B5B0B483C69
:104F9000510528F7809146058F7080618093460502
:104FA000F901E35BFA4F80818F708061808381E437
:104FB00095E00E940920DF91CF911F910C94F9098F
:104FC000AF92BF92CF92DF92EF92FF920F931F9317
:104FD000CF93DF93CDB7DEB761970FB6F894DEBFFE
:104FE0000FBECDBF8C0185E0F801DE011D9601905A
:104FF0000D928A95E1F7F80180819181E28021E4A8
:10500000A22E25E0B22E60914405709145056115F0
:10501000710509F43EC13091410540914205232FAD
:1050200024232F3F09F435C1C380D480F090430579
:10503000F601E61BF70BFF2009F4FBC020914605A3
:10504000522F507FE83CF10508F0BBC0511178C0E9
:10505000FE2C491321C038131FC0E1101DC02F7052
:10506000206120934605C5010E94092080914605D4
:10507000F80185838F2D61960FB6F894DEBF0FBEC1
:10508000CDBFDF91CF911F910F91FF90EF90DF90F7
:10509000CF90BF90AF900895CD2829F0282F2923D5
:1050A0002F3F09F022C120E0F22FF170DF2E20FF08
:1050B0003DC0209178054091470556E0241315C066
:1050C0008D879E878D859E850E947B11292F229535
:1050D0002F702230F8F0243020F59F70F9F0F8019D
:1050E0009581907FD9F4D12C1FC030E0529FF00100
:1050F000539FF00D1124E85BFA4F6181961306C0AF
:105100006081861303C06281E61210C02F5F3F4F9B
:105110002770D4CF9F7011F0882329F3805E8830E8
:1051200010F3C8010E940920FD2CA4CFEE2009F441
:10513000A1CF80914605816080934605F12C9ACFDE
:10514000491312C0381310C0E1100EC0F8012583B6
:10515000C8010E94092086E0F801A1E4B5E00190B1
:105160000D928A95E1F786CF8D879E878D859E85E6
:105170000E948511882309F1EE20F9F080914605FF
:10518000803270F0209141053091420538872F839D
:105190001986DB86CA868C87CE0107960E94092075
:1051A00086E0F801A1E4B5E001900D928A95E1F75F
:1051B0000E948A27FF24F3945DCFC8010E94092032
:1051C000F9CF51110AC081E495E00E94092086E0E0
:1051D000F50111928A95E9F7B1CF49130FC0381341
:1051E0000DC0E1100BC0F8012583C8010E94092001
:1051F00086E0F50111928A95E9F73CCF8D879E876D
:105200008D859E850E9485118823B9F2EE20A9F232
:1052100080914605803220F220914105309142056F
:105220003A8329831B82DD82CC828E83CE01019654
:10523000B5CFE83CF105E0F6FE2CEE2009F4BDCF39
:10524000491316C0381314C08091460580FD83CFE2
:10525000982F907F09F47FCFF8018583903F09F460
:1052600077CF982F907F905F8F70892B858370CF39
:105270008D879E878D859E850E948511811190CF97
:1052800080914605816080934605C8010E940920EF
:10529000F1CEEE2009F491CF8D879E878D859E8576
:1052A0000E948511F82E882309F487CF86E0F80143
:1052B000A1E4B5E001900D928A95E1F78091410556
:1052C000909142050E947B1192959F70963051F407
:1052D000863F41F08091400591E089278093400509
:1052E00090933F050E948A27C5CE21E02E25DCCE73
:1052F0001F93CF93DF93CDB7DEB767970FB6F894C0
:10530000DEBF0FBECDBF6D8B7E8B8F8B8E899F894D
:10531000892BD9F0842F85238F3F09F098C05FEF48
:105320004FEF13C0309140053323E1F1E42FF0E05B
:1053300036E0539FE00DF11D1124EE0FFF1FEC51DD
:10534000FE4F40815181822B8C931A8A198A4B8B94
:105350005C8B85E0FE017396DE011D9601900D9237
:105360008A95E1F786E0FE013D96DE0117960190F1
:105370000D928A95E1F7CE0107960E94E0278823D7
:10538000A1F016E0809178059091470589134CC0F3
:1053900067960FB6F894DEBF0FBECDBFDF91CF91F9
:1053A0001F91089580958223CFCF86E0FE01379626
:1053B000DE01119601900D928A95E1F78A859B8511
:1053C000892BF9F288859F8189238F3FD1F2209123
:1053D000470530E0C901019687709927409178050B
:1053E0004817190671F40E94181A10924705109276
:1053F000780586E0E1E4F5E0DF011D928A95E9F7A2
:10540000C0CF96E0929FD001939FB00D1124A85B6E
:10541000BA4FFE01319601900D929A95E1F7809373
:1054200047050E94F909ADCF819FC0011124885B17
:105430009A4F0E94E027882309F4AACF809178052B
:1054400090E0019687709927809378059BCF81E043
:1054500090E0042E01C0880F0A94EAF7A52FB0E06F
:10546000A35DBA4F2C913D8931115CCF322F382387
:105470005BCF8F929F92BF92CF92DF92EF92FF927B
:105480000F931F93CF93DF938091080190910901AF
:10549000892BA1F08091C3038F5F8093C303811197
:1054A0000DC00E94301890E090930901809308018C
:1054B000892B21F40E941B150E94141829EC822EBE
:1054C00025E0922E740100E010E097E0C92EC10E95
:1054D000812F0E94A7188C2D0E94A718812F0E944F
:1054E000FB18E70199917E01D12C891729F0FE0163
:1054F00031978083DD24D3948C2D0E94FB18F70113
:105500009681891709F47AC0868381E08D29082B5A
:105510000E9455141F5F1730C1F60E945619609102
:10552000C5037091C6039093C6038093C503209171
:10553000C40330E0261B370B820F931F6BEF70E024
:105540000E94F330E82E392F182F8093C403F09077
:10555000C803FF2009F448C21092C803E091BE05B9
:10556000F091BF05AF01425F5F4F20E08BEFB82E97
:105570006BEF70E0A191AB3F99F0CA2ED12C8E2D2C
:10558000932F1A17E8F18C199D09092E000CAA0B0C
:10559000BB0B4E97A105B105C8F1DF011197BC9275
:1055A000E417F50739F72093C803011102C0211150
:1055B0001DC21092C703A091BE05B091BF05909186
:1055C000C803E0EEF5E080E03191E40129914E015D
:1055D000321751F03C913B3FD9F41C93AF0141503D
:1055E0005109EA01288391E01196D5E0EE3EFD07CE
:1055F00059F79093C8038093C703FCC180E086CF1E
:10560000DB01AC19BD098A0F9B1FBFCF2F2DC8CF5F
:1056100081E0EACF1092160140933D0650933E067A
:1056200060933F067093400681E08093150110C29D
:1056300080910701181316C0909141069370209134
:10564000060130E081E09217130609F480E08170D2
:1056500080931801163178F4E12FF0E0EF56FB4CFF
:105660000C941B3181E0F3CF882341F140E060E0EE
:1056700080E00E94C90A80E021C080911601C82FF5
:10568000CC0FCC0FC80FD5E0FD2EFC0EEF2CE0E3C5
:10569000EF1510F4B0E3EB2E6091420670914306D3
:1056A000809144060E943A0DD62EC72EB82ED0E027
:1056B000CE1580F181E02FE22F15E8F290911601CE
:1056C0009F5F90931601811142C182E08093150182
:1056D0008091180181113BC1112309F465C18091AA
:1056E0000B068111B5C18091C50583FDB1C16091E3
:1056F000D9057091DA058091DB059091DC050E9457
:10570000A911873008F03EC1E82FF0E0E955FB4CC5
:105710000C941B31FE01EF58FC4F808190911701D2
:10572000892331F02B2D4D2D6C2DCE010E94CB0AFB
:105730002196BECF80911601C82FCC0FCC0FC80F79
:10574000A5E0FA2EFC0EDF2C30E33F1510F4F0E359
:10575000DF2EC0904306B090440620914506E0E459
:10576000EE2E3E2D329F312D1124E32ED0E0CD15AB
:1057700030F081E09FE29F1508F0A0CF7CCFFE01C2
:10578000EF58FC4F8081909117018923B9F0FE01F9
:10579000EE0FFF1FEE5EFC4F808182958F7060914F
:1057A00042068E9D600D11247C2D8B2D0E943A0D9A
:1057B000462F282F672FCE010E94CB0A2196D7CFE4
:1057C00080911601C82FCC0FCC0FC80F65E0F62EC4
:1057D000FC0EDF2CD0E3DF1510F450E3D52EC09083
:1057E0004306B09044062091450640E4E42E3E2D49
:1057F000329F312D1124E32ED0E0CD1508F0B9CF22
:10580000FE01EF58FC4F8081909117018923D9F058
:10581000FE01EE0FFF1FEF5EFC4F6081E69EB001C0
:10582000112435E0759567953A95E1F78091420628
:10583000680F7C2D8B2D0E943A0D462F282F672F45
:10584000CE010E94CB0A2196D8CF80911601C82F95
:10585000CC0FCC0FC80F95E0F92EFC0EEF2CD0E347
:10586000DF1510F480E3E82ED0904206D091430675
:10587000C090440660914506669566956695809150
:105880003D0690913E060E94300D0E94B90C805852
:1058900087FD8195880F282F3C2D239F212D1124D2
:1058A000822F6D2D7D2F0E943A0DD62EC72EB82E39
:1058B000D0E0CE1508F05DCFFE01EF58FC4F80819F
:1058C00090911701892331F02B2D4D2D6C2DCE0198
:1058D0000E94CB0A2196EDCF84EC9BE00E94090F39
:1058E000EDCE8AE99BE0FACF8BE99CE00E94AD0EF9
:1058F000E5CE8CE79CE0FACF81E69CE00E94300E7A
:10590000DDCE85E49CE0FACF88E99BE0E7CF8FE825
:105910009BE0E4CF86E89BE0E1CF8DE69BE0DECF25
:105920008FE59BE0EBCF88E09DE0E0CF84E39CE057
:10593000DDCF80E29CE0E2CF82E39BE00E94CE0DCF
:10594000BDCE84E09BE0FACF8DEC9AE0F7CF112337
:1059500009F47EC0C4CE90E080E00E94A01278C01E
:1059600081E090E0FACF82E090E0F7CF83E090E032
:10597000F4CF84E090E0F1CF85E090E0EECF86E0D8
:1059800090E0EBCF80911701811162C040E060E0B0
:105990000E94C90A5DC0109307018091410683707F
:1059A000809306010E941B1683E03FCE40913D0686
:1059B00050913E0660913F06709140062FB7F894D3
:1059C0008091B9059091BA05A091BB05B091BC0535
:1059D0002FBF841B950BA60BB70B4A97A105B105EA
:1059E000B8F11092150134C00111E3CD8091C703C5
:1059F0008111DFCD8FB7F8944091B9055091BA0568
:105A00006091BB057091BC058FBF4093C903509353
:105A1000CA036093CB037093CC0380910B0610E014
:105A2000811108C080914106182F137019F0182FAA
:105A30001695169580911501813009F4F9CD8823CA
:105A400009F4E8CD823009F4A6CF833009F4AECF53
:105A5000802FDF91CF911F910F91FF90EF90DF90FA
:105A6000CF90BF909F908F900895CDB7DEB760978D
:105A70000FB6F894DEBF0FBECDBF84B7877F84BF5B
:105A80000FB6F894A89580916000886180936000BB
:105A9000109260000FBE80E890E00FB6F8948093FB
:105AA0006100909361000FBE85B7806885BF85B7A0
:105AB000806885BF0E942B060E94F6068091E20056
:105AC00084608093E2007894809130068823A1F06E
:105AD0001091E9001F709091EC00892F817090FD6A
