:100000000C9413090C9430090C9430090C943009A9
:100010000C9430090C9430090C9430090C9430097C
:100020000C9430090C9430090C9499200C94BD2444
:100030000C9426300C9430090C9430090C9430093F
:100040000C9430090C9430090C9430090C9430094C
:100050000C9430090C9472210C9430090C943009E2
:100060000C9430090C9430090C9430090C9430092C
:100070000C9430090C9430090C9430090C9430091C
:100080000C9430090C9430090C9430090C9430090C
:100090000C9430090C9430090C9430090C943009FC
:1000A0000C9430090C9430090C9430090501098036
:1000B000A101850319012AB700150126B700950192
:1000C00075108100C0050C0901A101850419012AE0
:1000D000A002150126A002950175108100C005013E
:1000E0000906A1018506050719E029E71500250184
:1000F0009508750181020507190029EF15002501F2
:1001000095F075018102050819012905950575010C
:100110009102950175039101C005010902A1010930
:1001200001A1000509190129081500250195087587
:100130000181020501093009311581257F9502757C
:1001400008810609381581257F9501750881060506
:100150000C0A38021581257F950175088106C0C0FB
:1001600005010906A101050719E029E71500250188
:10017000950875018102950175088101050719002F
:1001800029FF150026FF009506750881000508194E
:10019000012905950575019102950175039101C02D
:1001A000AAFFFFAAFFFFAAFFFFAAFFFFAAFFFFAA5D
:1001B000FFFFAAFFFFAAFFFFAAFFFFAAFFFFAAFFF8
:1001C000FFAAFFFFAAFFFFAAFFFFAAFFFFAAFFFFE8
:1001D000AAFFFFAAFFFFAAFFFFAAFFFFAAFFFFAA2D
:1001E000FFFFAAFFFFAAFFFFAAFFFFAAFFFFAAFFC8
:1001F000FFAAFFFFAAFFFF55FFFFAAFFFFAAFFFF0D
:10020000AAFFFFAAFFFFAAFFFFAAFFFFAAFFFFAAFC
:10021000FFFFAAFFFF55FFFF0000FF15FFFF15FFBF
:10022000FF15FFFF55FFFF55FFFF55FFFF55FFFF70
:1002300000000000000000000000000000000000BE
:1002400000000000000000000000000000000000AE
:10025000000000000000000000000000000000009E
:10026000000000000000000000000000000000008E
:10027000000000000000000000000000000000007E
:10028000000000000000000000000000000000006E
:10029000000000000000000000000000000000005E
:1002A000000000000000000000000000000000004E
:1002B0000055FFFF55FFFF55FFFF80FFFF55FFFF74
:1002C00055FFFF55FFFF80FFFF000000AAFFFFAAB8
:1002D000FFFFAAFFFF55FFFF80FFFF55FFFF55FF00
:1002E000FF55FFFF80FFFF0000FFAAFFFFAAFFFFEF
:1002F000AAFFFF55FFFF80FFFF55FFFF55FFFF558A
:10030000FFFF80FFFF000000AAFFFFAAFFFFAAFF78
:10031000FF0000FF000000000000000000000000DF
:1003200055FFFF000000000000000000000000007A
:1003300000000000000000000000000000000000BD
:1003400000000000000000000000000000000000AD
:10035000000000000000000000000000000000009D
:10036000000000000000000000000000000000008D
:10037000000000000000000000000000000000007D
:10038000000000000000000000000000000000006D
:10039000000000000000000000000000000000005D
:1003A000000000000000000000000000000000004D
:1003B00000000000000080FF8080FF8080FF8080C0
:1003C000FF8080FF80EA80FFEA80FFEA80FFEA800A
:1003D000FF00000024FFFFEA80FFEA80FFEA80FFC1
:1003E00080FF8080FF8080FF8080FF8080FF8015FD
:1003F000FFFF24FFFF24FFFF24FFFF24FFFF80FFF8
:100400008000000055FFFF55FFFF000000000000C6
:1004100000000000000000000000000000000000DC
:1004200000000000FF0000FF0000000000000000CE
:1004300000000000000000000000000000000000BC
:1004400000000000000000000000000000000000AC
:10045000000000000000000000000000000000009C
:10046000000000000000000000000000000000008C
:10047000000000000000000000000000000000007C
:10048000000000000000000000000000000000006C
:10049000000000000000000000000000000000005C
:1004A000000000000000000000000000000000004C
:1004B000000000000000000000000000000000003C
:1004C000000000002BFFFF2BFFFF2BFFFF2BFFFF88
:1004D00000000080FFFF7B5A7080FFFF0000FF00DC
:1004E00000002BFFFF2BFFFF2BFFFF2BFFFF000068
:1004F0000024FFFF1EDADA24FFFF000000000000E6
:100500002BFFFF2BFFFF2BFFFF2BFFFF0000000047
:1005100000000000000000000000000000000000DB
:1005200000000000000000000000000000000000CB
:1005300000000000000000000000000000000000BB
:1005400000000000000000000000000000000000AB
:10055000000000000000000000000000000000009B
:10056000000000000000000000000000000000008B
:10057000000000000000000000000000000000007B
:10058000000000000000000000000000000000006B
:10059000000000000000000000000000000000005B
:1005A000000000000000000000000000000000004B
:1005B000000000000000000000000000000000003B
:1005C000000000000000000000000000000000002B
:1005D000000000000000000000000000000000001B
:1005E000000000000000000000000000000000000B
:1005F00000000000000000000000000000000000FB
:1006000000000000000000000000000000000000EA
:1006100000000000000000000000000000000000DA
:1006200000000000000000000000000000000000CA
:1006300000000000000000000000000000000000BA
:1006400000000000000000000000000000000000AA
:10065000000000000000000000000000000000009A
:10066000000000000000000000000000000000008A
:10067000000000000000000000000000000000007A
:10068000000000000000000000000000000000006A
:10069000000000000000000000000000000000005A
:1006A0000000000000000000000000FFFF00FFFF4E
:1006B00000FFFF00FFFF00FFFF000000EA80FF8057
:1006C000FF80EA80FF00000000FFFF00FFFF00FF47
:1006D000FF00FFFF00FFFF00000080FF8080FF8021
:1006E00080FF8000000000FFFF00FFFF00FFFF0011
:1006F000FFFF0000000000000000000000000000FC
:100700000000000000000000FFFF000000000000EB
:1007100000000000000000000000000000000000D9
:1007200000000000000000000000000000000000C9
:1007300000000000000000000000000000000000B9
:1007400000000000000000000000000000000000A9
:100750000000000000000000000000000000000099
:100760000000000000000000000000000000000089
:100770000000000000000000000000000000000079
:100780000000000000000000000000000000000069
:100790000000000000000000000000000055FFFF06
:1007A00055FFFF55FFFF00000055FFFF55FFFF55A8
:1007B000FFFF000000000000AAFFFFAAFFFFAAFF42
:1007C000FF55FFFF55FFFF55FFFF55FFFF55FFFF8B
:1007D00055FFFF000000AAFFFFAAFFFFAAFFFF5579
:1007E000FFFF00000055FFFF55FFFF55FFFF55FFBE
:1007F000FF000000AAFFFFAAFFFFAAFFFF0000FF03
:1008000000000000000055FFFF55FFFF0000000042
:1008100000000000000000000000000000000000D8
:1008200000000000000000000000000000000000C8
:1008300000000000000000000000000000000000B8
:1008400000000000000000000000000000000000A8
:100850000000000000000000000000000000000098
:100860000000000000000000000000000000000088
:100870000000000000000000000000000000000078
:100880000000000000000000000000000000000068
:100890000000000000000000000000000000000058
:1008A00000000000FF00FFFF80FFFF2BFFFF2BFF7A
:1008B000FF00000000000000000000000000000039
:1008C00000FFFF80FFFF80FFFF80FFFF00FFFF00B2
:1008D00000000000000000000000000000002BFFEE
:1008E000FF0000FF0000FF2BFFFF2BFFFF000000B9
:1008F0000000000000000000000000002BFFFF00CF
:100900000000000000EA80FF00000000000000007E
:1009100000000000000000000000000000000000D7
:1009200000000000000000000000000000000000C7
:1009300000000000000000000000000000000000B7
:1009400000000000000000000000000000000000A7
:100950000000000000000000000000000000000097
:100960000000000000000000000000000000000087
:100970000000000000000000000000000000000077
:10098000010128010435307C6767010435307C01A2
:100990000128000103E1010128010435307C476F83
:1009A0006F642047616D6521010435307C010128A9
:1009B0000102E100010128010435307C676C6866A2
:1009C000010435307C01012800390021522B00E15F
:1009D00000225200001E00140004001D00235229B2
:1009E000001F001A0016001B00E0004C0020000849
:1009F0000007000600E3002A002100150009001985
:100A000000E200427E220017000A000500000052AA
:100A100000407E280000002C0000005100417E4C68
:100A20000000002A000000500023001C000B0011F1
:100A30000000004F00240018000D0010002D0000E1
:100A40000025000C000E0036002E002C002600129F
:100A5000000F0037002F0028002700130033003854
:100A60000030002900000000003400215222520012
:100A700000000021522B00000000000000000033A5
:100A80000235023100000029000000240221021E6C
:100A90000200004C000000250222021F0200002A72
:100AA0000000002602230220020000427E000027F0
:100AB000023500310200000000407E280000002CBA
:100AC0000000000000417E4C0000002A00000000F1
:100AD00000000000002B00000000000000000024C7
:100AE0000021001E00560000005400250022001FB7
:100AF0000000002700550026002300200000002CE5
:100B00000056005700630058000000290000000054
:100B1000000000215200000000000000000000E181
:100B200000225200000000141F04081D08000029C4
:100B30000000001A1FD1001B080000000000000880
:100B40001FD30006080000E0000000151FD20019A6
:100B5000080000427E0000171F0A1F051F0000004A
:100B600000407E00000000000000000000417E0008
:100B700000000000000000000000004A00500000DB
:100B8000000000000000004E0051002D0000000099
:100B90000000004B0052002E000000E30000004D5A
:100BA000004F0000005001000000000000E20000C3
:100BB000004F0129000F0A0000000000002252002F
:100BC0000000000000000000000000000000000025
:100BD00000000000002352000000000000AA00AC4A
:100BE000000000000000000000A800AE00000000AF
:100BF0000000000000A900AB000000427E000000E1
:100C0000000A1F000000000000407E0000000000FD
:100C10000000000000417E00000000000000000015
:100C20000000000000000000000000000000003A8A
:100C3000003E0042000000000000003B003F004377
:100C4000000000000000003C0040004400000000E4
:100C50000000003D004100450000000000000000D1
:100C60000000000000000000000000000000000084
:100C70000000000000000000000000000000000074
:100C80000000000000000000000000000000000064
:100C90000000000000000000000000000000000054
:100CA000000000427E000000000000000000000084
:100CB00000407E00000000000000000000417E00B7
:100CC00000000000000000000000001C070B0711DE
:100CD0000700000000240718070D0710072D070064
:100CE0000025070C070E0736072E072C07260712CC
:100CF000070F0737072F0700000000000000000063
:100D000000000000000000000000000000000000E3
:100D100000000029004C000E0C2252000000000EC2
:100D2000030F0800002352280000001E082008D1ED
:100D3000000000160800000C0836003A0000002CE5
:100D4000000000000037003E000000427E00001D51
:100D50000A1D08000000000000407E0000000000A6
:100D60000000000000417E000000000000000000C4
:100D7000000000000000000000000000000000D1A2
:100D800000CF000000000000000000CD00CE0000F9
:100D900000000000000000D200D0000000000000B1
:100DA0000000000000000000000000000000000043
:100DB000000000000000000000000029000408E11D
:100DC000002252000000000F021502000000001671
:100DD000080000160210001B0000004C000000126A
:100DE00000050217001D08E300000012021500189C
:100DF000001C08427E0000000009000C08000000F2
:100E000000407E00000000000000000000417E0065
:100E100000000000000000000000000000000000D2
:100E200000000000000000240021001E000000005F
:100E3000003800250022001F0000002700250226A0
:100E40000023002000000028002D002E0237002A79
:100E50000000002B000000000000000000225200F3
:100E600000460800002B00E100E000000000003A0E
:100E70000019001E001F00290000001400040006D5
:100E8000000000280000001A0016001C0000002CC2
:100E9000000000080007000B001100427E00001552
:100EA000001B00170000000000407E447E0000454B
:100EB0007E00000000417E000000000000000000F5
:100EC0000000000000000000000000000000000022
:100ED0000000000000000000000000000000000012
:100EE0000000000000000000000000000000000002
:100EF00000000000000000000000000000000000F2
:100F000000000000000000000000010101010101DB
:100F100001010102020202020202020203030303B0
:100F20000303030304040404040404050505050580
:100F3000060606060607070707070808080809093E
:100F400009090A0A0A0B0B0B0C0C0C0D0D0D0E0EE9
:100F50000E0F0F0F1010111111121213131414157C
:100F60001516161717181819191A1A1B1B1C1D1DF0
:100F70001E1E1F2020212222232424252626272846
:100F800029292A2B2C2D2D2E2F3031323233343576
:100F9000363738393A3B3C3D3E3F40414243444579
:100FA000464748494A4C4D4E4F5051535455565858
:100FB000595A5B5D5E5F616264656668696B6C6D02
:100FC0006F7072737577787A7B7D7E808283858778
:100FD000888A8C8E8F91939596989A9C9EA0A2A3B6
:100FE000A5A7A9ABADAFB1B3B5B7BABCBEC0C2C4BB
:100FF000C6C9CBCDCFD1D4D6D8DBDDDFE2E4E7E97B
:10100000EBEEF0F3F5F8FAFDFF004434540074649D
:101010008400554565008575950036264600665660
:1010200076009686A600372747007767870038281E
:1010300048008878980039294900695979009989C8
:10104000A9003A2A4A006A5A7A003B2B4B006B5B94
:101050007B004C3C5C007C6C8C005D4D6D008D7D9C
:101060009D003E2E4E006E5E7E0144345401746439
:1010700084015545650185759501362646016656FC
:1010800076019686A60137274701776787013828BA
:101090004801887898013929490169597901998964
:1010A000A9013A2A4A016A5A7A013B2B4B016B5B30
:1010B0007B014C3C5C017C6C8C015D4D6D018D7D38
:1010C0009D013E2E4E016E5E7E090254000301001A
:1010D000A0FA090400000103010100092111010027
:1010E00001224000070581030800010904010001F5
:1010F00003010200092111010001224700070582B6
:101100000308000109040200010300000009211185
:10111000010001226D000705830320000112010078
:101120000200000008973274490100010200011614
:10113000034500720067006F0044006F00780020D4
:101140000045005A00000028035A005300410020C7
:101150000054006500630068006E006F006C006F53
:10116000006700790020004C0061006200730000FD
:10117000000403090400000000000000000000005B
:10118000000000000000000000000000000000005F
:101190000000000000000000007E0F00D4FFFFFFF1
:1011A000C70000007800000000000000002A2B2883
:1011B000000000000000000000000000000000002F
:1011C00029000000002C1E3420212224342627254B
:1011D0002E362D3738271E1F202122232425263383
:1011E00033362E37381F0405060708090A0B0C0D85
:1011F0000E0F101112131415161718191A1B1C1D97
:101200002F3130232D350405060708090A0B0C0D74
:101210000E0F101112131415161718191A1B1C1D76
:101220002F3130354C0011241FBECFEFDAE0DEBF86
:10123000CDBF12E0A0E0B1E0E2E7F0E702C0059028
:101240000D92A035B107D9F725E0A0E5B2E001C0C5
:101250001D92A93BB207E1F70E944D300C94A437D0
:101260000C9400009091AF05937061F081110BC058
:1012700094609093AF05109218018091AE05816043
:101280008093AE0508958F3110F09867F2CF880FE4
:10129000880F982BEECF9091AF05937059F0809303
:1012A000B0056093B1054093B2058091AE058160B1
:1012B0008093AE050895E8EDF0E080818E7F808315
:1012C0001092E2001092DA001092E100A0EEB0E07D
:1012D0008C9181608C9380818F77808319BCA7ED7E
:1012E000B0E08C918E7F8C9380818F7E8083109272
:1012F000780508952091E4003091E50095E6A90174
:101300002091EC00822F817020FF06C08091E800C0
:1013100080FF06C080E008952091E80022FD1AC0F9
:1013200080919D05882389F0853089F08091EB00BC
:1013300085FD0FC02091E4003091E500421753076E
:10134000F9F29150E1F684E0089582E0089583E097
:10135000089581E0089580919F0587FF13C08091D3
:10136000E80082FF06C08091E8008B778093E80058
:1013700004C080919D058111F2CF089580919D0553
:101380008823D9F38091E80080FFF8CF8091E800AE
:101390008E77ECCF982F9093E900242F762F50E092
:1013A000891731F07091EC002091ED005091F00020
:1013B00021FD07C09F5F973071F78093E90081E0BE
:1013C00008953091EB003E7F3093EB003091ED00BB
:1013D0003D7F3093ED003091EB0031603093EB00B6
:1013E0007093EC002093ED005093F0002091EE00FC
:1013F00027FDE0CF80E00895B0E0A0E0E2E0FAE071
:101400000C942834C8EDD0E088818F7E8883E7ED86
:10141000F0E080818160808384E082BF81E08093FE
:10142000780588818E7F888302EE10E0F8011082B3
:101430001092DA0081EEC82ED12CF601108288813C
:101440008F77888388818068888388818F7D88836F
:1014500019BC10929D0510929E0510929C05109249
:101460009B0590EEE92EF12CF70180818B7F808324
:1014700088818160888342E060E080E00E94CA0940
:10148000F60180818E7F8083F80180818160808376
:10149000808188608083F70180818E7F808388814E
:1014A00080618883CDB7DEB7E8E00C944434FC015A
:1014B0008091A5059091A60586179707A0F0611564
:1014C000710529F49091E8009E779093E80090E0F0
:1014D0006115710551F4911108C08091E80082FFF7
:1014E00034C080E00895BC01F2CF80919D0588232F
:1014F000C1F18530C1F18091E80083FD30C0809159
:10150000E80082FDEACF8091E80080FFE1CF809182
:10151000F3002091F200382F6115710519F0283081
:10152000310558F091E02830310509F090E0209124
:10153000E8002E772093E800CBCF81918093F100D3
:10154000615071092F5F3F4FE7CF80919D05882340
:1015500041F0853041F08091E80083FFBECF81E00B
:10156000089582E0089583E0089580917A050895B2
:10157000A3E0B0E0EEEBFAE00C942E3420916F057E
:101580003091700528173907A1F09093700580936A
:101590006F05E0916D05F0916E05309751F024E0F4
:1015A00029839B838A830680F781E02DCE010196F3
:1015B00009952396E2E00C944A34A3E0B0E0E3EE10
:1015C000FAE00C942E3420916B0530916C052817AD
:1015D0003907A1F090936C0580936B05E0916D0540
:1015E000F0916E05309751F023E029839B838A8325
:1015F0000680F781E02DCE01019609952396E2E061
:101600000C944A34E0916D05F0916E05309729F005
:101610000190F081E02D0995089580E00895FA0188
:10162000811101C0FB01099508958093B405809153
:10163000AE0581608093AE050895EFEAF5E0248160
:1016400030E1231B08F420E024838091AE05816003
:101650008093AE050895EFEAF5E0248130E1230F91
:1016600008F42FEF24838091AE0581608093AE054E
:101670000895EFEAF5E0438120E1421B08F440E0E1
:101680008181628190E00E944B090895EFEAF5E0C4
:10169000438120E1420F08F44FEF8181628190E0A5
:1016A0000E944B090895EFEAF5E0628120E1621B98
:1016B00008F460E08181438190E00E944B09089525
:1016C000EFEAF5E0628120E1620F08F46FEF8181BB
:1016D000438190E00E944B090895EFEAF5E0818193
:1016E000438162818850990B0E944B090895EFEA6B
:1016F000F5E0818190E04381628108960E944B0968
:1017000008958091AF0586958695815009F48EE104
:101710000E94320908958091AF05869586958F5F66
:101720008F3108F081E00E94320908958091AF0561
:10173000837011F4109218018091AF058C7F816045
:101740008093AF050895E42FF0E0EE0FFF1FE05403
:10175000FE4F9081921B97FD9195292F38E1239F91
:10176000212D1124620F08950F931F9310E0F801AB
:10177000EE0FFF1FE054FE4F9081905797FD91951B
:10178000000F111FF801EF53FE4F00810052110BA3
:101790002003F001219FF00D112408E310E0091B44
:1017A000110997FD139540039001419F300D1124BD
:1017B000E20FF31F9F01220F331F2E0F3F1F37FF32
:1017C00002C021583F4F220F232F221F330B620FDD
:1017D0001F910F9108950F931F93522F10E0F8015E
:1017E000EE0FFF1FEF53FE4FA081A052BB0B9D01D8
:1017F0005203F001539FF00D1124000F111FD80167
:10180000A054BE4F0C910057110B40039001419F13
:10181000300D11242E0F3F1F37FF02C0215C3F4FB8
:1018200096E0359527959A95E1F7620F1F910F91F4
:1018300008950F931F93522F10E0F801EE0FFF1F32
:10184000EF53FE4FA081A052BB0B9D015203F0014C
:10185000539FF00D1124000F111FD801A054BE4F4B
:101860000C910057110B40039001419F300D112442
:101870002E0F3F1F37FF02C021583F4F220F232F4B
:10188000221F330B620F1F910F910895EF920F9358
:10189000972F23E0029FB0011124759567956E0D77
:1018A000792F0F91EF900895322F50E0FA01EE0F4B
:1018B000FF1FEF53FE4F9081905297FD9195440F7B
:1018C000551FFA01E054FE4F2081231B330B290FD3
:1018D000311D97FD3A95620F0895E42FF0E0EE0F69
:1018E000FF1FEF53FE4F6081621B0895E42FF0E06D
:1018F000EE0FFF1FE054FE4F6081621B0895622FC0
:101900000895E42FF0E0EE0FFF1FE054FE4F4081FA
:1019100034EE439F412D1124E82FF0E050E0445E67
:101920005F4FDA01A21BB1099D01B7FF03C03195DA
:101930002195310993E0220F331F9A95E1F7AF010A
:10194000421B530B9A0157FD20E0582F259F212D54
:101950001124822F0895E42FF0E0EE0FFF1FE054D2
:10196000FE4F408134EE439F412D1124E72FF0E0DC
:1019700050E0445E5F4FDA01A21BB1099D01B7FF41
:1019800003C031952195310993E0220F331F9A95B9
:10199000E1F7AF01421B530B9A0157FD20E0279F4F
:1019A000212D1124722F08950E94CF1608950E94B0
:1019B00091160895FC019B01009729F480E077FFC0
:1019C0002BC080E80895AC0197FF04C04427552739
:1019D000481B590BB901640F751F37FD10C0241B3C
:1019E000350BC901A5E0880F991FAA95E1F70E9460
:1019F000553480E2861BF7FF0FC081950895CB0117
:101A000065E0880F991F6A95E1F7BA01621B730BB5
:101A10000E94553480E6EECF0895EF920F93CF9356
:101A2000DF93D72FC82FC9010E19BA010E94DA0C13
:101A3000602F681B7D2F8C2FDF91CF910F91EF903E
:101A400008950F93CF93DF93D72FC82FC901BA0101
:101A50000E94DA0C682F600F7D2F8C2FDF91CF91C1
:101A60000F910895EF920F931F93CF93DF93D62F8B
:101A7000C72F182FC9010E19010FBA010E94DA0CE5
:101A8000081B202F219F212D1124822F6D2F7C2FA9
:101A9000DF91CF911F910F91EF900895EF920F93E7
:101AA0001F93CF93DF93D62F172FC82FC9010E197D
:101AB000070FBA010E94DA0C702F781B719F712DED
:101AC00011246D2F8C2FDF91CF911F910F91EF90EB
:101AD00008950F931F93CF93DF93D62FC72F182FFF
:101AE000C901212F201B022FBA010E94DA0C982F66
:101AF000990F990F891B800F282F219F212D1124C9
:101B0000822F6D2F7C2FDF91CF911F910F91089520
:101B10000F931F93CF93DF93D62F172FC82FC90191
:101B2000272F201B022FBA010E94DA0C982F990F41
:101B3000990F782F791B700F719F712D11246D2FC4
:101B40008C2FDF91CF911F910F910895E82F86FD83
:101B5000E0952E2F2F7086FD2F5FE695E695E69592
:101B6000E670F0E0EB5AFE4F9181929F902D212D6F
:101B7000112492959F702295207F922B2081920FA5
:101B800087FD919580E8890F08950F931F93CF9358
:101B9000DF938B01D82FC42F822F0E94A60DEC2F2C
:101BA000F0E0EE0FFF1FE054FE4F90819058890F38
:101BB00087FD8195880F682F2CE0629F612D11248D
:101BC000600F712F8D2FDF91CF911F910F9108958D
:101BD000409110015091110125E038E0429FC00171
:101BE000439F900D529F900D1124875E994C9093C6
:101BF000110180931001890F0895AC018230910585
:101C000008F408959FEF413E8EE1580740F49A0191
:101C100095E0369527959A95E1F798E0920F61E067
:101C2000E62FE90FFF27FF1F9F0135952795822F8C
:101C3000229FF001239FF00DF00D11244E175F0736
:101C400038F49FEF920F961758F78FEF860F08958D
:101C50002F3FE9F361E0620FF6CF0F93CF93DF934D
:101C6000D72FC82F47FD419588E390E0841B910949
:101C700047FD9395889FB001899F700D700D1124C9
:101C8000229FC001239F900D900D1124860F971F56
:101C90000E94FD0D982F990F890F682F600F7D2FDF
:101CA0008C2FDF91CF910F91089530E020E0869F37
:101CB000212D969F200D311D1124C90108952091D9
:101CC000B30530E1230F08F42FEF60E1822F90E09D
:101CD0000E94550EBC0188EB9BE00E940A3490E004
:101CE00080E00895AF92BF92CF92DF92FF920F9360
:101CF0001F93CF93DF93362F472FE82FF0E0E75F56
:101D0000F04F71110FC0E4918E2F2E2F6E2F722F76
:101D1000DF91CF911F910F91FF90DF90CF90BF90F7
:101D2000AF900895C72FD0E02491F22E022F10E03B
:101D300056E0659FC0011124EFEFF0E0BF010E9463
:101D40000A34832F90E0880F991F35E5369FD00124
:101D5000379FB00D11248A1B9B0B982F990F980F5A
:101D60006F01CC1ADD0AC09ED001C19EB00DD09E7D
:101D7000B00D11248B2F499FA0011124452F552709
:101D80006F01C41AD50AC09EA001C19E500DD09EFD
:101D9000500D11245F01A91AB108AC9E6001AD9EDF
:101DA000D00CBC9ED00C1124CD2CDD24EC19FD09E7
:101DB000E09FE001E19FD00DF09FD00D1124ED2FA9
:101DC00062307105A1F050F46115710509F49ECFE0
:101DD0006130710581F0EB2F852F98CF643071054C
:101DE00069F080F06630710509F490CFF4CFE22FEE
:101DF0002B2F8D2F8BCFE22F252F88CFEB2F822FEC
:101E00002D2F84CF2B2F8F2DE52F80CFB0E0A0E09A
:101E1000ECE0FFE00C9429348C01FC01E05EFD4F06
:101E20008081682349F1D090B105D091B205C0916D
:101E3000B005EC2EF12C0E94E80D282FC7018C5420
:101E40009F4F68E671E00E9455348E199F0997FDF7
:101E50000396959587959595879523706C2F289F68
:101E6000600D11247D2D8D2F0E94720E462F282F7C
:101E7000672FC8010E94D70CCDB7DEB7E7E00C94FE
:101E80004534B0E0A0E0E7E4FFE00C9429347C01A5
:101E900080911501C82FCC0FCC0FC80F15E01C0F77
:101EA000012F113308F000E36091B3056695669544
:101EB00021E0620F08F46FEF8091A7059091A805CB
:101EC0000E94550ED82ED0E0C01748F081E01033A4
:101ED00008F080E0CDB7DEB7E7E00C944534FE01B2
:101EE000E05EFD4F808190911601892391F0609111
:101EF000B0057091B1058091B2052D2D4C2FF701E1
:101F000009950E94720E462F282F672FCE010E943E
:101F1000D70C2196D9CFB0E0A0E0E1E9FFE00C9426
:101F200025346C0180911501C82FCC0FCC0FC80F40
:101F300015E01C0FB12E113310F030E3B32E609179
:101F4000B305669566958091A7059091A8050E94B6
:101F5000550EF82E80E48F0D0E94A60D90E8A92E54
:101F6000A80E8F2D0E94A60D20E8922E980ED0E08C
:101F7000CB1548F081E0103308F080E0CDB7DEB734
:101F8000EBE00C944134FE01E05EFD4F80819091C6
:101F900016018923A1F06091B0057091B10580917F
:101FA000B205EF2C0C2F292D4A2DF60109950E9420
:101FB000720E462F282F672FCE010E94D70C219634
:101FC000D7CFB0E0A0E0E7EEFFE00C9423345C0153
:101FD00080911501C82FCC0FCC0FC80F15E01C0F36
:101FE000F12E113310F030E3F32E6091B3056695B6
:101FF0008091A7059091A8050E94550E782ED0E0FB
:10200000CF1548F081E0103308F080E0CDB7DEB79F
:10201000EDE00C943F34FE01E05EFD4F8081909135
:1020200016018923C9F1CE01880F991F84599E4F4B
:10203000FC01EC5AFF4F2081422F4057550B6A019B
:102040008B5A9F4FFC018081282F2052330B49016E
:10205000449F9001459F300D300D1124889CC00194
:10206000899C900D900D1124820F931F0E94FD0DED
:10207000082F6091B0057091B1058091B205E72CF1
:102080009401A601F50109950E94720E462F282F92
:10209000672FCE010E94D70C2196B2CFB0E0A0E00E
:1020A000E4E5F0E10C9428347C0180911501C82FFF
:1020B000CC0FCC0FC80F15E01C0FD12E113310F030
:1020C00030E3D32E6091B30566958091A70590917A
:1020D000A8050E94550EC82ED0E0CD1548F081E02D
:1020E000103308F080E0CDB7DEB7E8E00C9444345C
:1020F000FE01E05EFD4F808190911601892311F170
:10210000CE01880F991F84599E4FFC01EB5AFF4F57
:1021100020812052330B8C5A9F4FFC014081405745
:10212000550B6091B0057091B1058091B2050C2DF1
:10213000F70109950E94720E462F282F672FCE01B6
:102140000E94D70C2196C9CF1F93CF93DF93EC0148
:10215000FC01E05EFD4F80816823B1F00E94E80D34
:10216000182F0E94E80D20E8829FC00111247FE70C
:10217000790F612F8091B2050E94720E462F282F91
:10218000672FCE010E94D70CDF91CF911F91089548
:102190008091340380FD1AC081FD14C082FD14C0FB
:1021A00080913303882391F08C3370F427E0829F71
:1021B000C00111246CE370E00E945534862F672B18
:1021C00029F0089583E0089587E0089581E0089557
:1021D0008091340380FD16C081FD16C082FD18C0B9
:1021E00080913203882391F08C3390F428E3829F0E
:1021F000C00111246CE370E00E945534862F672BD8
:1022000049F008958EE008958CE1089588E00895DE
:1022100088E3089581E0089580E00895909176051F
:1022200092FF06C0282F28712830F9F4877F846038
:1022300093FF06C0282F28712831F1F4877E84612E
:102240002091770520FF06C0382F38713830D9F437
:10225000877F816021FF06C0282F28712831D1F4A3
:10226000877E816194FD877E0895282F2471243014
:10227000F9F68B7F8860DCCF282F2471243101F799
:102280008B7E8861DDCF382F3171313019F78E7F29
:102290008860E0CF282F2171213121F78E7E88615F
:1022A000E1CF82389105B9F1B0F48133910509F499
:1022B0007DC048F48932910509F46DC08A329105D8
:1022C00009F47BC008958533910509F45FC0893313
:1022D000910509F10895833E9105D9F138F4803EC6
:1022E000910529F1823E910579F10895863E910587
:1022F000D9F1873E910509F43EC0843E910541F530
:102300002091770521FF24C08091760584FD19C0B6
:1023100087EE90E0089520917605237009F05AC069
:102320002091770523FF14C089E290E00895209161
:10233000760520FD38C03091770530FF09C024FFB5
:1023400043C090E080E008952091760522FDF7CF0C
:1023500008952091760522FD3AC03091770530FD31
:1023600039C024FFF5CFEDCF2091760523FFF0CFC4
:1023700024FDE7CFCDCF2091760523FD2EC03091EF
:10238000770531FFEECF84EE90E008952091760539
:1023900025FFDECFC9CF2091760525FD21C02091F4
:1023A000770523FFD5CF89E390E0D2CF2091760542
:1023B00026FFCECF8AE290E008952091760526FF91
:1023C000C7CF81E390E0089583EE90E0089582EE18
:1023D00090E0089580EE90E0089586EE90E00895F4
:1023E00085E390E00895972F7E30B8F46630A8F426
:1023F0008830B0F470E026E0929F600D711D1124CA
:10240000FB0194E5899FE00DF11D1124EE0FFF1FE4
:10241000E753F64F85919491089580E090E00895F8
:1024200081E0FCCF1F93CF93DF930E945111EC0109
:10243000C11580E5D807F0F5C11580E4D80708F08C
:10244000AAC0C03ED10520F5CD3CD10508F090C012
:10245000C83AD10578F4C53AD10508F081C0C13039
:10246000D10519F1209709F1C430D105F0F4D0E07D
:10247000C0E01BC0C33CD105D0F7C85AD0E0CC0F98
:10248000DD1FC15EDE4F0990D881C02DD4640DC020
:10249000C11580E2D80708F0C9C0C11581E0D8078E
:1024A00008F068C0C83ED10510F7CE01DF91CF918A
:1024B0001F910895C03682E5D80718F5C03482E52B
:1024C000D80708F079C0C03282E5D80708F06DC09F
:1024D000C11582E5D80708F48FC02C2F26952695C4
:1024E00080E2289F900111248C2F8370C1E0D0E0FE
:1024F00002C0CC0FDD1F8A95E2F7C22BD32BDD681B
:10250000D4CFC03C82E5D807F8F4C03A82E5D807BA
:1025100008F067C0C03882E5D80708F0A8CF2C2F94
:1025200026952695277080E2289F900111248C2FF4
:102530008370C1E0D0E002C0CC0FDD1F8A95E2F7C6
:10254000C22BD32BDA68B1CFC03E82E5D80708F0A2
:102550008ECFDC2FCC27CC27DF71C06FD06AA5CF00
:10256000C55AD0E0C45EDE4FC881D0E0D0649DCFB4
:10257000D0659BCF8D2F0E940E11182FCE01992769
:102580000E945111C12FD0E0DC2FCC27CC27DF7166
:10259000C82BD92B8ACFCE0199270E945111CC2765
:1025A000DF70C82BD92BD06A80CFCF71D0E0DC2F61
:1025B000CC27C16FD06A79CF2C2F2695269527700E
:1025C00080E2289F900111248C2F8370C1E0D0E01D
:1025D00002C0CC0FDD1F8A95E2F7C22BD32BDC683B
:1025E00064CF8C2F8F710E940E11C82FD0E0DC2F8A
:1025F000CC27CC27DF7159CF8C2F8F710E940E1101
:1026000055E0D695C7955A95E1F7CF70D0E0DC2F0D
:10261000CC27282F30E084FF05C044E0220F331F71
:102620004A95E1F7C22BD32BD0693FCF8D2F8F7105
:102630000E940E11182FCE0199270E945111C12F0F
:10264000D0E0DC2FCC27CC27DF71C82BD92BD06270
:102650002CCF909114019923D1F09091760597FF9A
:1026600016C0E82FE695E695E695EE31E0F4F0E049
:10267000EE5AFD4F282F277081E090E001C0880FAF
:102680002A95EAF780959281892382830895E4E56B
:10269000F2E09191891303C0DF0111971C9292E03F
:1026A000EA35F907B1F70895909114019923C1F023
:1026B0009091760597FF14C0E82FE695E695E6958C
:1026C000EE31F8F4F0E0EE5AFD4F877021E030E093
:1026D00001C0220F8A95EAF78281822B82830895B6
:1026E000A4E5B2E0EFEF90E02D91821751F0EF3FBB
:1026F00019F4211101C0E92F9F5F9630A9F7EF3F30
:1027000009F408950E2E000CFF0BEE5AFD4FE6CF94
:102710002091D7029091A60256E0291302C080E0D2
:10272000089530E0529FF001539FF00D1124E955B8
:10273000FD4F7181761306C07081781303C07281DA
:10274000741304C02F5F3F4F2770E7CF81E00895D7
:102750008091D7029091A602981301C008958F5FCF
:102760008770FACFB0E0A0E0E8EBF3E10C942734F7
:102770007C0100910804109109048091FA02909163
:10278000FB02082B192BCFE0D0E0CC24C394D12C32
:10279000BC2EC6010C2E02C0880F991F0A94E2F7C6
:1027A00080239123892B49F4219790F7B12C8B2D0D
:1027B000CDB7DEB7E9E00C944334B7018C2F0E940B
:1027C000F3110E941212019779F3F1CFCF93DF93A7
:1027D000EC010E94B213BE010E94F3110E9412127A
:1027E000DF91CF9108959E3078F5863068F5E82F17
:1027F000F0E086E0989FE00DF11D11249E2F977068
:1028000083E0F695E7958A95E1F7EE0FFF1FEE0F4F
:10281000FF1FEC58FD4F50E040E080E0219130E098
:10282000092E02C0369527950A94E2F721703327C6
:10283000042E01C0220F0A94EAF7822B4F5F5F4FEC
:102840004430510559F7089580E008959E3098F579
:10285000863088F5E82FF0E086E0989FE00DF11DC6
:1028600011248E2F877041E001C0440F8A95EAF74A
:1028700083E0F695E7958A95E1F7EE0FFF1FEE0FDF
:10288000FF1FEC58FD4F30E020E070E05191DF0178
:102890001197CB01022E02C0969587950A94E2F714
:1028A000817081958527842385278C932F5F3F4FE7
:1028B0002430310559F708959093FB028093FA0272
:1028C0000895FC0183819481892B29F08081918175
:1028D00089238F3F51F480E00895843FE1F717C0CA
:1028E000883EA8F0813FB9F712C0808191810E9493
:1028F000E61392959F70963099F358F4925F9F700B
:10290000923048F7803F19F040F7883E20F781E089
:1029100008959A5FF4CFCF92DF92EF92FF92C72E85
:10292000D82EE92EFF2420E0C114D104E104F104E3
:1029300019F0C701B60128E06B017C0154E0F69460
:10294000E794D794C7945A95D1F7C114D104E10400
:10295000F10419F02C5FC701B6016B017C0142E064
:10296000F694E794D794C7944A95D1F7C114D1044B
:10297000E104F10419F02E5FC701B6019695879521
:1029800077956795672B682B692B09F02F5F822F4E
:10299000FF90EF90DF90CF900895B0E0A0E0E3EDDE
:1029A000F4E10C942734EA01FB01EE0FFF1FE60F60
:1029B000F71F2CEFAC01249FC001259F900D11241F
:1029C0008E0F9F1FFC01E056FE4F6491FC01EF55F6
:1029D000FE4F74918E559E4FFC018491962F972B3C
:1029E000982B59F420E040E060E0CE010E94D70C23
:1029F000CDB7DEB7E9E00C9443340E94720E8B0130
:102A0000B82E6091B20570E090E080E00E94A93697
:102A100020E030E04FE753E40E9408366B017C0170
:102A20006B2D70E090E080E00E94AB36A70196012C
:102A30000E9437370E947A36B62E602F70E090E001
:102A400080E00E94AB36A70196010E9437370E94B2
:102A50007A36062F612F70E090E080E00E94AB365E
:102A6000A70196010E9437370E947A362B2D402FFE
:102A7000BCCF27982F98089526982E9808952598CA
:102A80002D98089556985E980895279A2F9A08953C
:102A9000269A2E9A0895259A2D9A0895CF93DF931A
:102AA000EC010E944215BE0190E080E00E948B1470
:102AB0008032C0F4E82FF0E0EA55F84C0C94693409
:102AC0000E943F150E943C150BC00E943F150E94BA
:102AD0003C150E94451506C00E943F150E944815EE
:102AE0000E943915CE01DF91CF9108950E943F15C4
:102AF0000E944815EECF0E944B15E4CF0E944B1563
:102B0000E6CF0E944B15EACF0E944B15F1CF0E94F1
:102B10004E159093090480930804089521E030E055
:102B200002C0220F331F8A95E2F7209530958091DD
:102B3000080490910904822393230E948715089525
:102B400021E030E002C0220F331F8A95E2F7809126
:102B5000080490910904822B932B0E9487150895F5
:102B6000209828982198299822982A9823982B9879
:102B700052985A9853985B983E9846980895809832
:102B8000889A8198899A84988C9A85988D9A869843
:102B90008E9A87988F9A08950F931F93CF93DF9300
:102BA0008B01EA0190919D05943061F58093E900D5
:102BB0008FEF9091E800815095FD06C095ED9A95B4
:102BC000F1F700008111F5CF8091E80085FF1AC070
:102BD0000E947A09811111C08091E80085FD06C02C
:102BE0008091E8008E778093E800F2CFF801819120
:102BF0008F018093F100219779F78091E8008E771B
:102C00008093E800DF91CF911F910F91089543E0E9
:102C100050E0BC0183E00E94CC15089545E050E0EF
:102C2000BC0182E00E94CC150895CF93DF93EC01A4
:102C300080911401811111C048E050E0BE0181E093
:102C40000E94CC1580E2FE01ABE7B5E001900D9249
:102C50008A95E1F7DF91CF9108958091760587FFFE
:102C600005C040E283E050E0BE01EACF48E081E0E9
:102C7000FACF0E9442150E943F150E943C150E9407
:102C800039158FEF90E0909389008093880090939E
:102C90008B0080938A0090938D0080938C000E941B
:102CA0004B152FEF80E792E0215080409040E1F7F4
:102CB00000C000000E9448152FEF80E792E02150ED
:102CC00080409040E1F700C000000E9445152FEFC2
:102CD00080E792E0215080409040E1F700C0000082
:102CE0000E943F152FEF80E792E0215080409040F6
:102CF000E1F700C000000E943C152FEF80E792E052
:102D0000215080409040E1F700C000000E9439153A
:102D10000E9442150E943F150E943C150E943915E1
:102D20000895A4E0B0E0E7E9F6E10C942B34F62E28
:102D3000042F122F8033910570F5880F991F880F8B
:102D4000991FBC01675F7F4E44E050E0CE010196C1
:102D50000E946F3489818370EA81282F30E040E936
:102D6000849FC00111248B5D9B4FE80FF92FF11D4B
:102D7000B497F082EB81E80FF92FF11DB49700832F
:102D8000EC81E80FF92FF11DB49710832D5D3B4FB7
:102D900081E0F90180832496E5E00C944734FF92AA
:102DA0000F931F93CF93DF93182F062FF42ED0E0AD
:102DB000C0E02F2D402F612FCE010E949116219649
:102DC000C033D105B1F7CDB7DEB7E5E00C94473499
:102DD0000F931F93CF93DF93082F000FEB0114E2A3
:102DE00010930F04E0E1F4E0DE018D91819384E023
:102DF000E032F807D1F724E630E041E150E06FE03F
:102E000074E0802F0E94E533105F6096143B41F719
:102E1000DF91CF911F910F91089580912304882312
:102E200029F065E274E084E70E94E816109223041A
:102E300080912404882329F065EB74E087E70E94E1
:102E4000E816109224040895EFE0F4E060834183D3
:102E500024E630E042E050E0BF01880F0E94E533F5
:102E60000895EF92FF920F931F93CF93DF93E82E75
:102E7000062F10E007591A4FF8018081882381F04E
:102E8000F2E16F9FE0011124CB5BDA4FF12C499105
:102E90006F2D8E2D0E942417F39482E1F812F7CF44
:102EA000F8011082CDB7DEB7E6E00C944634CF933C
:102EB000DF93C82F4BE06DEF0E94241740E06AE0DB
:102EC0008C2F0E9424178FE39CE90197F1F700C033
:102ED000000040E060E08C2F0E94241740E061E099
:102EE0008C2F0E94241740E066E08C2F0E9424174C
:102EF00040E06DEF8C2F0E942417D0E040E06D2F52
:102F00008C2F0E942417DF5FD231C1F740E06D2F74
:102F10008C2F0E942417DF5FD432C1F740E06D2F61
:102F20008C2F0E942417DF5FD43BC1F74BE06DEF7D
:102F30008C2F0E94241741E06AE08C2F0E942417F6
:102F400040E06DEF8C2F0E942417DF91CF91089500
:102F5000A4E0B0E0EEEAF7E10C9422340E942233C0
:102F600084E70E94571787E70E94571709E010E18E
:102F700052E1752E68E0C62ED12CEE24E394F12C9C
:102F80006624639444E050E0B801CE0101960E94AB
:102F90006F344A8150E0CA0184972B81622F6452BA
:102FA000770B4B012C81E22FE452FF0B5F0129814B
:102FB000237030E0FC0197FD379643E0F595E795E7
:102FC0004A95E1F7729EA001739E500D11244B5B50
:102FD0005A4FE40FF52FF11DB6010E945534A70199
:102FE00001C0440F8A95EAF78081842B8083F40125
:102FF00097FC379693E0F595E7959A95E1F7729EE1
:10300000C001739E900D11248B5B9A4FE80FF92F2E
:10301000F11DC401B6010E945534A70101C0440F3F
:103020008A95EAF78081842B8083F501B7FC379677
:1030300083E0F595E7958A95E1F7729EC001739E4E
:10304000900D11248B5B9A4FE80FF92FF11DC501EC
:10305000B6010E945534A70101C0440F8A95EAF7D2
:103060008081842B808327593A4FF90160820C5F5D
:103070001F4FF0E1093C1F0709F084CF60E084E7AF
:103080000E94311761E087E70E9431172496EEE035
:103090000C943E34EFEAF5E085E3808380911901DA
:1030A00090911A01A0911B0181839283A3838FE7E2
:1030B00084838FEF858346E050E06CE170E0CF01C0
:1030C0000E94D4351092AE050895B0E0A0E0EBE682
:1030D000F8E10C941E34782E80911301871124C0DE
:1030E0009091AF0593702091120130E081E092172A
:1030F000130609F480E08170809317018091B40574
:1031000090911601981739F08093160140E060E025
:1031100080E00E94D40C2EE1271560F0E72DF0E04E
:10312000EA53F84C0C94693481E0E5CF80911701A3
:10313000811102C0C0E09DC140E060E080E00E94DB
:10314000D40CF8CF80911501C82FCC0FCC0FC80F2D
:1031500015E01C0F012F113308F000E36091B0055A
:103160007091B1058091B2050E94720EF62EE72E85
:10317000D82ED0E0C01728F0C1E0103308F479C190
:10318000D9CFFE01E05EFD4F808190911601892329
:1031900031F02D2D4F2D6E2DCE010E94D70C219692
:1031A000E9CF80911501C82FCC0FCC0FC80F15E0C7
:1031B0001C0F012F113308F000E3E090B105F090EF
:1031C000B205D091B0056D2F7E2D8F2D0E94720E0D
:1031D000D62EC72EB82E6091B3056D0F7E2D8F2D84
:1031E0000E94720EF62EE72EA82ED0E0C01720F611
:1031F000FE01E05EFD4F908180911601892359F018
:103200002A2D4F2D6E2D90FD03C02B2D4D2D6C2D95
:10321000CE010E94D70C2196E9CF80911501C82FCD
:10322000CC0FCC0FC80F15E01C0FF12E113310F08E
:10323000B0E3FB2EE090B105D090B2052091B3052C
:1032400000E4029F012D1124D0E0CF1508F094CFA7
:10325000FE01E05EFD4F8081909116018923B9F057
:10326000FE01EE0FFF1FEF53FE4F808182958F709E
:103270006091B005809F600D11247E2D8D2D0E94E0
:10328000720E462F282F672FCE010E94D70C219651
:10329000DCCF80911501C82FCC0FCC0FC80F15E0E3
:1032A0001C0FF12E113310F0F0E3FF2EE090B1056A
:1032B000D090B2052091B30500E4029F012D1124A6
:1032C000D0E0CF1508F058CFFE01E05EFD4F8081C1
:1032D000909116018923D9F0FE01EE0FFF1FE054F3
:1032E000FE4F6081069FB0011124E5E0759567955A
:1032F000EA95E1F78091B005680F7E2D8D2D0E9433
:10330000720E462F282F672FCE010E94D70C2196D0
:10331000D8CF80911501C82FCC0FCC0FC80F15E066
:103320001C0F012F113308F000E3F090B005D0918D
:10333000B105E090B2056091B30566956695669516
:103340008091A7059091A8050E94550E0E94A60D98
:10335000805887FD8195880F282F3E2D239F212D92
:103360001124822F6F2D7D2F0E94720EF62EE72ED4
:10337000D82ED0E0C01708F0FFCEFE01E05EFD4F72
:10338000808190911601892331F02D2D4F2D6E2DC6
:10339000CE010E94D70C2196EDCF8BEA9CE00E94D3
:1033A000410F07C081E89CE0FACF88E89DE00E94C9
:1033B0004E10C82F5EC089E69DE0F9CF8EE49DE0F7
:1033C0000E94E10FF6CF82E39DE0FACF8FE79CE009
:1033D000E6CF86E79CE0E3CF8DE69CE0E0CF84E596
:1033E0009CE0DDCF86E49CE0EBCF8DE29EE0DFCF7A
:1033F00081E29DE0DCCF8DE09DE0E2CF89E19CE0C1
:103400000E948B0FD6CF8BEE9BE0FACF84EB9BE034
:10341000F7CF80911501C82FCC0FCC0FC80F65E0F6
:10342000F62EFC0E8091170181113BC06091B3050F
:1034300020E1620F08F46FEF8091A7059091A80535
:103440000E94550E6AE070E00E940A34892B61F4F4
:103450000E94E80DE0E38E9FC001112460911601E7
:10346000892F90E00E94060FC1E02FE22F1508F48B
:1034700061CE809115018F5F80931501C1110CC041
:1034800082E08093180180911701811105C07110AD
:1034900003C083E080931801CDB7DEB7E2E10C945E
:1034A0003A340F2DF0E3FF1508F400E3D0E010E00C
:1034B000C017D107CCF660911601CE010E94060F0D
:1034C0002196F6CFC0911701C11120C06091B305BC
:1034D00020E1620F08F46FEF8091A7059091A80595
:1034E0000E94550E65E070E00E940A34892B09F0B5
:1034F00021CE0E94E80D30E3839FC001112460912A
:103500001601892F90E00E94A410B3CF809115017D
:10351000C82FCC0FCC0FC80F55E0F52EFC0E0F2D89
:1035200080E38F1508F400E3D0E010E0C017D10766
:1035300034F0C1E09FE29F1508F09BCFFBCD609176
:103540001601CE010E94A4102196F0CF80911501A2
:10355000C82FCC0FCC0FC80F15E01C0F012F113353
:1035600008F000E3E090B105F090B205D091B0050D
:103570006091B3056695669566958091A7059091D3
:10358000A8050E94550E0E94A60D805887FD8195C2
:10359000880F682F2CE0629F612D11246D0F7E2D06
:1035A0008F2D0E94720EF62EE72ED82ED0E0C01777
:1035B00008F0E2CDFE01E05EFD4F808190911601A2
:1035C000892331F02D2D4F2D6E2DCE010E94D70C69
:1035D0002196EDCF85EC9DE0E2CE83EA9BE0DFCE45
:1035E000809115018F5F182F110F110F180F409147
:1035F000A7055091A8056091A9057091AA05809131
:103600003E0390913F03A0914003B0914103841782
:103610009507A607B70708F0AFCD0E94E80DF0E3C5
:103620008F9FE0011124CD2FDD27FE01E05EFD4FCD
:10363000808190911601892309F49ECD0E94E80DA6
:1036400020E040E060E081FD13C00E94E80D082FFB
:103650000E94E80D20E8829FC00111247FE7790FC6
:10366000602F8091B2050E94720E462F282F672F7F
:10367000CE010E94D70C2091B30530E1230F08F44E
:103680002FEF60E1822F90E00E94550EBC0184EF85
:1036900091E00E940A348091A7059091A805A0911D
:1036A000A905B091AA05860F971FA11DB11D809392
:1036B0003E0390933F03A0934003B09341035CCD3E
:1036C0004091D2035091D3036091D4037091D503FC
:1036D0008091A7059091A805A091A905B091AA0590
:1036E00084179507A607B70708F424CD8091170122
:1036F00081114AC080911501C82FCC0FCC0FC80F83
:1037000035E0F32EFC0EEF2C30E33F1510F420E3F0
:10371000E22E0C2F10E083E0C89FE0011124CE5B65
:10372000DC4F0E1508F466C0FFE2C1E0FF1508F09B
:10373000A0CEE2E4F3E08FEC93E08E179F0709F050
:103740006BC00E94E80D81FF6EC01092CF031092F3
:10375000D0031092D1030E945F0E0091A705109133
:10376000A8052091A9053091AA05DC01CB01800FA5
:10377000911FA21FB31F8093D2039093D303A093F2
:10378000D403B093D503D6CC40E060E080E00E9443
:10379000D40C02E413E0D0E0C0E00E94E80D81FF09
:1037A0000BC0F80110821182128221960D5F1F4F0B
:1037B000C033D10591F79ECF0E94E80DD82E0E940C
:1037C000E80DF0E88F9FC00111247FE7790F7E019B
:1037D000EE0CFF1CEC0EFD1E97012E5B3C4F790199
:1037E0006D2D8091B2050E94720EF7016083718386
:1037F0008283DBCFF801E05EFD4F8081909116015E
:10380000892331F02A8148816981C8010E94D70C3F
:1038100023960F5F1F4F85CF2381348145812193EC
:10382000319341938ACF0E94E80DC82F0E94E80D82
:1038300020E8829FC00111247FE7790F6C2F8091CF
:10384000B2050E94720E6093CF037093D0038093F1
:10385000D10381CF80911701882329F040E060E0F7
:1038600080E00E94D40C309015013394832D880F92
:10387000880F380E4091A7055091A8056091A905C1
:103880007091AA058091000490910104A091020416
:10389000B091030484179507A607B70708F075C011
:1038A0006091B0057091B1058091B2050E94720ED1
:1038B000662E572E482E06ED13E0CCE6D1E080ECC4
:1038C000882E81E0982E6E015E017801212C02C0C5
:1038D00022242394F70121917F01F50181915F0159
:1038E00090E0222309F457C0242D462D652D0E9417
:1038F000D70CF6018581242D462D652D90E00E9480
:10390000D70CF701808131978083F1E0CF1AD1087D
:1039100021E02212DDCF8A8190E0F801228122236A
:1039200009F444C0242D462D652D0E94D70C8B81AF
:10393000242D462D652D90E00E94D70C0E94E80DA5
:10394000837091E009F090E0F80192830D5F1F4FC2
:1039500026968C169D0609F0B6CF0E945F0E009148
:10396000A7051091A8052091A9053091AA05DC01B1
:10397000CB01800F911FA21FB31F8093000490936F
:103980000104A0930204B0930304C1E0FFE2F31525
:1039900008F06FCDCFCB20E040E060E00E94D70C74
:1039A000F601858120E040E060E0A8CF20E040E023
:1039B00060E00E94D70C8B8120E040E060E0BBCF4C
:1039C000CF93DF938FB7F8944091720550917305B0
:1039D00060917405709175058FBF409304045093F6
:1039E0000504609306047093070480910E04C0E000
:1039F000811108C08091AF05C82FC37019F0C82F7E
:103A0000C695C695809118018130C9F0882349F088
:103A1000823009F478C1833009F480C1DF91CF91FD
:103A20000895109215014093A7055093A80560933F
:103A3000A9057093AA0581E080931801EFCF8C2F20
:103A40000E946518CC2351F380910A0483FDE6CFD0
:103A5000609108047091090490E080E00E948B144A
:103A6000C82FD0E04CE150E070E060E0CE010E9451
:103A7000CD144BE150E061E070E0CE010E94CD1426
:103A80004AE150E062E070E0CE010E94CD1449E1CD
:103A900050E063E070E0CE010E94CD1448E150E0B8
:103AA00064E070E0CE010E94CD1450E040E065E09B
:103AB00070E0CE010E94CD1441E050E066E070E07D
:103AC000CE010E94CD1442E050E067E070E0CE01EC
:103AD0000E94CD1443E050E068E070E0CE010E9407
:103AE000CD1444E050E069E070E0CE010E94CD14B6
:103AF00041E250E06AE070E0CE010E94CD1440E265
:103B000050E06BE070E0CE010E94CD144FE150E038
:103B10006CE070E0CE010E94CD144EE150E06DE00B
:103B200070E0CE010E94CD144DE150E06EE070E0F7
:103B3000CE010E94CD1445E050E06FE070E0CE0170
:103B40000E94CD1446E050E060E170E0CE010E949A
:103B5000CD1447E050E061E170E0CE010E94CD1449
:103B600048E050E062E170E0CE010E94CD1449E0EF
:103B700050E063E170E0CE010E94CD1446E250E0D7
:103B800064E170E0CE010E94CD1445E250E065E1B1
:103B900070E0CE010E94CD1444E250E066E170E096
:103BA000CE010E94CD1443E250E067E170E0CE0107
:103BB0000E94CD1442E250E068E170E0CE010E9424
:103BC000CD144AE050E069E170E0CE010E94CD14CE
:103BD0004BE050E06AE170E0CE010E94CD144CE071
:103BE00050E06BE170E0CE010E94CD144DE050E05A
:103BF0006CE170E0CE010E94CD144EE050E06DE12A
:103C000070E0CE010E94CD144BE250E06EE170E016
:103C1000CE010E94CD144AE250E06FE170E0CE0187
:103C20000E94CD1449E250E060E270E0CE010E94B3
:103C3000CD1448E250E061E270E0CE010E94CD1464
:103C400047E250E062E270E0CE010E94CD144FE006
:103C500050E063E270E0CE010E94CD1440E150E0FC
:103C600064E270E0CE010E94CD1441E150E065E2D3
:103C700070E0CE010E94CD1442E150E066E270E0B7
:103C8000CE010E94CD1443E150E067E270E0CE0126
:103C90000E94CD144FE250E068E270E0CE010E9435
:103CA000CD144EE250E069E270E0CE010E94CD14E6
:103CB0004DE250E06AE270E0CE010E94CD144CE289
:103CC00050E06BE270E0CE010E94CD1444E150E080
:103CD0006CE270E0CE010E94CD1445E150E06DE24F
:103CE00070E0CE010E94CD1446E150E06EE270E03B
:103CF000CE010E94CD1447E150E06FE270E0CE01AA
:103D00000E94CD148BCEC09313018091AF058370B8
:103D1000809312010E940D1783E08ECE8091AE0534
:103D2000882351F046E050E06CE170E08FEA95E0C6
:103D30000E94D4351092AE054091A7055091A80578
:103D40006091A9057091AA052FB7F894809172052A
:103D500090917305A0917405B09175052FBF841BD8
:103D6000950BA60BB70B4A97A105B10508F456CEE3
:103D70001092180153CECF93C091F9028091F802AE
:103D8000C82BC093520240E250E068ED72E082E539
:103D900092E00E94A335892B11F180E2E2E5F2E086
:103DA000A8EDB2E001900D928A95E1F7E0916D05E2
:103DB000F0916E05309799F080911401882349F0B5
:103DC0008091760587FF05C0C093530286E08093FB
:103DD00052020280F381E02D82E592E00995CF91B5
:103DE0000895882341F080959091F902892380936A
:103DF000F9020E94BB1E0895882339F09091F902C0
:103E0000982B9093F9020E94BB1E089567EE7EEFF7
:103E100090E080E00E94023660E082E090E00E9444
:103E2000E43560E083E090E00E94E4351092FB020C
:103E30001092FA0260E074E184E090E00E940236A1
:103E400060E086E090E00E94E4356FEF87E090E06C
:103E50000E94E43540E050E0BA0188E090E00E9422
:103E6000F63560E08DE090E00E94E43540E050E0FF
:103E7000BA0188E190E00E94F63560E087E190E0C9
:103E80000E94E43540E050E0BA018CE190E00E94ED
:103E9000F63570E060E080E290E00E94023640E09B
:103EA00050E0BA0188E190E00E94F63510920A04D1
:103EB00010920B0410920C0410920D0484E08061A7
:103EC00080930A0440910A0450910B0460910C0401
:103ED00070910D048FE090E00E94F63540E050E0D4
:103EE000BA0183E190E00E94F63508950E94A81778
:103EF00090E080E00E94CE35873E9E4F21F00E94E8
:103F0000061F0E944A1881E08093AE0546E050E00B
:103F10006CE170E08FEA95E00E94B0351092AE053A
:103F20008091AF058C7F11F40E944A18089580E2B9
:103F300090E090930F0180930E01809172028111A5
:103F40000EC00E94223381E0809372022FEF83ED36
:103F500090E3215080409040E1F700C0000064E60B
:103F600070E080E40E94283390930F0180930E014B
:103F7000892B09F04EC064E670E080E00E94943323
:103F800090930F0180930E01892B09F042C064E6E3
:103F900070E080E00E94943390930F0180930E01B3
:103FA000892BB9F564E670E08FE30E949433909317
:103FB0000F0180930E01892B61F50E94063464E69F
:103FC00070E080E40E94283390930F0180930E01EB
:103FD000892BF9F464E670E08CE00E9494339093AE
:103FE0000F0180930E01892BA1F464E670E080E05C
:103FF0000E94943390930F0180930E01892B49F412
:1040000064E670E08FE30E94943390930F018093F5
:104010000E010E94063480910E010895CF93C82F9F
:10402000873078F580910E0190910F01892B39F539
:1040300064E670E080E40E94283390930F0180933F
:104040000E01892BD1F464E670E082E10E94943382
:1040500090930F0180930E01892B79F481E090E019
:1040600001C0880FCA95EAF764E670E080950E9467
:10407000943390930F0180930E010E940634CF91E8
:1040800008958A30B1F038F4883069F0893071F0E1
:10409000209A2898F4CF8C3091F070F08D30C1F7D1
:1040A0003E9A4698ECCF219A2998E9CF229A2A98ED
:1040B000E6CF239A2B98E3CF529A5A98E0CF539A9F
:1040C0005B98DDCFCF93873050F580910E019091B2
:1040D0000F01C0E0892B71F464E670E081E40E9476
:1040E000283390930F0180930E01892B31F0C0E0AB
:1040F0000E9406348C2FCF91089584E690E00E94B0
:10410000C23397FF05C090930F0180930E01EFCF4C
:10411000C82FC09510920F0110920E01E9CFCFB1B8
:104120008FB1869586958C73C3708C2BC82FC095E4
:10413000E1CF1F920F920FB60F9211242F933F934E
:104140004F935F936F937F938F939F93AF93BF939F
:10415000EF93FF938091E10082FF09C08091E2001C
:1041600082FF05C08091E1008B7F8093E100809108
:10417000DA0080FF24C08091D80080FF20C08091A9
:10418000DA008E7F8093DA008091D90080FF9DC095
:1041900080E189BD82E189BD09B400FEFDCF81E0E7
:1041A00080939D0580917805811109C00E945B096B
:1041B0000E94FC098091E20084608093E20080917B
:1041C000E10080FF17C08091E20080FF13C0809162
:1041D000E2008E7F8093E2008091E2008061809314
:1041E000E2008091D80080628093D80019BC85E0FD
:1041F00080939D058091E10084FF2BC08091E200B7
:1042000084FF27C080E189BD82E189BD89B5982FEF
:10421000917080FFFBCF8091D8008F7D8093D80074
:104220008091E1008F7E8093E1008091E2008F7E9B
:104230008093E2008091E20081608093E2008091AF
:104240009E05882309F447C084E080939D058091F2
:104250009D058091E10083FF27C08091E20083FFEC
:1042600023C08091E100877F8093E10082E080930A
:104270009D0510929E058091E1008E7F8093E10064
:104280008091E2008E7F8093E2008091E200806165
:104290008093E20042E060E080E00E94CA098091E1
:1042A000F00088608093F000FF91EF91BF91AF9193
:1042B0009F918F917F916F915F914F913F912F913E
:1042C0000F900FBE0F901F90189519BC10929D056E
:1042D0001092780574CF8091E30087FD93E090936E
:1042E0009D05B5CF78941F921FB61F9211248F930E
:1042F0009F93AF93BF938091720590917305A091A6
:104300007405B09175050196A11DB11D80937205CC
:1043100090937305A0937405B0937505BF91AF9109
:104320009F918F911F901FBE1F9018959C014FB7B2
:10433000F8948091720590917305A0917405B091E5
:1043400075054FBF821B930B08952FB7F89480918A
:10435000720590917305A0917405B09175052FBFFA
:1043600008950E94A5219C0190913A0380913B03FE
:10437000982B21F0309338032093370390913C031E
:1043800080913D03982B21F0309336032093350321
:10439000E0916D05F0916E05309731F00480F58164
:1043A000E02D89E393E0099508951092F902809138
:1043B0001401E4E5F2E0882329F18091760587FF76
:1043C00021C08EE1DF011D928A95E9F790E080E03F
:1043D0000E94DD0A90E080E00E94B80A1092F80284
:1043E0000E94BB1E85E0E9E3F3E0DF011D928A95A0
:1043F000E9F71092320310923303109234030E94B3
:10440000B121089586E0DECFAAE2B0E0EAE0F2E270
:104410000C942D348FE995E02091F100DC012D936F
:10442000CD01B5E0873A9B07B9F78091A0058330AD
:1044300009F472C0B8F4813009F449C0823009F43B
:10444000B3C08091E80083FF86C280919F05909160
:10445000A0059A3008F07FC2E92FF0E0EB51F84C4C
:104460000C9469348A3009F48EC08B3009F471C021
:10447000893039F780919F05813219F78091A30522
:104480009091A405009711F00297D9F68091E80069
:10449000877F8093E8008091E80082FF38C0909188
:1044A000F3008091F200029731F48091F1008130A5
:1044B00011F0863021F48091F10080937A0580918B
:1044C000E8008B778093E8000E94AB09BACF809117
:1044D0009F05813A09F0B5CF8091E800877F8093EE
:1044E000E8008091A3059091A405892B61F460E216
:1044F0008BE795E070E00E94570A8091E8008B7787
:104500008093E8009ECF60E090E080E0F3CF809160
:104510009D058111C0CF95CF80919F05813A09F00B
:1045200090CF8091A3059091A405892B09F089CFA4
:104530008091E800877F8093E8008091E80080FF09
:10454000FCCF809114018093F1008091E8008E7778
:10455000B9CF80919F05813209F073CF8091A30577
:104560009091A405892B09F06CCF8091E800877F9A
:104570008093E8000E94AB098091A105809314010B
:104580000E94D5215ECF80919F05813209F059CFDD
:104590008091E800877F8093E8000E94AB098091BA
:1045A000A205809379054DCF80919F05813A09F04E
:1045B00048CF8091E800877F8093E8008091E800F1
:1045C00080FFFCCF80917905BECF803899F082388A
:1045D00009F0C1C18091A3058F70873008F0BBC17D
:1045E0008093E9008091EB0085FB882780F9109289
:1045F000E90006C080919B0590919C059111826015
:104600009091E800977F9093E8008093F1001092DA
:10461000F1008091E8008E779AC1882309F488C15F
:10462000823009F098C18091A10581118BC18091E0
:10463000A3058F702FEF280F263008F08CC18093D0
:10464000E9002091EB0020FF7DC1933031F480918F
:10465000EB0080628093EB0075C19091EB0090615C
:104660009093EB0021E030E001C0220F8A95EAF739
:104670002093EA001092EA008091EB008860EACF74
:10468000811169C11091A1051F778091E3008078A5
:10469000812B8093E3008091E800877F8093E8007E
:1046A0000E94AB098091E80080FFFCCF8091E3007D
:1046B00080688093E30082E0111183E080939D0580
:1046C0004AC18058823008F046C12091A10530913E
:1046D000A2052C3DE3E03E07A1F583E08A838AE250
:1046E00089834FB7F894DE01139620E03EE051E253
:1046F000E32FF0E050935700E49120FF03C0E295D0
:10470000EF703F5FEF708E2F90E0EA30C0F0C796F9
:104710008D939D932F5F243159F74FBF8091E8000F
:10472000877F8093E8006AE270E0CE0101960E94E4
:10473000570A8091E8008B778093E8000CC1C096FF
:10474000E7CF8091A3059091A405432F55274330CF
:10475000510509F44AC078F54130510509F47AC091
:1047600084E590E0E9ECF0E14230510509F0F3C056
:104770002091E800277F2093E8002091A505309143
:10478000A6058217930708F49C0140E02115310526
:1047900009F065C0411163C08091E80082FDC9CF76
:1047A00080919D05882329F2853019F28091E800D7
:1047B00083FFF2CFBECF4132510509F43CC04232F3
:1047C000510509F0C8C08330910508F0C4C0FC0150
:1047D000EE0FFF1FE05AFE4F0190F081E02D835A4B
:1047E0009E4FDC018C9190E01AC0332721303105B7
:1047F000D1F02115310561F02230310509F0ABC04F
:10480000EFE2F1E1E4918E2F90E0EFE2F1E107C0F9
:10481000E1E7F1E1E4918E2F90E0E1E7F1E100972B
:1048200009F499C0A5CFE7E4F1E1E4918E2F90E07F
:10483000E7E4F1E1F4CF8330910508F08CC0880FF4
:10484000991FFC01EA59FE4F0190F081E02D89E0AB
:1048500090E08ECF82E190E0EDE1F1E189CF8091AF
:104860009D05882309F465CF853009F462CF8091D6
:10487000E80083FD5ECF8091E80082FD8DCF8091BE
:10488000E80080FF83CF9091F3008091F200211522
:10489000310519F08830910550F041E0089709F092
:1048A00040E08091E8008E778093E8006FCF4491DC
:1048B0004093F1003196215031090196E8CF8038BC
:1048C00009F049C08091E800877F8093E8008091DB
:1048D0009E058093F1009DCE81113DC01091A105F0
:1048E0001230C8F58091E800877F8093E80010932C
:1048F0009E050E94AB09112311F084E005C0809150
:10490000E30087FDFACF81E080939D0542E061ECF2
:1049100081E00E94CA0942E061EC82E00E94CA097B
:1049200042E261EC83E00E94CA0980919D0513C0B8
:104930008091A105813079F481E0933009F080E025
:1049400080939C051092E9008091E800877F809316
:10495000E8000E94AB098091E80083FF0AC08091C3
:10496000E800877F8093E8008091EB00806280936D
:10497000EB00AA96E3E00C9449341F920F920FB615
:104980000F9211242F933F934F935F936F937F93D5
:104990008F939F93AF93BF93CF93DF93EF93FF9347
:1049A000D091E900DF708091EC00C82FC17080FDCC
:1049B000C0E81092E9008091F000877F8093F000BA
:1049C00078940E9404221092E9008091F00088609F
:1049D0008093F000CD2BCF70C093E900FF91EF9151
:1049E000DF91CF91BF91AF919F918F917F916F9107
:1049F0005F914F913F912F910F900FBE0F901F909D
:104A000018950E94D5212FEF84E39CE0215080402F
:104A10009040E1F700C0000088E19AE00FB6F894FA
:104A2000A895809360000FBE90936000FFCF66232F
:104A300009F45DC08D3C41F40E94E810819580939B
:104A40003B030E94B12108958E3C19F40E94E810A6
:104A5000F6CF8F3C31F40E94E810819580933A03A1
:104A6000F0CF803D19F40E94E810F8CF893D29F479
:104A70000E94C81080933C03E4CF8A3D21F40E9439
:104A8000C8108195F7CF8B3D31F40E94C8108195F5
:104A900080933D03D6CF8C3D19F40E94C810F8CF07
:104AA0009FE2980F983070F4815D990B21E030E01F
:104AB00001C0220F8A95EAF780913903822B8093F7
:104AC0003903BFCF8D3D31F48091340381608093F1
:104AD0003403B7CF8E3D21F4809134038260F7CF49
:104AE0008F3D09F0AECF809134038460F0CF4091C8
:104AF0003A038D3C59F480913B0387FF0DC010921F
:104B00003B0341110BC01092320308C08E3C81F46C
:104B100080913B0318169CF3442381F080913C0361
:104B200090913D03892B09F08CCF1092330389CFEC
:104B30008F3C49F447FFF0CF10923A0380913B033A
:104B40008111ECCFE0CF803D19F41416ACF3E4CF23
:104B500090913C03893D29F41916F4F610923C0318
:104B6000DBCF8A3D19F497FFD7CFF8CF90913D0363
:104B70008B3D29F497FFD0CF10923D03CDCF8C3DD4
:104B800019F41916CCF3C8CF9FE2980F983090F41F
:104B9000815D990B21E030E0B90102C0660F771FFB
:104BA0008A95E2F7CB018095909139038923809310
:104BB0003903B2CF8D3D31F4809134038E7F8093E1
:104BC0003403AACF8E3D21F4809134038D7FF7CF3B
:104BD0008F3D09F0A1CF809134038B7FF0CF8823E4
:104BE00009F45DC0823879F40E94020B81FF57C03E
:104BF00089E30E9454130E94BB1E89E30E9429137B
:104C00000E94BB1E0895833859F40E94020B80FF56
:104C100046C083E50E9454130E94BB1E83E5EECF7D
:104C2000843859F40E94020B82FF39C087E40E9445
:104C300054130E94BB1E87E4E1CF9CEF980F913A7A
:104C4000E8F290E2980F983088F4877021E030E025
:104C5000A90102C0440F551F8A95E2F7CA01809549
:104C60009091F90289238093F902CACF9BE5980FAE
:104C7000933028F490E080E00E94DD0A089598E5E2
:104C8000980F9B3128F490E080E00E94B80A0895C4
:104C900093E3980F933118F460E00E94172508956C
:104CA000CF93C82F8823C9F08238C9F40E94020B21
:104CB00081FD13C089E30E9454130E94BB1E2FEF95
:104CC00087EE93E0215080409040E1F700C0000063
:104CD00089E30E9429130E94BB1ECF910895833857
:104CE000A1F40E94020B80FDF8CF83E50E945413CB
:104CF0000E94BB1E2FEF81EE94E021508040904037
:104D0000E1F700C0000083E5E4CF8438A1F40E94FD
:104D1000020B82FDE2CF87E40E9454130E94BB1E67
:104D20002FEF81EE94E0215080409040E1F700C0E9
:104D3000000087E4CECF8CEF8C0F813A88F580910C
:104D40001401882301F18091760587FF1CC0EC2FA8
:104D5000E695E695E695F0E0EE5AFD4F828190E00B
:104D60004C2F477021E030E002C0220F331F4A95DC
:104D7000E2F782239323892B79F08C2F0E94291349
:104D80000E94BB1E09C0E4E5F2E08191C817A9F3B7
:104D900022E0EA35F207C9F78C2F0E9454139BCF0B
:104DA00080E28C0F883068F4C77021E030E001C0E9
:104DB000220FCA95EAF78091F902822B8093F902BB
:104DC0008ACFEBE5EC0FE33040F4F0E0E45EFE4F19
:104DD000808190E00E94DD0A80CFE8E5EC0FEB31A6
:104DE00050F4F0E0EE0FFF1FE15EFE4F80819181F5
:104DF0000E94B80A72CF83E38C0F833108F06DCF25
:104E000061E08C2F0E94172568CF1F93CF93DF930B
:104E1000182FD0E0C0E0893311F4C0E5D0E0812F35
:104E20000E945026209739F4812F0E94EF25DF91B0
:104E3000CF911F9108958FE99FE00197F1F700C08E
:104E400000002197EFCFB0E0A0E0E9E2F7E20C9498
:104E50002634EC018AE0A82EFE012491222309F4D5
:104E600097C0213009F03EC031968491813031F4F1
:104E70002296FE0184910E94052707C0823039F4F2
:104E80002296FE0184910E9450262196E5CF833020
:104E900031F42296FE0184910E94EF25F6CF8430F2
:104EA00009F074C02296FE01249190E080E0FE019A
:104EB00031962053330B2A30310548F0019728F3FF
:104EC000EFE9FFE03197F1F700C00000F7CFA89EAF
:104ED000A001A99E500D1124C901840F951F249192
:104EE000EF01E5CFE22FF0E0EB55FE4EB490822FBC
:104EF00086958695869590E0FC01EB56FE4EE490F3
:104F00002770F12C022E02C0F594E7940A94E2F780
:104F100031E0E322FF24FC01EB57FE4EC490D12C7C
:104F2000022E02C0D594C7940A94E2F7E1E0CE22A3
:104F3000DD24FC01EB58FE4E049110E002C01595F3
:104F400007952A95E2F701701127E114F10419F091
:104F500081EE0E945026C114D10419F086EE0E9401
:104F600050268B2D0E940527C114D10419F086EE1E
:104F70000E94EF25E114F10419F081EE0E94EF2563
:104F80000115110509F481CF8CE275CFEF017DCFBA
:104F9000CDB7DEB7EAE00C9442340F931F93CF9362
:104FA000DF93C62FD42F022FFC0182818823A9F022
:104FB0006093AD050E94A5219093AC058093AB054D
:104FC000C77081E001C0880FCA95EAF70E94FC1EF5
:104FD000DF91CF911F910F9108958091AD056813D6
:104FE00032C08091AB059091AC050E949621883C1F
:104FF000910548F510E21D0FCD17B9F080E28C0F36
:10500000883040F4C77081E001C0880FCA95EAF784
:105010000E94F11E183048F481E09D2F977001C066
:10502000880F9A95EAF70E94FC1E802F0E940527A0
:10503000183070F6D77081E001C0880FDA95EAF772
:105040000E94F11EC5CFC77081E001C0880FCA95CC
:10505000EAF7F6CFA5E0B0E0E0E3F8E20C942734FD
:105060007C01FC0183819481892B31F080819181C5
:1050700089238F3F09F024C42596E9E00C9443343A
:105080000E94B213182F682F89819A810E942614DA
:1050900069817A81812F0E94F3118C018115FEE7CD
:1050A0009F0769F181302EE7920709F481C08032B1
:1050B00038E7930709F0A5C0F70182818823E1F260
:1050C0008091B4058F3F09F093C080E00E94150BDA
:1050D00080910A048F7E80930A0440E060E080E0C3
:1050E0000E94D40C40910A0450910B0460910C046E
:1050F00070910D048FE090E00E94F635BDCFF7016E
:1051000082818823A9F180910A0491E0980F977019
:10511000887F953008F4892B80930A0480910A04D3
:105120008770FFEF8F9FC001112495958795959506
:1051300087959927909389008093880090938B009E
:1051400080938A0090938D0080938C0040910A0494
:1051500050910B0460910C0470910D048FE090E06D
:105160000E94F63580910804909109040E944E1522
:10517000F7019281992309F4C8C31092AD059801F3
:1051800030572332310508F0ACC384E090E00E9430
:10519000CE359093770580937605F801E150F0477E
:1051A000E232F10508F0B5C0E151F84C0C946934D5
:1051B000F70182818823E1F290910A04892F877F89
:1051C00093FF886080930A0483FF05C040E060E09D
:1051D00080E00E94D40C40910A0450910B0460912D
:1051E0000C0470910D048FE090E00E94F635C0CF62
:1051F0008FEF0E94150B80910A04806180930A044E
:1052000071CF8434FEE79F0709F458C070F48034EE
:105210009E47D0F4F801E851FC47E730F10508F06B
:10522000A7CFEF5EF74C0C94693485349E4791F715
:10523000F7018281882309F41FCF8091F90281FF51
:1052400047C083E999E041C0F7018281882309F4CE
:1052500013CF609108047091090490E080E00E94EF
:105260008B14282F30E00234FEE71F0729F10334A6
:105270004EE71407F1F001345EE7150779F42F5F6C
:105280003F4F28303105C1F081E090E002C0880F27
:10529000991F2A95E2F70E948715EECE2150310919
:1052A0002830310549F02F3F320771F727E030E011
:1052B000EBCF24E030E0E8CF20E0E6CFF7018281B9
:1052C000882309F4D9CE84EB99E00E942327D4CE19
:1052D00080E899E0FACF26E241EE61EEC7010E9434
:1052E000CD27CACE27E245EE65EEF8CF26E241EEA5
:1052F00060EEF4CF27E245EE64EEF0CF26E241EE19
:1053000062EEECCF27E245EE66EEE8CF28E241E020
:10531000EBCF8091760581608093760595C0809172
:1053200077058860809377058FC0809176058260CD
:10533000F3CF809176058460EFCF80917605886009
:10534000EBCF809177058160EDCF8091770582600A
:10535000E9CF809176058061DFCF8091760580620C
:10536000DBCF809176058064D7CF0E94D5218091D4
:1053700076058068D1CF809176058C60CDCF809105
:1053800077058360CFCF809176058E7FC5CF8091E2
:105390007705877FC7CF809176058D7FBDCF8091C0
:1053A00076058B7FB9CF80917605877FB5CF8091C9
:1053B00077058E7FB7CF809177058D7FB3CF8091B2
:1053C00076058F7EA9CF809176058F7DA5CF8091C0
:1053D00076058F7BA1CF0E94D521809176058F77AE
:1053E0009BCF80917605837F97CF809177058C7FC7
:1053F00099CF8091760582FB992790F921E0922739
:1054000090FB82F990FB83F987CF80917705982FE5
:10541000909591708E7F892B90FB81F983CF90912D
:105420007605892F8F7B96FF806476CF0E94D521E9
:1054300090917605892F97FB87F980586DCF61E0B1
:105440008EE090E00E94E4356091760570917705DA
:1054500084E090E00E9402360E94D5210DCE60E0EB
:10546000EFCF90917605892F8F7E94FF806154CF86
:1054700090917605892F8E7F90FF81604DCF90911E
:105480007705892F877F93FF88604CCF85E338C2EB
:1054900080917302811104C089E20E94291332C2F3
:1054A00085E3FBCF8091AF0591E089278093AF051D
:1054B000109218018091AE0581608093AE05DCCD1D
:1054C00041E85BE06BE87BE00E940F0BD5CD4BE839
:1054D0005BE061E87BE0F8CF4DE65BE067E77BE00F
:1054E000F3CF47E75BE06DE67BE0EECF43E55BE0C3
:1054F00060E67BE0E9CF40E65BE063E57BE0E4CF9C
:1055000049E35BE066E47BE0DFCF46E45BE069E330
:105510007BE0DACF4DE15BE06BE27BE0D5CF4BE2A5
:105520005BE06DE17BE0D0CF81E00E943209A4CD49
:1055300085E0FBCF8DE0F9CF82E1F7CF6FEF7FEF12
:1055400090E080E00E9402360E940125F701008170
:105550001181992309F1C8010E94B213D82E682F36
:10556000C8010E942614B8018D2D0E94F3110E94DB
:105570001212182FB82EF7016281258122952F7003
:10558000892F82958F70C82ED12C8C30E8F5F601CA
:10559000E85EF74C0C946934C8010E94F313D82ECE
:1055A000E2CF092F0F70907F11F00295007F812FBD
:1055B0006623C9F0002369F090E2910F983010F053
:1055C00011110BC08091F902082B0093F9020E947F
:1055D000BB1E812F0E94502617C08091F802082B15
:1055E0000093F802F4CF0E94EF25002369F00095A4
:1055F000105E183010F0B11021C08091F90208231C
:105600000093F9020E94BB1EE8E0CE1AD108F4E034
:10561000CF16D10410F40E94020B85E0F701DE01E1
:10562000119601900D928A95E1F709811A81C801BE
:105630000E94F313B8010E94F3111ECD8091F8026D
:1056400008230093F802DECF892F8F70907F90326D
:1056500011F08295807FF1E0BF120CC0662329F023
:10566000223090F60E94FC1ECFCF2111CDCF0E9498
:10567000F11ECACF662319F02223A1F3AACF222359
:10568000B1F3193349F42FEF37EE43E021503040A6
:105690004040E1F700C00000812F0E94EF25B4CF09
:1056A000892F86958695837061F0813009F0ACCFA3
:1056B000812F9370611102C080E090E00E94B80ACF
:1056C000A3CF812F9370611102C080E090E00E940F
:1056D000DD0A9ACF812F0E94172596CF892F8370DC
:1056E00009F042C0611190CF812F82958695877015
:1056F000880F880F212F2F7030E0082E02C0220F54
:10570000331F0A94E2F750E040E014FF09C04FE075
:1057100050E002C0440F551F8A95E2F7409550951E
:105720009695969593709230A9F080F46091FA0264
:105730007091FB02913041F0C901842B952B862397
:1057400097230E945C1460CF262B372BC901842B32
:10575000952BF7CFC901842B952B2091FA0230911C
:10576000FB0282279327EDCF8695662311F0892FC0
:105770008170882309F448CF812F829586958770A0
:10578000880F880F212F2F7030E0082E02C0220FC3
:10579000331F0A94E2F750E040E014FF09C04FE0E5
:1057A00050E002C0440F551F8A95E2F7409550958E
:1057B0009695969593709230A9F080F460910804C4
:1057C00070910904913041F0C901842B952B8623F7
:1057D00097230E94871518CF262B372BC901842BBE
:1057E000952BF7CFC901842B952B2091080430917C
:1057F000090482279327EDCF092F0F70662329F024
:10580000802F0E94A015812F2DCF812F0E94F11E85
:10581000802F0E948E15F8CE812F51EF151789F138
:10582000511750F0E0EF1E17D1F06623C9F1211196
:10583000D0CE892F8F7129C0F2EF1F1749F133EFB6
:105840001313F3CF662349F19F7121E030E0A901E2
:1058500002C0440F551F9A95E2F7CA01BACF6623DA
:1058600061F02111D1CE292F2F7181E090E002C08B
:10587000880F991F2A95E2F7B8CF223008F0C4CEDE
:10588000F2CF892F8F71662321F20E94A015BCCE22
:10589000892F8F716623C9F3BCCF90E080E099CF48
:1058A000222359F0893309F0F7CE5FEF87EE93E0BA
:1058B000515080409040E1F7EDCE892F8F71A9CFF4
:1058C00085E0DE01119601900D928A95E1F7F701CE
:1058D000228189819A812111D3CB0E94F313182F41
:1058E000D7CB0631FCE71F0719F58091F9028A7AB8
:1058F00091E009F490E0909373028111C7CD89E2A1
:105900000E9454130E94BB1EB7CB06312CE712072E
:1059100009F4BECD8091F9028272F801E052F84795
:10592000E531F10508F012CEEC5DF74C0C946934CA
:1059300001303CE7130709F407CE03304CE71407A6
:1059400009F4FCCD01155CE7150709F0FFCD0E94B5
:10595000D521FFEF24E33CE0F15020403040E1F757
:1059600000C00000F89481E08093E00080E2809322
:10597000D8001092C9008FE19EE40197F1F700C0B2
:1059800000001DBA109268001CBC10BE1FBA109215
:105990007A0010926E0010926F00109271001092B7
:1059A00072001092C9001092BC0014B817B81AB84F
:1059B0001DB810BA1092BC0015B818B81BB81EB8A4
:1059C00011BA0C94003F58CB1F93CF93DF93809173
:1059D000A502807F09F04BC08091A202882309F4C0
:1059E00046C08091D702C091A6024091A00250917A
:1059F000A1026091A3027091A402D42FD52316E0D6
:105A0000C817A9F190E061157105A9F1DF3F99F17F
:105A1000189FF001199FF00D1124DF01A955BD4F0A
:105A200011962C911197251326C02C91241323C075
:105A300012962C91129721111EC013962D913C9114
:105A4000261B370B283C3105B0F48091A5028F70DE
:105A500080618093A502E455FD4F80818F70806145
:105A6000808380EA92E00E942A280E94A813DF9196
:105A7000CF911F91089501968770C2CFA1E1B0E048
:105A8000E4E4FDE20C9424348C0185E0F801DE01AD
:105A90001D9601900D928A95E1F7F801E28080EA67
:105AA000882E82E0982E4091A3025091A4024115C5
:105AB000510509F430C19091A0022091A102892FD3
:105AC00082238F3F09F427C1D080C180A380B48096
:105AD000F090A202B501641B750BFF2009F4E7C02A
