:100000000C945E0B0C947B0B0C947B0B0C947B0B75
:100010000C947B0B0C947B0B0C947B0B0C947B0B48
:100020000C947B0B0C947B0B0C9466220C94222278
:100030000C949B340C947B0B0C947B0B0C947B0BDF
:100040000C947B0B0C947B0B0C947B0B0C947B0B18
:100050000C947B0B0C946E1E0C947B0B0C947B0B02
:100060000C947B0B0C947B0B0C947B0B0C947B0BF8
:100070000C947B0B0C947B0B0C947B0B0C947B0BE8
:100080000C947B0B0C947B0B0C947B0B0C947B0BD8
:100090000C947B0B0C947B0B0C947B0B0C947B0BC8
:1000A0000C947B0B0C947B0B0C947B0BAAFFFFAA8C
:1000B000FFFFAAFFFFAAFFFFAAFFFFAAFFFFAAFFF9
:1000C000FFAAFFFFAAFFFFAAFFFFAAFFFFAAFFFFE9
:1000D000AAFFFFAAFFFFAAFFFFAAFFFFAAFFFFAA2E
:1000E000FFFFAAFFFFAAFFFFAAFFFFAAFFFFAAFFC9
:1000F000FFAAFFFFAAFFFFAAFFFFAAFFFFAAFFFFB9
:10010000AAFFFF55FFFFAAFFFFAAFFFFAAFFFFAA52
:10011000FFFFAAFFFFAAFFFFAAFFFFAAFFFFAAFF98
:10012000FF55FFFF80FFFF1CFFFF1CFFFF1CFFFFB1
:1001300055FFFF55FFFF55FFFF55FFFF0000000073
:1001400000000000000000000000000000000000AF
:100150000055FFFF55FFFF55FFFF55FFFF55FFFF00
:1001600055FFFF55FFFF000000000000AAFFFFAA97
:10017000FFFFAAFFFF55FFFF55FFFF55FFFF55FF8C
:10018000FF55FFFF55FFFF0000FFAAFFFFAAFFFF7B
:10019000AAFFFF55FFFF55FFFF55FFFF55FFFF5516
:1001A000FFFF55FFFF000000AAFFFFAAFFFFAAFF05
:1001B000FF0000FF00000000000000000000000041
:1001C00055FFFF00000000000000000000000000DC
:1001D000000000000000000000000000000000001F
:1001E00000000000000000000000000000EA80FFA6
:1001F00080FF80EA80FFEA80FFEA80FFEA80FFEA72
:1002000080FFEA80FF0000000000FF80FF8080FF89
:100210008080FF80EA80FF80FF8080FF8080FF80F9
:1002200080FF801CFFFF0000FF0000FF0000FF00B8
:1002300000FFEA80FF00000055FFFF55FFFF0000B0
:1002400000000000000000000000000000000000AE
:100250000000000000000000FF0000FF00000000A0
:10026000000000000000000000000000000000008E
:10027000000000000000000000000000000000007E
:100280000000000000000000000000002BFFFF2B1A
:10029000FFFF2BFFFF2BFFFF0000001EDADA1EDA44
:1002A000DA1EDADA0000000000002BFFFF2BFFFF50
:1002B0002BFFFF2BFFFF0000007B5A707B5A707BE7
:1002C0005A700000000000002BFFFF2BFFFF2BFFE8
:1002D000FF2BFFFF000000000000000000000000F6
:1002E000000000000000000000000000000000000E
:1002F00000000000000000000000000000000000FE
:1003000000000000000000000000000000000000ED
:1003100000000000000000000000000000000000DD
:1008A0000000000000000000000000FFFF00FFFF4C
:1008B00000FFFF00FFFF00FFFF000000EA80FF8055
:1008C000FF80EA80FF00000000FFFF00FFFF00FF45
:1008D000FF00FFFF00FFFF00000080FF8080FF801F
:1008E00080FF8000000000FFFF00FFFF00FFFF000F
:1008F000FFFF0000000000000000000000000000FA
:100900000000000000000000FFFF000000000000E9
:1009100000000000000000000000000000000000D7
:1009200000000000000000000000000000000000C7
:100930000055FFFF55FFFF55FFFF00000055FFFF6B
:1009400055FFFF55FFFF000000000000AAFFFFAAAF
:10095000FFFFAAFFFF55FFFF55FFFF55FFFF55FFA4
:10096000FF55FFFF55FFFF000000AAFFFFAAFFFF92
:10097000AAFFFF55FFFF00000055FFFF55FFFF5581
:10098000FFFF55FFFF000000AAFFFFAAFFFFAAFF1D
:10099000FF0000FF00000000000055FFFF55FFFFB3
:1009A0000000000000000000000000000001010144
:1009B000010101010101020202020202020202031C
:1009C00003030303030303040404040404040505EC
:1009D00005050506060606060707070707080808AF
:1009E00008090909090A0A0A0B0B0B0C0C0C0D0D5E
:1009F0000D0E0E0E0F0F0F101011111112121313F6
:100A00001414151516161717181819191A1A1B1B6E
:100A10001C1D1D1E1E1F20202122222324242526CA
:100A200026272829292A2B2C2D2D2E2F3031323202
:100A3000333435363738393A3B3C3D3E3F4041420E
:100A4000434445464748494A4C4D4E4F50515354F4
:100A5000555658595A5B5D5E5F61626465666869A8
:100A60006B6C6D6F7072737577787A7B7D7E808228
:100A7000838587888A8C8E8F91939596989A9C9E71
:100A8000A0A2A3A5A7A9ABADAFB1B3B5B7BABCBE81
:100A9000C0C2C4C6C9CBCDCFD1D4D6D8DBDDDFE24E
:100AA000E4E7E9EBEEF0F3F5F8FAFDFF3900015168
:100AB0002B00E100025100001E00140004001D0084
:100AC000035129001F001A0016001B00E0004C0013
:100AD0002000080007000600E3002A00210015009E
:100AE00009001900E2000000220017000A000500BA
:100AF000000000001F50280000002C0000001050D3
:100B000011504C0000002A000000000023001C00CF
:100B10000B00110000000000240018000D00100060
:100B20002D00000025000C000E0036002E002C00C9
:100B3000260012000F0037002F00280027001300A6
:100B400033003800300029000000E100340001517A
:100B500002510000000001512B00000000000000C5
:100B60000000330235023100000029000000260297
:100B70002302200200004C000000250222021F0276
:100B800000002A000000240221021E0200000000D2
:100B90000000000035003102000000001050280065
:100BA00000002C000000105012504C0000002A00E1
:100BB00000000000000000002B000000000000000A
:100BC0000000240021001E005600000054002500F3
:100BD00022001F00000027005500260023002000EF
:100BE00000002C0056005700630058000000290048
:100BF00000000000000001510000000000000000A3
:100C00000000E100025100000000000004081D087F
:100C1000000029000000F400F2001B0800000000A2
:100C20000000F000F10006082A00E0000000F500D6
:100C3000F30019084C0000000000F600F900FA006B
:100C4000000000001150280000002C00000010508F
:100C500013504C0000002A000000000000004A0071
:100C6000500000000000000000004E0051002D0068
:100C70002800000000004B0052002E002C00E30072
:100C800000004D004F000000500100000000000077
:100C9000E20000004F0129000F0A000000000000E0
:100CA00002510000000000000000000000000000F1
:100CB00000000000000000000351000000000000E0
:100CC000AA00AC000000000000000000A800AE0078
:100CD0000000000000000000A900AB0000000000C0
:100CE00000000000000000000000000012500000A2
:100CF00000000000000010501E5000000000000026
:100D000000000000000000000000000000000000E3
:100D100000003A003E0042000000000000003B00DE
:100D20003F0043000000000000003C004000440081
:100D30000000000000003D004100450000000000F0
:100D400000000000000000000000000000000000A3
:100D50000000000000000000000000000000000093
:100D60000000000000000000000000000000000083
:100D70000000000000000000000000000000000073
:1013D00000000000000000000000000000002900E4
:1013E0004C000E0C0251000000000E030F0800001C
:1013F0000351280000001E082008F4000000160811
:1014000000000C0836003A0000002C00000000002C
:1014100037003E000000000000001D0A1D0800000B
:1014200000000000135000000000000000001050F9
:101430001F5000000000000000000000000000003D
:1014400000000000000000000000F400F2000000B6
:10145000000000000000F000F100000000000000AB
:101460000000F500F3000000000000000000000094
:10147000000000000000000000000000000000006C
:1014800000000000000029000408E10002510000F3
:1014900000000F02150200000000160800001602EE
:1014A00010001B0000004C00000012000502170095
:1014B0001D08E30000001202150018001C080000BF
:1014C0000000000009000C08000000001E50000091
:1014D000000000000000105010500000000000004C
:1014E00000000000000000000000000000000000FC
:1014F0000000240021001E0000000000380025002C
:1015000022001F00000027002502260023002000E3
:10151000000028002D002E0237002A0000002B00BA
:101520000000000000000000025100000501090257
:10153000A10185020901A10005091901290515006C
:10154000250195057501810295017503810105014C
:10155000093009311581257F950275088106093802
:101560001581257F950175088106050C0A3802153D
:1015700081257F950175088106C0C005010980A1FC
:1015800001850319012AB700150126B700950175D9
:10159000108100C0050C0901A101850419012AA0D0
:1015A00002150126A002950175108100C0050109F0
:1015B00006A1018505050719E029E7150025019514
:1015C00008750181020507190029EF15002501950D
:1015D000F07501810205081901290595057501912C
:1015E00002950175039101C005010906A1010507D6
:1015F00019E029E71500250195087501810295017B
:10160000750881010507190029FF150026FF0095BF
:1016100006750881000508190129059505750191D0
:1016200002950175039101C009023B00020100A06F
:10163000FA09040000010301010009211101000160
:101640002240000705810308000A09040100010384
:1016500000000009211101000122BC0007058203DE
:1016600020000A120110010000000897327449019D
:10167000000102000116034500720067006F00447C
:10168000006F007800200045005A00000028035A2F
:101690000053004100200054006500630068006EA4
:1016A000006F006C006F006700790020004C006143
:1016B00000620073000000040309040011241FBE2F
:1016C000CFEFDAE0DEBFCDBF13E0A0E0B1E0ECEA9F
:1016D000F2E702C005900D92A23AB107D9F726E0D1
:1016E000A2EAB3E001C01D92A934B207E1F70E945B
:1016F000EC310C94EF380C940000E8EDF0E08081C0
:101700008E7F80831092E2001092DA001092E10046
:10171000A0EEB0E08C9181608C9380818F77808384
:1017200019BCA7EDB0E08C918E7F8C9380818F7E69
:1017300080831092090608952091E4003091E5001D
:1017400095E6A9012091EC00822F817020FF06C050
:101750008091E80080FF06C080E008952091E800B5
:1017600022FD1AC080912F06882389F0853089F0E8
:101770008091EB0085FD0FC02091E4003091E500E1
:1017800042175307F9F29150E1F684E0089582E0A0
:10179000089583E0089581E00895EF92FF920F93FA
:1017A0001F93CF937C018B010E949C0BC82F81114A
:1017B00017C08091E80085FD0BC08091E8008E770E
:1017C0008093E8000E949C0B882399F3C82F08C0DF
:1017D000F70181917F018093F1000150110949F7D0
:1017E0008C2FCF911F910F91FF90EF9008958091D2
:1017F000310687FF13C08091E80082FF06C0809108
:10180000E8008B778093E80004C080912F06811157
:10181000F2CF089580912F068823D9F38091E800B4
:1018200080FFF8CF8091E8008E77ECCF982F9093CF
:10183000E900242F762F50E0891731F07091EC00E9
:101840002091ED005091F00021FD07C09F5F97307F
:1018500071F78093E90081E008953091EB003E7FBD
:101860003093EB003091ED003D7F3093ED003091EF
:10187000EB0031603093EB007093EC002093ED00AF
:101880005093F0002091EE0027FDE0CF80E0089516
:10189000CF92DF92EF92FF920F931F93CF93DF933C
:1018A000C8EDD0E088818F7E8883E7EDF0E080810D
:1018B0008160808384E082BF81E080930906888113
:1018C0008E7F888302EE10E0F80110821092DA0019
:1018D00081EEC82ED12CF601108288818F77888303
:1018E00088818068888388818F7D888319BC109265
:1018F0002F061092300610922E0610922D0690EEB2
:10190000E92EF12CF70180818B7F808388818160B3
:10191000888342E060E080E00E94160CF60180813E
:101920008E7F8083F80180818160808380818860E0
:101930008083F70180818E7F8083888180618883A6
:10194000DF91CF911F910F91FF90EF90DF90CF909B
:101950000895FC0180913706909138068617970705
:10196000A0F06115710529F49091E8009E7790939D
:10197000E80090E06115710551F4911108C0809163
:10198000E80082FF34C080E00895BC01F2CF80916E
:101990002F068823C1F18530C1F18091E80083FDD5
:1019A00030C08091E80082FDEACF8091E80080FF9E
:1019B000E1CF8091F3002091F200382F611571057D
:1019C00019F02830310558F091E02830310509F040
:1019D00090E02091E8002E772093E800CBCF819112
:1019E0008093F100615071092F5F3F4FE7CF8091E5
:1019F0002F06882341F0853041F08091E80083FF75
:101A0000BECF81E0089582E0089583E0089580913B
:101A10000C0608959091F505803F59F48091F605E4
:101A200087FF0DC01092F60591110BC01092F005C2
:101A300008C0813F81F48091F60518169CF3992324
:101A400081F08091F7059091F805892B09F064C029
:101A50001092ED050895823F49F497FFF0CF109260
:101A6000F5058091F6058111ECCFE0CF833F19F4A5
:101A70001916ACF3E4CF2091F705893F29F412162B
:101A8000F4F61092F705DBCF8A3F19F427FFD7CF82
:101A9000F8CF2091F8058B3F29F427FFD0CF109283
:101AA000F805CDCF8C3F19F41216CCF3C8CF843F84
:101AB00031F48091F4058E7F8093F405C0CF853F8B
:101AC00021F48091F4058D7FF7CF863F21F480913A
:101AD000F4058B7FF1CF873F21F48091F405877F58
:101AE000EBCF883F21F48091F4058F7EE5CF8D3FC9
:101AF00031F48091BD058E7F8093BD05A0CF8E3FD0
:101B000021F48091BD058D7FF7CF8F3F09F097CFEE
:101B10008091BD058B7FF0CF08958091BD0580FD3C
:101B200016C081FD16C082FD16C08091ED05882388
:101B3000A1F0883280F428E0829FC001112468E27D
:101B400070E00E94B635862F672B39F0089582E049
:101B5000089584E0089588E0089581E008958091D3
:101B6000BD0580FD16C081FD16C082FD18C08091A4
:101B7000F005882391F08C3390F423E2829FC0011A
:101B800011246CE370E00E94B635862F672B49F074
:101B9000089588E0089581E1089585E0089583E23D
:101BA000089581E00895803F31F40E94AF0D819542
:101BB0008093F6050895813F19F40E94AF0DF8CF88
:101BC000823F31F40E94AF0D81958093F505089511
:101BD000833F19F40E94AF0DF8CF893F29F40E948A
:101BE0008D0D8093F70508958A3F21F40E948D0D95
:101BF0008195F7CF8B3F31F40E948D0D81958093B5
:101C0000F80508958C3F19F40E948D0DF8CF843F9C
:101C100031F48091F40581608093F4050895853F47
:101C200021F48091F4058260F7CF863F21F4809102
:101C3000F4058460F1CF873F21F48091F40588603A
:101C4000EBCF883F21F48091F4058061E5CF8D3F93
:101C500031F48091BD0581608093BD0508958E3F6C
:101C600021F48091BD058260F7CF8F3FB9F7809155
:101C7000BD058460F1CF9C014FB7F8948091B90500
:101C80009091BA05A091BB05B091BC054FBF821BD6
:101C9000930B08958091B40581111092B4050895B5
:101CA0008091B3059091B205892B9091B105892B54
:101CB0008093A2039091B4059923A1F0892B80937E
:101CC000A20380911401882341F18091D60587FFFA
:101CD00024C08EE1E4EAF3E090E0815000F5911138
:101CE0000E944A0EE091DC05F091DD053097E1F0AD
:101CF00080911401882359F08091D60587FF07C091
:101D00008091A2038093A30385E08093A2030280C5
:101D1000F381E02D82EA93E0099486E0DBCF219104
:101D20002223D9F29F5FD9CF08959091140199236E
:101D3000D1F09091D60597FF16C0E82FE695E6956D
:101D4000E695EE31E0F4F0E0EE55FC4F282F2770D9
:101D500081E090E001C0880F2A95EAF78095928192
:101D6000892382830895E4EAF3E09191891303C003
:101D7000DF0111971C9293E0EA3AF907B1F7089551
:101D8000909114019923C1F09091D60597FF14C04A
:101D9000E82FE695E695E695EE31F8F4F0E0EE559D
:101DA000FC4F877021E030E001C0220F8A95EAF7EE
:101DB0008281822B82830895A4EAB3E0EFEF90E062
:101DC0002D91821751F0EF3F19F4211101C0E92F35
:101DD0009F5F9630A9F7EF3F09F408950E2E000C8F
:101DE000FF0BEE55FC4FE6CFE92FEE0FE90FEE0F9C
:101DF0008E0F982F977086958695869525E0829F01
:101E0000F0011124E758FA4F50E040E080E02191C2
:101E100030E0092E02C0369527950A94E2F721702A
:101E20003327042E01C0220F0A94EAF7822B4F5F5A
:101E30005F4F4530510559F70895E92FEE0FE90F2F
:101E4000EE0F8E0F982F977041E001C0440F9A95C6
:101E5000EAF786958695869595E0899FF00111248D
:101E6000E758FA4F30E020E070E05191DF01119720
:101E7000CB01022E02C0969587950A94E2F78170F5
:101E800081958527842385278C932F5F3F4F2530AD
:101E9000310559F708958091780590914705981379
:101EA00001C008958F5F8770FACF882341F0809535
:101EB0009091B20589238093B2050C94500E089539
:101EC000882339F09091B205982B9093B2050C9429
:101ED000500E0895882341F080959091B305892391
:101EE0008093B3050C94500E0895882339F0909197
:101EF000B305982B9093B3050C94500E0895209140
:101F00002B0530912C052817390771F090932C057B
:101F100080932B05E091DC05F091DD05309721F0F1
:101F20000084F185E02D09940895209129053091D0
:101F30002A052817390771F090932A0580932905FF
:101F4000E091DC05F091DD05309721F00680F78106
:101F5000E02D09940895E091DC05F091DD053097BE
:101F600021F00190F081E02D099480E00895FA01BC
:101F7000811101C0FB0109948033910538F5880F68
:101F8000991F880F991FFC01EC5DFE4F5281338130
:101F900080818370E181A82FB0E070E9879FC00144
:101FA00011248D519C4FE80FF92FF11DB4976083D8
:101FB000FC01E50FF11DB4974083830F911DFC01D7
:101FC000B4972083AF51BC4F81E08C930895FF926A
:101FD0000F931F93CF93DF93182F062FF42ED0E08B
:101FE000C0E02F2D402F612FCE010E94BC0F219603
:101FF000C033D105B1F7DF91CF911F910F91FF90C1
:10200000089580914006837011F410921801809118
:1020100040068C7F81608093400608950C94E70F02
:102020000C94BC0F0F931F9310E0F801EE0FFF1FED
:10203000EF5EFC4F9081905797FD9195000F111F17
:10204000F801EE5EFC4F00810052110B2003F001FD
:10205000219FF00D112408E310E0091B110997FDE1
:10206000139540039001419F300D1124E20FF31F9F
:102070009F01220F331F2E0F3F1F37FF02C0215831
:102080003F4F220F232F221F330B620F1F910F91FF
:1020900008950F931F93522F10E0F801EE0FFF1FCA
:1020A000EE5EFC4FA081A052BB0B9D015203F001DC
:1020B000539FF00D1124000F111FD801AF5EBC4FCC
:1020C0000C910057110B40039001419F300D1124DA
:1020D0002E0F3F1F37FF02C0215C3F4F96E0359522
:1020E00027959A95E1F7620F1F910F9108950F932D
:1020F0001F93522F10E0F801EE0FFF1FEE5EFC4F12
:10210000A081A052BB0B9D015203F001539FF00D23
:102110001124000F111FD801AF5EBC4F0C91005766
:10212000110B40039001419F300D11242E0F3F1FD2
:1021300037FF02C021583F4F220F232F221F330B9E
:10214000620F1F910F910895EF920F93972F23E045
:10215000029FB0011124759567956E0D792F0F912F
:10216000EF900895322F50E0FA01EE0FFF1FEE5E60
:10217000FC4F9081905297FD9195440F551FFA01A5
:10218000EF5EFC4F2081231B330B290F311D97FD80
:102190003A95620F0895E42FF0E0EE0FFF1FEE5E18
:1021A000FC4F6081621B0895E42FF0E0EE0FFF1FEB
:1021B000EF5EFC4F6081621B0895622F0895E42F4B
:1021C000F0E0EE0FFF1FEF5EFC4F408134EE439FC7
:1021D000412D1124E82FF0E050E0445E5F4FDA011A
:1021E000A21BB1099D01B7FF03C0319521953109AB
:1021F00093E0220F331F9A95E1F7AF01421B530B77
:102200009A0157FD20E0582F259F212D1124822F60
:102210000895E42FF0E0EE0FFF1FEF5EFC4F4081CA
:1022200034EE439F412D1124E72FF0E050E0445E4F
:102230005F4FDA01A21BB1099D01B7FF03C03195C1
:102240002195310993E0220F331F9A95E1F7AF01F1
:10225000421B530B9A0157FD20E0279F212D11248B
:10226000722F0895FC019B01009729F480E077FF0D
:102270002BC080E80895AC0197FF04C04427552780
:10228000481B590BB901640F751F37FD10C0241B83
:10229000350BC901A5E0880F991FAA95E1F70E94A7
:1022A000B63580E2861BF7FF0FC081950895CB01FC
:1022B00065E0880F991F6A95E1F7BA01621B730BFD
:1022C0000E94B63580E6EECF0895EF920F93CF933C
:1022D000DF93D72FC82FC9010E19BA010E943211FE
:1022E000602F681B7D2F8C2FDF91CF910F91EF9086
:1022F00008950F93CF93DF93D72FC82FC901BA0149
:102300000E943211682F600F7D2F8C2FDF91CF91AB
:102310000F910895EF920F931F93CF93DF93D62FD2
:10232000C72F182FC9010E19010FBA010E943211CF
:10233000081B202F219F212D1124822F6D2F7C2FF0
:10234000DF91CF911F910F91EF900895EF920F932E
:102350001F93CF93DF93D62F172FC82FC9010E19C4
:10236000070FBA010E943211702F781B719F712DD7
:1023700011246D2F8C2FDF91CF911F910F91EF9032
:1023800008950F931F93CF93DF93D62FC72F182F46
:10239000C901212F201B022FBA010E943211982F50
:1023A000990F990F891B800F282F219F212D112410
:1023B000822F6D2F7C2FDF91CF911F910F91089568
:1023C0000F931F93CF93DF93D62F172FC82FC901D9
:1023D000272F201B022FBA010E943211982F990F2C
:1023E000990F782F791B700F719F712D11246D2F0C
:1023F0008C2FDF91CF911F910F910895E82F86FDCB
:10240000E0952E2F2F7086FD2F5FE695E695E695D9
:10241000E670F0E0E45EFE4F9181929F902D212DB9
:10242000112492959F702295207F922B2081920FEC
:1024300087FD919580E8890F0895AC018230910560
:1024400008F408959FEF413E8EE1580740F49A0149
:1024500095E0369527959A95E1F798E0920F61E01F
:10246000E62FE90FFF27FF1F9F0135952795822F44
:10247000229FF001239FF00DF00D11244E175F07EE
:1024800038F49FEF920F961758F78FEF860F089545
:102490002F3FE9F361E0620FF6CF0F93CF93DF9305
:1024A000D72FC82F47FD419588E390E0841B910901
:1024B00047FD9395889FB001899F700D700D112481
:1024C000229FC001239F900D900D1124860F971F0E
:1024D0000E941D12982F990F890F682F600F7D2F72
:1024E0008C2FDF91CF910F91089530E020E0869FEF
:1024F000212D969F200D311D1124C9010895AF9201
:10250000BF92CF92DF92FF920F931F93CF93DF93EF
:10251000362F472FE82FF0E0E455F64F71110FC02A
:10252000E4918E2F2E2F6E2F722FDF91CF911F915E
:102530000F91FF90DF90CF90BF90AF900895C72F7D
:10254000D0E02491F22E022F10E056E0659FC001EA
:102550001124EFEFF0E0BF010E94A235832F90E03D
:10256000880F991F35E5369FD001379FB00D112494
:102570008A1B9B0B982F990F980F6F01CC1ADD0ABD
:10258000C09ED001C19EB00DD09EB00D11248B2FE6
:10259000499FA0011124452F55276F01C41AD50A60
:1025A000C09EA001C19E500DD09E500D11245F0110
:1025B000A91AB108AC9E6001AD9ED00CBC9ED00C97
:1025C0001124CD2CDD24EC19FD09E09FE001E19FF1
:1025D000D00DF09FD00D1124ED2F62307105A1F0C8
:1025E00050F46115710509F49ECF6130710581F0D9
:1025F000EB2F852F98CF6430710569F080F066303D
:10260000710509F490CFF4CFE22F2B2F8D2F8BCFB4
:10261000E22F252F88CFEB2F822F2D2F84CF2B2F2A
:102620008F2DE52F80CF9F92AF92BF92CF92DF92F6
:10263000EF92FF920F931F93CF93DF936C018091E2
:102640001501C82FCC0FCC0FC80F15E01C0FB12EF1
:10265000113310F030E3B32E609144066695669511
:1026600080913C0690913D060E947512F82E80E400
:102670008F0D0E94FE1190E8A92EA80E8F2D0E94AA
:10268000FE1120E8922E980ED0E0CB1580F081E06C
:10269000103308F080E0DF91CF911F910F91FF90F0
:1026A000EF90DF90CF90BF90AF909F900895FE0184
:1026B000EF58FC4F8081909116018923A1F0609121
:1026C00041067091420680914306EF2C0C2F292D74
:1026D0004A2DF60109950E947F12462F282F672F59
:1026E000CE010E9410102196D0CF7F928F929F92A0
:1026F000AF92BF92CF92DF92EF92FF920F931F9310
:10270000CF93DF935C0180911501C82FCC0FCC0FC4
:10271000C80F15E01C0FF12E113310F030E3F32E2B
:1027200060914406669580913C0690913D060E941A
:102730007512782ED0E0CF1590F081E0103308F0BC
:1027400080E0DF91CF911F910F91FF90EF90DF908C
:10275000CF90BF90AF909F908F907F900895FE0193
:10276000EF58FC4F8081909116018923C9F1CE0169
:10277000880F991F83549D4FFC01EC5AFF4F208115
:10278000422F4057550B6A018B5A9F4FFC018081A5
:10279000282F2052330B4901449F9001459F300D53
:1027A000300D1124889CC001899C900D900D11243E
:1027B000820F931F0E941D12082F60914106709195
:1027C000420680914306E72C9401A601F501099584
:1027D0000E947F12462F282F672FCE010E941010D3
:1027E0002196A9CFCF92DF92EF92FF920F931F9382
:1027F000CF93DF937C0180911501C82FCC0FCC0FB4
:10280000C80F15E01C0FD12E113310F030E3D32E7A
:1028100060914406669580913C0690913D060E9429
:102820007512C82ED0E0CD1568F081E0103308F0A5
:1028300080E0DF91CF911F910F91FF90EF90DF909B
:10284000CF900895FE01EF58FC4F808190911601C2
:10285000892311F1CE01880F991F83549D4FFC01EC
:10286000EB5AFF4F20812052330B8C5A9F4FFC01B3
:1028700040814057550B609141067091420680910E
:1028800043060C2DF70109950E947F12462F282F31
:10289000672FCE010E9410102196C5CFDF92EF92D4
:1028A000FF920F931F93CF93DF937C0180911501CB
:1028B000C82FCC0FCC0FC80F15E01C0F012F113300
:1028C00008F000E3609144066695669580913C06A9
:1028D00090913D060E947512D82ED0E0C01760F08E
:1028E00081E0103308F080E0DF91CF911F910F91CC
:1028F000FF90EF90DF900895FE01EF58FC4F80812C
:1029000090911601892391F06091410670914206E1
:10291000809143062D2D4C2FF70109950E947F12BF
:10292000462F282F672FCE010E9410102196D6CF58
:102930009091D60592FF06C0282F28712830F9F40F
:10294000877F846093FF06C0282F28712831F1F417
:10295000877E84612091D70520FF06C0382F38710B
:102960003830D9F4877F816021FF06C0282F287175
:102970002831D1F4877E816194FD877E0895282FC8
:1029800024712430F9F68B7F8860DCCF282F2471E6
:10299000243101F78B7E8861DDCF382F31713130E2
:1029A00019F78E7F8860E0CF282F2171213121F720
:1029B0008E7E8861E1CFCF93DF93972F70E026E082
:1029C000929F600D711D1124FB0134E5839FE00D82
:1029D000F11D1124EE0FFF1FE455F54FC591D49161
:1029E000CE01C238D105B9F1E8F5C133D10509F4FA
:1029F00099C050F5C932D10509F48DC0CA32D1054C
:102A000009F497C0C11542E5D40708F0C4C0C11548
:102A100021E5D20708F038C1C83ED10508F09DC0B5
:102A2000C03ED10568F5C83AD10508F089C0C53A5D
:102A3000D10508F005C1C130D10511F1209709F485
:102A400043C02497E8F440C0C533D10509F45CC005
:102A5000C933D105B9F62091D605237089F080EEEF
:102A600090E00EC0C33ED10591F168F4C03ED1059F
:102A7000F9F0C23ED10531F62091D60522FD20C0E5
:102A8000DF91CF910895C63ED10561F1C73ED105D2
:102A900081F1C43ED10509F0B5CF2091D70521FFC2
:102AA000EFCF8091D60584FD0FC087EE90E0E8CF90
:102AB0002091D60520FD19C13091D70530FFE0CF18
:102AC00083EE90E024FFDCCF90E080E0D9CF20912E
:102AD000D60522FD0DC13091D70530FDC0CF24FFB2
:102AE000CFCFF2CF2091D60523FFCACF24FDECCF64
:102AF000DCCF2091D60523FDFEC03091D70531FFF4
:102B0000EECF84EE90E0BCCF2091D60525FFB8CF64
:102B100089E290E0B5CF2091D60525FFB1CF85E3BE
:102B200090E0AECF2091D60526FFAACF8AE290E0B2
:102B3000A7CF2091D60526FFA3CF81E390E0A0CFB9
:102B4000CF3BD10508F6C85AD0E0CC0FDD1FC157E6
:102B5000DD4F88819981946493CFC11530E2D3070A
:102B600060F4C11541E0D40708F08ACFCE0190652A
:102B7000C03FD10508F084CFA7CFC11580E4D807A6
:102B800008F4A2CFC11590E5D90708F061C0CE01C5
:102B90009F70906A75CFC11526E5D20718F5C1154B
:102BA00035E5D30708F086C0C11544E5D40708F021
:102BB0007CC09C2F96959695AE0143705527C11504
:102BC000D34508F466C021E030E002C0220F331F75
:102BD0004A95E2F740E2949FC0011124822B932B87
:102BE0009A684ECFC1159AE5D90778F4C11529E541
:102BF000D20708F069C0C11538E5D30708F464CFDF
:102C00009C2F8827806F906A3BCFC1154BE5D40776
:102C100008F45ACFC1158CE5D80708F462C0CE017C
:102C200090568115904208F04FCF8D2F8F710E94E2
:102C3000981490E0982F882788279F718C2B42C08A
:102C4000C55AD0E0C457DD4F888190E0906418CF1A
:102C50009E01E4E036952795EA95E1F723708C2FE5
:102C600086958695837030E2839FC0011124922B54
:102C7000C37021E030E002C0220F331FCA95E2F793
:102C8000822B932B9C68FCCE9C2F8827816F906AA7
:102C9000F7CE21E030E002C0220F331F4A95E2F761
:102CA00040E2949FC0011124EBCF9C2F8827846FB2
:102CB000906AE6CE8C2F0E94981490E0982F882777
:102CC00088279F719062DCCE8C2F8F700E949814A1
:102CD00034E0D695C7953A95E1F7CF709C2F90696F
:102CE000CFCECE0199279066CBCE89E390E0C8CEB7
:102CF00082EE90E0C5CE86EE90E0C2CEBF92CF923B
:102D0000DF92EF92FF920F931F93CF93DF938C018B
:102D1000C090D805D090D905E090DA05F090DB0599
:102D20008091B5059091B605A091B705B091B80511
:102D3000C82AD92AEA2AFB2ACFE1D0E0BC2ED70143
:102D4000C6010C2E04C0B695A795979587950A9451
:102D5000D2F780FD0EC0219788F7B12C8B2DDF9123
:102D6000CF911F910F91FF90EF90DF90CF90BF9088
:102D70000895B8018C2F0E94DB14019761F3EECF08
:102D8000CF93DF93EC010E947E16BE01DF91CF91BD
:102D90000C94DB140E94C016292F2F7092959F70FF
:102DA00092509E3078F4E92FF0E0EF50F74C0C94FD
:102DB000CA35803F19F020F4883E20F481E0089560
:102DC000843FE1F380E00895883EC0F3813FD1F76E
:102DD000F5CF822F8695869586950895CF92DF92BE
:102DE000EF92FF926C01EE24FF2420E0C114D10485
:102DF000E104F10419F0C701B60120E1C72ED82E75
:102E0000E92EFF24C114D104E104F10419F0285F74
:102E1000C701B6016B017C0154E0F694E794D794A6
:102E2000C7945A95D1F7C114D104E104F10419F003
:102E30002C5FC701B6016B017C0142E0F694E79478
:102E4000D794C7944A95D1F7C114D104E104F10491
:102E500019F02E5FC701B60196958795779567950E
:102E6000672B682B692B09F02F5F822FFF90EF9063
:102E7000DF90CF900895CF93DF939C013A95211571
:102E80003F4168F5EC01CC27D170DC01AA27B27074
:102E9000AC01442754709C012227387094FF11C064
:102EA00080E1CD2B09F480E0AB2B09F08062452B4B
:102EB00009F08064232B09F08068FB01DF91CF913A
:102EC000099481E0CD2B09F480E0AB2B09F08260FE
:102ED000452B09F08460232B81F38860EECFDF91CE
:102EE000CF910895BF92CF92DF92EF92FF920F930E
:102EF0001F93CF93DF93EA01FB01EE0FFF1FE60F55
:102F0000F71F20E9AC01249FC001259F900D1124DB
:102F10008E0F9F1FFC01E455FF4F6491FC01E355A8
:102F2000FF4F749182559F4FFC018491962F972BF0
:102F3000982B79F420E040E060E0CE01DF91CF9162
:102F40001F910F91FF90EF90DF90CF90BF900C9466
:102F500010100E947F128B01B82E6091430670E022
:102F600090E080E00E94C93620E030E04FE753E473
:102F70000E9428366B017C016B2D70E090E080E0B0
:102F80000E94CB36A70196010E9457370E949A36BD
:102F9000B62E602F70E090E080E00E94CB36A70153
:102FA00096010E9457370E949A36062F612F70E0D3
:102FB00090E080E00E94CB36A70196010E9457372F
:102FC0000E949A362B2D402FB8CFCF93DF93EC0180
:102FD0004CE150E070E060E00E9472174BE150E07D
:102FE00061E070E0CE010E9472174AE150E062E0B9
:102FF00070E0CE010E94721749E150E063E070E09A
:10300000CE010E94721748E150E064E070E0CE010A
:103010000E94721750E040E065E070E0CE010E942F
:10302000721741E050E066E070E0CE010E94721736
:1030300042E050E067E070E0CE010E94721743E08A
:1030400050E068E070E0CE010E94721744E050E06A
:1030500069E070E0CE010E94721741E250E06AE040
:1030600070E0CE010E94721740E250E06BE070E029
:10307000CE010E9472174FE150E06CE070E0CE018B
:103080000E9472174EE150E06DE070E0CE010E94A8
:1030900072174DE150E06EE070E0CE010E947217B1
:1030A00045E050E06FE070E0CE010E94721746E00C
:1030B00050E060E170E0CE010E94721747E050E0FE
:1030C00061E170E0CE010E94721748E050E062E1D9
:1030D00070E0CE010E94721749E050E063E170E0B9
:1030E000CE010E94721746E250E064E170E0CE012A
:1030F0000E94721745E250E065E170E0CE010E9447
:10310000721744E250E066E170E0CE010E9472174F
:1031100043E250E067E170E0CE010E94721742E2A4
:1031200050E068E170E0CE010E9472174AE050E082
:1031300069E170E0CE010E9472174BE050E06AE155
:1031400070E0CE010E9472174CE050E06BE170E03D
:10315000CE010E9472174DE050E06CE170E0CE01AC
:103160000E9472174EE050E06DE170E0CE010E94C7
:1031700072174BE250E06EE170E0CE010E947217D0
:103180004AE250E06FE170E0CE010E94721749E21E
:1031900050E060E270E0CE010E94721748E250E019
:1031A00061E270E0CE010E94721747E250E062E2F5
:1031B00070E0CE010E9472174FE050E063E270E0D1
:1031C000CE010E94721740E150E064E270E0CE014F
:1031D0000E94721741E150E065E270E0CE010E946A
:1031E000721742E150E066E270E0CE010E94721771
:1031F00043E150E067E270E0CE010E9472174FE2B7
:1032000050E068E270E0CE010E9472174EE250E09A
:1032100069E270E0CE010E9472174DE250E06AE26E
:1032200070E0CE010E9472174CE250E06BE270E059
:10323000CE010E94721744E150E06CE270E0CE01D2
:103240000E94721745E150E06DE270E0CE010E94ED
:10325000721746E150E06EE270E0CE010E947217F4
:1032600047E150E06FE270E0CE01DF91CF910C9426
:10327000721740E060E080E00E940E1040E060E0E5
:1032800080E00E940E1081E080930A06089527983E
:103290002F98089526982E98089525982D9808958A
:1032A00056985E980895279A2F9A0895269A2E9AEE
:1032B0000895259A2D9A0895CF92DF92EF92FF926A
:1032C0006B017C010E945019C701B6010E94EE16E5
:1032D0008031C0F4E82FF0E0E150F74C0C94CA358F
:1032E0000E944D190E944A190BC00E944D190E945C
:1032F0004A190E94531906C00E944D190E9456197E
:103300000E944719C701B601FF90EF90DF90CF9060
:1033100008950E944D190E945619EBCF0E94591929
:10332000E1CF0E945919E3CF0E945919E7CF0E94BB
:103330005919F1CF209828982198299822982A98ED
:1033400023982B9852985A9853985B983E98469891
:1033500008958098889A8198899A84988C9A8598FB
:103360008D9A86988E9A87988F9A0895CF9384E045
:1033700090E00E94E035C82F81E290E00E94E035A5
:10338000982F8C2FCF910895CF93DF9300D00F9279
:10339000CDB7DEB790912F06943019F589837B83E2
:1033A0006A8382E08093E9008FEF9091E80081507A
:1033B00095FD06C095ED9A95F1F700008111F5CFC6
:1033C0008091E80085FF0DC050E040E063E070E0D0
:1033D000CE0101960E94CD0B8091E8008E778093FC
:1033E000E8000F900F900F90DF91CF910895BC01EE
:1033F00084E00C94C419BC0183E00C94C4199C01B2
:1034000082E08093E9009FEF8091E800915085FD74
:1034100006C085ED8A95F1F700009111F5CF8091F6
:10342000E80085FF0CC050E040E066E070E0C901B4
:103430000E94CD0B8091E8008E778093E80008957C
:10344000CF93DF93EC01809114018823B1F1809137
:10345000D60587FF32C060E282E08093E9008FEFFB
:103460009091E800815095FD06C095ED9A95F1F791
:1034700000008111F5CF8091E80085FF1BC080918D
:10348000140170E050E040E0811104C050E040E0E1
:1034900068E070E0CE010E94CD0B8091E8008E774D
:1034A0008093E80080E2FE01ADE0B6E001900D926D
:1034B0008A95E1F7DF91CF91089568E081E0CDCF63
:1034C0000E9450190E944D190E944A190E944719E2
:1034D0008FEF90E0909389008093880090938B0009
:1034E00080938A0090938D0080938C000E945919DC
:1034F0002FEF80E792E0215080409040E1F700C03C
:1035000000000E9456192FEF80E792E02150804082
:103510009040E1F700C000000E9453192FEF80E7B0
:1035200092E0215080409040E1F700C000000E94EE
:103530004D192FEF80E792E0215080409040E1F755
:1035400000C000000E944A192FEF80E792E021504E
:1035500080409040E1F700C000000E9447190E949F
:1035600050190E944D190E944A190C9447196CEE8B
:103570007EEF90E080E00E94223660E082E090E002
:103580000E94043660E083E090E00E9404361092CE
:10359000B5051092B6051092B7051092B80560E017
:1035A00084E090E00E94043660E081E290E00E94B6
:1035B000043660E085E090E00E94043660E086E03A
:1035C00090E00E9404366FEF87E090E00E9404369E
:1035D00040E050E0BA0188E090E00E94163660E0DA
:1035E0008DE090E00E94043640E050E0BA0188E1AE
:1035F00090E00E94163660E087E190E00E94043679
:1036000040E050E0BA018CE190E00E94163660E0A4
:1036100080E290E00E94043640E050E0BA0188E188
:1036200090E00E9416361092C4051092C5051092C3
:10363000C6051092C70584E080618093C40540915F
:10364000C4055091C5056091C6057091C7058FE00E
:1036500090E00E94163640E050E0BA0183E190E02D
:103660000C9416360F931F93CF93DF93082F000F00
:10367000EB0114E21093CD03EEECF3E0DE018D914B
:10368000819383E0EE3DF807D1F724E630E041E195
:1036900050E06DEC73E0802F0E947735105F6096EC
:1036A000143B41F7DF91CF911F910F9108958091C5
:1036B000E103882329F063EE73E084E70E94321B64
:1036C0001092E1038091E203882329F063E774E01C
:1036D00087E70E94321B1092E2030895EDECF3E0BD
:1036E0006083418324E630E042E050E0BF01880F70
:1036F0000C947735EF92FF920F931F93CF93DF9344
:10370000E82E062F10E0095D1A4FF801808188230A
:1037100081F0F2E16F9FE0011124CD5FDA4FF12CCF
:1037200049916F2D8E2D0E946E1BF39482E1F81249
:10373000F7CFF8011082DF91CF911F910F91FF9089
:10374000EF900895CF93DF93C82F4BE06DEF0E9469
:103750006E1B40E06AE08C2F0E946E1B8FE39CE999
:103760000197F1F700C0000040E060E08C2F0E945C
:103770006E1B40E061E08C2F0E946E1B40E066E013
:103780008C2F0E946E1B40E06DEF8C2F0E946E1BF1
:10379000D0E040E06D2F8C2F0E946E1BDF5FD23196
:1037A000C1F740E06D2F8C2F0E946E1BDF5FD4327B
:1037B000C1F740E06D2F8C2F0E946E1BDF5FD43B62
:1037C000C1F74BE06DEF8C2F0E946E1B41E06AE069
:1037D0008C2F0E946E1B40E06DEF8C2FDF91CF91FC
:1037E0000C946E1B6F927F928F929F92AF92BF92BA
:1037F000CF92DF92EF92FF920F931F93CF93DF93BD
:103800000E94C23484E70E94A21B87E70E94A21B89
:1038100064E2E62E61E0F62ED12CC12C72E1772E07
:10382000E8E08E2E912CAA24A394B12C66246394F4
:10383000F701418150E0CA01849702810452110BC3
:10384000C381C452DD0BF601EE0FFF1FEE0FFF1F09
:10385000EC5DFE4F2081237030E0FC0197FD379630
:1038600043E0F595E7954A95E1F7729EA001739EB6
:10387000500D11244D5F5A4FE40FF52FF11DB40187
:103880000E94B635A50101C0440F8A95EAF78081F0
:10389000842B8083F80117FD379693E0F595E79523
:1038A0009A95E1F7729EC001739E900D11248D5F71
:1038B0009A4FE80FF92FF11DC801B4010E94B635E7
:1038C000A50101C0440F8A95EAF78081842B80838B
:1038D000FE01D7FD379683E0F595E7958A95E1F7E8
:1038E000729EC001739E900D11248D5F9A4FE80F58
:1038F000F92FF11DCE01B4010E94B635A50101C01A
:10390000440F8A95EAF78081842B8083295D3A4FA2
:10391000F9016082FFEFCF1ADF0A84E0E80EF11CA4
:10392000E0E3CE16D10409F083CF60E084E70E9483
:103930007A1B61E087E7DF91CF911F910F91FF9094
:10394000EF90DF90CF90BF90AF909F908F907F903F
:103950006F900C947A1B45E050E06CE170E080E4DD
:1039600096E00C94F43590914006937089F08111A3
:1039700007C0946090934006109218010C94AB1C01
:10398000863110F09465F6CF880F880F982BF2CF10
:1039900008958091400686958695815009F485E1C9
:1039A0000C94B31C80914006869586958F5F863176
:1039B00008F081E00C94B31C90914006937041F0A4
:1039C0008093410660934206409343060C94AB1CDF
:1039D0000895E0E4F6E0438120E1421B08F440E072
:1039E0008181628190E00C94DC1CE0E4F6E043818C
:1039F00020E1420F08F44FEF8181628190E00C9446
:103A0000DC1CE0E4F6E0628120E1621B08F460E087
:103A10008181438190E00C94DC1CE0E4F6E062815B
:103A200020E1620F08F46FEF8181438190E00C94F4
:103A3000DC1CE0E4F6E08181438162818850990BCF
:103A40000C94DC1CE0E4F6E0818190E0438162812B
:103A500008960C94DC1CE0E4F6E0248130E1230FAE
:103A600008F42FEF24830C94AB1CE0E4F6E02481EF
:103A700030E1231B08F420E024830C94AB1CE0E429
:103A8000F6E081E380838091190190911A01A09161
:103A90001B0181839283A3838FE784830C94AB1CE7
:103AA0000E94F21B90E080E00E94EE358C3E9E4F1B
:103AB00021F00E94B71A0E943F1D45E050E06CE1E2
:103AC00070E080E496E00E94D035809140068C7FC3
:103AD00011F40C943F1D089580E290E09093090149
:103AE000809308018091C20381110EC00E94C234EC
:103AF00081E08093C2032FEF83ED90E3215080405B
:103B00009040E1F700C0000064E670E080E40E94AD
:103B1000C8349093090180930801892B09F04EC0A5
:103B200064E670E080E00E94243590930901809360
:103B30000801892B09F042C064E670E080E00E9431
:103B400024359093090180930801892BB9F564E627
:103B500070E08FE30E94243590930901809308015F
:103B6000892B61F50E949E3564E670E080E40E9436
:103B7000C8349093090180930801892BF9F464E615
:103B800070E08CE00E942435909309018093080135
:103B9000892BA1F464E670E080E00E9424359093C4
:103BA000090180930801892B49F464E670E08FE3F2
:103BB0000E94243590930901809308010E949E354C
:103BC000809108010895CF93C82F873070F58091B8
:103BD000080190910901892B89F564E670E080E481
:103BE0000E94C8349093090180930801892BD1F475
:103BF00064E670E082E10E9424359093090180938D
:103C00000801892B79F481E090E001C0880FCA9502
:103C1000EAF764E670E080950E94243590930901EC
:103C200080930801CF910C949E358A30B9F040F40E
:103C3000883071F0893079F0209A2898CF910895D2
:103C40008C3091F070F08D30B9F73E9A4698F6CFEF
:103C5000219A2998F3CF229A2A98F0CF239A2B9869
:103C6000EDCF529A5A98EACF539A5B98E7CFCF9309
:103C7000873050F58091080190910901C0E0892BAF
:103C800071F464E670E081E40E94C8349093090105
:103C900080930801892B31F0C0E00E949E358C2F63
:103CA000CF91089584E690E00E94533597FF05C0B8
:103CB0009093090180930801EFCFC82FC09510920F
:103CC000090110920801E9CFCFB18FB18695869591
:103CD0008C73C3708C2BC82FC095E1CF78941F9242
:103CE0001FB61F9211248F939F93AF93BF93809120
:103CF000B9059091BA05A091BB05B091BC0501969C
:103D0000A11DB11D8093B9059093BA05A093BB0581
:103D1000B093BC05BF91AF919F918F911F901FBE33
:103D20001F9018952FB7F8948091B9059091BA0516
:103D3000A091BB05B091BC052FBF08950E94921EB3
:103D40009C019091F5058091F605982B21F0309318
:103D5000F2052093F1059091F7058091F805982BD5
:103D600021F03093EF052093EE05E091DC05F09112
:103D7000DD05309749F082E08093F3050480F581FA
:103D8000E02D83EF95E0099408951092B20510920A
:103D9000B1050E94500E86E0E3EFF5E0DF011D92D1
:103DA0008A95E9F71092F0051092ED051092BD0585
:103DB0000E949E1E90E080E00E94950F90E080E0BF
:103DC0000C947F0F0E945C196093D8057093D905FD
:103DD0008093DA059093DB050C94C51E0F931F9317
:103DE00041E050E060E070E004C0440F551F661FE2
:103DF000771F8A95D2F7CB01BA01609570958095AF
:103E000090950091D8051091D9052091DA0530914F
:103E1000DB0560237123822393231F910F910C9460
:103E2000E21E9091B005809589238093B005282FDC
:103E3000277071F4282F082E000C330B92171306ED
:103E400039F08595859585950E94EE1E1092B005F6
:103E500008950F931F9341E050E060E070E004C0CC
:103E6000440F551F661F771F8A95D2F78091D8059A
:103E70009091D905A091DA05B091DB058A019B01EB
:103E8000082B192B2A2B3B2BC901B8011F910F912D
:103E90000C94E21E6093B5057093B6058093B70548
:103EA0009093B8050C94C51E1092B305809114012F
:103EB000E4EAF3E0882359F08091D60587FF07C034
:103EC0008EE1DF011D928A95E9F70C94C51E86E00C
:103ED000F8CF1F93CF93DF93CDB7DEB7AA970FB676
:103EE000F894DEBF0FBECDBF81E396E02091F100D4
:103EF000FC012193CF01F6E089339F07B9F7809148
:103F00003206833009F46FC0B8F4813009F446C03A
:103F1000823009F4B0C08091E80083FF7BC28091B9
:103F20003106909132069A3008F074C2E92FF0E021
:103F3000E15FF64C0C94CA358A3009F48BC08B30A3
:103F400009F46EC0893039F780913106813219F752
:103F500080913506909136060297E8F68091E80048
:103F6000877F8093E8008091E80082FF37C09091BE
:103F7000F3008091F200029729F48091F1008B7F89
:103F8000813021F48091F10080930C068091E8004B
:103F90008B778093E8000E94F70BBDCF80913106AC
:103FA000813A09F0B8CF8091E800877F8093E800DC
:103FB0008091350690913606892B61F460E28DE0A0
:103FC00096E070E00E94A90C8091E8008B778093C6
:103FD000E800A1CF60E090E080E0F3CF80912F0671
:103FE0008111C1CF98CF80913106813A09F093CFEA
:103FF0008091350690913606892B09F08CCF8091FF
:10400000E800877F8093E8008091E80080FFFCCF84
:10401000809114018093F1008091E8008E77B9CFF0
:1040200080913106813209F076CF809135069091EA
:104030003606892B09F06FCF8091E800877F809347
:10404000E8000E94F70B80913306809314010E94D0
:10405000541F61CF80913106813209F05CCF80918D
:10406000E800877F8093E8000E94F70B8091340678
:1040700080930B0650CF80913106813A09F04BCFE7
:104080008091E800877F8093E8008091E80080FFBE
:10409000FCCF80910B06BECF803899F0823809F0B2
:1040A000B9C1809135068F70873008F0B3C1809315
:1040B000E9008091EB0085FB882780F91092E900E8
:1040C00006C080912D0690912E06911182609091EC
:1040D000E800977F9093E8008093F1001092F10040
:1040E0008091E8008E7792C1882309F480C18230E4
:1040F00009F090C180913306811183C1809135060A
:104100008F702FEF280F263008F084C18093E900CC
:104110002091EB0020FF75C1933031F48091EB00CA
:1041200080628093EB006DC19091EB009061909361
:10413000EB0021E030E001C0220F8A95EAF72093DE
:10414000EA001092EA008091EB008860EACF8111CA
:1041500061C1109133061F778091E3008078812B35
:104160008093E3008091E800877F8093E8000E94BD
:10417000F70B8091E80080FFFCCF8091E30080681E
:104180008093E30082E0111183E080932F0642C107
:104190008058823008F03EC18091330690913406F9
:1041A0008C3D23E09207A1F583E08A838AE289832C
:1041B0004FB7F894DE01139620E03EE051E2E32F82
:1041C000F0E050935700E49120FF03C0E295EF70B8
:1041D0003F5FEF708E2F90E0EA30C0F0C7968D936E
:1041E0009D932F5F243159F74FBF8091E800877F5F
:1041F0008093E8006AE270E0CE0101960E94A90C6B
:104200008091E8008B778093E80004C1C096E7CFE7
:104210004091350650913606292F3327233031053A
:1042200009F444C078F52130310509F46FC08BE3FF
:1042300090E0E8E2F6E12230310509F0EBC0209190
:10424000E800277F2093E800209137063091380658
:104250008217930708F49C0140E02115310509F00D
:1042600064C0411162C08091E80082FDC9CF809195
:104270002F06882329F2853019F28091E80083FF08
:10428000F2CFBECF21323105A9F12232310509F03A
:10429000C1C04115510509F443C04130510509F031
:1042A000B9C08CEB90E0ECE2F5E1C9CF9927813001
:1042B0009105C1F0009759F0029709F0ABC0E5E70E
:1042C000F6E1E4918E2F90E0E5E7F6E107C0E7EB39
:1042D000F6E1E4918E2F90E0E7EBF6E1009709F428
:1042E00099C0ADCFEDE8F6E1E4918E2F90E0EDE8D6
:1042F000F6E1F4CF4115510571F04130510509F057
:1043000089C089E090E0E3E5F6E199CF82E190E0B1
:10431000E3E6F6E194CF89E090E0EAE3F6E18FCFBF
:1043200080E490E0E8EEF5E18ACF80912F068823C3
:1043300009F466CF853009F463CF8091E80083FDEE
:104340005FCF8091E80082FD8ECF8091E80080FFF2
:1043500084CF9091F3008091F2002115310519F07E
:104360008830910550F041E0089709F040E08091D5
:10437000E8008E778093E80070CF44914093F1007D
:104380003196215031090196E8CF803809F042C0BA
:104390008091E800877F8093E800809130068093C9
:1043A000F1009ECE811136C010913306123090F587
:1043B0008091E800877F8093E800109330060E9488
:1043C000F70B112311F084E005C08091E30087FD15
:1043D000FACF81E080932F0642E061EC81E00E94F9
:1043E000160C42E261EC82E00E94160C13C0809130
:1043F0003306813079F481E0933009F080E08093D6
:104400002E061092E9008091E800877F8093E800F3
:104410000E94F70B8091E80083FF0AC08091E800BA
:10442000877F8093E8008091EB0080628093EB00AF
:10443000AA960FB6F894DEBF0FBECDBFDF91CF9125
:104440001F9108951F920F920FB60F9211242F9370
:104450003F934F935F936F937F938F939F93AF930C
:10446000BF93CF93DF93EF93FF93D091E900DF7079
:104470008091EC00C82FC17080FDC0E81092E90067
:104480008091F000877F8093F00078940E94691FEC
:104490001092E9008091F00088608093F000CD2BAD
:1044A000CF70C093E900FF91EF91DF91CF91BF9161
:1044B000AF919F918F917F916F915F914F913F91BC
:1044C0002F910F900FBE0F901F9018951F920F9273
:1044D0000FB60F9211242F933F934F935F936F93D7
:1044E0007F938F939F93AF93BF93EF93FF938091AD
:1044F000E10082FF09C08091E20082FF05C0809147
:10450000E1008B7F8093E1008091DA0080FF24C07E
:104510008091D80080FF20C08091DA008E7F809348
:10452000DA008091D90080FFA1C080E189BD82E1DD
:1045300089BD09B400FEFDCF81E080932F068091F4
:104540000906811109C00E947D0B0E94480C8091D0
:10455000E20084608093E2008091E10080FF17C058
:104560008091E20080FF13C08091E2008E7F8093F3
:10457000E2008091E20080618093E2008091D800A7
:1045800080628093D80019BC85E080932F068091CB
:10459000E10084FF2FC08091E20084FF2BC080E106
:1045A00089BD82E189BD89B5982F917080FFFBCFCD
:1045B0008091D8008F7D8093D8008091E1008F7E1C
:1045C0008093E1008091E2008F7E8093E2008091F1
:1045D000E20081608093E20080913006882309F434
:1045E0004BC084E080932F060E94541F0E94AB0FA3
:1045F00010920A068091E10083FF27C08091E200BB
:1046000083FF23C08091E100877F8093E10082E0F7
:1046100080932F06109230068091E1008E7F809368
:10462000E1008091E2008E7F8093E2008091E200C1
:1046300080618093E20042E060E080E00E94160C1E
:104640008091F00088608093F000FF91EF91BF911E
:10465000AF919F918F917F916F915F914F913F911A
:104660002F910F900FBE0F901F90189519BC1092AC
:104670002F061092090670CF8091E30087FD93E02A
:1046800090932F06B1CF882309F459C0823871F472
:104690000E94AB0F81FF53C089E30E94C00E0E94AD
:1046A000500E89E30E94950E0C94500E833859F4F5
:1046B0000E94AB0F80FF43C083E50E94C00E0E94A2
:1046C000500E83E5EFCF843859F40E94AB0F82FF80
:1046D00036C087E40E94C00E0E94500E87E4E2CFED
:1046E0009CEF980F913AF0F290E2980F983088F48E
:1046F000877021E030E0A90102C0440F551F8A9560
:10470000E2F7CA0180959091B30589238093B305A0
:10471000CBCF9BE5980F933020F490E080E00C9491
:10472000950F98E5980F973120F490E080E00C9475
:104730007F0F803F20F00E940A0D0C949E1E08956A
:10474000CF93DF93EC010E944323CE01805E910959
:10475000089720F065E57FE0209711F46AE67FE096
:10476000CE01DF91CF910C943B17CF93C82F8823B4
:1047700009F4AEC08238C1F40E94AB0F81FDA8C01D
:1047800089E30E94C00E0E94500E2FEF81EE94E04C
:10479000215080409040E1F700C0000089E30E9472
:1047A000950ECF910C94500E8338A1F40E94AB0F5C
:1047B00080FD8EC083E50E94C00E0E94500E2FEF38
:1047C00081EE94E0215080409040E1F700C000006D
:1047D00083E5E5CF8438A1F40E94AB0F82FD78C059
:1047E00087E40E94C00E0E94500E2FEF81EE94E0ED
:1047F000215080409040E1F700C0000087E4CFCF17
:104800008CEF8C0F813A88F580911401882301F197
:104810008091D60587FF1CC0EC2FE695E695E695BE
:10482000F0E0EE55FC4F828190E04C2F477021E084
:1048300030E002C0220F331F4A95E2F78223932310
:10484000892B79F08C2F0E94950E0E94500E09C082
:10485000E4EAF3E08191C817A9F323E0EA3AF2070A
:10486000C9F78C2F0E94C00E9CCF80E28C0F88303D
:1048700068F4C77021E030E001C0220FCA95EAF762
:104880008091B305822B8093B3058BCFEBE5EC0FC2
:10489000E33040F4F0E0E457FD4F808190E0CF91A9
:1048A0000C94950FE8E5EC0FE73150F4F0E0EE0FD3
:1048B000FF1FE157FD4F80819181CF910C947F0FB5
:1048C000C03F30F08C2F0E94D30DCF910C949E1ED0
:1048D000CF910895CF93C82F0E94B523C93349F4CF
:1048E0002FEF87EE93E0215080409040E1F700C029
:1048F00000008C2FCF910C9443230F931F93CF93E1
:10490000DF93C62FD42F022FFC0182818823A1F0D0
:1049100060933B060E94921E90933A06809339065C
:10492000C77081E001C0880FCA95EAF7DF91CF9187
:104930001F910F910C94750F80913B06681335C041
:104940008091390690913A060E943B0E883C910571
:1049500060F510E21D0FCD17B9F080E28C0F8830A2
:1049600040F4C77081E001C0880FCA95EAF70E9441
:104970006A0F183048F481E09D2F977001C0880FAE
:104980009A95EAF70E94750F802F0E946A241830CA
:1049900098F4D77081E001C0880FDA95EAF7DF91CB
:1049A000CF911F910F910C946A0FC77081E001C0E5
:1049B000880FCA95EAF7F3CFDF91CF911F910F913E
:1049C0000895CF93DF93EC01805E9109089720F062
:1049D00060E67FE0209711F465E77FE0CE010E945A
:1049E0003B178C2FDF91CF910C94B5234F925F92A0
:1049F0006F927F928F929F92AF92BF92CF92DF92EF
:104A0000EF92FF920F931F93CF93DF9300D000D0CC
:104A10000F92CDB7DEB77C01FC0183819481892B95
:104A200039F01081D180812F8D218F3F09F0F0C6A0
:104A30000F900F900F900F900F90DF91CF911F91DB
:104A40000F91FF90EF90DF90CF90BF90AF909F902D
:104A50008F907F906F905F904F9008950E947E1688
:104A6000082F682F89819A810E941D0FE12FF0E0A5
:104A700026E0D29EE00DF11D112434E5039FE00DE8
:104A8000F11D1124EE0FFF1FE455F54F0591149110
:104A900009328DE5180709F44DC00A329DE5190762
:104AA00009F455C1033CECE51E0709F078C1F70194
:104AB00082818823E9F0909116018091C4059F3F7F
:104AC00009F066C1109216018F7E8093C40540E004
:104AD00060E080E00E940E104091C4055091C50531
:104AE0006091C6057091C7058FE090E00E94163670
:104AF0008091B005877009F49BCFF70182818823EC
:104B000009F496CF82E00F900F900F900F900F90C6
:104B1000DF91CF911F910F91FF90EF90DF90CF9099
:104B2000BF90AF909F908F907F906F905F904F90CD
:104B30000C94111FF70182818823C9F18091C4056B
:104B400091E0980F9770887F953008F4892B8093B7
:104B5000C4058091C4058770FFEF8F9FC0011124A9
:104B6000959587959595879599279093890080933A
:104B7000880090938B0080938A0090938D0080939F
:104B80008C004091C4055091C5056091C605709197
:104B9000C7058FE090E00E9416366091D8057091AD
:104BA000D9058091DA059091DB050E945C19F70127
:104BB0008281882369F0C801825E9C45059740F494
:104BC0006EE1600F6093C0058CE090E00E940436B7
:104BD00017FF29C1F7018281882309F46DC0E09194
:104BE000DC05F091DD0580E0309721F00190F08147
:104BF000E02D09958695817080933C059091C005C4
:104C0000913029F4882319F089E30E946A24809165
:104C1000B30580933B051092B3058091C0058130A8
:104C200009F4D6C0882309F4CFC0823009F4D9C072
:104C3000843009F4DDC08FE39CE90197F1F700C0EF
:104C400000004801E89497F8FCE0AF2EB12CC401B5
:104C50000A2C02C0969587950A94E2F78F70E7E2D6
:104C6000CE2ED12C882341F0C82ED12C8A3008F0CA
:104C7000C4C09DE1C90ED11CC6010E94E124C60139
:104C80000E94A023F4E0AF1AB1082CEFA2162FEF78
:104C9000B206E9F68091C005813009F4B6C08823D8
:104CA00009F4AFC0823009F4ACC0843009F4B9C053
:104CB00080913B058093B305F7019281992309F414
:104CC000B8C510923B060230FCE51F0708F4BDC5CD
:104CD00006312CE5120738F098012B5F3C4529304E
:104CE000310508F0B2C50E94B6199093D70580939C
:104CF000D60500313CE5130709F47CC108F00AC170
:104D000008309CE5190709F46BC108F0D9C00430DC
:104D1000FCE51F0709F45CC108F0BFC002303CE5A8
:104D2000130709F44BC103301C4509F44DC16091D0
:104D3000D6051091D70584E090E00E940436612FDB
:104D400081E290E00E9404360E94541FD1CEF70108
:104D50008281882309F42BCF9091C405892F877F06
:104D600093FF88608093C40583FF05C040E060E046
:104D700080E00E940E104091C4055091C5056091DD
:104D8000C6057091C7058FE090E00E9416360FCFE0
:104D90009FEF9093160180618093C4059DCE0B32E6
:104DA000FDE51F0741F008F402CF0F323DE5130780
:104DB00008F49ECEFCCEF7018281882309F498CEB8
:104DC00081E00E94B31C94CE82EE0E94B52333CFC3
:104DD00088E193E00E94E12488E193E00E94A0230F
:104DE0002ACF82EE0E94B52387E50E946A2423CF52
:104DF00086EE0E946A2488E1F8CFE6E0CE1AD10858
:104E00003BCF82EE0E94432353CF8CE20E946A2460
:104E100080913C05882309F44BCF89E30E946A24E2
:104E200047CF88E2FBCF043F3CE5130739F188F414
:104E3000093D9CE51907F1F00A3DECE51E0751F12B
:104E4000083DFCE51F0709F037CF26E241EE61EE91
:104E50000DC0063F2CE51207C9F0A0F027E245EE91
:104E600066EE073F8CE5180709F026CFC7010E94C0
:104E70007D243ECE27E245EE65EEF8CF26E241EEF8
:104E800060EEF4CF27E245EE64EEF0CF26E241EE8D
:104E900062EEECCF28E241E0EFCF8091D605806151
:104EA00006309CE5190709F48CC08091D60588600E
:104EB00007301C4508F485C08091D605806281C00A
:104EC0008091D6058D7F0C30FCE51F0709F479C071
:104ED00070F48091D6058C600A303CE5130709F424
:104EE00070C008F481C08091D6058E7F6AC0809121
:104EF000D605877F0E309CE5190709F462C08091C2
:104F0000D6058B7F0F301C4508F45BC08091D60519
:104F10008F7E57C00C3FFCE51F0709F45DC030F5DC
:104F200003313CE5130709F46DC078F401319CE5C9
:104F3000190709F463C002311C4509F0F8CE0E943C
:104F4000541F8091D6058F773CC00531FCE51F07C3
:104F500009F460C008F474C08091D70581600B3FEC
:104F60001C4509F0E4CE8093D705E1CE01158DE50F
:104F7000180709F44BC088F48091D7058D7F0E3F48
:104F8000ECE51E0781F38091D7058E7F0F3F1C450E
:104F900050F38091D7058360E6CF02302DE51207EC
:104FA00009F457C008F442C060E003301D4509F021
:104FB000BECE8EE090E00E940436B9CE8091D60538
:104FC00081608093D605B3CE8091D6058260F9CFFB
:104FD0008091D6058460F5CF8091D7058260C3CFDC
:104FE0008091D6058064EDCF0E94541F8091D60534
:104FF0008068E7CF8091D6058F7DE3CF8091D6057D
:105000008F7BDFCF8091D605837FDBCF8091D70563
:105010008C7FA9CF8091D60582FB992790F921E05A
:10502000922790FB82F990FB83F9CBCF8091D70533
:10503000982F909591708E7F892B90FB81F993CF5B
:105040000E94541F9091D605892F97FB87F98058AD
:10505000B8CF61E0AECF85E308C485E3F3C39923FD
:1050600009F45CC08091B3058272F801E35CFC45F1
:10507000E431F10508F049C0E75EF64C0C94CA35FE
:105080008091400691E08927809340061092180194
:105090000E94AB1C2DCD49EC5CE162ED7CE10E94ED
:1050A000B70F26CD42ED5CE169EC7CE1F8CF49E138
:1050B0005DE162E27DE1F3CF42E25DE169E17DE144
:1050C000EECF41E05DE16DE07DE1E9CF4DE05DE1F6
:1050D00061E07DE1E4CF49EE5CE165EF7CE1DFCFAB
:1050E00045EF5CE169EE7CE1DACF45E35DE16BE23F
:1050F0007DE1D5CF4BE25DE165E37DE1D0CF84E09A
:1051000060CE8CE05ECE81E15CCE0115ECE51E0741
:1051100009F44EC00F3D1C4509F487C0F70100811A
:105120001181992309F484C0C8010E947E16D82EEB
:10513000682FC8010E941D0FB8018D2D0E94DB143D
:10514000082FD92EB82EF701C580C2947FE0C72260
:10515000128111111092B2058091B0058770C1F0D3
:105160001123B1F08D2D807F803449F090E2900FB3
:10517000983070F0803619F4F6EFBF1649F082E0EF
:105180000E94111F8091B0058770AA24A3948111F9
:10519000A12C9D2C92945FE095226BE0462E491441
:1051A00008F481C0E92DF0E0E35DF64C0C94CA35BB
:1051B0000E94541F2FEF34E38CE021503040804098
:1051C000E1F700C00000F89481E08093E00080E205
:1051D0008093D8001092C900EFE1FEE43197F1F717
:1051E00000C000001DBA109268001CBC10BE1FBA9F
:1051F00010927A0010926E0010926F00109271005F
:10520000109272001092C9001092BC0014B817B826
:105210001AB81DB810BA1092BC0015B818B81BB84F
:105220001EB811BA0C94003F63CC0E94B71A60CC30
:10523000C8010E94F40ED82E7FCF2D2D2F70C22EC4
:105240008D2D807F19F0C29440EFC4221123C9F044
:10525000CC2069F080E2800F883010F0B1100BC0D4
:105260008091B305C82AC092B3050E94500E802FCA
:105270000E94B52318C08091B205C82AC092B20519
:10528000F4CF802F0E944323CC2069F0C094005EAD
:10529000083010F0B11057C08091B305C822C092F9
:1052A000B3050E94500E292D2850330B24303105B0
:1052B00010F40E94AB0F112379F08D2D807F803682
:1052C00019F436EFB31641F080913E05823009F0B3
:1052D00097C283E080933E05AA20A9F08091B00593
:1052E00080FD11C0F70112828595859585950E94F4
:1052F000291FC7010E94F6248091B00585958595E8
:1053000085950E94EE1E85E0F701DE011196019061
:105310000D928A95E1F789819A810E94F40E9A8113
:10532000E981F0E026E0929FE00DF11D112434E5C3
:10533000839FE00DF11D1124EE0FFF1FE455F54F83
:105340008591949175CB8091B205C822C092B20527
:10535000A8CF3D2D3F70832E8D2D807F803219F098
:10536000829430EF8322BB2041F081E0B81631F106
:10537000112381F1CC2049F17ACF112391F0909142
:10538000B405882D892BC11003C00E94750F8BCFE7
:10539000E1E0CE12FACF981709F485CF8093B405D7
:1053A00082CFC11006C00E944A0E882D0E946A0F4B
:1053B0007ACFF1E0CF1609F476CFF5CF112339F08B
:1053C000442443944C1408F46ECF882DDECFC110D2
:1053D0006ACFEBCFCC2049F329E3522EB51009C098
:1053E0002FEF37EE83E0215030408040E1F700C0DE
:1053F0000000802F0E94432356CF8D2D86958695E1
:10540000837069F0813009F04ECF802F9D2D93700D
:10541000111102C090E080E00E947F0F44CF802FE6
:105420009D2D9370111102C090E080E00E94950FB5
:105430003ACF802F112329F00E94D30D0E949E1E87
:1054400032CF0E940A0DFACF8D2D837009F067C00C
:10545000111129CF202F229526952770220F220F78
:10546000402F4F7050E070E060E0022E04C0440F07
:10547000551F661F771F0A94D2F780E090E0DC0189
:1054800004FF0FC08FE090E0A0E0B0E004C0880F00
:10549000991FAA1FBB1F2A95D2F780959095A095BA
:1054A000B0952D2D269526952370223029F1D8F41C
:1054B0004090B5055090B6056090B7057090B8055E
:1054C000213069F0842B952BA62BB72BBC01CD0185
:1054D00064217521862197210E944A1FE4CE442928
:1054E0005529662977292A013B01482A592A6A2A1F
:1054F0007B2AC301B201F0CF842B952BA62BB72BAF
:105500004090B5055090B6056090B7057090B8050D
:10551000BC01CD016425752586259725DDCF8695AF
:10552000112311F08D2D8170882309F4BCCE202F1A
:10553000229526952770220F220F402F4F7050E0A2
:1055400070E060E0022E04C0440F551F661F771FF5
:105550000A94D2F780E090E0DC0104FF0FC08FE0F6
:1055600090E0A0E0B0E004C0880F991FAA1FBB1F05
:105570002A95D2F780959095A095B0952D2D2695DA
:1055800026952370223029F1D8F44090D805509008
:10559000D9056090DA057090DB05213069F0842B25
:1055A000952BA62BB72BBC01CD016421752186213B
:1055B00097210E94E21E77CE442955296629772932
:1055C0002A013B01482A592A6A2A7B2AC301B201CF
:1055D000F0CF842B952BA62BB72B4090D80550905D
:1055E000D9056090DA057090DB05BC01CD0164251A
:1055F000752586259725DDCF2D2D2F70C22E1123E1
:1056000029F0822F0E94291F802FBFCE802F0E9459
:105610006A0F8C2D0E94EE1E46CE802F32EFB316FD
:1056200009F452C03B1578F090EFB91629F1E1EF7B
:10563000BE1609F441C0112309F46AC0C11017CE87
:105640008D2D8F713EC0F3EFBF1609F442C094EF69
:10565000492EB410F0CF112309F44FC00D2D0F7156
:10566000802F0E94291F28E0029FC001112483601F
:105670008093B005802F25C01123C1F0C11013CE37
:105680002D2D2F7161E070E080E090E004C0660F86
:10569000771F881F991F2A95D2F74090D805509000
:1056A000D9056090DA057090DB05A1CF552453949D
:1056B0005C1408F4F8CDE4CF8D2D8F71112309F41B
:1056C000A9CF0E94291FEFCD8D2D8F711123C9F312
:1056D000A1CF60E070E0CB01112309F46ACF2D2D3A
:1056E0002F7161E070E080E090E004C0660F771FEA
:1056F000881F991F2A95D2F75CCF81E00E94111F65
:1057000031E03C1508F0CFCD82E00E94111FCBCDD7
:10571000CC2059F0893309F06CCE8FEF97EEE3E09F
:1057200081509040E040E1F762CE8D2D8F7172CFB5
:10573000E0E1E00FE73008F03EC0F0E0E75CF64C57
:105740000C94CA35112309F4AECD8091400591E047
:10575000892780934005A7CD10934005A4CD81E013
:105760008127F7CF11119FCD81E0F3CF11119BCD90
:105770001092400598CD112321F082E080933E05E0
:10578000F3CF80913E05823021F481E080933E0585
:105790008ACD833009F087CD10923E05E9CF1123E1
:1057A00039F080913F05882381F210923F057BCD2F
:1057B000CC2059F278CD80913F05CC20A9F08823E8
:1057C00041F08091400591E0892780934005109237
:1057D0003F05802F11114CCD0E94432386E0F70135
:1057E00011928A95E9F75FCD882309F45CCD1111F8
:1057F0005ACD8091400591E0892780934005D5CF0F
:10580000813009F069CD10923E051092400564CDBB
:1058100085E0DE01119601900D928A95E1F7F7017E
:10582000228189819A81211119C90E94F40E082FC1
:105830001DC906311C4509F071CC80913D058111CF
:105840000CCC89E20E94950E12C006312CE512079D
:1058500009F005CC8091B3058A7A91E009F490E0D3
:1058600090933D058111F7CB89E20E94C00E0E9402
:10587000500E3EC91F93CF93DF9380914605807FE2
:10588000A9F480914305882389F080917805D0910F
:1058900047056091410570914205A0914405B09182
:1058A0004505C62FC72316E0D81304C0DF91CF915A
:1058B0001F91089590E0109711F0CF3F19F40196D1
:1058C0008770F2CF189F9001199F300D1124F901B4
:1058D000E85BFA4F41814713F2CF40814613EFCF87
:1058E00042814111ECCF438154814A1B5B0B483C00
:1058F000510528F7809146058F7080618093460599
:10590000F901E35BFA4F80818F708061808381E4CD
:1059100095E00E94F624DF91CF911F910C944B0FDC
:10592000AF92BF92CF92DF92EF92FF920F931F93AD
:10593000CF93DF93CDB7DEB761970FB6F894DEBF94
:105940000FBECDBF8C0185E0F801DE011D960190F0
:105950000D928A95E1F7F80180819181E28021E43E
:10596000A22E25E0B22E6091440570914505611587
:10597000710509F43EC13091410540914205232F44
:1059800024232F3F09F435C1C380D480F090430510
:10599000F601E61BF70BFF2009F4FBC0209146053A
:1059A000522F507FE83CF10508F0BBC0511178C080
:1059B000FE2C491321C038131FC0E1101DC02F70E9
:1059C000206120934605C5010E94F624809146057A
:1059D000F80185838F2D61960FB6F894DEBF0FBE58
:1059E000CDBFDF91CF911F910F91FF90EF90DF908E
:1059F000CF90BF90AF900895CD2829F0282F29236C
:105A00002F3F09F022C120E0F22FF170DF2E20FF9E
:105A10003DC0209178054091470556E0241315C0FC
:105A20008D879E878D859E850E94C016292F229581
:105A30002F702230F8F0243020F59F70F9F0F80133
:105A40009581907FD9F4D12C1FC030E0529FF00196
:105A5000539FF00D1124E85BFA4F6181961306C045
:105A60006081861303C06281E61210C02F5F3F4F32
:105A70002770D4CF9F7011F0882329F3805E88307F
:105A800010F3C8010E94F624FD2CA4CFEE2009F4E7
:105A9000A1CF80914605816080934605F12C9ACF75
:105AA000491312C0381310C0E1100EC0F80125834D
:105AB000C8010E94F62486E0F801A1E4B5E0019057
:105AC0000D928A95E1F786CF8D879E878D859E857D
:105AD0000E94CA16882309F1EE20F9F0809146054C
:105AE000803270F0209141053091420538872F8334
:105AF0001986DB86CA868C87CE0107960E94F6241B
:105B000086E0F801A1E4B5E001900D928A95E1F7F5
:105B10000E943A2CFF24F3945DCFC8010E94F62422
:105B2000F9CF51110AC081E495E00E94F62486E085
:105B3000F50111928A95E9F7B1CF49130FC03813D7
:105B40000DC0E1100BC0F8012583C8010E94F624A6
:105B500086E0F50111928A95E9F73CCF8D879E8703
:105B60008D859E850E94CA168823B9F2EE20A9F27F
:105B700080914605803220F2209141053091420506
:105B80003A8329831B82DD82CC828E83CE010196EB
:105B9000B5CFE83CF105E0F6FE2CEE2009F4BDCFD0
:105BA000491316C0381314C08091460580FD83CF79
:105BB000982F907F09F47FCFF8018583903F09F4F7
:105BC00077CF982F907F905F8F70892B858370CFD0
:105BD0008D879E878D859E850E94CA16811190CFE4
:105BE00080914605816080934605C8010E94F62495
:105BF000F1CEEE2009F491CF8D879E878D859E850D
:105C00000E94CA16F82E882309F487CF86E0F8018F
:105C1000A1E4B5E001900D928A95E1F780914105EC
:105C2000909142050E94C01692959F70963051F453
:105C3000863F41F08091400591E08927809340059F
:105C400090933F050E943A2CC5CE21E02E25DCCE54
:105C50001F93CF93DF93CDB7DEB767970FB6F89456
:105C6000DEBF0FBECDBF6D8B7E8B8F8B8E899F89E4
:105C7000892BD9F0842F85238F3F09F098C05FEFDF
:105C80004FEF13C0309140053323E1F1E42FF0E0F2
:105C900036E0539FE00DF11D1124EE0FFF1FEC5174
:105CA000FE4F40815181822B8C931A8A198A4B8B2B
:105CB0005C8B85E0FE017396DE011D9601900D92CE
:105CC0008A95E1F786E0FE013D96DE011796019088
:105CD0000D928A95E1F7CE0107960E94902C8823B9
:105CE000A1F016E0809178059091470589134CC08A
:105CF00067960FB6F894DEBF0FBECDBFDF91CF9190
:105D00001F91089580958223CFCF86E0FE013796BC
:105D1000DE01119601900D928A95E1F78A859B85A7
:105D2000892BF9F288859F8189238F3FD1F22091B9
:105D3000470530E0C90101968770992740917805A1
:105D40004817190671F40E94541F109247051092CB
:105D5000780586E0E1E4F5E0DF011D928A95E9F738
:105D6000C0CF96E0929FD001939FB00D1124A85B05
:105D7000BA4FFE01319601900D929A95E1F780930A
:105D800047050E944B0FADCF819FC0011124885B56
:105D90009A4F0E94902C882309F4AACF809178050D
:105DA00090E0019687709927809378059BCF81E0DA
:105DB00090E0042E01C0880F0A94EAF7A52FB0E006
:105DC000A35DBA4F2C913D8931115CCF322F38231E
:105DD0005BCF8F929F92BF92CF92DF92EF92FF9212
:105DE0000F931F93CF93DF93809108019091090146
:105DF000892BA1F08091C3038F5F8093C30381112E
:105E00000DC00E946C1D90E09093090180930801E1
:105E1000892B21F40E94601A0E94501D28EC822ECA
:105E200025E0922E740100E010E097E0C92EC10E2B
:105E3000812F0E94E31D8C2D0E94E31D812F0E9463
:105E4000371EE70199917E01D12C891729F0FE01B7
:105E500031978083DD24D3948C2D0E94371EF70167
:105E60009681891709F47AC0868381E08D29082BF1
:105E70000E949A191F5F1730C1F60E94921E60910E
:105E8000C5037091C6039093C6038093C503209108
:105E9000C40330E0261B370B820F931F6BEF70E0BB
:105EA0000E94A235E82E392F182F8093C403F0905A
:105EB000C803FF2009F44FC21092C803E091BE0549
:105EC000F091BF05AF01425F5F4F20E08BEFB82E2E
:105ED0006BEF70E0A191AB3F99F0CA2ED12C8E2DC3
:105EE000932F1A17E8F18C199D09092E000CAA0BA3
:105EF000BB0B4E97A105B105C8F1DF011197BC920C
:105F0000E417F50739F72093C803011102C02111E6
:105F100024C21092C703A091BE05B091BF05909115
:105F2000C803EFEDF5E080E03191E40129914E01E5
:105F3000321751F03C913B3FD9F41C93AF014150D3
:105F40005109EA01288391E01196D5E0ED3EFD0765
:105F500059F79093C8038093C70303C280E086CFAC
:105F6000DB01AC19BD098A0F9B1FBFCF2F2DC8CFF6
:105F700081E0EACF1092150140933C0650933D0614
:105F800060933E0670933F0681E08093180117C22C
:105F900080910701181316C09091400693702091CC
:105FA000060130E081E09217130609F480E0817069
:105FB00080931701163178F4E12FF0E0E05CF64CA5
:105FC0000C94CA3581E0F3CF882349F140E060E0CA
:105FD00080E00E940E1080E022C080911501C82F41
:105FE000CC0FCC0FC80FD5E0FD2EFC0EEF2CE0E35C
:105FF000EF1510F4B0E3EB2E60914106709142066C
:10600000809143060E947F12D62EC72EB82ED0E074
:10601000CE1508F43BC081E02FE22F15E0F29091FD
:1060200015019F5F9093150181114DC182E080930E
:10603000180180911701811146C1112309F46BC128
:1060400080910A068111BBC18091C40583FDB7C14F
:106050006091D8057091D9058091DA059091DB05A2
:106060000E94EE16823009F444C108F030C1882342
:1060700009F437C1813009F439C1809116018111C9
:106080009EC140E060E00E940E1099C1FE01EF58F1
:10609000FC4F808190911601892331F02B2D4D2DDD
:1060A0006C2DCE010E9410102196B2CF8091150167
:1060B000C82FCC0FCC0FC80FA5E0FA2EFC0EDF2C9A
:1060C00030E33F1510F4F0E3DF2EC0904206B090AD
:1060D000430620914406E0E4EE2E3E2D329F312D02
:1060E0001124E32ED0E0CD1530F081E09FE29F1522
:1060F00008F095CF70CFFE01EF58FC4F8081909152
:1061000016018923B9F0FE01EE0FFF1FEE5EFC4F72
:10611000808182958F70609141068E9D600D112463
:106120007C2D8B2D0E947F12462F282F672FCE01AA
:106130000E9410102196D7CF80911501C82FCC0F47
:10614000CC0FC80F65E0F62EFC0EDF2CD0E3DF1578
:1061500010F450E3D52EC0904206B0904306209133
:10616000440640E4E42E3E2D329F312D1124E32ECF
:10617000D0E0CD1508F0B9CFFE01EF58FC4F80817B
:10618000909116018923D9F0FE01EE0FFF1FEF5EFB
:10619000FC4F6081E69EB001112435E0759567954E
:1061A0003A95E1F780914106680F7C2D8B2D0E9476
:1061B0007F12462F282F672FCE010E9410102196A4
:1061C000D8CF80911501C82FCC0FCC0FC80F95E008
:1061D000F92EFC0EEF2CD0E3DF1510F480E3E82E4F
:1061E000D0904106D0914206C0904306609144068B
:1061F00066956695669580913C0690913D060E9455
:1062000075120E94FE11805887FD8195880F282FF6
:106210003C2D239F212D1124822F6D2D7D2F0E9437
:106220007F12D62EC72EB82ED0E0CE1508F05DCF47
:10623000FE01EF58FC4F808190911601892331F0C7
:106240002B2D4D2D6C2DCE010E9410102196EDCFDF
:1062500089E091E10E944E14E2CE8FED90E1FACFF9
:1062600080EE91E10E94F213DACE81EC91E1FACF57
:1062700086EA91E10E947513D2CE8AE891E1FACFC5
:106280008DED90E1E7CF84ED90E1E4CF8BEC90E1F0
:10629000E1CF82EB90E1DECF84EA90E1EBCF8DE4B9
:1062A00092E1E0CF89E791E1DDCF85E691E1E2CFB0
:1062B00087E790E10E941313B2CE89E490E1FACF10
:1062C00082E190E1F7CF112309F479C0B9CE8E3085
:1062D00099F08F30A1F0833009F0CFCE83E090E0C9
:1062E00002C090E080E00E94E51769C081E090E084
:1062F000FACF82E090E0F7CF8EE090E0F4CF8FE02D
:1063000090E0F1CF10930701809140068370809355
:1063100006010E94571B83E038CE40913C06509105
:106320003D0660913E0670913F062FB7F89480912C
:10633000B9059091BA05A091BB05B091BC052FBFDE
:10634000841B950BA60BB70B4A97A105B105B8F1B5
:106350001092180134C00111DCCD8091C703811166
:10636000D8CD8FB7F8944091B9055091BA05609196
:10637000BB057091BC058FBF4093C9035093CA03FE
:106380006093CB037093CC0380910A0610E08111D7
:1063900008C080914006182F137019F0182F169519
:1063A000169580911801813009F4F2CD882309F403
:1063B000E1CD823009F4A6CF833009F4AECF802F2F
:1063C000DF91CF911F910F91FF90EF90DF90CF90D1
:1063D000BF909F908F900895CDB7DEB760970FB6AE
:1063E000F894DEBF0FBECDBF84B7877F84BF0FB6E2
:1063F000F894A89580916000886180936000109265
:1064000060000FBE80E890E00FB6F89480936100C2
:10641000909361000FBE85B7806885BF85B780689F
:1064200085BF0E947D0B0E94480C8091E200846031
:106430008093E200789480912F068823A1F0109138
:10644000E9001F709091EC00892F817090FD80E829
:10645000182B1092E9008091E80083FD0E94691FCB
:106460001F701093E90082E084BD93E095BD9AEF20
:1064700097BD80936E000E946C1D90E0909309017F
:10648000809308010E949A190E94A919E8ECF5E08E
:1064900086ED95E0AFEDB5E011921D928E179F0746
:1064A000D9F78EE090E00E94C4378093BE059093A8
:1064B000BF05FC010E962BEF21938E179F07E1F786
:1064C00090E080E00E94EE358C3E9E4F11F00E94DD
:1064D000B71A0E94501D8CE090E00E94E03590E0D9
:1064E000B0E0A0E08093C0059093C105A093C205E1
:1064F000B093C30589EA8093800089E0809381008E
:1065000024982C983F988AB18F7C8AB96E98479AC4
:106510008BB180638BB9769A8FE090E00E94E8356A
:106520006093C4057093C5058093C6059093C70515
:1065300067708FEF869FB0011124759567957595EB
:1065400067957727709389006093880070938B001C
:1065500060938A0070938D0060938C009091C405C5
:1065600094FF59C1809316010E94601A90E080E068
:106570000E94EE358C3E9E4F11F00E94B71A82E0C9
:1065800090E00E94E0358093FA050E94B61990933E
:10659000D7058093D60583E090E00E94E035682F10
:1065A00070E090E080E00E944A1FC090D805D09033
:1065B000D905E090DA05F090DB05C701B6010E942D
:1065C0005C190E940110C701B6010E945C190E946B
:1065D00001100E94AB1C8AE091E09093DD0580934E
:1065E000DC05BB24B394AA24AA948DEEE82E85E0A2
:1065F000F82E90E1992E22E1822E38E1C32ED12C83
:1066000040E4742E80912F06853009F407C10E9462
:10661000E92EEBEFF5E0AFEDB5E010E000E0302F54
:106620008D919191981709F448C1292F282790E05E
:1066300066246394462D422309F43AC19F83388728
:10664000862191E009F490E099870E94921E816072
:10665000782F9B878A874F81588569858B850E9413
:10666000282EF801E550FA4F80816826608286E086
:10667000E3EFF5E0DE01119601900D928A95E1F7C6
:106680006090F5055090F6051091F7050091F8051A
:106690001092F5051092F6051092F7051092F80584
:1066A000862D852909F448C08091F1059091F20565
